{
  "abi": [
    {
      "inputs": [
        {
          "internalType": "address",
          "name": "multisig",
          "type": "address"
        }
      ],
      "stateMutability": "nonpayable",
      "type": "constructor"
    },
    {
      "anonymous": false,
      "inputs": [
        {
          "indexed": true,
          "internalType": "bytes32",
          "name": "role",
          "type": "bytes32"
        },
        {
          "indexed": true,
          "internalType": "bytes32",
          "name": "previousAdminRole",
          "type": "bytes32"
        },
        {
          "indexed": true,
          "internalType": "bytes32",
          "name": "newAdminRole",
          "type": "bytes32"
        }
      ],
      "name": "RoleAdminChanged",
      "type": "event"
    },
    {
      "anonymous": false,
      "inputs": [
        {
          "indexed": true,
          "internalType": "bytes32",
          "name": "role",
          "type": "bytes32"
        },
        {
          "indexed": true,
          "internalType": "address",
          "name": "account",
          "type": "address"
        },
        {
          "indexed": true,
          "internalType": "address",
          "name": "sender",
          "type": "address"
        }
      ],
      "name": "RoleGranted",
      "type": "event"
    },
    {
      "anonymous": false,
      "inputs": [
        {
          "indexed": true,
          "internalType": "bytes32",
          "name": "role",
          "type": "bytes32"
        },
        {
          "indexed": true,
          "internalType": "address",
          "name": "account",
          "type": "address"
        },
        {
          "indexed": true,
          "internalType": "address",
          "name": "sender",
          "type": "address"
        }
      ],
      "name": "RoleRevoked",
      "type": "event"
    },
    {
      "inputs": [],
      "name": "BLACKLIST",
      "outputs": [
        {
          "internalType": "uint16",
          "name": "",
          "type": "uint16"
        }
      ],
      "stateMutability": "view",
      "type": "function"
    },
    {
      "inputs": [],
      "name": "DEFAULT_ADMIN_ROLE",
      "outputs": [
        {
          "internalType": "bytes32",
          "name": "",
          "type": "bytes32"
        }
      ],
      "stateMutability": "view",
      "type": "function"
    },
    {
      "inputs": [],
      "name": "DEV",
      "outputs": [
        {
          "internalType": "bytes32",
          "name": "",
          "type": "bytes32"
        }
      ],
      "stateMutability": "view",
      "type": "function"
    },
    {
      "inputs": [],
      "name": "KONKRETE",
      "outputs": [
        {
          "internalType": "bytes32",
          "name": "",
          "type": "bytes32"
        }
      ],
      "stateMutability": "view",
      "type": "function"
    },
    {
      "inputs": [],
      "name": "SIGNER",
      "outputs": [
        {
          "internalType": "bytes32",
          "name": "",
          "type": "bytes32"
        }
      ],
      "stateMutability": "view",
      "type": "function"
    },
    {
      "inputs": [
        {
          "internalType": "address",
          "name": "toKyc",
          "type": "address"
        },
        {
          "internalType": "uint16",
          "name": "countryCode_",
          "type": "uint16"
        }
      ],
      "name": "addKyc",
      "outputs": [],
      "stateMutability": "nonpayable",
      "type": "function"
    },
    {
      "inputs": [
        {
          "internalType": "address",
          "name": "toKyc",
          "type": "address"
        },
        {
          "internalType": "uint16",
          "name": "countryCode_",
          "type": "uint16"
        },
        {
          "internalType": "uint64",
          "name": "deadline",
          "type": "uint64"
        },
        {
          "internalType": "bytes32",
          "name": "r",
          "type": "bytes32"
        },
        {
          "internalType": "bytes32",
          "name": "s",
          "type": "bytes32"
        },
        {
          "internalType": "uint8",
          "name": "v",
          "type": "uint8"
        }
      ],
      "name": "addKycPermit",
      "outputs": [],
      "stateMutability": "nonpayable",
      "type": "function"
    },
    {
      "inputs": [
        {
          "internalType": "address[]",
          "name": "toKyc",
          "type": "address[]"
        },
        {
          "internalType": "uint16[]",
          "name": "countryCodes",
          "type": "uint16[]"
        }
      ],
      "name": "addKycs",
      "outputs": [],
      "stateMutability": "nonpayable",
      "type": "function"
    },
    {
      "inputs": [
        {
          "internalType": "address",
          "name": "toWhitelist",
          "type": "address"
        }
      ],
      "name": "addWhitelist",
      "outputs": [],
      "stateMutability": "nonpayable",
      "type": "function"
    },
    {
      "inputs": [
        {
          "internalType": "address",
          "name": "toWhitelist",
          "type": "address"
        },
        {
          "internalType": "uint64",
          "name": "deadline",
          "type": "uint64"
        },
        {
          "internalType": "bytes32",
          "name": "r",
          "type": "bytes32"
        },
        {
          "internalType": "bytes32",
          "name": "s",
          "type": "bytes32"
        },
        {
          "internalType": "uint8",
          "name": "v",
          "type": "uint8"
        }
      ],
      "name": "addWhitelistPermit",
      "outputs": [],
      "stateMutability": "nonpayable",
      "type": "function"
    },
    {
      "inputs": [
        {
          "internalType": "address[]",
          "name": "toWhitelist",
          "type": "address[]"
        }
      ],
      "name": "addWhitelists",
      "outputs": [],
      "stateMutability": "nonpayable",
      "type": "function"
    },
    {
      "inputs": [
        {
          "internalType": "address",
          "name": "toBlackList",
          "type": "address"
        }
      ],
      "name": "blackList",
      "outputs": [],
      "stateMutability": "nonpayable",
      "type": "function"
    },
    {
      "inputs": [
        {
          "internalType": "address",
          "name": "toCheck",
          "type": "address"
        }
      ],
      "name": "canBuy",
      "outputs": [
        {
          "internalType": "bool",
          "name": "",
          "type": "bool"
        }
      ],
      "stateMutability": "view",
      "type": "function"
    },
    {
      "inputs": [
        {
          "internalType": "uint256",
          "name": "",
          "type": "uint256"
        }
      ],
      "name": "cannotBuy",
      "outputs": [
        {
          "internalType": "bool",
          "name": "",
          "type": "bool"
        }
      ],
      "stateMutability": "view",
      "type": "function"
    },
    {
      "inputs": [
        {
          "internalType": "uint16",
          "name": "toChange",
          "type": "uint16"
        },
        {
          "internalType": "bool",
          "name": "canBuy_",
          "type": "bool"
        }
      ],
      "name": "changeCountryAuthorisation",
      "outputs": [],
      "stateMutability": "nonpayable",
      "type": "function"
    },
    {
      "inputs": [
        {
          "internalType": "address",
          "name": "customer",
          "type": "address"
        },
        {
          "internalType": "uint16",
          "name": "countryCode_",
          "type": "uint16"
        }
      ],
      "name": "changeCountryCode",
      "outputs": [],
      "stateMutability": "nonpayable",
      "type": "function"
    },
    {
      "inputs": [
        {
          "internalType": "address",
          "name": "",
          "type": "address"
        }
      ],
      "name": "countryCode",
      "outputs": [
        {
          "internalType": "uint16",
          "name": "",
          "type": "uint16"
        }
      ],
      "stateMutability": "view",
      "type": "function"
    },
    {
      "inputs": [
        {
          "internalType": "bytes32",
          "name": "role",
          "type": "bytes32"
        }
      ],
      "name": "getRoleAdmin",
      "outputs": [
        {
          "internalType": "bytes32",
          "name": "",
          "type": "bytes32"
        }
      ],
      "stateMutability": "view",
      "type": "function"
    },
    {
      "inputs": [
        {
          "internalType": "bytes32",
          "name": "role",
          "type": "bytes32"
        },
        {
          "internalType": "address",
          "name": "account",
          "type": "address"
        }
      ],
      "name": "grantRole",
      "outputs": [],
      "stateMutability": "nonpayable",
      "type": "function"
    },
    {
      "inputs": [
        {
          "internalType": "bytes32",
          "name": "role",
          "type": "bytes32"
        },
        {
          "internalType": "address",
          "name": "account",
          "type": "address"
        }
      ],
      "name": "hasRole",
      "outputs": [
        {
          "internalType": "bool",
          "name": "",
          "type": "bool"
        }
      ],
      "stateMutability": "view",
      "type": "function"
    },
    {
      "inputs": [],
      "name": "isDatabase",
      "outputs": [
        {
          "internalType": "bool",
          "name": "",
          "type": "bool"
        }
      ],
      "stateMutability": "pure",
      "type": "function"
    },
    {
      "inputs": [
        {
          "internalType": "address",
          "name": "toCheck",
          "type": "address"
        }
      ],
      "name": "isKyced",
      "outputs": [
        {
          "internalType": "bool",
          "name": "",
          "type": "bool"
        }
      ],
      "stateMutability": "view",
      "type": "function"
    },
    {
      "inputs": [
        {
          "internalType": "address",
          "name": "",
          "type": "address"
        }
      ],
      "name": "isWhitelisted",
      "outputs": [
        {
          "internalType": "bool",
          "name": "",
          "type": "bool"
        }
      ],
      "stateMutability": "view",
      "type": "function"
    },
    {
      "inputs": [
        {
          "internalType": "address",
          "name": "",
          "type": "address"
        }
      ],
      "name": "nonce",
      "outputs": [
        {
          "internalType": "uint256",
          "name": "",
          "type": "uint256"
        }
      ],
      "stateMutability": "view",
      "type": "function"
    },
    {
      "inputs": [
        {
          "internalType": "bytes32",
          "name": "role",
          "type": "bytes32"
        },
        {
          "internalType": "address",
          "name": "account",
          "type": "address"
        }
      ],
      "name": "renounceRole",
      "outputs": [],
      "stateMutability": "nonpayable",
      "type": "function"
    },
    {
      "inputs": [
        {
          "internalType": "address",
          "name": "toUnKyc",
          "type": "address"
        }
      ],
      "name": "revokeKyc",
      "outputs": [],
      "stateMutability": "nonpayable",
      "type": "function"
    },
    {
      "inputs": [
        {
          "internalType": "bytes32",
          "name": "role",
          "type": "bytes32"
        },
        {
          "internalType": "address",
          "name": "account",
          "type": "address"
        }
      ],
      "name": "revokeRole",
      "outputs": [],
      "stateMutability": "nonpayable",
      "type": "function"
    },
    {
      "inputs": [
        {
          "internalType": "address",
          "name": "toUnWhitelist",
          "type": "address"
        }
      ],
      "name": "revokeWhitelist",
      "outputs": [],
      "stateMutability": "nonpayable",
      "type": "function"
    },
    {
      "inputs": [
        {
          "internalType": "bytes4",
          "name": "interfaceId",
          "type": "bytes4"
        }
      ],
      "name": "supportsInterface",
      "outputs": [
        {
          "internalType": "bool",
          "name": "",
          "type": "bool"
        }
      ],
      "stateMutability": "view",
      "type": "function"
    }
  ],
  "bytecode": {
    "object": "0x60806040523480156200001157600080fd5b5060405162001a7238038062001a728339810160408190526200003491620001f0565b6200004160008262000104565b6200005c60008051602062001a528339815191523362000104565b620000977f2aeb38be3df14d720aeb10a2de6df09b0fb3cd5c5ec256283a22d4593110ca4060008051602062001a52833981519152620001a5565b5060036020527f3617319a054d772f909f7c479a2cebe5066e836a939412e32403c99029b92eff8054600160ff19918216811790925561ffff6000527f42a9632963fc5c915f359e318b0897675834677ee58eaebec7db072655a2163a8054909116909117905562000222565b6000828152602081815260408083206001600160a01b038516845290915290205460ff16620001a1576000828152602081815260408083206001600160a01b03851684529091529020805460ff19166001179055620001603390565b6001600160a01b0316816001600160a01b0316837f2f8788117e7eff1d82e926ec794901d17c78024a50270940304540a733656f0d60405160405180910390a45b5050565b600082815260208190526040808220600101805490849055905190918391839186917fbd79b86ffe0ab8e8776151514217cd7cacd52c909f66475c3af44e129f0b00ff9190a4505050565b6000602082840312156200020357600080fd5b81516001600160a01b03811681146200021b57600080fd5b9392505050565b61182080620002326000396000f3fe608060405234801561001057600080fd5b50600436106101ce5760003560e01c806370ae92d211610104578063c8b0cf68116100a2578063efc03f9511610071578063efc03f951461042c578063f017475c1461043f578063f80f5dd514610452578063fe60d26b1461046557600080fd5b8063c8b0cf68146103fd578063c8eaf28f14610406578063d547741f14610419578063e35d33f6146103cd57600080fd5b80639c7f3315116100de5780639c7f3315146103ba578063a217fddf146103cd578063b8c48f2b146103d5578063c1eb5ddd146103e857600080fd5b806370ae92d2146103745780638b6b68e21461039457806391d14854146103a757600080fd5b806336568abe1161017157806351b799511161014b57806351b79951146102e6578063582abd121461031557806365842ac21461032a57806369f3bd0e1461033d57600080fd5b806336568abe1461029d5780633af32abf146102b05780634838d165146102d357600080fd5b806312283191116101ad57806312283191146102315780631376f1c314610246578063248a9ca3146102595780632f2ff15d1461028a57600080fd5b806276d6a5146101d357806301ffc9a71461020b5780630808f3eb1461021e575b600080fd5b6101f66101e1366004611313565b60036020526000908152604090205460ff1681565b60405190151581526020015b60405180910390f35b6101f661021936600461132c565b61046c565b6101f661022c366004611372565b6104a3565b61024461023f366004611372565b6104f7565b005b6102446102543660046113d9565b610595565b61027c610267366004611313565b60009081526020819052604090206001015490565b604051908152602001610202565b610244610298366004611445565b6106aa565b6102446102ab366004611445565b6106d4565b6101f66102be366004611372565b60046020526000908152604090205460ff1681565b6102446102e1366004611372565b610752565b6101f66102f4366004611372565b6001600160a01b031660009081526001602052604090205461ffff16151590565b61027c6000805160206117ab83398151915281565b61024461033836600461149a565b610791565b61036161034b366004611372565b60016020526000908152604090205461ffff1681565b60405161ffff9091168152602001610202565b61027c610382366004611372565b60026020526000908152604090205481565b6102446103a2366004611503565b610915565b6101f66103b5366004611445565b610991565b6102446103c8366004611372565b6109ba565b61027c600081565b6102446103e336600461152d565b6109f4565b61027c6000805160206117cb83398151915281565b61036161ffff81565b610244610414366004611569565b610a31565b610244610427366004611445565b610ace565b61024461043a3660046115ab565b610af3565b61024461044d366004611503565b610c62565b610244610460366004611372565b610d65565b60016101f6565b60006001600160e01b03198216637965db0b60e01b148061049d57506301ffc9a760e01b6001600160e01b03198316145b92915050565b6001600160a01b03811660009081526001602090815260408083205461ffff168352600390915281205460ff1615801561049d5750506001600160a01b031660009081526004602052604090205460ff1690565b61050f6000805160206117cb83398151915233610991565b8061052257506001600160a01b03811633145b6105735760405162461bcd60e51b815260206004820152601a60248201527f5265766f6b65204b79633a204e6f7420417574686f72697a656400000000000060448201526064015b60405180910390fd5b6001600160a01b03166000908152600160205260409020805461ffff19169055565b6000805160206117cb8339815191526105ad81610d86565b83806105e95760405162461bcd60e51b815260206004820152600b60248201526a456d70747920617272617960a81b604482015260640161056a565b8083146106385760405162461bcd60e51b815260206004820152601b60248201527f417272617973206c656e67746820646f65736e2774206d617463680000000000604482015260640161056a565b60005b818110156106a15761069987878381811061065857610658611611565b905060200201602081019061066d9190611372565b86868481811061067f5761067f611611565b90506020020160208101906106949190611627565b610d93565b60010161063b565b50505050505050565b6000828152602081905260409020600101546106c581610d86565b6106cf8383610dc2565b505050565b6001600160a01b03811633146107445760405162461bcd60e51b815260206004820152602f60248201527f416363657373436f6e74726f6c3a2063616e206f6e6c792072656e6f756e636560448201526e103937b632b9903337b91039b2b63360891b606482015260840161056a565b61074e8282610e46565b5050565b6000805160206117cb83398151915261076a81610d86565b506001600160a01b03166000908152600160205260409020805461ffff191661ffff179055565b8367ffffffffffffffff1642106107e25760405162461bcd60e51b815260206004820152601560248201527414da59db985d1d5c99481a185cc8195e1c1a5c9959605a1b604482015260640161056a565b6040516bffffffffffffffffffffffff19606087811b821660208401526001600160c01b031960c088901b16603484015230901b16603c82015246605082015260009061088d906070015b60408051601f1981840301815282825280516020918201207f19457468657265756d205369676e6564204d6573736167653a0a33320000000084830152603c8085019190915282518085039091018152605c909301909152815191012090565b90506108ad6000805160206117ab8339815191526103b583858888610eab565b6108ea5760405162461bcd60e51b815260206004820152600e60248201526d24b73b30b634b21039b4b3b732b960911b604482015260640161056a565b5050506001600160a01b039092166000908152600460205260409020805460ff191660011790555050565b6000805160206117ab83398151915261092d81610d86565b6001600160a01b03831660009081526001602052604090205461ffff16156109875760405162461bcd60e51b815260206004820152600d60248201526c105b1c9958591e481ade58d959609a1b604482015260640161056a565b6106cf8383610d93565b6000918252602082815260408084206001600160a01b0393909316845291905290205460ff1690565b6000805160206117cb8339815191526109d281610d86565b506001600160a01b03166000908152600460205260409020805460ff19169055565b6000805160206117cb833981519152610a0c81610d86565b5061ffff9091166000908152600360205260409020805460ff19169115919091179055565b6000805160206117cb833981519152610a4981610d86565b8180610a855760405162461bcd60e51b815260206004820152600b60248201526a456d70747920617272617960a81b604482015260640161056a565b60005b81811015610ac757610abf858583818110610aa557610aa5611611565b9050602002016020810190610aba9190611372565b610ed3565b600101610a88565b5050505050565b600082815260208190526040902060010154610ae981610d86565b6106cf8383610e46565b8367ffffffffffffffff164210610b445760405162461bcd60e51b815260206004820152601560248201527414da59db985d1d5c99481a185cc8195e1c1a5c9959605a1b604482015260640161056a565b6001600160a01b03861660009081526002602090815260408083205490516bffffffffffffffffffffffff1960608b811b8216948301949094526001600160f01b031960f08b901b1660348301526001600160c01b031960c08a901b1660368301523090931b909216603e830152605282018190524660728301529190610bcd9060920161082d565b9050610bed6000805160206117ab8339815191526103b583868989610eab565b610c2a5760405162461bcd60e51b815260206004820152600e60248201526d24b73b30b634b21039b4b3b732b960911b604482015260640161056a565b610c35826001611658565b6001600160a01b038916600090815260026020526040902055610c588888610d93565b5050505050505050565b6000805160206117cb833981519152610c7a81610d86565b6001600160a01b03831660009081526001602052604090205461ffff16610cd95760405162461bcd60e51b81526020600482015260136024820152724e6f742061204b79636564206164647265737360681b604482015260640161056a565b6001600160a01b03831660009081526001602052604090205461ffff1661fffe1901610d355760405162461bcd60e51b815260206004820152600b60248201526a109b1858dad31a5cdd195960aa1b604482015260640161056a565b506001600160a01b03919091166000908152600160205260409020805461ffff191661ffff909216919091179055565b6000805160206117ab833981519152610d7d81610d86565b61074e82610ed3565b610d908133610ef7565b50565b6001600160a01b03919091166000908152600160205260409020805461ffff191661ffff909216919091179055565b610dcc8282610991565b61074e576000828152602081815260408083206001600160a01b03851684529091529020805460ff19166001179055610e023390565b6001600160a01b0316816001600160a01b0316837f2f8788117e7eff1d82e926ec794901d17c78024a50270940304540a733656f0d60405160405180910390a45050565b610e508282610991565b1561074e576000828152602081815260408083206001600160a01b0385168085529252808320805460ff1916905551339285917ff6391f5c32d9c69d2a47ea670b442974b53935d1edc7fd64eb21e047a839171b9190a45050565b6000806000610ebc87878787610f50565b91509150610ec981611014565b5095945050505050565b6001600160a01b03166000908152600460205260409020805460ff19166001179055565b610f018282610991565b61074e57610f0e8161115e565b610f19836020611170565b604051602001610f2a9291906116a0565b60408051601f198184030181529082905262461bcd60e51b825261056a91600401611715565b6000807f7fffffffffffffffffffffffffffffff5d576e7357a4501ddfe92f46681b20a0831115610f87575060009050600361100b565b6040805160008082526020820180845289905260ff881692820192909252606081018690526080810185905260019060a0016020604051602081039080840390855afa158015610fdb573d6000803e3d6000fd5b5050604051601f1901519150506001600160a01b0381166110045760006001925092505061100b565b9150600090505b94509492505050565b600081600481111561102857611028611748565b036110305750565b600181600481111561104457611044611748565b036110915760405162461bcd60e51b815260206004820152601860248201527f45434453413a20696e76616c6964207369676e61747572650000000000000000604482015260640161056a565b60028160048111156110a5576110a5611748565b036110f25760405162461bcd60e51b815260206004820152601f60248201527f45434453413a20696e76616c6964207369676e6174757265206c656e67746800604482015260640161056a565b600381600481111561110657611106611748565b03610d905760405162461bcd60e51b815260206004820152602260248201527f45434453413a20696e76616c6964207369676e6174757265202773272076616c604482015261756560f01b606482015260840161056a565b606061049d6001600160a01b03831660145b6060600061117f83600261175e565b61118a906002611658565b67ffffffffffffffff8111156111a2576111a261177d565b6040519080825280601f01601f1916602001820160405280156111cc576020820181803683370190505b509050600360fc1b816000815181106111e7576111e7611611565b60200101906001600160f81b031916908160001a905350600f60fb1b8160018151811061121657611216611611565b60200101906001600160f81b031916908160001a905350600061123a84600261175e565b611245906001611658565b90505b60018111156112bd576f181899199a1a9b1b9c1cb0b131b232b360811b85600f166010811061127957611279611611565b1a60f81b82828151811061128f5761128f611611565b60200101906001600160f81b031916908160001a90535060049490941c936112b681611793565b9050611248565b50831561130c5760405162461bcd60e51b815260206004820181905260248201527f537472696e67733a20686578206c656e67746820696e73756666696369656e74604482015260640161056a565b9392505050565b60006020828403121561132557600080fd5b5035919050565b60006020828403121561133e57600080fd5b81356001600160e01b03198116811461130c57600080fd5b80356001600160a01b038116811461136d57600080fd5b919050565b60006020828403121561138457600080fd5b61130c82611356565b60008083601f84011261139f57600080fd5b50813567ffffffffffffffff8111156113b757600080fd5b6020830191508360208260051b85010111156113d257600080fd5b9250929050565b600080600080604085870312156113ef57600080fd5b843567ffffffffffffffff8082111561140757600080fd5b6114138883890161138d565b9096509450602087013591508082111561142c57600080fd5b506114398782880161138d565b95989497509550505050565b6000806040838503121561145857600080fd5b8235915061146860208401611356565b90509250929050565b803567ffffffffffffffff8116811461136d57600080fd5b803560ff8116811461136d57600080fd5b600080600080600060a086880312156114b257600080fd5b6114bb86611356565b94506114c960208701611471565b935060408601359250606086013591506114e560808701611489565b90509295509295909350565b803561ffff8116811461136d57600080fd5b6000806040838503121561151657600080fd5b61151f83611356565b9150611468602084016114f1565b6000806040838503121561154057600080fd5b611549836114f1565b91506020830135801515811461155e57600080fd5b809150509250929050565b6000806020838503121561157c57600080fd5b823567ffffffffffffffff81111561159357600080fd5b61159f8582860161138d565b90969095509350505050565b60008060008060008060c087890312156115c457600080fd5b6115cd87611356565b95506115db602088016114f1565b94506115e960408801611471565b9350606087013592506080870135915061160560a08801611489565b90509295509295509295565b634e487b7160e01b600052603260045260246000fd5b60006020828403121561163957600080fd5b61130c826114f1565b634e487b7160e01b600052601160045260246000fd5b6000821982111561166b5761166b611642565b500190565b60005b8381101561168b578181015183820152602001611673565b8381111561169a576000848401525b50505050565b7f416363657373436f6e74726f6c3a206163636f756e74200000000000000000008152600083516116d8816017850160208801611670565b7001034b99036b4b9b9b4b733903937b6329607d1b6017918401918201528351611709816028840160208801611670565b01602801949350505050565b6020815260008251806020840152611734816040850160208701611670565b601f01601f19169190910160400192915050565b634e487b7160e01b600052602160045260246000fd5b600081600019048311821515161561177857611778611642565b500290565b634e487b7160e01b600052604160045260246000fd5b6000816117a2576117a2611642565b50600019019056fe2aeb38be3df14d720aeb10a2de6df09b0fb3cd5c5ec256283a22d4593110ca40b1e380c01db319c0153ea3bb4fbd0ab6639cc088e3bf8cd5319b128f33a2f9e8a26469706673582212206fe5144c1304a0b06afcc51e604d0c9596045c8f412ad49a9fd49fa1eb503a0e64736f6c634300080e0033b1e380c01db319c0153ea3bb4fbd0ab6639cc088e3bf8cd5319b128f33a2f9e8",
    "linkReferences": {}
  },
  "methodIdentifiers": {
    "BLACKLIST()": "c8b0cf68",
    "DEFAULT_ADMIN_ROLE()": "a217fddf",
    "DEV()": "c1eb5ddd",
    "KONKRETE()": "e35d33f6",
    "SIGNER()": "582abd12",
    "addKyc(address,uint16)": "8b6b68e2",
    "addKycPermit(address,uint16,uint64,bytes32,bytes32,uint8)": "efc03f95",
    "addKycs(address[],uint16[])": "1376f1c3",
    "addWhitelist(address)": "f80f5dd5",
    "addWhitelistPermit(address,uint64,bytes32,bytes32,uint8)": "65842ac2",
    "addWhitelists(address[])": "c8eaf28f",
    "blackList(address)": "4838d165",
    "canBuy(address)": "0808f3eb",
    "cannotBuy(uint256)": "0076d6a5",
    "changeCountryAuthorisation(uint16,bool)": "b8c48f2b",
    "changeCountryCode(address,uint16)": "f017475c",
    "countryCode(address)": "69f3bd0e",
    "getRoleAdmin(bytes32)": "248a9ca3",
    "grantRole(bytes32,address)": "2f2ff15d",
    "hasRole(bytes32,address)": "91d14854",
    "isDatabase()": "fe60d26b",
    "isKyced(address)": "51b79951",
    "isWhitelisted(address)": "3af32abf",
    "nonce(address)": "70ae92d2",
    "renounceRole(bytes32,address)": "36568abe",
    "revokeKyc(address)": "12283191",
    "revokeRole(bytes32,address)": "d547741f",
    "revokeWhitelist(address)": "9c7f3315",
    "supportsInterface(bytes4)": "01ffc9a7"
  },
  "id": 1
}