{
  "abi": [
    {
      "inputs": [
        {
          "internalType": "address",
          "name": "multisig",
          "type": "address"
        },
        {
          "internalType": "address[]",
          "name": "signers",
          "type": "address[]"
        }
      ],
      "stateMutability": "nonpayable",
      "type": "constructor"
    },
    {
      "anonymous": false,
      "inputs": [
        {
          "indexed": true,
          "internalType": "bytes32",
          "name": "role",
          "type": "bytes32"
        },
        {
          "indexed": true,
          "internalType": "bytes32",
          "name": "previousAdminRole",
          "type": "bytes32"
        },
        {
          "indexed": true,
          "internalType": "bytes32",
          "name": "newAdminRole",
          "type": "bytes32"
        }
      ],
      "name": "RoleAdminChanged",
      "type": "event"
    },
    {
      "anonymous": false,
      "inputs": [
        {
          "indexed": true,
          "internalType": "bytes32",
          "name": "role",
          "type": "bytes32"
        },
        {
          "indexed": true,
          "internalType": "address",
          "name": "account",
          "type": "address"
        },
        {
          "indexed": true,
          "internalType": "address",
          "name": "sender",
          "type": "address"
        }
      ],
      "name": "RoleGranted",
      "type": "event"
    },
    {
      "anonymous": false,
      "inputs": [
        {
          "indexed": true,
          "internalType": "bytes32",
          "name": "role",
          "type": "bytes32"
        },
        {
          "indexed": true,
          "internalType": "address",
          "name": "account",
          "type": "address"
        },
        {
          "indexed": true,
          "internalType": "address",
          "name": "sender",
          "type": "address"
        }
      ],
      "name": "RoleRevoked",
      "type": "event"
    },
    {
      "inputs": [],
      "name": "BLACKLIST",
      "outputs": [
        {
          "internalType": "uint16",
          "name": "",
          "type": "uint16"
        }
      ],
      "stateMutability": "view",
      "type": "function"
    },
    {
      "inputs": [],
      "name": "DEFAULT_ADMIN_ROLE",
      "outputs": [
        {
          "internalType": "bytes32",
          "name": "",
          "type": "bytes32"
        }
      ],
      "stateMutability": "view",
      "type": "function"
    },
    {
      "inputs": [],
      "name": "DEV",
      "outputs": [
        {
          "internalType": "bytes32",
          "name": "",
          "type": "bytes32"
        }
      ],
      "stateMutability": "view",
      "type": "function"
    },
    {
      "inputs": [],
      "name": "KONKRETE",
      "outputs": [
        {
          "internalType": "bytes32",
          "name": "",
          "type": "bytes32"
        }
      ],
      "stateMutability": "view",
      "type": "function"
    },
    {
      "inputs": [],
      "name": "SIGNER",
      "outputs": [
        {
          "internalType": "bytes32",
          "name": "",
          "type": "bytes32"
        }
      ],
      "stateMutability": "view",
      "type": "function"
    },
    {
      "inputs": [],
      "name": "activateWhitelist",
      "outputs": [],
      "stateMutability": "nonpayable",
      "type": "function"
    },
    {
      "inputs": [
        {
          "internalType": "address",
          "name": "toKyc",
          "type": "address"
        },
        {
          "internalType": "uint16",
          "name": "countryCode_",
          "type": "uint16"
        }
      ],
      "name": "addKyc",
      "outputs": [],
      "stateMutability": "nonpayable",
      "type": "function"
    },
    {
      "inputs": [
        {
          "internalType": "address",
          "name": "toKyc",
          "type": "address"
        },
        {
          "internalType": "uint16",
          "name": "countryCode_",
          "type": "uint16"
        },
        {
          "internalType": "uint64",
          "name": "deadline",
          "type": "uint64"
        },
        {
          "internalType": "bytes32",
          "name": "r",
          "type": "bytes32"
        },
        {
          "internalType": "bytes32",
          "name": "s",
          "type": "bytes32"
        },
        {
          "internalType": "uint8",
          "name": "v",
          "type": "uint8"
        }
      ],
      "name": "addKycPermit",
      "outputs": [],
      "stateMutability": "nonpayable",
      "type": "function"
    },
    {
      "inputs": [
        {
          "internalType": "address[]",
          "name": "toKyc",
          "type": "address[]"
        },
        {
          "internalType": "uint16[]",
          "name": "countryCodes",
          "type": "uint16[]"
        }
      ],
      "name": "addKycs",
      "outputs": [],
      "stateMutability": "nonpayable",
      "type": "function"
    },
    {
      "inputs": [
        {
          "internalType": "address",
          "name": "toWhitelist",
          "type": "address"
        }
      ],
      "name": "addWhitelist",
      "outputs": [],
      "stateMutability": "nonpayable",
      "type": "function"
    },
    {
      "inputs": [
        {
          "internalType": "address",
          "name": "toWhitelist",
          "type": "address"
        },
        {
          "internalType": "uint64",
          "name": "deadline",
          "type": "uint64"
        },
        {
          "internalType": "bytes32",
          "name": "r",
          "type": "bytes32"
        },
        {
          "internalType": "bytes32",
          "name": "s",
          "type": "bytes32"
        },
        {
          "internalType": "uint8",
          "name": "v",
          "type": "uint8"
        }
      ],
      "name": "addWhitelistPermit",
      "outputs": [],
      "stateMutability": "nonpayable",
      "type": "function"
    },
    {
      "inputs": [
        {
          "internalType": "address[]",
          "name": "toWhitelist",
          "type": "address[]"
        }
      ],
      "name": "addWhitelists",
      "outputs": [],
      "stateMutability": "nonpayable",
      "type": "function"
    },
    {
      "inputs": [
        {
          "internalType": "address",
          "name": "toBlackList",
          "type": "address"
        }
      ],
      "name": "blackList",
      "outputs": [],
      "stateMutability": "nonpayable",
      "type": "function"
    },
    {
      "inputs": [
        {
          "internalType": "address",
          "name": "toCheck",
          "type": "address"
        }
      ],
      "name": "canBuy",
      "outputs": [
        {
          "internalType": "bool",
          "name": "",
          "type": "bool"
        }
      ],
      "stateMutability": "view",
      "type": "function"
    },
    {
      "inputs": [
        {
          "internalType": "uint256",
          "name": "",
          "type": "uint256"
        }
      ],
      "name": "cannotBuy",
      "outputs": [
        {
          "internalType": "bool",
          "name": "",
          "type": "bool"
        }
      ],
      "stateMutability": "view",
      "type": "function"
    },
    {
      "inputs": [
        {
          "internalType": "uint16",
          "name": "toChange",
          "type": "uint16"
        },
        {
          "internalType": "bool",
          "name": "canBuy_",
          "type": "bool"
        }
      ],
      "name": "changeCountryAuthorisation",
      "outputs": [],
      "stateMutability": "nonpayable",
      "type": "function"
    },
    {
      "inputs": [
        {
          "internalType": "address",
          "name": "customer",
          "type": "address"
        },
        {
          "internalType": "uint16",
          "name": "countryCode_",
          "type": "uint16"
        }
      ],
      "name": "changeCountryCode",
      "outputs": [],
      "stateMutability": "nonpayable",
      "type": "function"
    },
    {
      "inputs": [
        {
          "internalType": "address",
          "name": "",
          "type": "address"
        }
      ],
      "name": "countryCode",
      "outputs": [
        {
          "internalType": "uint16",
          "name": "",
          "type": "uint16"
        }
      ],
      "stateMutability": "view",
      "type": "function"
    },
    {
      "inputs": [],
      "name": "deactivateWhitelis",
      "outputs": [],
      "stateMutability": "nonpayable",
      "type": "function"
    },
    {
      "inputs": [
        {
          "internalType": "bytes32",
          "name": "role",
          "type": "bytes32"
        }
      ],
      "name": "getRoleAdmin",
      "outputs": [
        {
          "internalType": "bytes32",
          "name": "",
          "type": "bytes32"
        }
      ],
      "stateMutability": "view",
      "type": "function"
    },
    {
      "inputs": [
        {
          "internalType": "bytes32",
          "name": "role",
          "type": "bytes32"
        },
        {
          "internalType": "uint256",
          "name": "index",
          "type": "uint256"
        }
      ],
      "name": "getRoleMember",
      "outputs": [
        {
          "internalType": "address",
          "name": "",
          "type": "address"
        }
      ],
      "stateMutability": "view",
      "type": "function"
    },
    {
      "inputs": [
        {
          "internalType": "bytes32",
          "name": "role",
          "type": "bytes32"
        }
      ],
      "name": "getRoleMemberCount",
      "outputs": [
        {
          "internalType": "uint256",
          "name": "",
          "type": "uint256"
        }
      ],
      "stateMutability": "view",
      "type": "function"
    },
    {
      "inputs": [
        {
          "internalType": "bytes32",
          "name": "role",
          "type": "bytes32"
        },
        {
          "internalType": "address",
          "name": "account",
          "type": "address"
        }
      ],
      "name": "grantRole",
      "outputs": [],
      "stateMutability": "nonpayable",
      "type": "function"
    },
    {
      "inputs": [
        {
          "internalType": "bytes32",
          "name": "role",
          "type": "bytes32"
        },
        {
          "internalType": "address",
          "name": "account",
          "type": "address"
        }
      ],
      "name": "hasRole",
      "outputs": [
        {
          "internalType": "bool",
          "name": "",
          "type": "bool"
        }
      ],
      "stateMutability": "view",
      "type": "function"
    },
    {
      "inputs": [],
      "name": "isDatabase",
      "outputs": [
        {
          "internalType": "bool",
          "name": "",
          "type": "bool"
        }
      ],
      "stateMutability": "pure",
      "type": "function"
    },
    {
      "inputs": [
        {
          "internalType": "address",
          "name": "toCheck",
          "type": "address"
        }
      ],
      "name": "isKyced",
      "outputs": [
        {
          "internalType": "bool",
          "name": "",
          "type": "bool"
        }
      ],
      "stateMutability": "view",
      "type": "function"
    },
    {
      "inputs": [
        {
          "internalType": "address",
          "name": "",
          "type": "address"
        }
      ],
      "name": "isWhitelisted",
      "outputs": [
        {
          "internalType": "bool",
          "name": "",
          "type": "bool"
        }
      ],
      "stateMutability": "view",
      "type": "function"
    },
    {
      "inputs": [
        {
          "internalType": "address",
          "name": "",
          "type": "address"
        }
      ],
      "name": "nonce",
      "outputs": [
        {
          "internalType": "uint256",
          "name": "",
          "type": "uint256"
        }
      ],
      "stateMutability": "view",
      "type": "function"
    },
    {
      "inputs": [
        {
          "internalType": "bytes32",
          "name": "role",
          "type": "bytes32"
        },
        {
          "internalType": "address",
          "name": "account",
          "type": "address"
        }
      ],
      "name": "renounceRole",
      "outputs": [],
      "stateMutability": "nonpayable",
      "type": "function"
    },
    {
      "inputs": [
        {
          "internalType": "address",
          "name": "toUnKyc",
          "type": "address"
        }
      ],
      "name": "revokeKyc",
      "outputs": [],
      "stateMutability": "nonpayable",
      "type": "function"
    },
    {
      "inputs": [
        {
          "internalType": "bytes32",
          "name": "role",
          "type": "bytes32"
        },
        {
          "internalType": "address",
          "name": "account",
          "type": "address"
        }
      ],
      "name": "revokeRole",
      "outputs": [],
      "stateMutability": "nonpayable",
      "type": "function"
    },
    {
      "inputs": [
        {
          "internalType": "address",
          "name": "toUnWhitelist",
          "type": "address"
        }
      ],
      "name": "revokeWhitelist",
      "outputs": [],
      "stateMutability": "nonpayable",
      "type": "function"
    },
    {
      "inputs": [
        {
          "internalType": "bytes4",
          "name": "interfaceId",
          "type": "bytes4"
        }
      ],
      "name": "supportsInterface",
      "outputs": [
        {
          "internalType": "bool",
          "name": "",
          "type": "bool"
        }
      ],
      "stateMutability": "view",
      "type": "function"
    },
    {
      "inputs": [],
      "name": "whitelistActivated",
      "outputs": [
        {
          "internalType": "bool",
          "name": "",
          "type": "bool"
        }
      ],
      "stateMutability": "view",
      "type": "function"
    }
  ],
  "bytecode": {
    "object": "0x60806040526002805460ff191660011790553480156200001e57600080fd5b506040516200207838038062002078833981016040819052620000419162000345565b6200004e60008362000171565b62000069600080516020620020588339815191523362000171565b62000084600080516020620020388339815191523362000171565b620000ae6000805160206200203883398151915260008051602062002058833981519152620001b4565b805160005b8181146200010157620000f860008051602062002038833981519152848381518110620000e457620000e46200042e565b60200260200101516200017160201b60201c565b600101620000b3565b5050600560205250507f05b8ccbb9d4d8fb16ea74ce3c29a41f1b461fbdaff4714a0d9a8eb05499746bc8054600160ff19918216811790925561ffff6000527fee699f14be500ebe64facfd9b6d7a771976351da6cbae399f30ec30a5496d4d48054909116909117905562000444565b620001888282620001ff60201b62000edd1760201c565b6000828152600160209081526040909120620001af91839062000f61620002a0821b17901c565b505050565b600082815260208190526040808220600101805490849055905190918391839186917fbd79b86ffe0ab8e8776151514217cd7cacd52c909f66475c3af44e129f0b00ff9190a4505050565b6000828152602081815260408083206001600160a01b038516845290915290205460ff166200029c576000828152602081815260408083206001600160a01b03851684529091529020805460ff191660011790556200025b3390565b6001600160a01b0316816001600160a01b0316837f2f8788117e7eff1d82e926ec794901d17c78024a50270940304540a733656f0d60405160405180910390a45b5050565b6000620002b7836001600160a01b038416620002c0565b90505b92915050565b60008181526001830160205260408120546200030957508154600181810184556000848152602080822090930184905584548482528286019093526040902091909155620002ba565b506000620002ba565b80516001600160a01b03811681146200032a57600080fd5b919050565b634e487b7160e01b600052604160045260246000fd5b600080604083850312156200035957600080fd5b620003648362000312565b602084810151919350906001600160401b03808211156200038457600080fd5b818601915086601f8301126200039957600080fd5b815181811115620003ae57620003ae6200032f565b8060051b604051601f19603f83011681018181108582111715620003d657620003d66200032f565b604052918252848201925083810185019189831115620003f557600080fd5b938501935b828510156200041e576200040e8562000312565b84529385019392850192620003fa565b8096505050505050509250929050565b634e487b7160e01b600052603260045260246000fd5b611be480620004546000396000f3fe608060405234801561001057600080fd5b50600436106102055760003560e01c806389e877a31161011a578063c8b0cf68116100ad578063e35d33f61161007c578063e35d33f61461044c578063efc03f95146104be578063f017475c146104d1578063f80f5dd5146104e4578063fe60d26b146104f757600080fd5b8063c8b0cf681461047c578063c8eaf28f14610485578063ca15c87314610498578063d547741f146104ab57600080fd5b80639c7f3315116100e95780639c7f331514610439578063a217fddf1461044c578063b8c48f2b14610454578063c1eb5ddd1461046757600080fd5b806389e877a3146103e05780638b6b68e2146103e85780639010d07c146103fb57806391d148541461042657600080fd5b80633af32abf1161019d578063587d5ed01161016c578063587d5ed014610361578063654887fd1461036e57806365842ac21461037657806369f3bd0e1461038957806370ae92d2146103c057600080fd5b80633af32abf146102e75780634838d1651461030a57806351b799511461031d578063582abd121461034c57600080fd5b80631376f1c3116101d95780631376f1c31461027d578063248a9ca3146102905780632f2ff15d146102c157806336568abe146102d457600080fd5b806276d6a51461020a57806301ffc9a7146102425780630808f3eb146102555780631228319114610268575b600080fd5b61022d610218366004611688565b60056020526000908152604090205460ff1681565b60405190151581526020015b60405180910390f35b61022d6102503660046116a1565b6104fe565b61022d6102633660046116e7565b610529565b61027b6102763660046116e7565b61058a565b005b61027b61028b36600461174e565b610628565b6102b361029e366004611688565b60009081526020819052604090206001015490565b604051908152602001610239565b61027b6102cf3660046117ba565b61073d565b61027b6102e23660046117ba565b610767565b61022d6102f53660046116e7565b60066020526000908152604090205460ff1681565b61027b6103183660046116e7565b6107e5565b61022d61032b3660046116e7565b6001600160a01b031660009081526003602052604090205461ffff16151590565b6102b3600080516020611b6f83398151915281565b60025461022d9060ff1681565b61027b610824565b61027b61038436600461180f565b61089b565b6103ad6103973660046116e7565b60036020526000908152604090205461ffff1681565b60405161ffff9091168152602001610239565b6102b36103ce3660046116e7565b60046020526000908152604090205481565b61027b610a1f565b61027b6103f6366004611878565b610a92565b61040e6104093660046118a2565b610b0e565b6040516001600160a01b039091168152602001610239565b61022d6104343660046117ba565b610b2d565b61027b6104473660046116e7565b610b56565b6102b3600081565b61027b6104623660046118c4565b610b90565b6102b3600080516020611b8f83398151915281565b6103ad61ffff81565b61027b610493366004611900565b610bcd565b6102b36104a6366004611688565b610c6a565b61027b6104b93660046117ba565b610c81565b61027b6104cc366004611942565b610ca6565b61027b6104df366004611878565b610e15565b61027b6104f23660046116e7565b610ebc565b600161022d565b60006001600160e01b03198216635a05180f60e01b1480610523575061052382610f76565b92915050565b6001600160a01b03811660009081526003602090815260408083205461ffff168352600590915281205460ff16158015610523575060025460ff1615806105235750506001600160a01b031660009081526006602052604090205460ff1690565b6105a2600080516020611b8f83398151915233610b2d565b806105b557506001600160a01b03811633145b6106065760405162461bcd60e51b815260206004820152601a60248201527f5265766f6b65204b79633a204e6f7420417574686f72697a656400000000000060448201526064015b60405180910390fd5b6001600160a01b03166000908152600360205260409020805461ffff19169055565b600080516020611b8f83398151915261064081610fab565b838061067c5760405162461bcd60e51b815260206004820152600b60248201526a456d70747920617272617960a81b60448201526064016105fd565b8083146106cb5760405162461bcd60e51b815260206004820152601b60248201527f417272617973206c656e67746820646f65736e2774206d61746368000000000060448201526064016105fd565b60005b818110156107345761072c8787838181106106eb576106eb6119a8565b905060200201602081019061070091906116e7565b868684818110610712576107126119a8565b905060200201602081019061072791906119be565b610fb8565b6001016106ce565b50505050505050565b60008281526020819052604090206001015461075881610fab565b6107628383610fe7565b505050565b6001600160a01b03811633146107d75760405162461bcd60e51b815260206004820152602f60248201527f416363657373436f6e74726f6c3a2063616e206f6e6c792072656e6f756e636560448201526e103937b632b9903337b91039b2b63360891b60648201526084016105fd565b6107e18282611009565b5050565b600080516020611b8f8339815191526107fd81610fab565b506001600160a01b03166000908152600360205260409020805461ffff191661ffff179055565b600080516020611b8f83398151915261083c81610fab565b60025460ff1661088e5760405162461bcd60e51b815260206004820152601760248201527f574c3a20616c726561647920646561637469766174656400000000000000000060448201526064016105fd565b506002805460ff19169055565b8367ffffffffffffffff1642106108ec5760405162461bcd60e51b815260206004820152601560248201527414da59db985d1d5c99481a185cc8195e1c1a5c9959605a1b60448201526064016105fd565b6040516bffffffffffffffffffffffff19606087811b821660208401526001600160c01b031960c088901b16603484015230901b16603c820152466050820152600090610997906070015b60408051601f1981840301815282825280516020918201207f19457468657265756d205369676e6564204d6573736167653a0a33320000000084830152603c8085019190915282518085039091018152605c909301909152815191012090565b90506109b7600080516020611b6f8339815191526104348385888861102b565b6109f45760405162461bcd60e51b815260206004820152600e60248201526d24b73b30b634b21039b4b3b732b960911b60448201526064016105fd565b5050506001600160a01b039092166000908152600660205260409020805460ff191660011790555050565b600080516020611b8f833981519152610a3781610fab565b60025460ff1615610a825760405162461bcd60e51b815260206004820152601560248201527415d30e88185b1c9958591e481858dd1a5d985d1959605a1b60448201526064016105fd565b506002805460ff19166001179055565b600080516020611b6f833981519152610aaa81610fab565b6001600160a01b03831660009081526003602052604090205461ffff1615610b045760405162461bcd60e51b815260206004820152600d60248201526c105b1c9958591e481ade58d959609a1b60448201526064016105fd565b6107628383610fb8565b6000828152600160205260408120610b269083611053565b9392505050565b6000918252602082815260408084206001600160a01b0393909316845291905290205460ff1690565b600080516020611b8f833981519152610b6e81610fab565b506001600160a01b03166000908152600660205260409020805460ff19169055565b600080516020611b8f833981519152610ba881610fab565b5061ffff9091166000908152600560205260409020805460ff19169115919091179055565b600080516020611b8f833981519152610be581610fab565b8180610c215760405162461bcd60e51b815260206004820152600b60248201526a456d70747920617272617960a81b60448201526064016105fd565b60005b81811015610c6357610c5b858583818110610c4157610c416119a8565b9050602002016020810190610c5691906116e7565b61105f565b600101610c24565b5050505050565b600081815260016020526040812061052390611083565b600082815260208190526040902060010154610c9c81610fab565b6107628383611009565b8367ffffffffffffffff164210610cf75760405162461bcd60e51b815260206004820152601560248201527414da59db985d1d5c99481a185cc8195e1c1a5c9959605a1b60448201526064016105fd565b6001600160a01b03861660009081526004602090815260408083205490516bffffffffffffffffffffffff1960608b811b8216948301949094526001600160f01b031960f08b901b1660348301526001600160c01b031960c08a901b1660368301523090931b909216603e830152605282018190524660728301529190610d8090609201610937565b9050610da0600080516020611b6f8339815191526104348386898961102b565b610ddd5760405162461bcd60e51b815260206004820152600e60248201526d24b73b30b634b21039b4b3b732b960911b60448201526064016105fd565b610de88260016119ef565b6001600160a01b038916600090815260046020526040902055610e0b8888610fb8565b5050505050505050565b600080516020611b8f833981519152610e2d81610fab565b6001600160a01b03831660009081526003602052604090205461ffff16610e8c5760405162461bcd60e51b81526020600482015260136024820152724e6f742061204b79636564206164647265737360681b60448201526064016105fd565b506001600160a01b03919091166000908152600360205260409020805461ffff191661ffff909216919091179055565b600080516020611b6f833981519152610ed481610fab565b6107e18261105f565b610ee78282610b2d565b6107e1576000828152602081815260408083206001600160a01b03851684529091529020805460ff19166001179055610f1d3390565b6001600160a01b0316816001600160a01b0316837f2f8788117e7eff1d82e926ec794901d17c78024a50270940304540a733656f0d60405160405180910390a45050565b6000610b26836001600160a01b03841661108d565b60006001600160e01b03198216637965db0b60e01b148061052357506301ffc9a760e01b6001600160e01b0319831614610523565b610fb581336110dc565b50565b6001600160a01b03919091166000908152600360205260409020805461ffff191661ffff909216919091179055565b610ff18282610edd565b60008281526001602052604090206107629082610f61565b6110138282611135565b6000828152600160205260409020610762908261119a565b600080600061103c878787876111af565b9150915061104981611273565b5095945050505050565b6000610b2683836113bd565b6001600160a01b03166000908152600660205260409020805460ff19166001179055565b6000610523825490565b60008181526001830160205260408120546110d457508154600181810184556000848152602080822090930184905584548482528286019093526040902091909155610523565b506000610523565b6110e68282610b2d565b6107e1576110f3816113e7565b6110fe8360206113f9565b60405160200161110f929190611a37565b60408051601f198184030181529082905262461bcd60e51b82526105fd91600401611aac565b61113f8282610b2d565b156107e1576000828152602081815260408083206001600160a01b0385168085529252808320805460ff1916905551339285917ff6391f5c32d9c69d2a47ea670b442974b53935d1edc7fd64eb21e047a839171b9190a45050565b6000610b26836001600160a01b038416611595565b6000807f7fffffffffffffffffffffffffffffff5d576e7357a4501ddfe92f46681b20a08311156111e6575060009050600361126a565b6040805160008082526020820180845289905260ff881692820192909252606081018690526080810185905260019060a0016020604051602081039080840390855afa15801561123a573d6000803e3d6000fd5b5050604051601f1901519150506001600160a01b0381166112635760006001925092505061126a565b9150600090505b94509492505050565b600081600481111561128757611287611adf565b0361128f5750565b60018160048111156112a3576112a3611adf565b036112f05760405162461bcd60e51b815260206004820152601860248201527f45434453413a20696e76616c6964207369676e6174757265000000000000000060448201526064016105fd565b600281600481111561130457611304611adf565b036113515760405162461bcd60e51b815260206004820152601f60248201527f45434453413a20696e76616c6964207369676e6174757265206c656e6774680060448201526064016105fd565b600381600481111561136557611365611adf565b03610fb55760405162461bcd60e51b815260206004820152602260248201527f45434453413a20696e76616c6964207369676e6174757265202773272076616c604482015261756560f01b60648201526084016105fd565b60008260000182815481106113d4576113d46119a8565b9060005260206000200154905092915050565b60606105236001600160a01b03831660145b60606000611408836002611af5565b6114139060026119ef565b67ffffffffffffffff81111561142b5761142b611b14565b6040519080825280601f01601f191660200182016040528015611455576020820181803683370190505b509050600360fc1b81600081518110611470576114706119a8565b60200101906001600160f81b031916908160001a905350600f60fb1b8160018151811061149f5761149f6119a8565b60200101906001600160f81b031916908160001a90535060006114c3846002611af5565b6114ce9060016119ef565b90505b6001811115611546576f181899199a1a9b1b9c1cb0b131b232b360811b85600f1660108110611502576115026119a8565b1a60f81b828281518110611518576115186119a8565b60200101906001600160f81b031916908160001a90535060049490941c9361153f81611b2a565b90506114d1565b508315610b265760405162461bcd60e51b815260206004820181905260248201527f537472696e67733a20686578206c656e67746820696e73756666696369656e7460448201526064016105fd565b6000818152600183016020526040812054801561167e5760006115b9600183611b41565b85549091506000906115cd90600190611b41565b90508181146116325760008660000182815481106115ed576115ed6119a8565b9060005260206000200154905080876000018481548110611610576116106119a8565b6000918252602080832090910192909255918252600188019052604090208390555b855486908061164357611643611b58565b600190038181906000526020600020016000905590558560010160008681526020019081526020016000206000905560019350505050610523565b6000915050610523565b60006020828403121561169a57600080fd5b5035919050565b6000602082840312156116b357600080fd5b81356001600160e01b031981168114610b2657600080fd5b80356001600160a01b03811681146116e257600080fd5b919050565b6000602082840312156116f957600080fd5b610b26826116cb565b60008083601f84011261171457600080fd5b50813567ffffffffffffffff81111561172c57600080fd5b6020830191508360208260051b850101111561174757600080fd5b9250929050565b6000806000806040858703121561176457600080fd5b843567ffffffffffffffff8082111561177c57600080fd5b61178888838901611702565b909650945060208701359150808211156117a157600080fd5b506117ae87828801611702565b95989497509550505050565b600080604083850312156117cd57600080fd5b823591506117dd602084016116cb565b90509250929050565b803567ffffffffffffffff811681146116e257600080fd5b803560ff811681146116e257600080fd5b600080600080600060a0868803121561182757600080fd5b611830866116cb565b945061183e602087016117e6565b9350604086013592506060860135915061185a608087016117fe565b90509295509295909350565b803561ffff811681146116e257600080fd5b6000806040838503121561188b57600080fd5b611894836116cb565b91506117dd60208401611866565b600080604083850312156118b557600080fd5b50508035926020909101359150565b600080604083850312156118d757600080fd5b6118e083611866565b9150602083013580151581146118f557600080fd5b809150509250929050565b6000806020838503121561191357600080fd5b823567ffffffffffffffff81111561192a57600080fd5b61193685828601611702565b90969095509350505050565b60008060008060008060c0878903121561195b57600080fd5b611964876116cb565b955061197260208801611866565b9450611980604088016117e6565b9350606087013592506080870135915061199c60a088016117fe565b90509295509295509295565b634e487b7160e01b600052603260045260246000fd5b6000602082840312156119d057600080fd5b610b2682611866565b634e487b7160e01b600052601160045260246000fd5b60008219821115611a0257611a026119d9565b500190565b60005b83811015611a22578181015183820152602001611a0a565b83811115611a31576000848401525b50505050565b7f416363657373436f6e74726f6c3a206163636f756e7420000000000000000000815260008351611a6f816017850160208801611a07565b7001034b99036b4b9b9b4b733903937b6329607d1b6017918401918201528351611aa0816028840160208801611a07565b01602801949350505050565b6020815260008251806020840152611acb816040850160208701611a07565b601f01601f19169190910160400192915050565b634e487b7160e01b600052602160045260246000fd5b6000816000190483118215151615611b0f57611b0f6119d9565b500290565b634e487b7160e01b600052604160045260246000fd5b600081611b3957611b396119d9565b506000190190565b600082821015611b5357611b536119d9565b500390565b634e487b7160e01b600052603160045260246000fdfe2aeb38be3df14d720aeb10a2de6df09b0fb3cd5c5ec256283a22d4593110ca40b1e380c01db319c0153ea3bb4fbd0ab6639cc088e3bf8cd5319b128f33a2f9e8a2646970667358221220f5887825b58525e09475a2add3810ec0d0fc0d6f637fe1fb9f51a508694511bb64736f6c634300080e00332aeb38be3df14d720aeb10a2de6df09b0fb3cd5c5ec256283a22d4593110ca40b1e380c01db319c0153ea3bb4fbd0ab6639cc088e3bf8cd5319b128f33a2f9e8",
    "linkReferences": {}
  },
  "methodIdentifiers": {
    "BLACKLIST()": "c8b0cf68",
    "DEFAULT_ADMIN_ROLE()": "a217fddf",
    "DEV()": "c1eb5ddd",
    "KONKRETE()": "e35d33f6",
    "SIGNER()": "582abd12",
    "activateWhitelist()": "89e877a3",
    "addKyc(address,uint16)": "8b6b68e2",
    "addKycPermit(address,uint16,uint64,bytes32,bytes32,uint8)": "efc03f95",
    "addKycs(address[],uint16[])": "1376f1c3",
    "addWhitelist(address)": "f80f5dd5",
    "addWhitelistPermit(address,uint64,bytes32,bytes32,uint8)": "65842ac2",
    "addWhitelists(address[])": "c8eaf28f",
    "blackList(address)": "4838d165",
    "canBuy(address)": "0808f3eb",
    "cannotBuy(uint256)": "0076d6a5",
    "changeCountryAuthorisation(uint16,bool)": "b8c48f2b",
    "changeCountryCode(address,uint16)": "f017475c",
    "countryCode(address)": "69f3bd0e",
    "deactivateWhitelis()": "654887fd",
    "getRoleAdmin(bytes32)": "248a9ca3",
    "getRoleMember(bytes32,uint256)": "9010d07c",
    "getRoleMemberCount(bytes32)": "ca15c873",
    "grantRole(bytes32,address)": "2f2ff15d",
    "hasRole(bytes32,address)": "91d14854",
    "isDatabase()": "fe60d26b",
    "isKyced(address)": "51b79951",
    "isWhitelisted(address)": "3af32abf",
    "nonce(address)": "70ae92d2",
    "renounceRole(bytes32,address)": "36568abe",
    "revokeKyc(address)": "12283191",
    "revokeRole(bytes32,address)": "d547741f",
    "revokeWhitelist(address)": "9c7f3315",
    "supportsInterface(bytes4)": "01ffc9a7",
    "whitelistActivated()": "587d5ed0"
  },
  "id": 0
}