{
  "abi": [
    {
      "inputs": [],
      "stateMutability": "nonpayable",
      "type": "constructor"
    },
    {
      "inputs": [
        {
          "internalType": "uint256",
          "name": "minimum",
          "type": "uint256"
        },
        {
          "internalType": "uint256",
          "name": "amount",
          "type": "uint256"
        }
      ],
      "name": "BelowMinimumInvest",
      "type": "error"
    },
    {
      "inputs": [
        {
          "internalType": "int256",
          "name": "interest",
          "type": "int256"
        }
      ],
      "name": "InmpossibleInterest",
      "type": "error"
    },
    {
      "inputs": [],
      "name": "InvestZeroAmount",
      "type": "error"
    },
    {
      "inputs": [
        {
          "internalType": "address",
          "name": "msgSender",
          "type": "address"
        }
      ],
      "name": "MsgSenderUnauthorized",
      "type": "error"
    },
    {
      "inputs": [
        {
          "internalType": "int256",
          "name": "capitalAndInterest",
          "type": "int256"
        }
      ],
      "name": "NegativeCapital",
      "type": "error"
    },
    {
      "inputs": [
        {
          "internalType": "enum SaleStep",
          "name": "expected",
          "type": "uint8"
        },
        {
          "internalType": "enum SaleStep",
          "name": "currentStep",
          "type": "uint8"
        }
      ],
      "name": "NotExpectedStep",
      "type": "error"
    },
    {
      "inputs": [],
      "name": "ReceiverIsNullAddress",
      "type": "error"
    },
    {
      "inputs": [
        {
          "internalType": "address",
          "name": "receiver",
          "type": "address"
        }
      ],
      "name": "ReceiverUnauthorized",
      "type": "error"
    },
    {
      "inputs": [],
      "name": "TryToCollectZeroFund",
      "type": "error"
    },
    {
      "inputs": [],
      "name": "WrongCaps",
      "type": "error"
    },
    {
      "inputs": [],
      "name": "WrongDatabase",
      "type": "error"
    },
    {
      "inputs": [
        {
          "internalType": "uint256",
          "name": "expected1",
          "type": "uint256"
        },
        {
          "internalType": "uint256",
          "name": "expected2",
          "type": "uint256"
        },
        {
          "internalType": "uint256",
          "name": "current",
          "type": "uint256"
        }
      ],
      "name": "WrongDecimalNumber",
      "type": "error"
    },
    {
      "inputs": [
        {
          "internalType": "uint256",
          "name": "max",
          "type": "uint256"
        },
        {
          "internalType": "uint256",
          "name": "amountWanted",
          "type": "uint256"
        }
      ],
      "name": "WrongMaxDepositPerUser",
      "type": "error"
    },
    {
      "inputs": [
        {
          "internalType": "uint256",
          "name": "maxDeposit",
          "type": "uint256"
        },
        {
          "internalType": "uint256",
          "name": "minInvest",
          "type": "uint256"
        }
      ],
      "name": "WrongMinDepositPerUser",
      "type": "error"
    },
    {
      "inputs": [
        {
          "internalType": "bool",
          "name": "isZero",
          "type": "bool"
        }
      ],
      "name": "WrongRefundValue",
      "type": "error"
    },
    {
      "inputs": [],
      "name": "WrongSaleTimeStamps",
      "type": "error"
    },
    {
      "inputs": [
        {
          "internalType": "enum SaleStep",
          "name": "currentStep",
          "type": "uint8"
        }
      ],
      "name": "WrongStep",
      "type": "error"
    },
    {
      "inputs": [
        {
          "internalType": "address",
          "name": "treasury",
          "type": "address"
        }
      ],
      "name": "WrongTreasury",
      "type": "error"
    },
    {
      "inputs": [
        {
          "internalType": "string",
          "name": "vaultURI_",
          "type": "string"
        }
      ],
      "name": "WrongVaultURI",
      "type": "error"
    },
    {
      "anonymous": false,
      "inputs": [
        {
          "indexed": true,
          "internalType": "address",
          "name": "owner",
          "type": "address"
        },
        {
          "indexed": true,
          "internalType": "address",
          "name": "spender",
          "type": "address"
        },
        {
          "indexed": false,
          "internalType": "uint256",
          "name": "value",
          "type": "uint256"
        }
      ],
      "name": "Approval",
      "type": "event"
    },
    {
      "anonymous": false,
      "inputs": [
        {
          "indexed": false,
          "internalType": "uint256",
          "name": "amount",
          "type": "uint256"
        }
      ],
      "name": "CapitalCollected",
      "type": "event"
    },
    {
      "anonymous": false,
      "inputs": [
        {
          "indexed": false,
          "internalType": "uint256",
          "name": "originalCapital",
          "type": "uint256"
        },
        {
          "indexed": false,
          "internalType": "uint256",
          "name": "remainingCapital",
          "type": "uint256"
        },
        {
          "indexed": false,
          "internalType": "uint256",
          "name": "loss",
          "type": "uint256"
        }
      ],
      "name": "CapitalLoss",
      "type": "event"
    },
    {
      "anonymous": false,
      "inputs": [
        {
          "indexed": false,
          "internalType": "uint256",
          "name": "amount",
          "type": "uint256"
        },
        {
          "indexed": false,
          "internalType": "uint256",
          "name": "collected",
          "type": "uint256"
        }
      ],
      "name": "CapitalRefunded",
      "type": "event"
    },
    {
      "anonymous": false,
      "inputs": [
        {
          "indexed": false,
          "internalType": "uint256",
          "name": "softCap",
          "type": "uint256"
        },
        {
          "indexed": false,
          "internalType": "uint256",
          "name": "hardCap",
          "type": "uint256"
        }
      ],
      "name": "CapsUpdated",
      "type": "event"
    },
    {
      "anonymous": false,
      "inputs": [
        {
          "indexed": true,
          "internalType": "address",
          "name": "sender",
          "type": "address"
        },
        {
          "indexed": true,
          "internalType": "address",
          "name": "owner",
          "type": "address"
        },
        {
          "indexed": false,
          "internalType": "uint256",
          "name": "assets",
          "type": "uint256"
        },
        {
          "indexed": false,
          "internalType": "uint256",
          "name": "shares",
          "type": "uint256"
        }
      ],
      "name": "Deposit",
      "type": "event"
    },
    {
      "anonymous": false,
      "inputs": [
        {
          "indexed": false,
          "internalType": "uint8",
          "name": "version",
          "type": "uint8"
        }
      ],
      "name": "Initialized",
      "type": "event"
    },
    {
      "anonymous": false,
      "inputs": [
        {
          "indexed": false,
          "internalType": "uint256",
          "name": "refunded",
          "type": "uint256"
        }
      ],
      "name": "InterestRefunded",
      "type": "event"
    },
    {
      "anonymous": false,
      "inputs": [
        {
          "indexed": false,
          "internalType": "address",
          "name": "from",
          "type": "address"
        },
        {
          "indexed": false,
          "internalType": "int256",
          "name": "amount",
          "type": "int256"
        }
      ],
      "name": "InterestUpdated",
      "type": "event"
    },
    {
      "anonymous": false,
      "inputs": [
        {
          "indexed": false,
          "internalType": "address",
          "name": "account",
          "type": "address"
        }
      ],
      "name": "Paused",
      "type": "event"
    },
    {
      "anonymous": false,
      "inputs": [
        {
          "indexed": false,
          "internalType": "uint256",
          "name": "oldPrice",
          "type": "uint256"
        },
        {
          "indexed": false,
          "internalType": "uint256",
          "name": "newPrice",
          "type": "uint256"
        }
      ],
      "name": "PriceUpdated",
      "type": "event"
    },
    {
      "anonymous": false,
      "inputs": [
        {
          "indexed": true,
          "internalType": "bytes32",
          "name": "role",
          "type": "bytes32"
        },
        {
          "indexed": true,
          "internalType": "bytes32",
          "name": "previousAdminRole",
          "type": "bytes32"
        },
        {
          "indexed": true,
          "internalType": "bytes32",
          "name": "newAdminRole",
          "type": "bytes32"
        }
      ],
      "name": "RoleAdminChanged",
      "type": "event"
    },
    {
      "anonymous": false,
      "inputs": [
        {
          "indexed": true,
          "internalType": "bytes32",
          "name": "role",
          "type": "bytes32"
        },
        {
          "indexed": true,
          "internalType": "address",
          "name": "account",
          "type": "address"
        },
        {
          "indexed": true,
          "internalType": "address",
          "name": "sender",
          "type": "address"
        }
      ],
      "name": "RoleGranted",
      "type": "event"
    },
    {
      "anonymous": false,
      "inputs": [
        {
          "indexed": true,
          "internalType": "bytes32",
          "name": "role",
          "type": "bytes32"
        },
        {
          "indexed": true,
          "internalType": "address",
          "name": "account",
          "type": "address"
        },
        {
          "indexed": true,
          "internalType": "address",
          "name": "sender",
          "type": "address"
        }
      ],
      "name": "RoleRevoked",
      "type": "event"
    },
    {
      "anonymous": false,
      "inputs": [
        {
          "indexed": false,
          "internalType": "uint256",
          "name": "depositsStart",
          "type": "uint256"
        },
        {
          "indexed": false,
          "internalType": "uint256",
          "name": "depositsStop",
          "type": "uint256"
        }
      ],
      "name": "TimesUpdated",
      "type": "event"
    },
    {
      "anonymous": false,
      "inputs": [
        {
          "indexed": false,
          "internalType": "address",
          "name": "from",
          "type": "address"
        },
        {
          "indexed": false,
          "internalType": "uint256",
          "name": "amount",
          "type": "uint256"
        }
      ],
      "name": "TotalRefunded",
      "type": "event"
    },
    {
      "anonymous": false,
      "inputs": [
        {
          "indexed": true,
          "internalType": "address",
          "name": "from",
          "type": "address"
        },
        {
          "indexed": true,
          "internalType": "address",
          "name": "to",
          "type": "address"
        },
        {
          "indexed": false,
          "internalType": "uint256",
          "name": "value",
          "type": "uint256"
        }
      ],
      "name": "Transfer",
      "type": "event"
    },
    {
      "anonymous": false,
      "inputs": [
        {
          "indexed": false,
          "internalType": "address",
          "name": "oldTreasury",
          "type": "address"
        },
        {
          "indexed": false,
          "internalType": "address",
          "name": "newTreasury",
          "type": "address"
        }
      ],
      "name": "TreasuryUpdated",
      "type": "event"
    },
    {
      "anonymous": false,
      "inputs": [
        {
          "indexed": false,
          "internalType": "uint256",
          "name": "amount",
          "type": "uint256"
        }
      ],
      "name": "UnclaimedFundsCollected",
      "type": "event"
    },
    {
      "anonymous": false,
      "inputs": [
        {
          "indexed": false,
          "internalType": "address",
          "name": "account",
          "type": "address"
        }
      ],
      "name": "Unpaused",
      "type": "event"
    },
    {
      "anonymous": false,
      "inputs": [
        {
          "indexed": false,
          "internalType": "string",
          "name": "vaultURI_",
          "type": "string"
        }
      ],
      "name": "VaultURIUpdated",
      "type": "event"
    },
    {
      "anonymous": false,
      "inputs": [
        {
          "indexed": true,
          "internalType": "address",
          "name": "sender",
          "type": "address"
        },
        {
          "indexed": true,
          "internalType": "address",
          "name": "receiver",
          "type": "address"
        },
        {
          "indexed": true,
          "internalType": "address",
          "name": "owner",
          "type": "address"
        },
        {
          "indexed": false,
          "internalType": "uint256",
          "name": "assets",
          "type": "uint256"
        },
        {
          "indexed": false,
          "internalType": "uint256",
          "name": "shares",
          "type": "uint256"
        }
      ],
      "name": "Withdraw",
      "type": "event"
    },
    {
      "inputs": [],
      "name": "DEFAULT_ADMIN_ROLE",
      "outputs": [
        {
          "internalType": "bytes32",
          "name": "",
          "type": "bytes32"
        }
      ],
      "stateMutability": "view",
      "type": "function"
    },
    {
      "inputs": [],
      "name": "DEV",
      "outputs": [
        {
          "internalType": "bytes32",
          "name": "",
          "type": "bytes32"
        }
      ],
      "stateMutability": "view",
      "type": "function"
    },
    {
      "inputs": [],
      "name": "KONKRETE",
      "outputs": [
        {
          "internalType": "bytes32",
          "name": "",
          "type": "bytes32"
        }
      ],
      "stateMutability": "view",
      "type": "function"
    },
    {
      "inputs": [],
      "name": "TIMELOCK",
      "outputs": [
        {
          "internalType": "bytes32",
          "name": "",
          "type": "bytes32"
        }
      ],
      "stateMutability": "view",
      "type": "function"
    },
    {
      "inputs": [
        {
          "internalType": "address",
          "name": "owner",
          "type": "address"
        },
        {
          "internalType": "address",
          "name": "spender",
          "type": "address"
        }
      ],
      "name": "allowance",
      "outputs": [
        {
          "internalType": "uint256",
          "name": "",
          "type": "uint256"
        }
      ],
      "stateMutability": "view",
      "type": "function"
    },
    {
      "inputs": [
        {
          "internalType": "address",
          "name": "spender",
          "type": "address"
        },
        {
          "internalType": "uint256",
          "name": "amount",
          "type": "uint256"
        }
      ],
      "name": "approve",
      "outputs": [
        {
          "internalType": "bool",
          "name": "",
          "type": "bool"
        }
      ],
      "stateMutability": "nonpayable",
      "type": "function"
    },
    {
      "inputs": [],
      "name": "asset",
      "outputs": [
        {
          "internalType": "address",
          "name": "",
          "type": "address"
        }
      ],
      "stateMutability": "view",
      "type": "function"
    },
    {
      "inputs": [
        {
          "internalType": "address",
          "name": "account",
          "type": "address"
        }
      ],
      "name": "balanceOf",
      "outputs": [
        {
          "internalType": "uint256",
          "name": "",
          "type": "uint256"
        }
      ],
      "stateMutability": "view",
      "type": "function"
    },
    {
      "inputs": [],
      "name": "collectCapital",
      "outputs": [
        {
          "internalType": "uint256",
          "name": "collected",
          "type": "uint256"
        }
      ],
      "stateMutability": "nonpayable",
      "type": "function"
    },
    {
      "inputs": [],
      "name": "collectUnclaimedFunds",
      "outputs": [
        {
          "internalType": "uint256",
          "name": "pendingFunds",
          "type": "uint256"
        }
      ],
      "stateMutability": "nonpayable",
      "type": "function"
    },
    {
      "inputs": [],
      "name": "collectedCapital",
      "outputs": [
        {
          "internalType": "uint256",
          "name": "",
          "type": "uint256"
        }
      ],
      "stateMutability": "view",
      "type": "function"
    },
    {
      "inputs": [
        {
          "internalType": "uint256",
          "name": "shares",
          "type": "uint256"
        }
      ],
      "name": "convertToAssets",
      "outputs": [
        {
          "internalType": "uint256",
          "name": "assets",
          "type": "uint256"
        }
      ],
      "stateMutability": "view",
      "type": "function"
    },
    {
      "inputs": [
        {
          "internalType": "uint256",
          "name": "assets",
          "type": "uint256"
        }
      ],
      "name": "convertToShares",
      "outputs": [
        {
          "internalType": "uint256",
          "name": "shares",
          "type": "uint256"
        }
      ],
      "stateMutability": "view",
      "type": "function"
    },
    {
      "inputs": [],
      "name": "dataBase",
      "outputs": [
        {
          "internalType": "contract IDatabase",
          "name": "",
          "type": "address"
        }
      ],
      "stateMutability": "view",
      "type": "function"
    },
    {
      "inputs": [],
      "name": "decimals",
      "outputs": [
        {
          "internalType": "uint8",
          "name": "",
          "type": "uint8"
        }
      ],
      "stateMutability": "view",
      "type": "function"
    },
    {
      "inputs": [
        {
          "internalType": "address",
          "name": "spender",
          "type": "address"
        },
        {
          "internalType": "uint256",
          "name": "subtractedValue",
          "type": "uint256"
        }
      ],
      "name": "decreaseAllowance",
      "outputs": [
        {
          "internalType": "bool",
          "name": "",
          "type": "bool"
        }
      ],
      "stateMutability": "nonpayable",
      "type": "function"
    },
    {
      "inputs": [
        {
          "internalType": "uint256",
          "name": "assets",
          "type": "uint256"
        },
        {
          "internalType": "address",
          "name": "receiver",
          "type": "address"
        }
      ],
      "name": "deposit",
      "outputs": [
        {
          "internalType": "uint256",
          "name": "",
          "type": "uint256"
        }
      ],
      "stateMutability": "nonpayable",
      "type": "function"
    },
    {
      "inputs": [
        {
          "internalType": "bool",
          "name": "doubleChecked",
          "type": "bool"
        }
      ],
      "name": "emptyCapitalBack",
      "outputs": [],
      "stateMutability": "nonpayable",
      "type": "function"
    },
    {
      "inputs": [
        {
          "internalType": "bytes32",
          "name": "role",
          "type": "bytes32"
        }
      ],
      "name": "getRoleAdmin",
      "outputs": [
        {
          "internalType": "bytes32",
          "name": "",
          "type": "bytes32"
        }
      ],
      "stateMutability": "view",
      "type": "function"
    },
    {
      "inputs": [
        {
          "internalType": "bytes32",
          "name": "role",
          "type": "bytes32"
        },
        {
          "internalType": "uint256",
          "name": "index",
          "type": "uint256"
        }
      ],
      "name": "getRoleMember",
      "outputs": [
        {
          "internalType": "address",
          "name": "",
          "type": "address"
        }
      ],
      "stateMutability": "view",
      "type": "function"
    },
    {
      "inputs": [
        {
          "internalType": "bytes32",
          "name": "role",
          "type": "bytes32"
        }
      ],
      "name": "getRoleMemberCount",
      "outputs": [
        {
          "internalType": "uint256",
          "name": "",
          "type": "uint256"
        }
      ],
      "stateMutability": "view",
      "type": "function"
    },
    {
      "inputs": [],
      "name": "getStep",
      "outputs": [
        {
          "internalType": "enum SaleStep",
          "name": "step",
          "type": "uint8"
        }
      ],
      "stateMutability": "view",
      "type": "function"
    },
    {
      "inputs": [
        {
          "internalType": "bytes32",
          "name": "role",
          "type": "bytes32"
        },
        {
          "internalType": "address",
          "name": "account",
          "type": "address"
        }
      ],
      "name": "grantRole",
      "outputs": [],
      "stateMutability": "nonpayable",
      "type": "function"
    },
    {
      "inputs": [
        {
          "internalType": "bytes32",
          "name": "role",
          "type": "bytes32"
        },
        {
          "internalType": "address",
          "name": "account",
          "type": "address"
        }
      ],
      "name": "hasRole",
      "outputs": [
        {
          "internalType": "bool",
          "name": "",
          "type": "bool"
        }
      ],
      "stateMutability": "view",
      "type": "function"
    },
    {
      "inputs": [
        {
          "internalType": "address",
          "name": "spender",
          "type": "address"
        },
        {
          "internalType": "uint256",
          "name": "addedValue",
          "type": "uint256"
        }
      ],
      "name": "increaseAllowance",
      "outputs": [
        {
          "internalType": "bool",
          "name": "",
          "type": "bool"
        }
      ],
      "stateMutability": "nonpayable",
      "type": "function"
    },
    {
      "inputs": [
        {
          "internalType": "address",
          "name": "asset_",
          "type": "address"
        },
        {
          "internalType": "string",
          "name": "name_",
          "type": "string"
        },
        {
          "internalType": "string",
          "name": "symbol_",
          "type": "string"
        },
        {
          "internalType": "string",
          "name": "vaultURI_",
          "type": "string"
        },
        {
          "internalType": "address",
          "name": "multisig",
          "type": "address"
        },
        {
          "internalType": "address",
          "name": "treasury_",
          "type": "address"
        },
        {
          "internalType": "contract IDatabase",
          "name": "dataBase_",
          "type": "address"
        },
        {
          "internalType": "uint128",
          "name": "softCap_",
          "type": "uint128"
        },
        {
          "internalType": "uint128",
          "name": "hardcap_",
          "type": "uint128"
        },
        {
          "internalType": "uint32",
          "name": "depositsStart_",
          "type": "uint32"
        },
        {
          "internalType": "uint32",
          "name": "depositsStop_",
          "type": "uint32"
        }
      ],
      "name": "initialize",
      "outputs": [],
      "stateMutability": "nonpayable",
      "type": "function"
    },
    {
      "inputs": [
        {
          "internalType": "address",
          "name": "user",
          "type": "address"
        }
      ],
      "name": "maxDeposit",
      "outputs": [
        {
          "internalType": "uint256",
          "name": "",
          "type": "uint256"
        }
      ],
      "stateMutability": "view",
      "type": "function"
    },
    {
      "inputs": [
        {
          "internalType": "address",
          "name": "user",
          "type": "address"
        }
      ],
      "name": "maxMint",
      "outputs": [
        {
          "internalType": "uint256",
          "name": "",
          "type": "uint256"
        }
      ],
      "stateMutability": "view",
      "type": "function"
    },
    {
      "inputs": [
        {
          "internalType": "address",
          "name": "owner",
          "type": "address"
        }
      ],
      "name": "maxRedeem",
      "outputs": [
        {
          "internalType": "uint256",
          "name": "",
          "type": "uint256"
        }
      ],
      "stateMutability": "view",
      "type": "function"
    },
    {
      "inputs": [
        {
          "internalType": "address",
          "name": "owner",
          "type": "address"
        }
      ],
      "name": "maxWithdraw",
      "outputs": [
        {
          "internalType": "uint256",
          "name": "",
          "type": "uint256"
        }
      ],
      "stateMutability": "view",
      "type": "function"
    },
    {
      "inputs": [
        {
          "internalType": "address",
          "name": "user",
          "type": "address"
        }
      ],
      "name": "minInvest",
      "outputs": [
        {
          "internalType": "uint256",
          "name": "",
          "type": "uint256"
        }
      ],
      "stateMutability": "view",
      "type": "function"
    },
    {
      "inputs": [
        {
          "internalType": "uint256",
          "name": "shares",
          "type": "uint256"
        },
        {
          "internalType": "address",
          "name": "receiver",
          "type": "address"
        }
      ],
      "name": "mint",
      "outputs": [
        {
          "internalType": "uint256",
          "name": "",
          "type": "uint256"
        }
      ],
      "stateMutability": "nonpayable",
      "type": "function"
    },
    {
      "inputs": [],
      "name": "name",
      "outputs": [
        {
          "internalType": "string",
          "name": "",
          "type": "string"
        }
      ],
      "stateMutability": "view",
      "type": "function"
    },
    {
      "inputs": [],
      "name": "originalPrice",
      "outputs": [
        {
          "internalType": "uint256",
          "name": "",
          "type": "uint256"
        }
      ],
      "stateMutability": "view",
      "type": "function"
    },
    {
      "inputs": [
        {
          "internalType": "address",
          "name": "",
          "type": "address"
        }
      ],
      "name": "paid",
      "outputs": [
        {
          "internalType": "uint256",
          "name": "",
          "type": "uint256"
        }
      ],
      "stateMutability": "view",
      "type": "function"
    },
    {
      "inputs": [],
      "name": "pause",
      "outputs": [],
      "stateMutability": "nonpayable",
      "type": "function"
    },
    {
      "inputs": [],
      "name": "paused",
      "outputs": [
        {
          "internalType": "bool",
          "name": "",
          "type": "bool"
        }
      ],
      "stateMutability": "view",
      "type": "function"
    },
    {
      "inputs": [
        {
          "internalType": "uint256",
          "name": "assets",
          "type": "uint256"
        }
      ],
      "name": "previewDeposit",
      "outputs": [
        {
          "internalType": "uint256",
          "name": "",
          "type": "uint256"
        }
      ],
      "stateMutability": "view",
      "type": "function"
    },
    {
      "inputs": [
        {
          "internalType": "uint256",
          "name": "shares",
          "type": "uint256"
        }
      ],
      "name": "previewMint",
      "outputs": [
        {
          "internalType": "uint256",
          "name": "",
          "type": "uint256"
        }
      ],
      "stateMutability": "view",
      "type": "function"
    },
    {
      "inputs": [
        {
          "internalType": "uint256",
          "name": "shares",
          "type": "uint256"
        }
      ],
      "name": "previewRedeem",
      "outputs": [
        {
          "internalType": "uint256",
          "name": "",
          "type": "uint256"
        }
      ],
      "stateMutability": "view",
      "type": "function"
    },
    {
      "inputs": [
        {
          "internalType": "uint256",
          "name": "assets",
          "type": "uint256"
        }
      ],
      "name": "previewWithdraw",
      "outputs": [
        {
          "internalType": "uint256",
          "name": "",
          "type": "uint256"
        }
      ],
      "stateMutability": "view",
      "type": "function"
    },
    {
      "inputs": [
        {
          "internalType": "uint256",
          "name": "amountOfInterest",
          "type": "uint256"
        }
      ],
      "name": "priceImpact",
      "outputs": [
        {
          "internalType": "uint256",
          "name": "",
          "type": "uint256"
        }
      ],
      "stateMutability": "view",
      "type": "function"
    },
    {
      "inputs": [
        {
          "internalType": "uint256",
          "name": "shares",
          "type": "uint256"
        },
        {
          "internalType": "address",
          "name": "receiver",
          "type": "address"
        },
        {
          "internalType": "address",
          "name": "owner",
          "type": "address"
        }
      ],
      "name": "redeem",
      "outputs": [
        {
          "internalType": "uint256",
          "name": "assets",
          "type": "uint256"
        }
      ],
      "stateMutability": "nonpayable",
      "type": "function"
    },
    {
      "inputs": [
        {
          "internalType": "uint256",
          "name": "capitalAndInterest",
          "type": "uint256"
        }
      ],
      "name": "refundCapital",
      "outputs": [],
      "stateMutability": "nonpayable",
      "type": "function"
    },
    {
      "inputs": [
        {
          "internalType": "bytes32",
          "name": "role",
          "type": "bytes32"
        },
        {
          "internalType": "address",
          "name": "account",
          "type": "address"
        }
      ],
      "name": "renounceRole",
      "outputs": [],
      "stateMutability": "nonpayable",
      "type": "function"
    },
    {
      "inputs": [
        {
          "internalType": "bytes32",
          "name": "role",
          "type": "bytes32"
        },
        {
          "internalType": "address",
          "name": "account",
          "type": "address"
        }
      ],
      "name": "revokeRole",
      "outputs": [],
      "stateMutability": "nonpayable",
      "type": "function"
    },
    {
      "inputs": [
        {
          "internalType": "uint128",
          "name": "soft",
          "type": "uint128"
        },
        {
          "internalType": "uint128",
          "name": "hard",
          "type": "uint128"
        }
      ],
      "name": "setCaps",
      "outputs": [],
      "stateMutability": "nonpayable",
      "type": "function"
    },
    {
      "inputs": [
        {
          "internalType": "contract IDatabase",
          "name": "database_",
          "type": "address"
        }
      ],
      "name": "setDatabase",
      "outputs": [],
      "stateMutability": "nonpayable",
      "type": "function"
    },
    {
      "inputs": [
        {
          "internalType": "uint128",
          "name": "minInvest_",
          "type": "uint128"
        },
        {
          "internalType": "uint128",
          "name": "maxDeposit_",
          "type": "uint128"
        }
      ],
      "name": "setDepositLimitsPerUser",
      "outputs": [],
      "stateMutability": "nonpayable",
      "type": "function"
    },
    {
      "inputs": [
        {
          "internalType": "uint32",
          "name": "start",
          "type": "uint32"
        },
        {
          "internalType": "uint32",
          "name": "stop",
          "type": "uint32"
        }
      ],
      "name": "setTimes",
      "outputs": [],
      "stateMutability": "nonpayable",
      "type": "function"
    },
    {
      "inputs": [
        {
          "internalType": "address",
          "name": "treasury_",
          "type": "address"
        }
      ],
      "name": "setTreasury",
      "outputs": [],
      "stateMutability": "nonpayable",
      "type": "function"
    },
    {
      "inputs": [
        {
          "internalType": "string",
          "name": "vaultURI_",
          "type": "string"
        }
      ],
      "name": "setVaultURI",
      "outputs": [],
      "stateMutability": "nonpayable",
      "type": "function"
    },
    {
      "inputs": [],
      "name": "stepVar",
      "outputs": [
        {
          "internalType": "bool",
          "name": "refunded",
          "type": "bool"
        },
        {
          "internalType": "uint32",
          "name": "depositsStart",
          "type": "uint32"
        },
        {
          "internalType": "uint32",
          "name": "depositsStop",
          "type": "uint32"
        },
        {
          "internalType": "uint128",
          "name": "softCap",
          "type": "uint128"
        },
        {
          "internalType": "uint128",
          "name": "hardCap",
          "type": "uint128"
        },
        {
          "internalType": "uint128",
          "name": "maxDepositPerUser",
          "type": "uint128"
        },
        {
          "internalType": "uint128",
          "name": "minInvestPerUser",
          "type": "uint128"
        }
      ],
      "stateMutability": "view",
      "type": "function"
    },
    {
      "inputs": [
        {
          "internalType": "bytes4",
          "name": "interfaceId",
          "type": "bytes4"
        }
      ],
      "name": "supportsInterface",
      "outputs": [
        {
          "internalType": "bool",
          "name": "",
          "type": "bool"
        }
      ],
      "stateMutability": "view",
      "type": "function"
    },
    {
      "inputs": [],
      "name": "symbol",
      "outputs": [
        {
          "internalType": "string",
          "name": "",
          "type": "string"
        }
      ],
      "stateMutability": "view",
      "type": "function"
    },
    {
      "inputs": [],
      "name": "tokenPrice",
      "outputs": [
        {
          "internalType": "uint256",
          "name": "",
          "type": "uint256"
        }
      ],
      "stateMutability": "view",
      "type": "function"
    },
    {
      "inputs": [],
      "name": "totalAssets",
      "outputs": [
        {
          "internalType": "uint256",
          "name": "",
          "type": "uint256"
        }
      ],
      "stateMutability": "view",
      "type": "function"
    },
    {
      "inputs": [],
      "name": "totalSupply",
      "outputs": [
        {
          "internalType": "uint256",
          "name": "",
          "type": "uint256"
        }
      ],
      "stateMutability": "view",
      "type": "function"
    },
    {
      "inputs": [
        {
          "internalType": "address",
          "name": "to",
          "type": "address"
        },
        {
          "internalType": "uint256",
          "name": "amount",
          "type": "uint256"
        }
      ],
      "name": "transfer",
      "outputs": [
        {
          "internalType": "bool",
          "name": "",
          "type": "bool"
        }
      ],
      "stateMutability": "nonpayable",
      "type": "function"
    },
    {
      "inputs": [
        {
          "internalType": "address",
          "name": "from",
          "type": "address"
        },
        {
          "internalType": "address",
          "name": "to",
          "type": "address"
        },
        {
          "internalType": "uint256",
          "name": "amount",
          "type": "uint256"
        }
      ],
      "name": "transferFrom",
      "outputs": [
        {
          "internalType": "bool",
          "name": "",
          "type": "bool"
        }
      ],
      "stateMutability": "nonpayable",
      "type": "function"
    },
    {
      "inputs": [],
      "name": "treasury",
      "outputs": [
        {
          "internalType": "address",
          "name": "",
          "type": "address"
        }
      ],
      "stateMutability": "view",
      "type": "function"
    },
    {
      "inputs": [],
      "name": "unpause",
      "outputs": [],
      "stateMutability": "nonpayable",
      "type": "function"
    },
    {
      "inputs": [
        {
          "internalType": "int256",
          "name": "interest",
          "type": "int256"
        }
      ],
      "name": "updateInterest",
      "outputs": [],
      "stateMutability": "nonpayable",
      "type": "function"
    },
    {
      "inputs": [],
      "name": "vaultURI",
      "outputs": [
        {
          "internalType": "string",
          "name": "",
          "type": "string"
        }
      ],
      "stateMutability": "view",
      "type": "function"
    },
    {
      "inputs": [
        {
          "internalType": "uint256",
          "name": "assets",
          "type": "uint256"
        },
        {
          "internalType": "address",
          "name": "receiver",
          "type": "address"
        },
        {
          "internalType": "address",
          "name": "owner",
          "type": "address"
        }
      ],
      "name": "withdraw",
      "outputs": [
        {
          "internalType": "uint256",
          "name": "shares",
          "type": "uint256"
        }
      ],
      "stateMutability": "nonpayable",
      "type": "function"
    }
  ],
  "bytecode": {
    "object": "0x60806040523480156200001157600080fd5b50600054610100900460ff1615808015620000335750600054600160ff909116105b8062000063575062000050306200013d60201b62001fed1760201c565b15801562000063575060005460ff166001145b620000cb5760405162461bcd60e51b815260206004820152602e60248201527f496e697469616c697a61626c653a20636f6e747261637420697320616c72656160448201526d191e481a5b9a5d1a585b1a5e995960921b606482015260840160405180910390fd5b6000805460ff191660011790558015620000ef576000805461ff0019166101001790555b801562000136576000805461ff0019169055604051600181527f7f26b83ff96e1f2b6a682f133852f6798a09c465da95921460cefb38474024989060200160405180910390a15b506200014c565b6001600160a01b03163b151590565b6144fa806200015c6000396000f3fe608060405234801561001057600080fd5b50600436106103db5760003560e01c80637ff9b5961161020a578063bd26057e11610125578063d5f2b0cc116100b8578063e0f41f3a11610087578063e0f41f3a146108b6578063e35d33f6146106d8578063ef8b30f714610816578063f0f44260146108c9578063f5420374146108dc57600080fd5b8063d5f2b0cc1461086a578063d905777e1461087d578063dd62ed3e14610890578063dfd5473c146108a357600080fd5b8063ca15c873116100f4578063ca15c87314610829578063ce96cb771461083c578063d406008d1461084f578063d547741f1461085757600080fd5b8063bd26057e14610760578063c1eb5ddd14610801578063c63d75b614610572578063c6e6f5921461081657600080fd5b80639e5288a01161019d578063a9059cbb1161016c578063a9059cbb14610714578063b3d7f6b914610727578063b460af941461073a578063ba0876521461074d57600080fd5b80639e5288a0146106c3578063a217fddf146106d8578063a340cf79146106e0578063a457c2d71461070157600080fd5b80639010d07c116101d95780639010d07c1461069557806391d14854146106a857806394bf804d146105fa57806395d89b41146106bb57600080fd5b80637ff9b5961461066657806384061853146106705780638456cb59146106835780638e95bab21461068b57600080fd5b806338d52e0f116102fa5780635c975abb1161028d5780636e553f651161025c5780636e553f65146105fa57806370a082311461060d57806376a24f25146106365780637aadef8b1461063f57600080fd5b80635c975abb146105be5780635cb5e41d146105ca5780635dc5eaf3146105de57806361d027b3146105e657600080fd5b8063490248e3116102c9578063490248e3146105855780634cdad506146104335780634d974d83146105985780635a67f6cb146105ab57600080fd5b806338d52e0f1461053257806339509351146105575780633f4ba83a1461056a578063402d267d1461057257600080fd5b806323b872dd11610372578063313ce56711610341578063313ce567146104da57806336568abe146104f95780633670e7b11461050c578063373cad571461051f57600080fd5b806323b872dd14610489578063248a9ca31461049c57806329d29799146104bf5780632f2ff15d146104c757600080fd5b8063095ea7b3116103ae578063095ea7b3146104465780630a28a4771461045957806318160ddd1461046c5780631bb133b01461047457600080fd5b806301e1d114146103e057806301ffc9a7146103fb57806306fdde031461041e57806307a2d13a14610433575b600080fd5b6103e86108ef565b6040519081526020015b60405180910390f35b61040e610409366004613aa4565b610961565b60405190151581526020016103f2565b61042661098c565b6040516103f29190613afa565b6103e8610441366004613b2d565b610a1e565b61040e610454366004613b6b565b610a2b565b6103e8610467366004613b2d565b610a43565b6035546103e8565b610487610482366004613bb7565b610a50565b005b61040e610497366004613bf0565b610c20565b6103e86104aa366004613b2d565b600090815260c9602052604090206001015490565b6103e8610c46565b6104876104d5366004613c31565b610ccd565b606554600160a01b900460ff1660405160ff90911681526020016103f2565b610487610507366004613c31565b610cf7565b61048761051a366004613c64565b610d75565b61048761052d366004613b2d565b610deb565b6065546001600160a01b03165b6040516001600160a01b0390911681526020016103f2565b61040e610565366004613b6b565b610ea3565b610487610ec5565b6103e8610580366004613c81565b610edb565b610487610593366004613bb7565b610f13565b6104876105a6366004613d5e565b610ff2565b6104876105b9366004613b2d565b611457565b61015f5460ff1661040e565b6101925461053f906001600160a01b031681565b6104266115eb565b6101965461053f906001600160a01b031681565b6103e8610608366004613c31565b61167a565b6103e861061b366004613c81565b6001600160a01b031660009081526033602052604090205490565b610191546103e8565b6103e87faefebe170cbaff0af052a32795af0e1b8afff9850f946ad2869be14f3553437181565b6103e86101975481565b6103e861067e366004613b2d565b6116a4565b6104876116be565b6103e86101985481565b61053f6106a3366004613e73565b6116de565b61040e6106b6366004613c31565b6116f6565b610426611721565b6106cb611730565b6040516103f29190613ecd565b6103e8600081565b6103e86106ee366004613c81565b61019a6020526000908152604090205481565b61040e61070f366004613b6b565b61180e565b61040e610722366004613b6b565b611894565b6103e8610735366004613b2d565b6118a2565b6103e8610748366004613edb565b6118af565b6103e861075b366004613edb565b611a14565b6101935461019454610195546107b39260ff81169263ffffffff6101008304811693600160281b8404909116926001600160801b03600160481b90910481169280821692600160801b9091048216911687565b60408051971515885263ffffffff968716602089015295909416948601949094526001600160801b0391821660608601528116608085015291821660a08401521660c082015260e0016103f2565b6103e86000805160206144a583398151915281565b6103e8610824366004613b2d565b611b43565b6103e8610837366004613b2d565b611b50565b6103e861084a366004613c81565b611b67565b6103e8611bb2565b610487610865366004613c31565b611c1b565b610487610878366004613f1d565b611c40565b6103e861088b366004613c81565b611d54565b6103e861089e366004613f4b565b611d94565b6104876108b1366004613f79565b611dbf565b6103e86108c4366004613c81565b611e3c565b6104876108d7366004613c81565b611e85565b6104876108ea366004613c81565b611f32565b6065546040516370a0823160e01b81523060048201526000916001600160a01b0316906370a0823190602401602060405180830381865afa158015610938573d6000803e3d6000fd5b505050506040513d601f19601f8201168201806040525081019061095c9190613feb565b905090565b60006001600160e01b03198216635a05180f60e01b1480610986575061098682611ffc565b92915050565b60606036805461099b90614004565b80601f01602080910402602001604051908101604052809291908181526020018280546109c790614004565b8015610a145780601f106109e957610100808354040283529160200191610a14565b820191906000526020600020905b8154815290600101906020018083116109f757829003601f168201915b5050505050905090565b6000610986826000612031565b600033610a39818585612055565b5060019392505050565b6000610986826001612179565b6000805160206144a5833981519152610a688161219d565b6040805160e0810182526101935460ff81161515825263ffffffff610100820481166020840152600160281b820416928201929092526001600160801b03600160481b909204821660608201819052610194548084166080840152600160801b9004831660a083015261019554831660c083015290918416811015610b175760405163010a45ab60e21b8152600481018290526001600160801b03851660248201526044015b60405180910390fd5b836001600160801b0316856001600160801b031610610b5b5760405163010a45ab60e21b8152600481018290526001600160801b0386166024820152604401610b0e565b506001600160801b0392831660a0820181905293831660c082018190528151610193805460208501516040860151606087015164ffffffffff1990931694151564ffffffff0019169490941761010063ffffffff928316021765010000000000600160c81b031916600160281b9190941602600160481b600160c81b03191692909217600160481b92871692909202919091179055608090910151909216600160801b909302929092176101945561019580546001600160801b031916909117905550565b600033610c2e8582856121a7565b610c3985858561221b565b60019150505b9392505050565b610196546000906001600160a01b0316338114610c8457335b604051634ab6cb6760e11b81526001600160a01b039091166004820152602401610b0e565b610c8e60026123c6565b91507fcd44c06e81c4f40db53746db76839e7106609855a483a8e72a05877dc3ea225c82604051610cc191815260200190565b60405180910390a15090565b600082815260c96020526040902060010154610ce88161219d565b610cf283836124de565b505050565b6001600160a01b0381163314610d675760405162461bcd60e51b815260206004820152602f60248201527f416363657373436f6e74726f6c3a2063616e206f6e6c792072656e6f756e636560448201526e103937b632b9903337b91039b2b63360891b6064820152608401610b0e565b610d718282612500565b5050565b6000610d808161219d565b81610da1576040516375403cf360e01b815260006004820152602401610b0e565b6000610dab611730565b90506002816004811115610dc157610dc1613e95565b14610de157806040516336100b6760e11b8152600401610b0e9190613ecd565b610cf26000612522565b80600003610e0f576040516375403cf360e01b815260016004820152602401610b0e565b610196546001600160a01b0316336001600160a01b031614610e315733610c5f565b6000610e3b611730565b90506002816004811115610e5157610e51613e95565b14610e7157806040516336100b6760e11b8152600401610b0e9190613ecd565b610e9a333084610e896065546001600160a01b031690565b6001600160a01b031692919061265f565b610d7182612522565b600033610a39818585610eb68383611d94565b610ec09190614054565b612055565b6000610ed08161219d565b610ed86126ca565b50565b60006001610ee7611730565b6004811115610ef857610ef8613e95565b03610f0b57610f068261271d565b610986565b600092915050565b6000805160206144a5833981519152610f2b8161219d565b6001600160801b0383161580610f525750816001600160801b0316836001600160801b0316115b15610f7057604051630c5af70760e11b815260040160405180910390fd5b6101938054600160481b600160c81b031916600160481b6001600160801b038681169182029290921790925561019480546001600160801b03191691851691821790556040805192835260208301919091527ffa35f2d22b9a5eb6bed3254e60910f91291653a71679c8cbb1f00d24551a45c4910160405180910390a1505050565b600054610100900460ff16158080156110125750600054600160ff909116105b8061102c5750303b15801561102c575060005460ff166001145b61108f5760405162461bcd60e51b815260206004820152602e60248201527f496e697469616c697a61626c653a20636f6e747261637420697320616c72656160448201526d191e481a5b9a5d1a585b1a5e995960921b6064820152608401610b0e565b6000805460ff1916600117905580156110b2576000805461ff0019166101001790555b6110ba612836565b6110c38c612867565b6110cd8b8b612897565b6110d56128c8565b856001600160a01b031663fe60d26b6040518163ffffffff1660e01b8152600401602060405180830381865afa158015611113573d6000803e3d6000fd5b505050506040513d601f19601f82011682018060405250810190611137919061406c565b611154576040516381867da560e01b815260040160405180910390fd5b60008c6001600160a01b031663313ce5676040518163ffffffff1660e01b8152600401602060405180830381865afa158015611194573d6000803e3d6000fd5b505050506040513d601f19601f820116820180604052508101906111b89190614089565b60ff169050806012141580156111cf575080600614155b156111fe576040516315f3703160e31b8152601260048201526006602482015260448101829052606401610b0e565b876001600160a01b03163b60000361123457604051634ab6cb6760e11b81526001600160a01b0389166004820152602401610b0e565b600061124182600a614190565b905061124e60008b6124de565b6112666000805160206144a58339815191528b6124de565b61127e6000805160206144a5833981519152336124de565b8a51611292906101999060208e0190613997565b506040518060e001604052806000151581526020018663ffffffff1681526020018563ffffffff168152602001886001600160801b03168152602001876001600160801b031681526020016003896112ea91906141b2565b6001600160801b03168152602001611304836101f46141e6565b6001600160801b039081169091528151610193805460208501516040860151606087015164ffffffffff1990931694151564ffffffff0019169490941761010063ffffffff928316021765010000000000600160c81b031916600160281b9190941602600160481b600160c81b03191692909217600160481b92841692909202919091179055608082015160a0830151908216600160801b91831691909102176101945560c09091015161019580546001600160801b0319169190921617905561019680546001600160a01b03199081166001600160a01b038c8116919091179092556101928054909116918a1691909117905561019781905561019155508015611449576000805461ff0019169055604051600181527f7f26b83ff96e1f2b6a682f133852f6798a09c465da95921460cefb38474024989060200160405180910390a15b505050505050505050505050565b6000805160206144a583398151915261146f8161219d565b6000611479611730565b9050600281600481111561148f5761148f613e95565b146114af57806040516336100b6760e11b8152600401610b0e9190613ecd565b610197546000808512156115465760006114cb61067e87614205565b9050828111156114f157604051637cef6ce360e11b815260048101879052602401610b0e565b6114fb8184614221565b91507f5ac4f964bd8aac40cf8a592c906866d09d34e81d1ef0b1c659252c3151e471c333604080516001600160a01b039092168252602082018990520160405180910390a1506115a4565b6000611551866116a4565b905061155d8184614054565b91507f5ac4f964bd8aac40cf8a592c906866d09d34e81d1ef0b1c659252c3151e471c333604080516001600160a01b039092168252602082018990520160405180910390a1505b61019781905560408051838152602081018390527f945c1c4e99aa89f648fbfe3df471b916f719e16d960fcec0737d4d56bd69683891015b60405180910390a15050505050565b61019980546115f990614004565b80601f016020809104026020016040519081016040528092919081815260200182805461162590614004565b80156116725780601f1061164757610100808354040283529160200191611672565b820191906000526020600020905b81548152906001019060200180831161165557829003601f168201915b505050505081565b60006116846128f7565b61168c612952565b611697833384612999565b9050610986600161012d55565b6000610986610191546116b660355490565b849190612bb0565b6000805160206144a58339815191526116d68161219d565b610ed8612c5f565b600082815260fb60205260408120610c3f9083612c9d565b600091825260c9602090815260408084206001600160a01b0393909316845291905290205460ff1690565b60606037805461099b90614004565b6000806000806000306001600160a01b031663bd26057e6040518163ffffffff1660e01b815260040160e060405180830381865afa158015611776573d6000803e3d6000fd5b505050506040513d601f19601f8201168201806040525081019061179a9190614238565b50505093509350935093508263ffffffff164210156117be57600094505050505090565b8163ffffffff164210156117d757600194505050505090565b806001600160801b03166101985410156117f657600394505050505090565b83611802576002611805565b60045b94505050505090565b6000338161181c8286611d94565b90508381101561187c5760405162461bcd60e51b815260206004820152602560248201527f45524332303a2064656372656173656420616c6c6f77616e63652062656c6f77604482015264207a65726f60d81b6064820152608401610b0e565b6118898286868403612055565b506001949350505050565b600033610a3981858561221b565b6000610986826001612031565b60006118b96128f7565b6118c1612952565b60006118cb611730565b905060028160048111156118e1576118e1613e95565b0361190157806040516336100b6760e11b8152600401610b0e9190613ecd565b61190a85610a43565b915061192b836001600160a01b031660009081526033602052604090205490565b82111561197a5760405162461bcd60e51b815260206004820152601f60248201527f455243343632363a207769746864726177206d6f7265207468616e206d6178006044820152606401610b0e565b6119873385858886612ca9565b600481600481111561199b5761199b613e95565b14611a08578461019860008282546119b39190614221565b90915550506001600160a01b038316600090815261019a6020526040902054808610156119e9576119e48682614221565b6119ec565b60005b6001600160a01b038516600090815261019a6020526040902055505b50610c3f600161012d55565b6000611a1e6128f7565b611a26612952565b6000611a30611730565b90506002816004811115611a4657611a46613e95565b03611a6657806040516336100b6760e11b8152600401610b0e9190613ecd565b6001600160a01b038316600090815260336020526040902054851115611ace5760405162461bcd60e51b815260206004820152601d60248201527f455243343632363a2072656465656d206d6f7265207468616e206d61780000006044820152606401610b0e565b611ad785610a1e565b9150611ae63385858589612ca9565b6004816004811115611afa57611afa613e95565b14611a0857816101986000828254611b129190614221565b90915550506001600160a01b038316600090815261019a6020526040902054808310156119e9576119e48382614221565b6000610986826000612179565b600081815260fb6020526040812061098690612d55565b60006002611b73611730565b6004811115611b8457611b84613e95565b14610f0b57610f06611bab836001600160a01b031660009081526033602052604090205490565b6000612031565b60007faefebe170cbaff0af052a32795af0e1b8afff9850f946ad2869be14f35534371611bde8161219d565b611be860046123c6565b91507fb4192707c71da259814532b3eb648e78c9d78d6a3b9234baed7a183808f8c54c82604051610cc191815260200190565b600082815260c96020526040902060010154611c368161219d565b610cf28383612500565b6000805160206144a5833981519152611c588161219d565b6000611c62611730565b90506002816004811115611c7857611c78613e95565b1115611c9957806040516336100b6760e11b8152600401610b0e9190613ecd565b8263ffffffff168463ffffffff161180611cb85750428463ffffffff16105b15611cd6576040516335c4a3b960e11b815260040160405180910390fd5b610193805468ffffffffffffffff00191661010063ffffffff87811691820268ffffffff0000000000191692909217600160281b928716928302179092556040805192835260208301919091527f8f8d0d2155084c34c7e189b664aa128aebfd57e564d2d01c82a148d3da3a3bbc910160405180910390a150505050565b60006002611d60611730565b6004811115611d7157611d71613e95565b14610f0b576001600160a01b038216600090815260336020526040902054610986565b6001600160a01b03918216600090815260346020908152604080832093909416825291909152205490565b6000611dca8161219d565b6000829003611df05782826040516303c5d03760e01b8152600401610b0e9291906142d4565b7f82b4c0c51f891b823eff0c623396a3d488ad9c5fa87eaf6536a5e30257cfe6248383604051611e219291906142d4565b60405180910390a1611e366101998484613a1b565b50505050565b6001600160a01b038116600090815261019a6020526040812054610195546001600160801b031680821015611e7a57611e758282614221565b611e7d565b60005b949350505050565b6000611e908161219d565b816001600160a01b03163b600003611ec657604051634ab6cb6760e11b81526001600160a01b0383166004820152602401610b0e565b61019654604080516001600160a01b03928316815291841660208301527f4ab5be82436d353e61ca18726e984e561f5c1cc7c6d38b29d2553c790434705a910160405180910390a15061019680546001600160a01b0319166001600160a01b0392909216919091179055565b6000805160206144a5833981519152611f4a8161219d565b816001600160a01b031663fe60d26b6040518163ffffffff1660e01b8152600401602060405180830381865afa158015611f88573d6000803e3d6000fd5b505050506040513d601f19601f82011682018060405250810190611fac919061406c565b611fc9576040516381867da560e01b815260040160405180910390fd5b5061019280546001600160a01b0319166001600160a01b0392909216919091179055565b6001600160a01b03163b151590565b60006001600160e01b03198216637965db0b60e01b148061098657506301ffc9a760e01b6001600160e01b0319831614610986565b6000808311612041576000610c3f565b6101975461019154610c3f91859185612d5f565b6001600160a01b0383166120b75760405162461bcd60e51b8152602060048201526024808201527f45524332303a20617070726f76652066726f6d20746865207a65726f206164646044820152637265737360e01b6064820152608401610b0e565b6001600160a01b0382166121185760405162461bcd60e51b815260206004820152602260248201527f45524332303a20617070726f766520746f20746865207a65726f206164647265604482015261737360f01b6064820152608401610b0e565b6001600160a01b0383811660008181526034602090815260408083209487168084529482529182902085905590518481527f8c5be1e5ebec7d5bd14f71427d1e84f3dd0314c0f7b2291e5b200ac8c7c3b925910160405180910390a3505050565b6000808311612189576000610c3f565b6101915461019754610c3f91859185612d5f565b610ed88133612dbc565b60006121b38484611d94565b90506000198114611e36578181101561220e5760405162461bcd60e51b815260206004820152601d60248201527f45524332303a20696e73756666696369656e7420616c6c6f77616e63650000006044820152606401610b0e565b611e368484848403612055565b6001600160a01b03831661227f5760405162461bcd60e51b815260206004820152602560248201527f45524332303a207472616e736665722066726f6d20746865207a65726f206164604482015264647265737360d81b6064820152608401610b0e565b6001600160a01b0382166122e15760405162461bcd60e51b815260206004820152602360248201527f45524332303a207472616e7366657220746f20746865207a65726f206164647260448201526265737360e81b6064820152608401610b0e565b6001600160a01b038316600090815260336020526040902054818110156123595760405162461bcd60e51b815260206004820152602660248201527f45524332303a207472616e7366657220616d6f756e7420657863656564732062604482015265616c616e636560d01b6064820152608401610b0e565b6001600160a01b0380851660008181526033602052604080822086860390559286168082529083902080548601905591517fddf252ad1be2c89b69c2b068fc378daa952ba7f163c4a11628f55a4df523b3ef906123b99086815260200190565b60405180910390a3611e36565b6000806123d1611730565b90508260048111156123e5576123e5613e95565b8160048111156123f7576123f7613e95565b1461241a5760048160405163567dfef960e01b8152600401610b0e929190614303565b600061242e6065546001600160a01b031690565b6040516370a0823160e01b81523060048201529091506001600160a01b038216906370a0823190602401602060405180830381865afa158015612475573d6000803e3d6000fd5b505050506040513d601f19601f820116820180604052508101906124999190613feb565b9250826000036124bc57604051634a2ccc4360e01b815260040160405180910390fd5b610196546124d7906001600160a01b03838116911685612e15565b5050919050565b6124e88282612e45565b600082815260fb60205260409020610cf29082612ecb565b61250a8282612ee0565b600082815260fb60205260409020610cf29082612f47565b610198546000612532828461431e565b610197549091506000612544856116a4565b610197819055610193805460ff1916600117905560408051878152602081018790529192507f502833ea9eb26966767980111b75e4b8e013aeea7b9493478424afc7869399c4910160405180910390a160008312156125ec577f727586bb3240e37cfc23d9c04f5d2c8f8c85602f6be89e0a8698e1a5a4c891d084866125c986614205565b6040805193845260208401929092529082015260600160405180910390a1612629565b6000831315612629576040518381527f8a335823c2fa2c1e28bd8d65eb9cbe0194f76293b1626a460597adc993d606cd9060200160405180910390a15b60408051838152602081018390527f945c1c4e99aa89f648fbfe3df471b916f719e16d960fcec0737d4d56bd69683891016115dc565b6040516001600160a01b0380851660248301528316604482015260648101829052611e369085906323b872dd60e01b906084015b60408051601f198184030181529190526020810180516001600160e01b03166001600160e01b031990931692909217909152612f5c565b6126d261302e565b61015f805460ff191690557f5db9ee0a495bf2e6ff9c91a7834c1ba4fdd244a5e8aa4e537bd38aeae4b073aa335b6040516001600160a01b03909116815260200160405180910390a1565b6000806000306001600160a01b031663bd26057e6040518163ffffffff1660e01b815260040160e060405180830381865afa158015612760573d6000803e3d6000fd5b505050506040513d601f19601f820116820180604052508101906127849190614238565b50610198546001600160a01b038b16600090815261019a60205260409020549298509096509450925050506001600160801b038083169085161115806127dc5750806001600160801b0316836001600160801b031611155b156127ed5750600095945050505050565b60006127f9828561435d565b6001600160801b031690506000612810848761435d565b6001600160801b03169050808211612828578161282a565b805b98975050505050505050565b600054610100900460ff1661285d5760405162461bcd60e51b8152600401610b0e90614385565b612865613078565b565b600054610100900460ff1661288e5760405162461bcd60e51b8152600401610b0e90614385565b610ed8816130ac565b600054610100900460ff166128be5760405162461bcd60e51b8152600401610b0e90614385565b610d718282613131565b600054610100900460ff166128ef5760405162461bcd60e51b8152600401610b0e90614385565b61286561317f565b600261012d540361294a5760405162461bcd60e51b815260206004820152601f60248201527f5265656e7472616e637947756172643a207265656e7472616e742063616c6c006044820152606401610b0e565b600261012d55565b61015f5460ff16156128655760405162461bcd60e51b815260206004820152601060248201526f14185d5cd8589b194e881c185d5cd95960821b6044820152606401610b0e565b61019254604051630808f3eb60e01b81526001600160a01b0384811660048301526000921690630808f3eb90602401602060405180830381865afa1580156129e5573d6000803e3d6000fd5b505050506040513d601f19601f82011682018060405250810190612a09919061406c565b612a315760405163c8f9bd5960e01b81526001600160a01b0384166004820152602401610b0e565b6001600160a01b038216612a5857604051631abcef9360e21b815260040160405180910390fd5b83600003612a795760405163836843a560e01b815260040160405180910390fd5b6000612a83611730565b90506001816004811115612a9957612a99613e95565b14612abc5760018160405163567dfef960e01b8152600401610b0e929190614303565b612ac58461271d565b851115612b145760405162461bcd60e51b815260206004820152601e60248201527f455243343632363a206465706f736974206d6f7265207468616e206d617800006044820152606401610b0e565b6000612b1f85611e3c565b905080861015612b4c576040516313ed593f60e11b81526004810182905260248101879052604401610b0e565b612b58858588896131a6565b856101986000828254612b6b9190614054565b90915550506001600160a01b038516600090815261019a602052604081208054889290612b99908490614054565b90915550959695505050505050565b600161012d55565b6000808060001985870985870292508281108382030391505080600003612bea57838281612be057612be061419c565b0492505050610c3f565b808411612bf657600080fd5b60008486880960026001871981018816978890046003810283188082028403028082028403028082028403028082028403028082028403029081029092039091026000889003889004909101858311909403939093029303949094049190911702949350505050565b612c67612952565b61015f805460ff191660011790557f62e78cea01bee320cd4e420270b5ea74000d11b0c9f74754ebdbfc544b05a2586127003390565b6000610c3f8383613224565b826001600160a01b0316856001600160a01b031614612ccd57612ccd8386836121a7565b612cd7838261324e565b606554612cee906001600160a01b03168584612e15565b826001600160a01b0316846001600160a01b0316866001600160a01b03167ffbde797d201c681b91056529119e0b02407c7bb96a4a2c75c01fc9667232c8db8585604051612d46929190918252602082015260400190565b60405180910390a45050505050565b6000610986825490565b600080612d6d868686612bb0565b90506001836002811115612d8357612d83613e95565b148015612da0575060008480612d9b57612d9b61419c565b868809115b15612db357612db0600182614054565b90505b95945050505050565b612dc682826116f6565b610d7157612dd381613382565b612dde836020613394565b604051602001612def9291906143d0565b60408051601f198184030181529082905262461bcd60e51b8252610b0e91600401613afa565b6040516001600160a01b038316602482015260448101829052610cf290849063a9059cbb60e01b90606401612693565b612e4f82826116f6565b610d7157600082815260c9602090815260408083206001600160a01b03851684529091529020805460ff19166001179055612e873390565b6001600160a01b0316816001600160a01b0316837f2f8788117e7eff1d82e926ec794901d17c78024a50270940304540a733656f0d60405160405180910390a45050565b6000610c3f836001600160a01b038416613530565b612eea82826116f6565b15610d7157600082815260c9602090815260408083206001600160a01b0385168085529252808320805460ff1916905551339285917ff6391f5c32d9c69d2a47ea670b442974b53935d1edc7fd64eb21e047a839171b9190a45050565b6000610c3f836001600160a01b03841661357f565b6000612fb1826040518060400160405280602081526020017f5361666545524332303a206c6f772d6c6576656c2063616c6c206661696c6564815250856001600160a01b03166136729092919063ffffffff16565b805190915015610cf25780806020019051810190612fcf919061406c565b610cf25760405162461bcd60e51b815260206004820152602a60248201527f5361666545524332303a204552433230206f7065726174696f6e20646964206e6044820152691bdd081cdd58d8d9595960b21b6064820152608401610b0e565b61015f5460ff166128655760405162461bcd60e51b815260206004820152601460248201527314185d5cd8589b194e881b9bdd081c185d5cd95960621b6044820152606401610b0e565b600054610100900460ff1661309f5760405162461bcd60e51b8152600401610b0e90614385565b61015f805460ff19169055565b600054610100900460ff166130d35760405162461bcd60e51b8152600401610b0e90614385565b6000806130df83613681565b91509150816130ef5760126130f1565b805b606580546001600160a01b039095166001600160a01b031960ff93909316600160a01b02929092166001600160a81b031990951694909417179092555050565b600054610100900460ff166131585760405162461bcd60e51b8152600401610b0e90614385565b815161316b906036906020850190613997565b508051610cf2906037906020840190613997565b600054610100900460ff16612ba85760405162461bcd60e51b8152600401610b0e90614385565b6065546131be906001600160a01b031685308561265f565b6131c8838261375d565b826001600160a01b0316846001600160a01b03167fdcbc1c05240f31ff3ad067ef1ee35ce4997762752e3a095284754544f4c709d78484604051613216929190918252602082015260400190565b60405180910390a350505050565b600082600001828154811061323b5761323b614445565b9060005260206000200154905092915050565b6001600160a01b0382166132ae5760405162461bcd60e51b815260206004820152602160248201527f45524332303a206275726e2066726f6d20746865207a65726f206164647265736044820152607360f81b6064820152608401610b0e565b6001600160a01b038216600090815260336020526040902054818110156133225760405162461bcd60e51b815260206004820152602260248201527f45524332303a206275726e20616d6f756e7420657863656564732062616c616e604482015261636560f01b6064820152608401610b0e565b6001600160a01b03831660008181526033602090815260408083208686039055603580548790039055518581529192917fddf252ad1be2c89b69c2b068fc378daa952ba7f163c4a11628f55a4df523b3ef910160405180910390a3505050565b60606109866001600160a01b03831660145b606060006133a38360026141e6565b6133ae906002614054565b67ffffffffffffffff8111156133c6576133c6613c9e565b6040519080825280601f01601f1916602001820160405280156133f0576020820181803683370190505b509050600360fc1b8160008151811061340b5761340b614445565b60200101906001600160f81b031916908160001a905350600f60fb1b8160018151811061343a5761343a614445565b60200101906001600160f81b031916908160001a905350600061345e8460026141e6565b613469906001614054565b90505b60018111156134e1576f181899199a1a9b1b9c1cb0b131b232b360811b85600f166010811061349d5761349d614445565b1a60f81b8282815181106134b3576134b3614445565b60200101906001600160f81b031916908160001a90535060049490941c936134da8161445b565b905061346c565b508315610c3f5760405162461bcd60e51b815260206004820181905260248201527f537472696e67733a20686578206c656e67746820696e73756666696369656e746044820152606401610b0e565b600081815260018301602052604081205461357757508154600181810184556000848152602080822090930184905584548482528286019093526040902091909155610986565b506000610986565b600081815260018301602052604081205480156136685760006135a3600183614221565b85549091506000906135b790600190614221565b905081811461361c5760008660000182815481106135d7576135d7614445565b90600052602060002001549050808760000184815481106135fa576135fa614445565b6000918252602080832090910192909255918252600188019052604090208390555b855486908061362d5761362d614472565b600190038181906000526020600020016000905590558560010160008681526020019081526020016000206000905560019350505050610986565b6000915050610986565b6060611e7d848460008561381e565b60408051600481526024810182526020810180516001600160e01b031663313ce56760e01b17905290516000918291829182916001600160a01b038716916136c891614488565b600060405180830381855afa9150503d8060008114613703576040519150601f19603f3d011682016040523d82523d6000602084013e613708565b606091505b509150915081801561371c57506020815110155b15613750576000818060200190518101906137379190613feb565b905060ff811161374e576001969095509350505050565b505b5060009485945092505050565b6001600160a01b0382166137b35760405162461bcd60e51b815260206004820152601f60248201527f45524332303a206d696e7420746f20746865207a65726f2061646472657373006044820152606401610b0e565b80603560008282546137c59190614054565b90915550506001600160a01b0382166000818152603360209081526040808320805486019055518481527fddf252ad1be2c89b69c2b068fc378daa952ba7f163c4a11628f55a4df523b3ef910160405180910390a35050565b60608247101561387f5760405162461bcd60e51b815260206004820152602660248201527f416464726573733a20696e73756666696369656e742062616c616e636520666f6044820152651c8818d85b1b60d21b6064820152608401610b0e565b600080866001600160a01b0316858760405161389b9190614488565b60006040518083038185875af1925050503d80600081146138d8576040519150601f19603f3d011682016040523d82523d6000602084013e6138dd565b606091505b50915091506138ee878383876138f9565b979650505050505050565b60608315613968578251600003613961576001600160a01b0385163b6139615760405162461bcd60e51b815260206004820152601d60248201527f416464726573733a2063616c6c20746f206e6f6e2d636f6e74726163740000006044820152606401610b0e565b5081611e7d565b611e7d838381511561397d5781518083602001fd5b8060405162461bcd60e51b8152600401610b0e9190613afa565b8280546139a390614004565b90600052602060002090601f0160209004810192826139c55760008555613a0b565b82601f106139de57805160ff1916838001178555613a0b565b82800160010185558215613a0b579182015b82811115613a0b5782518255916020019190600101906139f0565b50613a17929150613a8f565b5090565b828054613a2790614004565b90600052602060002090601f016020900481019282613a495760008555613a0b565b82601f10613a625782800160ff19823516178555613a0b565b82800160010185558215613a0b579182015b82811115613a0b578235825591602001919060010190613a74565b5b80821115613a175760008155600101613a90565b600060208284031215613ab657600080fd5b81356001600160e01b031981168114610c3f57600080fd5b60005b83811015613ae9578181015183820152602001613ad1565b83811115611e365750506000910152565b6020815260008251806020840152613b19816040850160208701613ace565b601f01601f19169190910160400192915050565b600060208284031215613b3f57600080fd5b5035919050565b6001600160a01b0381168114610ed857600080fd5b8035613b6681613b46565b919050565b60008060408385031215613b7e57600080fd5b8235613b8981613b46565b946020939093013593505050565b6001600160801b0381168114610ed857600080fd5b8035613b6681613b97565b60008060408385031215613bca57600080fd5b8235613bd581613b97565b91506020830135613be581613b97565b809150509250929050565b600080600060608486031215613c0557600080fd5b8335613c1081613b46565b92506020840135613c2081613b46565b929592945050506040919091013590565b60008060408385031215613c4457600080fd5b823591506020830135613be581613b46565b8015158114610ed857600080fd5b600060208284031215613c7657600080fd5b8135610c3f81613c56565b600060208284031215613c9357600080fd5b8135610c3f81613b46565b634e487b7160e01b600052604160045260246000fd5b600082601f830112613cc557600080fd5b813567ffffffffffffffff80821115613ce057613ce0613c9e565b604051601f8301601f19908116603f01168101908282118183101715613d0857613d08613c9e565b81604052838152866020858801011115613d2157600080fd5b836020870160208301376000602085830101528094505050505092915050565b63ffffffff81168114610ed857600080fd5b8035613b6681613d41565b60008060008060008060008060008060006101608c8e031215613d8057600080fd5b613d898c613b5b565b9a5067ffffffffffffffff8060208e01351115613da557600080fd5b613db58e60208f01358f01613cb4565b9a508060408e01351115613dc857600080fd5b613dd88e60408f01358f01613cb4565b99508060608e01351115613deb57600080fd5b50613dfc8d60608e01358e01613cb4565b9750613e0a60808d01613b5b565b9650613e1860a08d01613b5b565b9550613e2660c08d01613b5b565b9450613e3460e08d01613bac565b9350613e436101008d01613bac565b9250613e526101208d01613d53565b9150613e616101408d01613d53565b90509295989b509295989b9093969950565b60008060408385031215613e8657600080fd5b50508035926020909101359150565b634e487b7160e01b600052602160045260246000fd5b60058110613ec957634e487b7160e01b600052602160045260246000fd5b9052565b602081016109868284613eab565b600080600060608486031215613ef057600080fd5b833592506020840135613f0281613b46565b91506040840135613f1281613b46565b809150509250925092565b60008060408385031215613f3057600080fd5b8235613f3b81613d41565b91506020830135613be581613d41565b60008060408385031215613f5e57600080fd5b8235613f6981613b46565b91506020830135613be581613b46565b60008060208385031215613f8c57600080fd5b823567ffffffffffffffff80821115613fa457600080fd5b818501915085601f830112613fb857600080fd5b813581811115613fc757600080fd5b866020828501011115613fd957600080fd5b60209290920196919550909350505050565b600060208284031215613ffd57600080fd5b5051919050565b600181811c9082168061401857607f821691505b60208210810361403857634e487b7160e01b600052602260045260246000fd5b50919050565b634e487b7160e01b600052601160045260246000fd5b600082198211156140675761406761403e565b500190565b60006020828403121561407e57600080fd5b8151610c3f81613c56565b60006020828403121561409b57600080fd5b815160ff81168114610c3f57600080fd5b600181815b808511156140e75781600019048211156140cd576140cd61403e565b808516156140da57918102915b93841c93908002906140b1565b509250929050565b6000826140fe57506001610986565b8161410b57506000610986565b8160018114614121576002811461412b57614147565b6001915050610986565b60ff84111561413c5761413c61403e565b50506001821b610986565b5060208310610133831016604e8410600b841016171561416a575081810a610986565b61417483836140ac565b80600019048211156141885761418861403e565b029392505050565b6000610c3f83836140ef565b634e487b7160e01b600052601260045260246000fd5b60006001600160801b03808416806141da57634e487b7160e01b600052601260045260246000fd5b92169190910492915050565b60008160001904831182151516156142005761420061403e565b500290565b6000600160ff1b820161421a5761421a61403e565b5060000390565b6000828210156142335761423361403e565b500390565b600080600080600080600060e0888a03121561425357600080fd5b875161425e81613c56565b602089015190975061426f81613d41565b604089015190965061428081613d41565b606089015190955061429181613b97565b60808901519094506142a281613b97565b60a08901519093506142b381613b97565b60c08901519092506142c481613b97565b8091505092959891949750929550565b60208152816020820152818360408301376000818301604090810191909152601f909201601f19160101919050565b604081016143118285613eab565b610c3f6020830184613eab565b60008083128015600160ff1b85018412161561433c5761433c61403e565b6001600160ff1b03840183138116156143575761435761403e565b50500390565b60006001600160801b038381169083168181101561437d5761437d61403e565b039392505050565b6020808252602b908201527f496e697469616c697a61626c653a20636f6e7472616374206973206e6f74206960408201526a6e697469616c697a696e6760a81b606082015260800190565b7f416363657373436f6e74726f6c3a206163636f756e7420000000000000000000815260008351614408816017850160208801613ace565b7001034b99036b4b9b9b4b733903937b6329607d1b6017918401918201528351614439816028840160208801613ace565b01602801949350505050565b634e487b7160e01b600052603260045260246000fd5b60008161446a5761446a61403e565b506000190190565b634e487b7160e01b600052603160045260246000fd5b6000825161449a818460208701613ace565b919091019291505056feb1e380c01db319c0153ea3bb4fbd0ab6639cc088e3bf8cd5319b128f33a2f9e8a26469706673582212204b5de13c41fb357d1b90f682f96e36f90c3cdd4d5fdb3488e086029835f07db164736f6c634300080e0033",
    "linkReferences": {}
  },
  "methodIdentifiers": {
    "DEFAULT_ADMIN_ROLE()": "a217fddf",
    "DEV()": "c1eb5ddd",
    "KONKRETE()": "e35d33f6",
    "TIMELOCK()": "7aadef8b",
    "allowance(address,address)": "dd62ed3e",
    "approve(address,uint256)": "095ea7b3",
    "asset()": "38d52e0f",
    "balanceOf(address)": "70a08231",
    "collectCapital()": "29d29799",
    "collectUnclaimedFunds()": "d406008d",
    "collectedCapital()": "8e95bab2",
    "convertToAssets(uint256)": "07a2d13a",
    "convertToShares(uint256)": "c6e6f592",
    "dataBase()": "5cb5e41d",
    "decimals()": "313ce567",
    "decreaseAllowance(address,uint256)": "a457c2d7",
    "deposit(uint256,address)": "6e553f65",
    "emptyCapitalBack(bool)": "3670e7b1",
    "getRoleAdmin(bytes32)": "248a9ca3",
    "getRoleMember(bytes32,uint256)": "9010d07c",
    "getRoleMemberCount(bytes32)": "ca15c873",
    "getStep()": "9e5288a0",
    "grantRole(bytes32,address)": "2f2ff15d",
    "hasRole(bytes32,address)": "91d14854",
    "increaseAllowance(address,uint256)": "39509351",
    "initialize(address,string,string,string,address,address,address,uint128,uint128,uint32,uint32)": "4d974d83",
    "maxDeposit(address)": "402d267d",
    "maxMint(address)": "c63d75b6",
    "maxRedeem(address)": "d905777e",
    "maxWithdraw(address)": "ce96cb77",
    "minInvest(address)": "e0f41f3a",
    "mint(uint256,address)": "94bf804d",
    "name()": "06fdde03",
    "originalPrice()": "76a24f25",
    "paid(address)": "a340cf79",
    "pause()": "8456cb59",
    "paused()": "5c975abb",
    "previewDeposit(uint256)": "ef8b30f7",
    "previewMint(uint256)": "b3d7f6b9",
    "previewRedeem(uint256)": "4cdad506",
    "previewWithdraw(uint256)": "0a28a477",
    "priceImpact(uint256)": "84061853",
    "redeem(uint256,address,address)": "ba087652",
    "refundCapital(uint256)": "373cad57",
    "renounceRole(bytes32,address)": "36568abe",
    "revokeRole(bytes32,address)": "d547741f",
    "setCaps(uint128,uint128)": "490248e3",
    "setDatabase(address)": "f5420374",
    "setDepositLimitsPerUser(uint128,uint128)": "1bb133b0",
    "setTimes(uint32,uint32)": "d5f2b0cc",
    "setTreasury(address)": "f0f44260",
    "setVaultURI(string)": "dfd5473c",
    "stepVar()": "bd26057e",
    "supportsInterface(bytes4)": "01ffc9a7",
    "symbol()": "95d89b41",
    "tokenPrice()": "7ff9b596",
    "totalAssets()": "01e1d114",
    "totalSupply()": "18160ddd",
    "transfer(address,uint256)": "a9059cbb",
    "transferFrom(address,address,uint256)": "23b872dd",
    "treasury()": "61d027b3",
    "unpause()": "3f4ba83a",
    "updateInterest(int256)": "5a67f6cb",
    "vaultURI()": "5dc5eaf3",
    "withdraw(uint256,address,address)": "b460af94"
  },
  "id": 2
}