{
  "abi": [
    {
      "inputs": [],
      "stateMutability": "nonpayable",
      "type": "constructor"
    },
    {
      "inputs": [
        {
          "internalType": "uint256",
          "name": "minimum",
          "type": "uint256"
        },
        {
          "internalType": "uint256",
          "name": "amount",
          "type": "uint256"
        }
      ],
      "name": "BelowMinimumInvest",
      "type": "error"
    },
    {
      "inputs": [
        {
          "internalType": "int256",
          "name": "interest",
          "type": "int256"
        }
      ],
      "name": "InmpossibleInterest",
      "type": "error"
    },
    {
      "inputs": [],
      "name": "InvestZeroAmount",
      "type": "error"
    },
    {
      "inputs": [
        {
          "internalType": "address",
          "name": "msgSender",
          "type": "address"
        }
      ],
      "name": "MsgSenderUnauthorized",
      "type": "error"
    },
    {
      "inputs": [
        {
          "internalType": "int256",
          "name": "capitalAndInterest",
          "type": "int256"
        }
      ],
      "name": "NegativeCapital",
      "type": "error"
    },
    {
      "inputs": [
        {
          "internalType": "enum SaleStep",
          "name": "expected",
          "type": "uint8"
        },
        {
          "internalType": "enum SaleStep",
          "name": "currentStep",
          "type": "uint8"
        }
      ],
      "name": "NotExpectedStep",
      "type": "error"
    },
    {
      "inputs": [],
      "name": "ReceiverIsNullAddress",
      "type": "error"
    },
    {
      "inputs": [
        {
          "internalType": "address",
          "name": "receiver",
          "type": "address"
        }
      ],
      "name": "ReceiverUnauthorized",
      "type": "error"
    },
    {
      "inputs": [],
      "name": "TryToCollectZeroFund",
      "type": "error"
    },
    {
      "inputs": [],
      "name": "WrongCaps",
      "type": "error"
    },
    {
      "inputs": [],
      "name": "WrongDatabase",
      "type": "error"
    },
    {
      "inputs": [
        {
          "internalType": "uint256",
          "name": "expected1",
          "type": "uint256"
        },
        {
          "internalType": "uint256",
          "name": "expected2",
          "type": "uint256"
        },
        {
          "internalType": "uint256",
          "name": "current",
          "type": "uint256"
        }
      ],
      "name": "WrongDecimalNumber",
      "type": "error"
    },
    {
      "inputs": [
        {
          "internalType": "uint256",
          "name": "max",
          "type": "uint256"
        },
        {
          "internalType": "uint256",
          "name": "amountWanted",
          "type": "uint256"
        }
      ],
      "name": "WrongMaxDepositPerUser",
      "type": "error"
    },
    {
      "inputs": [
        {
          "internalType": "uint256",
          "name": "maxDeposit",
          "type": "uint256"
        },
        {
          "internalType": "uint256",
          "name": "minInvest",
          "type": "uint256"
        }
      ],
      "name": "WrongMinDepositPerUser",
      "type": "error"
    },
    {
      "inputs": [
        {
          "internalType": "bool",
          "name": "isZero",
          "type": "bool"
        }
      ],
      "name": "WrongRefundValue",
      "type": "error"
    },
    {
      "inputs": [],
      "name": "WrongSaleTimeStamps",
      "type": "error"
    },
    {
      "inputs": [
        {
          "internalType": "enum SaleStep",
          "name": "currentStep",
          "type": "uint8"
        }
      ],
      "name": "WrongStep",
      "type": "error"
    },
    {
      "inputs": [
        {
          "internalType": "address",
          "name": "treasury",
          "type": "address"
        }
      ],
      "name": "WrongTreasury",
      "type": "error"
    },
    {
      "inputs": [
        {
          "internalType": "string",
          "name": "vaultURI_",
          "type": "string"
        }
      ],
      "name": "WrongVaultURI",
      "type": "error"
    },
    {
      "anonymous": false,
      "inputs": [
        {
          "indexed": true,
          "internalType": "address",
          "name": "owner",
          "type": "address"
        },
        {
          "indexed": true,
          "internalType": "address",
          "name": "spender",
          "type": "address"
        },
        {
          "indexed": false,
          "internalType": "uint256",
          "name": "value",
          "type": "uint256"
        }
      ],
      "name": "Approval",
      "type": "event"
    },
    {
      "anonymous": false,
      "inputs": [
        {
          "indexed": false,
          "internalType": "uint256",
          "name": "amount",
          "type": "uint256"
        }
      ],
      "name": "CapitalCollected",
      "type": "event"
    },
    {
      "anonymous": false,
      "inputs": [
        {
          "indexed": false,
          "internalType": "uint256",
          "name": "originalCapital",
          "type": "uint256"
        },
        {
          "indexed": false,
          "internalType": "uint256",
          "name": "remainingCapital",
          "type": "uint256"
        },
        {
          "indexed": false,
          "internalType": "uint256",
          "name": "loss",
          "type": "uint256"
        }
      ],
      "name": "CapitalLoss",
      "type": "event"
    },
    {
      "anonymous": false,
      "inputs": [
        {
          "indexed": false,
          "internalType": "uint256",
          "name": "amount",
          "type": "uint256"
        },
        {
          "indexed": false,
          "internalType": "uint256",
          "name": "collected",
          "type": "uint256"
        }
      ],
      "name": "CapitalRefunded",
      "type": "event"
    },
    {
      "anonymous": false,
      "inputs": [
        {
          "indexed": false,
          "internalType": "uint256",
          "name": "softCap",
          "type": "uint256"
        },
        {
          "indexed": false,
          "internalType": "uint256",
          "name": "hardCap",
          "type": "uint256"
        }
      ],
      "name": "CapsUpdated",
      "type": "event"
    },
    {
      "anonymous": false,
      "inputs": [
        {
          "indexed": true,
          "internalType": "address",
          "name": "sender",
          "type": "address"
        },
        {
          "indexed": true,
          "internalType": "address",
          "name": "owner",
          "type": "address"
        },
        {
          "indexed": false,
          "internalType": "uint256",
          "name": "assets",
          "type": "uint256"
        },
        {
          "indexed": false,
          "internalType": "uint256",
          "name": "shares",
          "type": "uint256"
        }
      ],
      "name": "Deposit",
      "type": "event"
    },
    {
      "anonymous": false,
      "inputs": [
        {
          "indexed": false,
          "internalType": "uint8",
          "name": "version",
          "type": "uint8"
        }
      ],
      "name": "Initialized",
      "type": "event"
    },
    {
      "anonymous": false,
      "inputs": [
        {
          "indexed": false,
          "internalType": "uint256",
          "name": "refunded",
          "type": "uint256"
        }
      ],
      "name": "InterestRefunded",
      "type": "event"
    },
    {
      "anonymous": false,
      "inputs": [
        {
          "indexed": false,
          "internalType": "address",
          "name": "from",
          "type": "address"
        },
        {
          "indexed": false,
          "internalType": "int256",
          "name": "amount",
          "type": "int256"
        }
      ],
      "name": "InterestUpdated",
      "type": "event"
    },
    {
      "anonymous": false,
      "inputs": [
        {
          "indexed": false,
          "internalType": "address",
          "name": "account",
          "type": "address"
        }
      ],
      "name": "Paused",
      "type": "event"
    },
    {
      "anonymous": false,
      "inputs": [
        {
          "indexed": false,
          "internalType": "uint256",
          "name": "oldPrice",
          "type": "uint256"
        },
        {
          "indexed": false,
          "internalType": "uint256",
          "name": "newPrice",
          "type": "uint256"
        }
      ],
      "name": "PriceUpdated",
      "type": "event"
    },
    {
      "anonymous": false,
      "inputs": [
        {
          "indexed": true,
          "internalType": "bytes32",
          "name": "role",
          "type": "bytes32"
        },
        {
          "indexed": true,
          "internalType": "bytes32",
          "name": "previousAdminRole",
          "type": "bytes32"
        },
        {
          "indexed": true,
          "internalType": "bytes32",
          "name": "newAdminRole",
          "type": "bytes32"
        }
      ],
      "name": "RoleAdminChanged",
      "type": "event"
    },
    {
      "anonymous": false,
      "inputs": [
        {
          "indexed": true,
          "internalType": "bytes32",
          "name": "role",
          "type": "bytes32"
        },
        {
          "indexed": true,
          "internalType": "address",
          "name": "account",
          "type": "address"
        },
        {
          "indexed": true,
          "internalType": "address",
          "name": "sender",
          "type": "address"
        }
      ],
      "name": "RoleGranted",
      "type": "event"
    },
    {
      "anonymous": false,
      "inputs": [
        {
          "indexed": true,
          "internalType": "bytes32",
          "name": "role",
          "type": "bytes32"
        },
        {
          "indexed": true,
          "internalType": "address",
          "name": "account",
          "type": "address"
        },
        {
          "indexed": true,
          "internalType": "address",
          "name": "sender",
          "type": "address"
        }
      ],
      "name": "RoleRevoked",
      "type": "event"
    },
    {
      "anonymous": false,
      "inputs": [
        {
          "indexed": false,
          "internalType": "uint256",
          "name": "depositsStart",
          "type": "uint256"
        },
        {
          "indexed": false,
          "internalType": "uint256",
          "name": "depositsStop",
          "type": "uint256"
        }
      ],
      "name": "TimesUpdated",
      "type": "event"
    },
    {
      "anonymous": false,
      "inputs": [
        {
          "indexed": false,
          "internalType": "address",
          "name": "from",
          "type": "address"
        },
        {
          "indexed": false,
          "internalType": "uint256",
          "name": "amount",
          "type": "uint256"
        }
      ],
      "name": "TotalRefunded",
      "type": "event"
    },
    {
      "anonymous": false,
      "inputs": [
        {
          "indexed": true,
          "internalType": "address",
          "name": "from",
          "type": "address"
        },
        {
          "indexed": true,
          "internalType": "address",
          "name": "to",
          "type": "address"
        },
        {
          "indexed": false,
          "internalType": "uint256",
          "name": "value",
          "type": "uint256"
        }
      ],
      "name": "Transfer",
      "type": "event"
    },
    {
      "anonymous": false,
      "inputs": [
        {
          "indexed": false,
          "internalType": "address",
          "name": "oldTreasury",
          "type": "address"
        },
        {
          "indexed": false,
          "internalType": "address",
          "name": "newTreasury",
          "type": "address"
        }
      ],
      "name": "TreasuryUpdated",
      "type": "event"
    },
    {
      "anonymous": false,
      "inputs": [
        {
          "indexed": false,
          "internalType": "uint256",
          "name": "amount",
          "type": "uint256"
        }
      ],
      "name": "UnclaimedFundsCollected",
      "type": "event"
    },
    {
      "anonymous": false,
      "inputs": [
        {
          "indexed": false,
          "internalType": "address",
          "name": "account",
          "type": "address"
        }
      ],
      "name": "Unpaused",
      "type": "event"
    },
    {
      "anonymous": false,
      "inputs": [
        {
          "indexed": false,
          "internalType": "string",
          "name": "vaultURI_",
          "type": "string"
        }
      ],
      "name": "VaultURIUpdated",
      "type": "event"
    },
    {
      "anonymous": false,
      "inputs": [
        {
          "indexed": true,
          "internalType": "address",
          "name": "sender",
          "type": "address"
        },
        {
          "indexed": true,
          "internalType": "address",
          "name": "receiver",
          "type": "address"
        },
        {
          "indexed": true,
          "internalType": "address",
          "name": "owner",
          "type": "address"
        },
        {
          "indexed": false,
          "internalType": "uint256",
          "name": "assets",
          "type": "uint256"
        },
        {
          "indexed": false,
          "internalType": "uint256",
          "name": "shares",
          "type": "uint256"
        }
      ],
      "name": "Withdraw",
      "type": "event"
    },
    {
      "inputs": [],
      "name": "DEFAULT_ADMIN_ROLE",
      "outputs": [
        {
          "internalType": "bytes32",
          "name": "",
          "type": "bytes32"
        }
      ],
      "stateMutability": "view",
      "type": "function"
    },
    {
      "inputs": [],
      "name": "DEV",
      "outputs": [
        {
          "internalType": "bytes32",
          "name": "",
          "type": "bytes32"
        }
      ],
      "stateMutability": "view",
      "type": "function"
    },
    {
      "inputs": [],
      "name": "KONKRETE",
      "outputs": [
        {
          "internalType": "bytes32",
          "name": "",
          "type": "bytes32"
        }
      ],
      "stateMutability": "view",
      "type": "function"
    },
    {
      "inputs": [],
      "name": "TIMELOCK",
      "outputs": [
        {
          "internalType": "bytes32",
          "name": "",
          "type": "bytes32"
        }
      ],
      "stateMutability": "view",
      "type": "function"
    },
    {
      "inputs": [
        {
          "internalType": "address",
          "name": "owner",
          "type": "address"
        },
        {
          "internalType": "address",
          "name": "spender",
          "type": "address"
        }
      ],
      "name": "allowance",
      "outputs": [
        {
          "internalType": "uint256",
          "name": "",
          "type": "uint256"
        }
      ],
      "stateMutability": "view",
      "type": "function"
    },
    {
      "inputs": [
        {
          "internalType": "address",
          "name": "spender",
          "type": "address"
        },
        {
          "internalType": "uint256",
          "name": "amount",
          "type": "uint256"
        }
      ],
      "name": "approve",
      "outputs": [
        {
          "internalType": "bool",
          "name": "",
          "type": "bool"
        }
      ],
      "stateMutability": "nonpayable",
      "type": "function"
    },
    {
      "inputs": [],
      "name": "asset",
      "outputs": [
        {
          "internalType": "address",
          "name": "",
          "type": "address"
        }
      ],
      "stateMutability": "view",
      "type": "function"
    },
    {
      "inputs": [
        {
          "internalType": "address",
          "name": "account",
          "type": "address"
        }
      ],
      "name": "balanceOf",
      "outputs": [
        {
          "internalType": "uint256",
          "name": "",
          "type": "uint256"
        }
      ],
      "stateMutability": "view",
      "type": "function"
    },
    {
      "inputs": [],
      "name": "collectCapital",
      "outputs": [
        {
          "internalType": "uint256",
          "name": "collected",
          "type": "uint256"
        }
      ],
      "stateMutability": "nonpayable",
      "type": "function"
    },
    {
      "inputs": [],
      "name": "collectUnclaimedFunds",
      "outputs": [
        {
          "internalType": "uint256",
          "name": "pendingFunds",
          "type": "uint256"
        }
      ],
      "stateMutability": "nonpayable",
      "type": "function"
    },
    {
      "inputs": [],
      "name": "collectedCapital",
      "outputs": [
        {
          "internalType": "uint256",
          "name": "",
          "type": "uint256"
        }
      ],
      "stateMutability": "view",
      "type": "function"
    },
    {
      "inputs": [
        {
          "internalType": "uint256",
          "name": "shares",
          "type": "uint256"
        }
      ],
      "name": "convertToAssets",
      "outputs": [
        {
          "internalType": "uint256",
          "name": "assets",
          "type": "uint256"
        }
      ],
      "stateMutability": "view",
      "type": "function"
    },
    {
      "inputs": [
        {
          "internalType": "uint256",
          "name": "assets",
          "type": "uint256"
        }
      ],
      "name": "convertToShares",
      "outputs": [
        {
          "internalType": "uint256",
          "name": "shares",
          "type": "uint256"
        }
      ],
      "stateMutability": "view",
      "type": "function"
    },
    {
      "inputs": [],
      "name": "dataBase",
      "outputs": [
        {
          "internalType": "contract IDatabase",
          "name": "",
          "type": "address"
        }
      ],
      "stateMutability": "view",
      "type": "function"
    },
    {
      "inputs": [],
      "name": "decimals",
      "outputs": [
        {
          "internalType": "uint8",
          "name": "",
          "type": "uint8"
        }
      ],
      "stateMutability": "view",
      "type": "function"
    },
    {
      "inputs": [
        {
          "internalType": "address",
          "name": "spender",
          "type": "address"
        },
        {
          "internalType": "uint256",
          "name": "subtractedValue",
          "type": "uint256"
        }
      ],
      "name": "decreaseAllowance",
      "outputs": [
        {
          "internalType": "bool",
          "name": "",
          "type": "bool"
        }
      ],
      "stateMutability": "nonpayable",
      "type": "function"
    },
    {
      "inputs": [
        {
          "internalType": "uint256",
          "name": "assets",
          "type": "uint256"
        },
        {
          "internalType": "address",
          "name": "receiver",
          "type": "address"
        }
      ],
      "name": "deposit",
      "outputs": [
        {
          "internalType": "uint256",
          "name": "",
          "type": "uint256"
        }
      ],
      "stateMutability": "nonpayable",
      "type": "function"
    },
    {
      "inputs": [
        {
          "internalType": "bool",
          "name": "doubleChecked",
          "type": "bool"
        }
      ],
      "name": "emptyCapitalBack",
      "outputs": [],
      "stateMutability": "nonpayable",
      "type": "function"
    },
    {
      "inputs": [
        {
          "internalType": "bytes32",
          "name": "role",
          "type": "bytes32"
        }
      ],
      "name": "getRoleAdmin",
      "outputs": [
        {
          "internalType": "bytes32",
          "name": "",
          "type": "bytes32"
        }
      ],
      "stateMutability": "view",
      "type": "function"
    },
    {
      "inputs": [
        {
          "internalType": "bytes32",
          "name": "role",
          "type": "bytes32"
        },
        {
          "internalType": "uint256",
          "name": "index",
          "type": "uint256"
        }
      ],
      "name": "getRoleMember",
      "outputs": [
        {
          "internalType": "address",
          "name": "",
          "type": "address"
        }
      ],
      "stateMutability": "view",
      "type": "function"
    },
    {
      "inputs": [
        {
          "internalType": "bytes32",
          "name": "role",
          "type": "bytes32"
        }
      ],
      "name": "getRoleMemberCount",
      "outputs": [
        {
          "internalType": "uint256",
          "name": "",
          "type": "uint256"
        }
      ],
      "stateMutability": "view",
      "type": "function"
    },
    {
      "inputs": [],
      "name": "getStep",
      "outputs": [
        {
          "internalType": "enum SaleStep",
          "name": "step",
          "type": "uint8"
        }
      ],
      "stateMutability": "view",
      "type": "function"
    },
    {
      "inputs": [
        {
          "internalType": "bytes32",
          "name": "role",
          "type": "bytes32"
        },
        {
          "internalType": "address",
          "name": "account",
          "type": "address"
        }
      ],
      "name": "grantRole",
      "outputs": [],
      "stateMutability": "nonpayable",
      "type": "function"
    },
    {
      "inputs": [
        {
          "internalType": "bytes32",
          "name": "role",
          "type": "bytes32"
        },
        {
          "internalType": "address",
          "name": "account",
          "type": "address"
        }
      ],
      "name": "hasRole",
      "outputs": [
        {
          "internalType": "bool",
          "name": "",
          "type": "bool"
        }
      ],
      "stateMutability": "view",
      "type": "function"
    },
    {
      "inputs": [
        {
          "internalType": "address",
          "name": "spender",
          "type": "address"
        },
        {
          "internalType": "uint256",
          "name": "addedValue",
          "type": "uint256"
        }
      ],
      "name": "increaseAllowance",
      "outputs": [
        {
          "internalType": "bool",
          "name": "",
          "type": "bool"
        }
      ],
      "stateMutability": "nonpayable",
      "type": "function"
    },
    {
      "inputs": [
        {
          "internalType": "address",
          "name": "asset_",
          "type": "address"
        },
        {
          "internalType": "string",
          "name": "name_",
          "type": "string"
        },
        {
          "internalType": "string",
          "name": "symbol_",
          "type": "string"
        },
        {
          "internalType": "string",
          "name": "vaultURI_",
          "type": "string"
        },
        {
          "internalType": "address",
          "name": "multisig",
          "type": "address"
        },
        {
          "internalType": "address",
          "name": "treasury_",
          "type": "address"
        },
        {
          "internalType": "contract IDatabase",
          "name": "dataBase_",
          "type": "address"
        },
        {
          "internalType": "uint128",
          "name": "softCap_",
          "type": "uint128"
        },
        {
          "internalType": "uint128",
          "name": "hardcap_",
          "type": "uint128"
        },
        {
          "internalType": "uint32",
          "name": "depositsStart_",
          "type": "uint32"
        },
        {
          "internalType": "uint32",
          "name": "depositsStop_",
          "type": "uint32"
        }
      ],
      "name": "initialize",
      "outputs": [],
      "stateMutability": "nonpayable",
      "type": "function"
    },
    {
      "inputs": [
        {
          "internalType": "address",
          "name": "user",
          "type": "address"
        }
      ],
      "name": "maxDeposit",
      "outputs": [
        {
          "internalType": "uint256",
          "name": "",
          "type": "uint256"
        }
      ],
      "stateMutability": "view",
      "type": "function"
    },
    {
      "inputs": [
        {
          "internalType": "address",
          "name": "user",
          "type": "address"
        }
      ],
      "name": "maxMint",
      "outputs": [
        {
          "internalType": "uint256",
          "name": "",
          "type": "uint256"
        }
      ],
      "stateMutability": "view",
      "type": "function"
    },
    {
      "inputs": [
        {
          "internalType": "address",
          "name": "owner",
          "type": "address"
        }
      ],
      "name": "maxRedeem",
      "outputs": [
        {
          "internalType": "uint256",
          "name": "",
          "type": "uint256"
        }
      ],
      "stateMutability": "view",
      "type": "function"
    },
    {
      "inputs": [
        {
          "internalType": "address",
          "name": "owner",
          "type": "address"
        }
      ],
      "name": "maxWithdraw",
      "outputs": [
        {
          "internalType": "uint256",
          "name": "",
          "type": "uint256"
        }
      ],
      "stateMutability": "view",
      "type": "function"
    },
    {
      "inputs": [
        {
          "internalType": "address",
          "name": "user",
          "type": "address"
        }
      ],
      "name": "minInvest",
      "outputs": [
        {
          "internalType": "uint256",
          "name": "",
          "type": "uint256"
        }
      ],
      "stateMutability": "view",
      "type": "function"
    },
    {
      "inputs": [
        {
          "internalType": "uint256",
          "name": "shares",
          "type": "uint256"
        },
        {
          "internalType": "address",
          "name": "receiver",
          "type": "address"
        }
      ],
      "name": "mint",
      "outputs": [
        {
          "internalType": "uint256",
          "name": "",
          "type": "uint256"
        }
      ],
      "stateMutability": "nonpayable",
      "type": "function"
    },
    {
      "inputs": [],
      "name": "name",
      "outputs": [
        {
          "internalType": "string",
          "name": "",
          "type": "string"
        }
      ],
      "stateMutability": "view",
      "type": "function"
    },
    {
      "inputs": [],
      "name": "originalPrice",
      "outputs": [
        {
          "internalType": "uint256",
          "name": "",
          "type": "uint256"
        }
      ],
      "stateMutability": "view",
      "type": "function"
    },
    {
      "inputs": [
        {
          "internalType": "address",
          "name": "",
          "type": "address"
        }
      ],
      "name": "paid",
      "outputs": [
        {
          "internalType": "uint256",
          "name": "",
          "type": "uint256"
        }
      ],
      "stateMutability": "view",
      "type": "function"
    },
    {
      "inputs": [],
      "name": "pause",
      "outputs": [],
      "stateMutability": "nonpayable",
      "type": "function"
    },
    {
      "inputs": [],
      "name": "paused",
      "outputs": [
        {
          "internalType": "bool",
          "name": "",
          "type": "bool"
        }
      ],
      "stateMutability": "view",
      "type": "function"
    },
    {
      "inputs": [
        {
          "internalType": "uint256",
          "name": "assets",
          "type": "uint256"
        }
      ],
      "name": "previewDeposit",
      "outputs": [
        {
          "internalType": "uint256",
          "name": "",
          "type": "uint256"
        }
      ],
      "stateMutability": "view",
      "type": "function"
    },
    {
      "inputs": [
        {
          "internalType": "uint256",
          "name": "shares",
          "type": "uint256"
        }
      ],
      "name": "previewMint",
      "outputs": [
        {
          "internalType": "uint256",
          "name": "",
          "type": "uint256"
        }
      ],
      "stateMutability": "view",
      "type": "function"
    },
    {
      "inputs": [
        {
          "internalType": "uint256",
          "name": "shares",
          "type": "uint256"
        }
      ],
      "name": "previewRedeem",
      "outputs": [
        {
          "internalType": "uint256",
          "name": "",
          "type": "uint256"
        }
      ],
      "stateMutability": "view",
      "type": "function"
    },
    {
      "inputs": [
        {
          "internalType": "uint256",
          "name": "assets",
          "type": "uint256"
        }
      ],
      "name": "previewWithdraw",
      "outputs": [
        {
          "internalType": "uint256",
          "name": "",
          "type": "uint256"
        }
      ],
      "stateMutability": "view",
      "type": "function"
    },
    {
      "inputs": [
        {
          "internalType": "uint256",
          "name": "amountOfInterest",
          "type": "uint256"
        }
      ],
      "name": "priceImpact",
      "outputs": [
        {
          "internalType": "uint256",
          "name": "",
          "type": "uint256"
        }
      ],
      "stateMutability": "view",
      "type": "function"
    },
    {
      "inputs": [
        {
          "internalType": "uint256",
          "name": "shares",
          "type": "uint256"
        },
        {
          "internalType": "address",
          "name": "receiver",
          "type": "address"
        },
        {
          "internalType": "address",
          "name": "owner",
          "type": "address"
        }
      ],
      "name": "redeem",
      "outputs": [
        {
          "internalType": "uint256",
          "name": "assets",
          "type": "uint256"
        }
      ],
      "stateMutability": "nonpayable",
      "type": "function"
    },
    {
      "inputs": [
        {
          "internalType": "uint256",
          "name": "capitalAndInterest",
          "type": "uint256"
        }
      ],
      "name": "refundCapital",
      "outputs": [],
      "stateMutability": "nonpayable",
      "type": "function"
    },
    {
      "inputs": [
        {
          "internalType": "bytes32",
          "name": "role",
          "type": "bytes32"
        },
        {
          "internalType": "address",
          "name": "account",
          "type": "address"
        }
      ],
      "name": "renounceRole",
      "outputs": [],
      "stateMutability": "nonpayable",
      "type": "function"
    },
    {
      "inputs": [
        {
          "internalType": "bytes32",
          "name": "role",
          "type": "bytes32"
        },
        {
          "internalType": "address",
          "name": "account",
          "type": "address"
        }
      ],
      "name": "revokeRole",
      "outputs": [],
      "stateMutability": "nonpayable",
      "type": "function"
    },
    {
      "inputs": [
        {
          "internalType": "uint128",
          "name": "soft",
          "type": "uint128"
        },
        {
          "internalType": "uint128",
          "name": "hard",
          "type": "uint128"
        }
      ],
      "name": "setCaps",
      "outputs": [],
      "stateMutability": "nonpayable",
      "type": "function"
    },
    {
      "inputs": [
        {
          "internalType": "contract IDatabase",
          "name": "database_",
          "type": "address"
        }
      ],
      "name": "setDatabase",
      "outputs": [],
      "stateMutability": "nonpayable",
      "type": "function"
    },
    {
      "inputs": [
        {
          "internalType": "uint128",
          "name": "minInvest_",
          "type": "uint128"
        },
        {
          "internalType": "uint128",
          "name": "maxDeposit_",
          "type": "uint128"
        }
      ],
      "name": "setDepositLimitsPerUser",
      "outputs": [],
      "stateMutability": "nonpayable",
      "type": "function"
    },
    {
      "inputs": [
        {
          "internalType": "uint32",
          "name": "start",
          "type": "uint32"
        },
        {
          "internalType": "uint32",
          "name": "stop",
          "type": "uint32"
        }
      ],
      "name": "setTimes",
      "outputs": [],
      "stateMutability": "nonpayable",
      "type": "function"
    },
    {
      "inputs": [
        {
          "internalType": "address",
          "name": "treasury_",
          "type": "address"
        }
      ],
      "name": "setTreasury",
      "outputs": [],
      "stateMutability": "nonpayable",
      "type": "function"
    },
    {
      "inputs": [
        {
          "internalType": "string",
          "name": "vaultURI_",
          "type": "string"
        }
      ],
      "name": "setVaultURI",
      "outputs": [],
      "stateMutability": "nonpayable",
      "type": "function"
    },
    {
      "inputs": [],
      "name": "stepVar",
      "outputs": [
        {
          "internalType": "bool",
          "name": "refunded",
          "type": "bool"
        },
        {
          "internalType": "uint32",
          "name": "depositsStart",
          "type": "uint32"
        },
        {
          "internalType": "uint32",
          "name": "depositsStop",
          "type": "uint32"
        },
        {
          "internalType": "uint128",
          "name": "softCap",
          "type": "uint128"
        },
        {
          "internalType": "uint128",
          "name": "hardCap",
          "type": "uint128"
        },
        {
          "internalType": "uint128",
          "name": "maxDepositPerUser",
          "type": "uint128"
        },
        {
          "internalType": "uint128",
          "name": "minInvestPerUser",
          "type": "uint128"
        }
      ],
      "stateMutability": "view",
      "type": "function"
    },
    {
      "inputs": [
        {
          "internalType": "bytes4",
          "name": "interfaceId",
          "type": "bytes4"
        }
      ],
      "name": "supportsInterface",
      "outputs": [
        {
          "internalType": "bool",
          "name": "",
          "type": "bool"
        }
      ],
      "stateMutability": "view",
      "type": "function"
    },
    {
      "inputs": [],
      "name": "symbol",
      "outputs": [
        {
          "internalType": "string",
          "name": "",
          "type": "string"
        }
      ],
      "stateMutability": "view",
      "type": "function"
    },
    {
      "inputs": [],
      "name": "tokenPrice",
      "outputs": [
        {
          "internalType": "uint256",
          "name": "",
          "type": "uint256"
        }
      ],
      "stateMutability": "view",
      "type": "function"
    },
    {
      "inputs": [],
      "name": "totalAssets",
      "outputs": [
        {
          "internalType": "uint256",
          "name": "",
          "type": "uint256"
        }
      ],
      "stateMutability": "view",
      "type": "function"
    },
    {
      "inputs": [],
      "name": "totalSupply",
      "outputs": [
        {
          "internalType": "uint256",
          "name": "",
          "type": "uint256"
        }
      ],
      "stateMutability": "view",
      "type": "function"
    },
    {
      "inputs": [
        {
          "internalType": "address",
          "name": "to",
          "type": "address"
        },
        {
          "internalType": "uint256",
          "name": "amount",
          "type": "uint256"
        }
      ],
      "name": "transfer",
      "outputs": [
        {
          "internalType": "bool",
          "name": "",
          "type": "bool"
        }
      ],
      "stateMutability": "nonpayable",
      "type": "function"
    },
    {
      "inputs": [
        {
          "internalType": "address",
          "name": "from",
          "type": "address"
        },
        {
          "internalType": "address",
          "name": "to",
          "type": "address"
        },
        {
          "internalType": "uint256",
          "name": "amount",
          "type": "uint256"
        }
      ],
      "name": "transferFrom",
      "outputs": [
        {
          "internalType": "bool",
          "name": "",
          "type": "bool"
        }
      ],
      "stateMutability": "nonpayable",
      "type": "function"
    },
    {
      "inputs": [],
      "name": "treasury",
      "outputs": [
        {
          "internalType": "address",
          "name": "",
          "type": "address"
        }
      ],
      "stateMutability": "view",
      "type": "function"
    },
    {
      "inputs": [],
      "name": "unpause",
      "outputs": [],
      "stateMutability": "nonpayable",
      "type": "function"
    },
    {
      "inputs": [
        {
          "internalType": "int256",
          "name": "interest",
          "type": "int256"
        }
      ],
      "name": "updateInterest",
      "outputs": [],
      "stateMutability": "nonpayable",
      "type": "function"
    },
    {
      "inputs": [],
      "name": "vaultURI",
      "outputs": [
        {
          "internalType": "string",
          "name": "",
          "type": "string"
        }
      ],
      "stateMutability": "view",
      "type": "function"
    },
    {
      "inputs": [
        {
          "internalType": "uint256",
          "name": "assets",
          "type": "uint256"
        },
        {
          "internalType": "address",
          "name": "receiver",
          "type": "address"
        },
        {
          "internalType": "address",
          "name": "owner",
          "type": "address"
        }
      ],
      "name": "withdraw",
      "outputs": [
        {
          "internalType": "uint256",
          "name": "shares",
          "type": "uint256"
        }
      ],
      "stateMutability": "nonpayable",
      "type": "function"
    }
  ],
  "bytecode": {
    "object": "0x60806040523480156200001157600080fd5b50600054610100900460ff1615808015620000335750600054600160ff909116105b8062000063575062000050306200013d60201b62001f0b1760201c565b15801562000063575060005460ff166001145b620000cb5760405162461bcd60e51b815260206004820152602e60248201527f496e697469616c697a61626c653a20636f6e747261637420697320616c72656160448201526d191e481a5b9a5d1a585b1a5e995960921b606482015260840160405180910390fd5b6000805460ff191660011790558015620000ef576000805461ff0019166101001790555b801562000136576000805461ff0019169055604051600181527f7f26b83ff96e1f2b6a682f133852f6798a09c465da95921460cefb38474024989060200160405180910390a15b506200014c565b6001600160a01b03163b151590565b614369806200015c6000396000f3fe608060405234801561001057600080fd5b50600436106103db5760003560e01c80637ff9b5961161020a578063bd26057e11610125578063d5f2b0cc116100b8578063e0f41f3a11610087578063e0f41f3a146108b8578063e35d33f6146106d8578063ef8b30f714610818578063f0f44260146108cb578063f5420374146108de57600080fd5b8063d5f2b0cc1461086c578063d905777e1461087f578063dd62ed3e14610892578063dfd5473c146108a557600080fd5b8063ca15c873116100f4578063ca15c8731461082b578063ce96cb771461083e578063d406008d14610851578063d547741f1461085957600080fd5b8063bd26057e14610760578063c1eb5ddd14610803578063c63d75b614610572578063c6e6f5921461081857600080fd5b80639e5288a01161019d578063a9059cbb1161016c578063a9059cbb14610714578063b3d7f6b914610727578063b460af941461073a578063ba0876521461074d57600080fd5b80639e5288a0146106c3578063a217fddf146106d8578063a340cf79146106e0578063a457c2d71461070157600080fd5b80639010d07c116101d95780639010d07c1461069557806391d14854146106a857806394bf804d146105fa57806395d89b41146106bb57600080fd5b80637ff9b5961461066657806384061853146106705780638456cb59146106835780638e95bab21461068b57600080fd5b806338d52e0f116102fa5780635c975abb1161028d5780636e553f651161025c5780636e553f65146105fa57806370a082311461060d57806376a24f25146106365780637aadef8b1461063f57600080fd5b80635c975abb146105be5780635cb5e41d146105ca5780635dc5eaf3146105de57806361d027b3146105e657600080fd5b8063490248e3116102c9578063490248e3146105855780634cdad506146104335780634d974d83146105985780635a67f6cb146105ab57600080fd5b806338d52e0f1461053257806339509351146105575780633f4ba83a1461056a578063402d267d1461057257600080fd5b806323b872dd11610372578063313ce56711610341578063313ce567146104da57806336568abe146104f95780633670e7b11461050c578063373cad571461051f57600080fd5b806323b872dd14610489578063248a9ca31461049c57806329d29799146104bf5780632f2ff15d146104c757600080fd5b8063095ea7b3116103ae578063095ea7b3146104465780630a28a4771461045957806318160ddd1461046c5780631bb133b01461047457600080fd5b806301e1d114146103e057806301ffc9a7146103fb57806306fdde031461041e57806307a2d13a14610433575b600080fd5b6103e86108f1565b6040519081526020015b60405180910390f35b61040e61040936600461393b565b610963565b60405190151581526020016103f2565b61042661098e565b6040516103f29190613991565b6103e86104413660046139c4565b610a20565b61040e610454366004613a02565b610a2d565b6103e86104673660046139c4565b610a45565b6035546103e8565b610487610482366004613a4e565b610a52565b005b61040e610497366004613a87565b610b3a565b6103e86104aa3660046139c4565b600090815260c9602052604090206001015490565b6103e8610b60565b6104876104d5366004613ac8565b610be7565b606554600160a01b900460ff1660405160ff90911681526020016103f2565b610487610507366004613ac8565b610c11565b61048761051a366004613afb565b610c8f565b61048761052d3660046139c4565b610d05565b6065546001600160a01b03165b6040516001600160a01b0390911681526020016103f2565b61040e610565366004613a02565b610dbd565b610487610ddf565b6103e8610580366004613b18565b610df5565b610487610593366004613a4e565b610e2d565b6104876105a6366004613bf5565b610f0c565b6104876105b93660046139c4565b611373565b61015f5460ff1661040e565b6101925461053f906001600160a01b031681565b610426611507565b6101965461053f906001600160a01b031681565b6103e8610608366004613ac8565b611596565b6103e861061b366004613b18565b6001600160a01b031660009081526033602052604090205490565b610191546103e8565b6103e87faefebe170cbaff0af052a32795af0e1b8afff9850f946ad2869be14f3553437181565b6103e86101975481565b6103e861067e3660046139c4565b6115c0565b6104876115da565b6103e86101985481565b61053f6106a3366004613d0a565b6115fa565b61040e6106b6366004613ac8565b611612565b61042661163d565b6106cb61164c565b6040516103f29190613d64565b6103e8600081565b6103e86106ee366004613b18565b61019a6020526000908152604090205481565b61040e61070f366004613a02565b61172a565b61040e610722366004613a02565b6117b0565b6103e86107353660046139c4565b6117be565b6103e8610748366004613d72565b6117cb565b6103e861075b366004613d72565b611930565b6101935461019454610195546107b59260ff81169263ffffffff6101008304811693650100000000008404909116926001600160801b03600160481b90910481169280821692600160801b9091048216911687565b60408051971515885263ffffffff968716602089015295909416948601949094526001600160801b0391821660608601528116608085015291821660a08401521660c082015260e0016103f2565b6103e860008051602061431483398151915281565b6103e86108263660046139c4565b611a5f565b6103e86108393660046139c4565b611a6c565b6103e861084c366004613b18565b611a83565b6103e8611ace565b610487610867366004613ac8565b611b37565b61048761087a366004613db4565b611b5c565b6103e861088d366004613b18565b611c72565b6103e86108a0366004613de2565b611cb2565b6104876108b3366004613e10565b611cdd565b6103e86108c6366004613b18565b611d5a565b6104876108d9366004613b18565b611da3565b6104876108ec366004613b18565b611e50565b6065546040516370a0823160e01b81523060048201526000916001600160a01b0316906370a0823190602401602060405180830381865afa15801561093a573d6000803e3d6000fd5b505050506040513d601f19601f8201168201806040525081019061095e9190613e82565b905090565b60006001600160e01b03198216635a05180f60e01b1480610988575061098882611f1a565b92915050565b60606036805461099d90613e9b565b80601f01602080910402602001604051908101604052809291908181526020018280546109c990613e9b565b8015610a165780601f106109eb57610100808354040283529160200191610a16565b820191906000526020600020905b8154815290600101906020018083116109f957829003601f168201915b5050505050905090565b6000610988826000611f4f565b600033610a3b818585611f73565b5060019392505050565b6000610988826001612097565b600080516020614314833981519152610a6a816120bb565b610193546001600160801b03600160481b9091048116908316811015610aba5760405163010a45ab60e21b8152600481018290526001600160801b03841660248201526044015b60405180910390fd5b826001600160801b0316846001600160801b031610610afe5760405163010a45ab60e21b8152600481018290526001600160801b0385166024820152604401610ab1565b505061019480546001600160801b03928316600160801b029083161790556101958054929091166001600160801b031992909216919091179055565b600033610b488582856120c5565b610b53858585612139565b60019150505b9392505050565b610196546000906001600160a01b0316338114610b9e57335b604051634ab6cb6760e11b81526001600160a01b039091166004820152602401610ab1565b610ba860026122e4565b91507fcd44c06e81c4f40db53746db76839e7106609855a483a8e72a05877dc3ea225c82604051610bdb91815260200190565b60405180910390a15090565b600082815260c96020526040902060010154610c02816120bb565b610c0c83836123fc565b505050565b6001600160a01b0381163314610c815760405162461bcd60e51b815260206004820152602f60248201527f416363657373436f6e74726f6c3a2063616e206f6e6c792072656e6f756e636560448201526e103937b632b9903337b91039b2b63360891b6064820152608401610ab1565b610c8b828261241e565b5050565b6000610c9a816120bb565b81610cbb576040516375403cf360e01b815260006004820152602401610ab1565b6000610cc561164c565b90506002816004811115610cdb57610cdb613d2c565b14610cfb57806040516336100b6760e11b8152600401610ab19190613d64565b610c0c6000612440565b80600003610d29576040516375403cf360e01b815260016004820152602401610ab1565b610196546001600160a01b0316336001600160a01b031614610d4b5733610b79565b6000610d5561164c565b90506002816004811115610d6b57610d6b613d2c565b14610d8b57806040516336100b6760e11b8152600401610ab19190613d64565b610db4333084610da36065546001600160a01b031690565b6001600160a01b031692919061257d565b610c8b82612440565b600033610a3b818585610dd08383611cb2565b610dda9190613eeb565b611f73565b6000610dea816120bb565b610df26125e8565b50565b60006001610e0161164c565b6004811115610e1257610e12613d2c565b03610e2557610e208261263b565b610988565b600092915050565b600080516020614314833981519152610e45816120bb565b6001600160801b0383161580610e6c5750816001600160801b0316836001600160801b0316115b15610e8a57604051630c5af70760e11b815260040160405180910390fd5b6101938054600160481b600160c81b031916600160481b6001600160801b038681169182029290921790925561019480546001600160801b03191691851691821790556040805192835260208301919091527ffa35f2d22b9a5eb6bed3254e60910f91291653a71679c8cbb1f00d24551a45c4910160405180910390a1505050565b600054610100900460ff1615808015610f2c5750600054600160ff909116105b80610f465750303b158015610f46575060005460ff166001145b610fa95760405162461bcd60e51b815260206004820152602e60248201527f496e697469616c697a61626c653a20636f6e747261637420697320616c72656160448201526d191e481a5b9a5d1a585b1a5e995960921b6064820152608401610ab1565b6000805460ff191660011790558015610fcc576000805461ff0019166101001790555b610fd46126cd565b610fdd8c6126fe565b610fe78b8b61272e565b610fef61275f565b856001600160a01b031663fe60d26b6040518163ffffffff1660e01b8152600401602060405180830381865afa15801561102d573d6000803e3d6000fd5b505050506040513d601f19601f820116820180604052508101906110519190613f03565b61106e576040516381867da560e01b815260040160405180910390fd5b60008c6001600160a01b031663313ce5676040518163ffffffff1660e01b8152600401602060405180830381865afa1580156110ae573d6000803e3d6000fd5b505050506040513d601f19601f820116820180604052508101906110d29190613f20565b60ff169050806012141580156110e9575080600614155b15611118576040516315f3703160e31b8152601260048201526006602482015260448101829052606401610ab1565b876001600160a01b03163b60000361114e57604051634ab6cb6760e11b81526001600160a01b0389166004820152602401610ab1565b600061115b82600a614027565b905061116860008b6123fc565b6111806000805160206143148339815191528b6123fc565b611198600080516020614314833981519152336123fc565b8a516111ac906101999060208e019061382e565b506040518060e001604052806000151581526020018663ffffffff1681526020018563ffffffff168152602001886001600160801b03168152602001876001600160801b031681526020016003896112049190614049565b6001600160801b0316815260200161121e836101f461407d565b6001600160801b039081169091528151610193805460208501516040860151606087015164ffffffffff1990931694151564ffffffff0019169490941761010063ffffffff928316021765010000000000600160c81b031916650100000000009190941602600160481b600160c81b03191692909217600160481b92841692909202919091179055608082015160a0830151908216600160801b91831691909102176101945560c09091015161019580546001600160801b0319169190921617905561019680546001600160a01b03199081166001600160a01b038c8116919091179092556101928054909116918a1691909117905561019781905561019155508015611365576000805461ff0019169055604051600181527f7f26b83ff96e1f2b6a682f133852f6798a09c465da95921460cefb38474024989060200160405180910390a15b505050505050505050505050565b60008051602061431483398151915261138b816120bb565b600061139561164c565b905060028160048111156113ab576113ab613d2c565b146113cb57806040516336100b6760e11b8152600401610ab19190613d64565b610197546000808512156114625760006113e761067e8761409c565b90508281111561140d57604051637cef6ce360e11b815260048101879052602401610ab1565b61141781846140b8565b91507f5ac4f964bd8aac40cf8a592c906866d09d34e81d1ef0b1c659252c3151e471c333604080516001600160a01b039092168252602082018990520160405180910390a1506114c0565b600061146d866115c0565b90506114798184613eeb565b91507f5ac4f964bd8aac40cf8a592c906866d09d34e81d1ef0b1c659252c3151e471c333604080516001600160a01b039092168252602082018990520160405180910390a1505b61019781905560408051838152602081018390527f945c1c4e99aa89f648fbfe3df471b916f719e16d960fcec0737d4d56bd69683891015b60405180910390a15050505050565b610199805461151590613e9b565b80601f016020809104026020016040519081016040528092919081815260200182805461154190613e9b565b801561158e5780601f106115635761010080835404028352916020019161158e565b820191906000526020600020905b81548152906001019060200180831161157157829003601f168201915b505050505081565b60006115a061278e565b6115a86127e9565b6115b3833384612830565b9050610988600161012d55565b6000610988610191546115d260355490565b849190612a47565b6000805160206143148339815191526115f2816120bb565b610df2612af6565b600082815260fb60205260408120610b599083612b34565b600091825260c9602090815260408084206001600160a01b0393909316845291905290205460ff1690565b60606037805461099d90613e9b565b6000806000806000306001600160a01b031663bd26057e6040518163ffffffff1660e01b815260040160e060405180830381865afa158015611692573d6000803e3d6000fd5b505050506040513d601f19601f820116820180604052508101906116b691906140cf565b50505093509350935093508263ffffffff164210156116da57600094505050505090565b8163ffffffff164210156116f357600194505050505090565b806001600160801b031661019854101561171257600394505050505090565b8361171e576002611721565b60045b94505050505090565b600033816117388286611cb2565b9050838110156117985760405162461bcd60e51b815260206004820152602560248201527f45524332303a2064656372656173656420616c6c6f77616e63652062656c6f77604482015264207a65726f60d81b6064820152608401610ab1565b6117a58286868403611f73565b506001949350505050565b600033610a3b818585612139565b6000610988826001611f4f565b60006117d561278e565b6117dd6127e9565b60006117e761164c565b905060028160048111156117fd576117fd613d2c565b0361181d57806040516336100b6760e11b8152600401610ab19190613d64565b61182685610a45565b9150611847836001600160a01b031660009081526033602052604090205490565b8211156118965760405162461bcd60e51b815260206004820152601f60248201527f455243343632363a207769746864726177206d6f7265207468616e206d6178006044820152606401610ab1565b6118a33385858886612b40565b60048160048111156118b7576118b7613d2c565b14611924578461019860008282546118cf91906140b8565b90915550506001600160a01b038316600090815261019a6020526040902054808610156119055761190086826140b8565b611908565b60005b6001600160a01b038516600090815261019a6020526040902055505b50610b59600161012d55565b600061193a61278e565b6119426127e9565b600061194c61164c565b9050600281600481111561196257611962613d2c565b0361198257806040516336100b6760e11b8152600401610ab19190613d64565b6001600160a01b0383166000908152603360205260409020548511156119ea5760405162461bcd60e51b815260206004820152601d60248201527f455243343632363a2072656465656d206d6f7265207468616e206d61780000006044820152606401610ab1565b6119f385610a20565b9150611a023385858589612b40565b6004816004811115611a1657611a16613d2c565b1461192457816101986000828254611a2e91906140b8565b90915550506001600160a01b038316600090815261019a6020526040902054808310156119055761190083826140b8565b6000610988826000612097565b600081815260fb6020526040812061098890612bec565b60006002611a8f61164c565b6004811115611aa057611aa0613d2c565b14610e2557610e20611ac7836001600160a01b031660009081526033602052604090205490565b6000611f4f565b60007faefebe170cbaff0af052a32795af0e1b8afff9850f946ad2869be14f35534371611afa816120bb565b611b0460046122e4565b91507fb4192707c71da259814532b3eb648e78c9d78d6a3b9234baed7a183808f8c54c82604051610bdb91815260200190565b600082815260c96020526040902060010154611b52816120bb565b610c0c838361241e565b600080516020614314833981519152611b74816120bb565b6000611b7e61164c565b90506002816004811115611b9457611b94613d2c565b1115611bb557806040516336100b6760e11b8152600401610ab19190613d64565b8263ffffffff168463ffffffff161180611bd45750428463ffffffff16105b15611bf2576040516335c4a3b960e11b815260040160405180910390fd5b610193805468ffffffffffffffff00191661010063ffffffff87811691820268ffffffff000000000019169290921765010000000000928716928302179092556040805192835260208301919091527f8f8d0d2155084c34c7e189b664aa128aebfd57e564d2d01c82a148d3da3a3bbc910160405180910390a150505050565b60006002611c7e61164c565b6004811115611c8f57611c8f613d2c565b14610e25576001600160a01b038216600090815260336020526040902054610988565b6001600160a01b03918216600090815260346020908152604080832093909416825291909152205490565b6000611ce8816120bb565b6000829003611d0e5782826040516303c5d03760e01b8152600401610ab192919061416b565b7f82b4c0c51f891b823eff0c623396a3d488ad9c5fa87eaf6536a5e30257cfe6248383604051611d3f92919061416b565b60405180910390a1611d5461019984846138b2565b50505050565b6001600160a01b038116600090815261019a6020526040812054610195546001600160801b031680821015611d9857611d9382826140b8565b611d9b565b60005b949350505050565b6000611dae816120bb565b816001600160a01b03163b600003611de457604051634ab6cb6760e11b81526001600160a01b0383166004820152602401610ab1565b61019654604080516001600160a01b03928316815291841660208301527f4ab5be82436d353e61ca18726e984e561f5c1cc7c6d38b29d2553c790434705a910160405180910390a15061019680546001600160a01b0319166001600160a01b0392909216919091179055565b600080516020614314833981519152611e68816120bb565b816001600160a01b031663fe60d26b6040518163ffffffff1660e01b8152600401602060405180830381865afa158015611ea6573d6000803e3d6000fd5b505050506040513d601f19601f82011682018060405250810190611eca9190613f03565b611ee7576040516381867da560e01b815260040160405180910390fd5b5061019280546001600160a01b0319166001600160a01b0392909216919091179055565b6001600160a01b03163b151590565b60006001600160e01b03198216637965db0b60e01b148061098857506301ffc9a760e01b6001600160e01b0319831614610988565b6000808311611f5f576000610b59565b6101975461019154610b5991859185612bf6565b6001600160a01b038316611fd55760405162461bcd60e51b8152602060048201526024808201527f45524332303a20617070726f76652066726f6d20746865207a65726f206164646044820152637265737360e01b6064820152608401610ab1565b6001600160a01b0382166120365760405162461bcd60e51b815260206004820152602260248201527f45524332303a20617070726f766520746f20746865207a65726f206164647265604482015261737360f01b6064820152608401610ab1565b6001600160a01b0383811660008181526034602090815260408083209487168084529482529182902085905590518481527f8c5be1e5ebec7d5bd14f71427d1e84f3dd0314c0f7b2291e5b200ac8c7c3b925910160405180910390a3505050565b60008083116120a7576000610b59565b6101915461019754610b5991859185612bf6565b610df28133612c53565b60006120d18484611cb2565b90506000198114611d54578181101561212c5760405162461bcd60e51b815260206004820152601d60248201527f45524332303a20696e73756666696369656e7420616c6c6f77616e63650000006044820152606401610ab1565b611d548484848403611f73565b6001600160a01b03831661219d5760405162461bcd60e51b815260206004820152602560248201527f45524332303a207472616e736665722066726f6d20746865207a65726f206164604482015264647265737360d81b6064820152608401610ab1565b6001600160a01b0382166121ff5760405162461bcd60e51b815260206004820152602360248201527f45524332303a207472616e7366657220746f20746865207a65726f206164647260448201526265737360e81b6064820152608401610ab1565b6001600160a01b038316600090815260336020526040902054818110156122775760405162461bcd60e51b815260206004820152602660248201527f45524332303a207472616e7366657220616d6f756e7420657863656564732062604482015265616c616e636560d01b6064820152608401610ab1565b6001600160a01b0380851660008181526033602052604080822086860390559286168082529083902080548601905591517fddf252ad1be2c89b69c2b068fc378daa952ba7f163c4a11628f55a4df523b3ef906122d79086815260200190565b60405180910390a3611d54565b6000806122ef61164c565b905082600481111561230357612303613d2c565b81600481111561231557612315613d2c565b146123385760048160405163567dfef960e01b8152600401610ab192919061419a565b600061234c6065546001600160a01b031690565b6040516370a0823160e01b81523060048201529091506001600160a01b038216906370a0823190602401602060405180830381865afa158015612393573d6000803e3d6000fd5b505050506040513d601f19601f820116820180604052508101906123b79190613e82565b9250826000036123da57604051634a2ccc4360e01b815260040160405180910390fd5b610196546123f5906001600160a01b03838116911685612cac565b5050919050565b6124068282612cdc565b600082815260fb60205260409020610c0c9082612d62565b6124288282612d77565b600082815260fb60205260409020610c0c9082612dde565b61019854600061245082846141b5565b610197549091506000612462856115c0565b610197819055610193805460ff1916600117905560408051878152602081018790529192507f502833ea9eb26966767980111b75e4b8e013aeea7b9493478424afc7869399c4910160405180910390a1600083121561250a577f727586bb3240e37cfc23d9c04f5d2c8f8c85602f6be89e0a8698e1a5a4c891d084866124e78661409c565b6040805193845260208401929092529082015260600160405180910390a1612547565b6000831315612547576040518381527f8a335823c2fa2c1e28bd8d65eb9cbe0194f76293b1626a460597adc993d606cd9060200160405180910390a15b60408051838152602081018390527f945c1c4e99aa89f648fbfe3df471b916f719e16d960fcec0737d4d56bd69683891016114f8565b6040516001600160a01b0380851660248301528316604482015260648101829052611d549085906323b872dd60e01b906084015b60408051601f198184030181529190526020810180516001600160e01b03166001600160e01b031990931692909217909152612df3565b6125f0612ec5565b61015f805460ff191690557f5db9ee0a495bf2e6ff9c91a7834c1ba4fdd244a5e8aa4e537bd38aeae4b073aa335b6040516001600160a01b03909116815260200160405180910390a1565b61019454610198546001600160a01b038316600090815261019a602052604081205490926001600160801b038082169392600160801b909204169082841115806126855750808211155b156126965750600095945050505050565b60006126a282846140b8565b905060006126b085876140b8565b90508082116126bf57816126c1565b805b98975050505050505050565b600054610100900460ff166126f45760405162461bcd60e51b8152600401610ab1906141f4565b6126fc612f0f565b565b600054610100900460ff166127255760405162461bcd60e51b8152600401610ab1906141f4565b610df281612f43565b600054610100900460ff166127555760405162461bcd60e51b8152600401610ab1906141f4565b610c8b8282612fc8565b600054610100900460ff166127865760405162461bcd60e51b8152600401610ab1906141f4565b6126fc613016565b600261012d54036127e15760405162461bcd60e51b815260206004820152601f60248201527f5265656e7472616e637947756172643a207265656e7472616e742063616c6c006044820152606401610ab1565b600261012d55565b61015f5460ff16156126fc5760405162461bcd60e51b815260206004820152601060248201526f14185d5cd8589b194e881c185d5cd95960821b6044820152606401610ab1565b61019254604051630808f3eb60e01b81526001600160a01b0384811660048301526000921690630808f3eb90602401602060405180830381865afa15801561287c573d6000803e3d6000fd5b505050506040513d601f19601f820116820180604052508101906128a09190613f03565b6128c85760405163c8f9bd5960e01b81526001600160a01b0384166004820152602401610ab1565b6001600160a01b0382166128ef57604051631abcef9360e21b815260040160405180910390fd5b836000036129105760405163836843a560e01b815260040160405180910390fd5b600061291a61164c565b9050600181600481111561293057612930613d2c565b146129535760018160405163567dfef960e01b8152600401610ab192919061419a565b61295c8461263b565b8511156129ab5760405162461bcd60e51b815260206004820152601e60248201527f455243343632363a206465706f736974206d6f7265207468616e206d617800006044820152606401610ab1565b60006129b685611d5a565b9050808610156129e3576040516313ed593f60e11b81526004810182905260248101879052604401610ab1565b6129ef8585888961303d565b856101986000828254612a029190613eeb565b90915550506001600160a01b038516600090815261019a602052604081208054889290612a30908490613eeb565b90915550959695505050505050565b600161012d55565b6000808060001985870985870292508281108382030391505080600003612a8157838281612a7757612a77614033565b0492505050610b59565b808411612a8d57600080fd5b60008486880960026001871981018816978890046003810283188082028403028082028403028082028403028082028403028082028403029081029092039091026000889003889004909101858311909403939093029303949094049190911702949350505050565b612afe6127e9565b61015f805460ff191660011790557f62e78cea01bee320cd4e420270b5ea74000d11b0c9f74754ebdbfc544b05a25861261e3390565b6000610b5983836130bb565b826001600160a01b0316856001600160a01b031614612b6457612b648386836120c5565b612b6e83826130e5565b606554612b85906001600160a01b03168584612cac565b826001600160a01b0316846001600160a01b0316866001600160a01b03167ffbde797d201c681b91056529119e0b02407c7bb96a4a2c75c01fc9667232c8db8585604051612bdd929190918252602082015260400190565b60405180910390a45050505050565b6000610988825490565b600080612c04868686612a47565b90506001836002811115612c1a57612c1a613d2c565b148015612c37575060008480612c3257612c32614033565b868809115b15612c4a57612c47600182613eeb565b90505b95945050505050565b612c5d8282611612565b610c8b57612c6a81613219565b612c7583602061322b565b604051602001612c8692919061423f565b60408051601f198184030181529082905262461bcd60e51b8252610ab191600401613991565b6040516001600160a01b038316602482015260448101829052610c0c90849063a9059cbb60e01b906064016125b1565b612ce68282611612565b610c8b57600082815260c9602090815260408083206001600160a01b03851684529091529020805460ff19166001179055612d1e3390565b6001600160a01b0316816001600160a01b0316837f2f8788117e7eff1d82e926ec794901d17c78024a50270940304540a733656f0d60405160405180910390a45050565b6000610b59836001600160a01b0384166133c7565b612d818282611612565b15610c8b57600082815260c9602090815260408083206001600160a01b0385168085529252808320805460ff1916905551339285917ff6391f5c32d9c69d2a47ea670b442974b53935d1edc7fd64eb21e047a839171b9190a45050565b6000610b59836001600160a01b038416613416565b6000612e48826040518060400160405280602081526020017f5361666545524332303a206c6f772d6c6576656c2063616c6c206661696c6564815250856001600160a01b03166135099092919063ffffffff16565b805190915015610c0c5780806020019051810190612e669190613f03565b610c0c5760405162461bcd60e51b815260206004820152602a60248201527f5361666545524332303a204552433230206f7065726174696f6e20646964206e6044820152691bdd081cdd58d8d9595960b21b6064820152608401610ab1565b61015f5460ff166126fc5760405162461bcd60e51b815260206004820152601460248201527314185d5cd8589b194e881b9bdd081c185d5cd95960621b6044820152606401610ab1565b600054610100900460ff16612f365760405162461bcd60e51b8152600401610ab1906141f4565b61015f805460ff19169055565b600054610100900460ff16612f6a5760405162461bcd60e51b8152600401610ab1906141f4565b600080612f7683613518565b9150915081612f86576012612f88565b805b606580546001600160a01b039095166001600160a01b031960ff93909316600160a01b02929092166001600160a81b031990951694909417179092555050565b600054610100900460ff16612fef5760405162461bcd60e51b8152600401610ab1906141f4565b815161300290603690602085019061382e565b508051610c0c90603790602084019061382e565b600054610100900460ff16612a3f5760405162461bcd60e51b8152600401610ab1906141f4565b606554613055906001600160a01b031685308561257d565b61305f83826135f4565b826001600160a01b0316846001600160a01b03167fdcbc1c05240f31ff3ad067ef1ee35ce4997762752e3a095284754544f4c709d784846040516130ad929190918252602082015260400190565b60405180910390a350505050565b60008260000182815481106130d2576130d26142b4565b9060005260206000200154905092915050565b6001600160a01b0382166131455760405162461bcd60e51b815260206004820152602160248201527f45524332303a206275726e2066726f6d20746865207a65726f206164647265736044820152607360f81b6064820152608401610ab1565b6001600160a01b038216600090815260336020526040902054818110156131b95760405162461bcd60e51b815260206004820152602260248201527f45524332303a206275726e20616d6f756e7420657863656564732062616c616e604482015261636560f01b6064820152608401610ab1565b6001600160a01b03831660008181526033602090815260408083208686039055603580548790039055518581529192917fddf252ad1be2c89b69c2b068fc378daa952ba7f163c4a11628f55a4df523b3ef910160405180910390a3505050565b60606109886001600160a01b03831660145b6060600061323a83600261407d565b613245906002613eeb565b67ffffffffffffffff81111561325d5761325d613b35565b6040519080825280601f01601f191660200182016040528015613287576020820181803683370190505b509050600360fc1b816000815181106132a2576132a26142b4565b60200101906001600160f81b031916908160001a905350600f60fb1b816001815181106132d1576132d16142b4565b60200101906001600160f81b031916908160001a90535060006132f584600261407d565b613300906001613eeb565b90505b6001811115613378576f181899199a1a9b1b9c1cb0b131b232b360811b85600f1660108110613334576133346142b4565b1a60f81b82828151811061334a5761334a6142b4565b60200101906001600160f81b031916908160001a90535060049490941c93613371816142ca565b9050613303565b508315610b595760405162461bcd60e51b815260206004820181905260248201527f537472696e67733a20686578206c656e67746820696e73756666696369656e746044820152606401610ab1565b600081815260018301602052604081205461340e57508154600181810184556000848152602080822090930184905584548482528286019093526040902091909155610988565b506000610988565b600081815260018301602052604081205480156134ff57600061343a6001836140b8565b855490915060009061344e906001906140b8565b90508181146134b357600086600001828154811061346e5761346e6142b4565b9060005260206000200154905080876000018481548110613491576134916142b4565b6000918252602080832090910192909255918252600188019052604090208390555b85548690806134c4576134c46142e1565b600190038181906000526020600020016000905590558560010160008681526020019081526020016000206000905560019350505050610988565b6000915050610988565b6060611d9b84846000856136b5565b60408051600481526024810182526020810180516001600160e01b031663313ce56760e01b17905290516000918291829182916001600160a01b0387169161355f916142f7565b600060405180830381855afa9150503d806000811461359a576040519150601f19603f3d011682016040523d82523d6000602084013e61359f565b606091505b50915091508180156135b357506020815110155b156135e7576000818060200190518101906135ce9190613e82565b905060ff81116135e5576001969095509350505050565b505b5060009485945092505050565b6001600160a01b03821661364a5760405162461bcd60e51b815260206004820152601f60248201527f45524332303a206d696e7420746f20746865207a65726f2061646472657373006044820152606401610ab1565b806035600082825461365c9190613eeb565b90915550506001600160a01b0382166000818152603360209081526040808320805486019055518481527fddf252ad1be2c89b69c2b068fc378daa952ba7f163c4a11628f55a4df523b3ef910160405180910390a35050565b6060824710156137165760405162461bcd60e51b815260206004820152602660248201527f416464726573733a20696e73756666696369656e742062616c616e636520666f6044820152651c8818d85b1b60d21b6064820152608401610ab1565b600080866001600160a01b0316858760405161373291906142f7565b60006040518083038185875af1925050503d806000811461376f576040519150601f19603f3d011682016040523d82523d6000602084013e613774565b606091505b509150915061378587838387613790565b979650505050505050565b606083156137ff5782516000036137f8576001600160a01b0385163b6137f85760405162461bcd60e51b815260206004820152601d60248201527f416464726573733a2063616c6c20746f206e6f6e2d636f6e74726163740000006044820152606401610ab1565b5081611d9b565b611d9b83838151156138145781518083602001fd5b8060405162461bcd60e51b8152600401610ab19190613991565b82805461383a90613e9b565b90600052602060002090601f01602090048101928261385c57600085556138a2565b82601f1061387557805160ff19168380011785556138a2565b828001600101855582156138a2579182015b828111156138a2578251825591602001919060010190613887565b506138ae929150613926565b5090565b8280546138be90613e9b565b90600052602060002090601f0160209004810192826138e057600085556138a2565b82601f106138f95782800160ff198235161785556138a2565b828001600101855582156138a2579182015b828111156138a257823582559160200191906001019061390b565b5b808211156138ae5760008155600101613927565b60006020828403121561394d57600080fd5b81356001600160e01b031981168114610b5957600080fd5b60005b83811015613980578181015183820152602001613968565b83811115611d545750506000910152565b60208152600082518060208401526139b0816040850160208701613965565b601f01601f19169190910160400192915050565b6000602082840312156139d657600080fd5b5035919050565b6001600160a01b0381168114610df257600080fd5b80356139fd816139dd565b919050565b60008060408385031215613a1557600080fd5b8235613a20816139dd565b946020939093013593505050565b6001600160801b0381168114610df257600080fd5b80356139fd81613a2e565b60008060408385031215613a6157600080fd5b8235613a6c81613a2e565b91506020830135613a7c81613a2e565b809150509250929050565b600080600060608486031215613a9c57600080fd5b8335613aa7816139dd565b92506020840135613ab7816139dd565b929592945050506040919091013590565b60008060408385031215613adb57600080fd5b823591506020830135613a7c816139dd565b8015158114610df257600080fd5b600060208284031215613b0d57600080fd5b8135610b5981613aed565b600060208284031215613b2a57600080fd5b8135610b59816139dd565b634e487b7160e01b600052604160045260246000fd5b600082601f830112613b5c57600080fd5b813567ffffffffffffffff80821115613b7757613b77613b35565b604051601f8301601f19908116603f01168101908282118183101715613b9f57613b9f613b35565b81604052838152866020858801011115613bb857600080fd5b836020870160208301376000602085830101528094505050505092915050565b63ffffffff81168114610df257600080fd5b80356139fd81613bd8565b60008060008060008060008060008060006101608c8e031215613c1757600080fd5b613c208c6139f2565b9a5067ffffffffffffffff8060208e01351115613c3c57600080fd5b613c4c8e60208f01358f01613b4b565b9a508060408e01351115613c5f57600080fd5b613c6f8e60408f01358f01613b4b565b99508060608e01351115613c8257600080fd5b50613c938d60608e01358e01613b4b565b9750613ca160808d016139f2565b9650613caf60a08d016139f2565b9550613cbd60c08d016139f2565b9450613ccb60e08d01613a43565b9350613cda6101008d01613a43565b9250613ce96101208d01613bea565b9150613cf86101408d01613bea565b90509295989b509295989b9093969950565b60008060408385031215613d1d57600080fd5b50508035926020909101359150565b634e487b7160e01b600052602160045260246000fd5b60058110613d6057634e487b7160e01b600052602160045260246000fd5b9052565b602081016109888284613d42565b600080600060608486031215613d8757600080fd5b833592506020840135613d99816139dd565b91506040840135613da9816139dd565b809150509250925092565b60008060408385031215613dc757600080fd5b8235613dd281613bd8565b91506020830135613a7c81613bd8565b60008060408385031215613df557600080fd5b8235613e00816139dd565b91506020830135613a7c816139dd565b60008060208385031215613e2357600080fd5b823567ffffffffffffffff80821115613e3b57600080fd5b818501915085601f830112613e4f57600080fd5b813581811115613e5e57600080fd5b866020828501011115613e7057600080fd5b60209290920196919550909350505050565b600060208284031215613e9457600080fd5b5051919050565b600181811c90821680613eaf57607f821691505b602082108103613ecf57634e487b7160e01b600052602260045260246000fd5b50919050565b634e487b7160e01b600052601160045260246000fd5b60008219821115613efe57613efe613ed5565b500190565b600060208284031215613f1557600080fd5b8151610b5981613aed565b600060208284031215613f3257600080fd5b815160ff81168114610b5957600080fd5b600181815b80851115613f7e578160001904821115613f6457613f64613ed5565b80851615613f7157918102915b93841c9390800290613f48565b509250929050565b600082613f9557506001610988565b81613fa257506000610988565b8160018114613fb85760028114613fc257613fde565b6001915050610988565b60ff841115613fd357613fd3613ed5565b50506001821b610988565b5060208310610133831016604e8410600b8410161715614001575081810a610988565b61400b8383613f43565b806000190482111561401f5761401f613ed5565b029392505050565b6000610b598383613f86565b634e487b7160e01b600052601260045260246000fd5b60006001600160801b038084168061407157634e487b7160e01b600052601260045260246000fd5b92169190910492915050565b600081600019048311821515161561409757614097613ed5565b500290565b6000600160ff1b82016140b1576140b1613ed5565b5060000390565b6000828210156140ca576140ca613ed5565b500390565b600080600080600080600060e0888a0312156140ea57600080fd5b87516140f581613aed565b602089015190975061410681613bd8565b604089015190965061411781613bd8565b606089015190955061412881613a2e565b608089015190945061413981613a2e565b60a089015190935061414a81613a2e565b60c089015190925061415b81613a2e565b8091505092959891949750929550565b60208152816020820152818360408301376000818301604090810191909152601f909201601f19160101919050565b604081016141a88285613d42565b610b596020830184613d42565b60008083128015600160ff1b8501841216156141d3576141d3613ed5565b6001600160ff1b03840183138116156141ee576141ee613ed5565b50500390565b6020808252602b908201527f496e697469616c697a61626c653a20636f6e7472616374206973206e6f74206960408201526a6e697469616c697a696e6760a81b606082015260800190565b7f416363657373436f6e74726f6c3a206163636f756e7420000000000000000000815260008351614277816017850160208801613965565b7001034b99036b4b9b9b4b733903937b6329607d1b60179184019182015283516142a8816028840160208801613965565b01602801949350505050565b634e487b7160e01b600052603260045260246000fd5b6000816142d9576142d9613ed5565b506000190190565b634e487b7160e01b600052603160045260246000fd5b60008251614309818460208701613965565b919091019291505056feb1e380c01db319c0153ea3bb4fbd0ab6639cc088e3bf8cd5319b128f33a2f9e8a2646970667358221220c431b85ffc640bd189c6cf6867554f36789ef195bfd00cb3baed93b57f78d2bb64736f6c634300080e0033",
    "linkReferences": {}
  },
  "methodIdentifiers": {
    "DEFAULT_ADMIN_ROLE()": "a217fddf",
    "DEV()": "c1eb5ddd",
    "KONKRETE()": "e35d33f6",
    "TIMELOCK()": "7aadef8b",
    "allowance(address,address)": "dd62ed3e",
    "approve(address,uint256)": "095ea7b3",
    "asset()": "38d52e0f",
    "balanceOf(address)": "70a08231",
    "collectCapital()": "29d29799",
    "collectUnclaimedFunds()": "d406008d",
    "collectedCapital()": "8e95bab2",
    "convertToAssets(uint256)": "07a2d13a",
    "convertToShares(uint256)": "c6e6f592",
    "dataBase()": "5cb5e41d",
    "decimals()": "313ce567",
    "decreaseAllowance(address,uint256)": "a457c2d7",
    "deposit(uint256,address)": "6e553f65",
    "emptyCapitalBack(bool)": "3670e7b1",
    "getRoleAdmin(bytes32)": "248a9ca3",
    "getRoleMember(bytes32,uint256)": "9010d07c",
    "getRoleMemberCount(bytes32)": "ca15c873",
    "getStep()": "9e5288a0",
    "grantRole(bytes32,address)": "2f2ff15d",
    "hasRole(bytes32,address)": "91d14854",
    "increaseAllowance(address,uint256)": "39509351",
    "initialize(address,string,string,string,address,address,address,uint128,uint128,uint32,uint32)": "4d974d83",
    "maxDeposit(address)": "402d267d",
    "maxMint(address)": "c63d75b6",
    "maxRedeem(address)": "d905777e",
    "maxWithdraw(address)": "ce96cb77",
    "minInvest(address)": "e0f41f3a",
    "mint(uint256,address)": "94bf804d",
    "name()": "06fdde03",
    "originalPrice()": "76a24f25",
    "paid(address)": "a340cf79",
    "pause()": "8456cb59",
    "paused()": "5c975abb",
    "previewDeposit(uint256)": "ef8b30f7",
    "previewMint(uint256)": "b3d7f6b9",
    "previewRedeem(uint256)": "4cdad506",
    "previewWithdraw(uint256)": "0a28a477",
    "priceImpact(uint256)": "84061853",
    "redeem(uint256,address,address)": "ba087652",
    "refundCapital(uint256)": "373cad57",
    "renounceRole(bytes32,address)": "36568abe",
    "revokeRole(bytes32,address)": "d547741f",
    "setCaps(uint128,uint128)": "490248e3",
    "setDatabase(address)": "f5420374",
    "setDepositLimitsPerUser(uint128,uint128)": "1bb133b0",
    "setTimes(uint32,uint32)": "d5f2b0cc",
    "setTreasury(address)": "f0f44260",
    "setVaultURI(string)": "dfd5473c",
    "stepVar()": "bd26057e",
    "supportsInterface(bytes4)": "01ffc9a7",
    "symbol()": "95d89b41",
    "tokenPrice()": "7ff9b596",
    "totalAssets()": "01e1d114",
    "totalSupply()": "18160ddd",
    "transfer(address,uint256)": "a9059cbb",
    "transferFrom(address,address,uint256)": "23b872dd",
    "treasury()": "61d027b3",
    "unpause()": "3f4ba83a",
    "updateInterest(int256)": "5a67f6cb",
    "vaultURI()": "5dc5eaf3",
    "withdraw(uint256,address,address)": "b460af94"
  },
  "id": 2
}