{
  "abi": [
    {
      "inputs": [],
      "stateMutability": "nonpayable",
      "type": "constructor"
    },
    {
      "inputs": [
        {
          "internalType": "uint256",
          "name": "minimum",
          "type": "uint256"
        },
        {
          "internalType": "uint256",
          "name": "amount",
          "type": "uint256"
        }
      ],
      "name": "BelowMinimumInvest",
      "type": "error"
    },
    {
      "inputs": [
        {
          "internalType": "int256",
          "name": "interest",
          "type": "int256"
        }
      ],
      "name": "InmpossibleInterest",
      "type": "error"
    },
    {
      "inputs": [
        {
          "internalType": "address",
          "name": "msgSender",
          "type": "address"
        }
      ],
      "name": "MsgSenderUnauthorized",
      "type": "error"
    },
    {
      "inputs": [
        {
          "internalType": "int256",
          "name": "capitalAndInterest",
          "type": "int256"
        }
      ],
      "name": "NegativeCapital",
      "type": "error"
    },
    {
      "inputs": [
        {
          "internalType": "enum SaleStep",
          "name": "expected",
          "type": "uint8"
        },
        {
          "internalType": "enum SaleStep",
          "name": "currentStep",
          "type": "uint8"
        }
      ],
      "name": "NotExpectedStep",
      "type": "error"
    },
    {
      "inputs": [
        {
          "internalType": "address",
          "name": "receiver",
          "type": "address"
        }
      ],
      "name": "ReceiverUnauthorized",
      "type": "error"
    },
    {
      "inputs": [],
      "name": "TryToCollectZeroFund",
      "type": "error"
    },
    {
      "inputs": [],
      "name": "WrongCaps",
      "type": "error"
    },
    {
      "inputs": [],
      "name": "WrongDatabase",
      "type": "error"
    },
    {
      "inputs": [
        {
          "internalType": "uint256",
          "name": "expected1",
          "type": "uint256"
        },
        {
          "internalType": "uint256",
          "name": "expected2",
          "type": "uint256"
        },
        {
          "internalType": "uint256",
          "name": "current",
          "type": "uint256"
        }
      ],
      "name": "WrongDecimalNumber",
      "type": "error"
    },
    {
      "inputs": [
        {
          "internalType": "uint256",
          "name": "max",
          "type": "uint256"
        },
        {
          "internalType": "uint256",
          "name": "amountWanted",
          "type": "uint256"
        }
      ],
      "name": "WrongMaxDepositPerUser",
      "type": "error"
    },
    {
      "inputs": [
        {
          "internalType": "uint256",
          "name": "maxDeposit",
          "type": "uint256"
        },
        {
          "internalType": "uint256",
          "name": "minInvest",
          "type": "uint256"
        }
      ],
      "name": "WrongMinDepositPerUser",
      "type": "error"
    },
    {
      "inputs": [],
      "name": "WrongSaleTimeStamps",
      "type": "error"
    },
    {
      "inputs": [
        {
          "internalType": "enum SaleStep",
          "name": "currentStep",
          "type": "uint8"
        }
      ],
      "name": "WrongStep",
      "type": "error"
    },
    {
      "inputs": [
        {
          "internalType": "address",
          "name": "treasury",
          "type": "address"
        }
      ],
      "name": "WrongTreasury",
      "type": "error"
    },
    {
      "inputs": [
        {
          "internalType": "string",
          "name": "vaultURI_",
          "type": "string"
        }
      ],
      "name": "WrongVaultURI",
      "type": "error"
    },
    {
      "anonymous": false,
      "inputs": [
        {
          "indexed": true,
          "internalType": "address",
          "name": "owner",
          "type": "address"
        },
        {
          "indexed": true,
          "internalType": "address",
          "name": "spender",
          "type": "address"
        },
        {
          "indexed": false,
          "internalType": "uint256",
          "name": "value",
          "type": "uint256"
        }
      ],
      "name": "Approval",
      "type": "event"
    },
    {
      "anonymous": false,
      "inputs": [
        {
          "indexed": false,
          "internalType": "uint256",
          "name": "amount",
          "type": "uint256"
        }
      ],
      "name": "CapitalCollected",
      "type": "event"
    },
    {
      "anonymous": false,
      "inputs": [
        {
          "indexed": false,
          "internalType": "uint256",
          "name": "originalCapital",
          "type": "uint256"
        },
        {
          "indexed": false,
          "internalType": "uint256",
          "name": "remainingCapital",
          "type": "uint256"
        },
        {
          "indexed": false,
          "internalType": "uint256",
          "name": "loss",
          "type": "uint256"
        }
      ],
      "name": "CapitalLoss",
      "type": "event"
    },
    {
      "anonymous": false,
      "inputs": [
        {
          "indexed": false,
          "internalType": "uint256",
          "name": "amount",
          "type": "uint256"
        },
        {
          "indexed": false,
          "internalType": "uint256",
          "name": "collected",
          "type": "uint256"
        }
      ],
      "name": "CapitalRefunded",
      "type": "event"
    },
    {
      "anonymous": false,
      "inputs": [
        {
          "indexed": false,
          "internalType": "uint256",
          "name": "softCap",
          "type": "uint256"
        },
        {
          "indexed": false,
          "internalType": "uint256",
          "name": "hardCap",
          "type": "uint256"
        }
      ],
      "name": "CapsUpdated",
      "type": "event"
    },
    {
      "anonymous": false,
      "inputs": [
        {
          "indexed": true,
          "internalType": "address",
          "name": "sender",
          "type": "address"
        },
        {
          "indexed": true,
          "internalType": "address",
          "name": "owner",
          "type": "address"
        },
        {
          "indexed": false,
          "internalType": "uint256",
          "name": "assets",
          "type": "uint256"
        },
        {
          "indexed": false,
          "internalType": "uint256",
          "name": "shares",
          "type": "uint256"
        }
      ],
      "name": "Deposit",
      "type": "event"
    },
    {
      "anonymous": false,
      "inputs": [
        {
          "indexed": false,
          "internalType": "uint8",
          "name": "version",
          "type": "uint8"
        }
      ],
      "name": "Initialized",
      "type": "event"
    },
    {
      "anonymous": false,
      "inputs": [
        {
          "indexed": false,
          "internalType": "uint256",
          "name": "refunded",
          "type": "uint256"
        }
      ],
      "name": "InterestRefunded",
      "type": "event"
    },
    {
      "anonymous": false,
      "inputs": [
        {
          "indexed": false,
          "internalType": "address",
          "name": "from",
          "type": "address"
        },
        {
          "indexed": false,
          "internalType": "int256",
          "name": "amount",
          "type": "int256"
        }
      ],
      "name": "InterestUpdated",
      "type": "event"
    },
    {
      "anonymous": false,
      "inputs": [
        {
          "indexed": false,
          "internalType": "address",
          "name": "account",
          "type": "address"
        }
      ],
      "name": "Paused",
      "type": "event"
    },
    {
      "anonymous": false,
      "inputs": [
        {
          "indexed": false,
          "internalType": "uint256",
          "name": "oldPrice",
          "type": "uint256"
        },
        {
          "indexed": false,
          "internalType": "uint256",
          "name": "newPrice",
          "type": "uint256"
        }
      ],
      "name": "PriceUpdated",
      "type": "event"
    },
    {
      "anonymous": false,
      "inputs": [
        {
          "indexed": true,
          "internalType": "bytes32",
          "name": "role",
          "type": "bytes32"
        },
        {
          "indexed": true,
          "internalType": "bytes32",
          "name": "previousAdminRole",
          "type": "bytes32"
        },
        {
          "indexed": true,
          "internalType": "bytes32",
          "name": "newAdminRole",
          "type": "bytes32"
        }
      ],
      "name": "RoleAdminChanged",
      "type": "event"
    },
    {
      "anonymous": false,
      "inputs": [
        {
          "indexed": true,
          "internalType": "bytes32",
          "name": "role",
          "type": "bytes32"
        },
        {
          "indexed": true,
          "internalType": "address",
          "name": "account",
          "type": "address"
        },
        {
          "indexed": true,
          "internalType": "address",
          "name": "sender",
          "type": "address"
        }
      ],
      "name": "RoleGranted",
      "type": "event"
    },
    {
      "anonymous": false,
      "inputs": [
        {
          "indexed": true,
          "internalType": "bytes32",
          "name": "role",
          "type": "bytes32"
        },
        {
          "indexed": true,
          "internalType": "address",
          "name": "account",
          "type": "address"
        },
        {
          "indexed": true,
          "internalType": "address",
          "name": "sender",
          "type": "address"
        }
      ],
      "name": "RoleRevoked",
      "type": "event"
    },
    {
      "anonymous": false,
      "inputs": [
        {
          "indexed": false,
          "internalType": "uint256",
          "name": "depositsStart",
          "type": "uint256"
        },
        {
          "indexed": false,
          "internalType": "uint256",
          "name": "depositsStop",
          "type": "uint256"
        }
      ],
      "name": "TimesUpdated",
      "type": "event"
    },
    {
      "anonymous": false,
      "inputs": [
        {
          "indexed": false,
          "internalType": "address",
          "name": "from",
          "type": "address"
        },
        {
          "indexed": false,
          "internalType": "uint256",
          "name": "amount",
          "type": "uint256"
        }
      ],
      "name": "TotalRefunded",
      "type": "event"
    },
    {
      "anonymous": false,
      "inputs": [
        {
          "indexed": true,
          "internalType": "address",
          "name": "from",
          "type": "address"
        },
        {
          "indexed": true,
          "internalType": "address",
          "name": "to",
          "type": "address"
        },
        {
          "indexed": false,
          "internalType": "uint256",
          "name": "value",
          "type": "uint256"
        }
      ],
      "name": "Transfer",
      "type": "event"
    },
    {
      "anonymous": false,
      "inputs": [
        {
          "indexed": false,
          "internalType": "address",
          "name": "oldTreasury",
          "type": "address"
        },
        {
          "indexed": false,
          "internalType": "address",
          "name": "newTreasury",
          "type": "address"
        }
      ],
      "name": "TreasuryUpdated",
      "type": "event"
    },
    {
      "anonymous": false,
      "inputs": [
        {
          "indexed": false,
          "internalType": "uint256",
          "name": "amount",
          "type": "uint256"
        }
      ],
      "name": "UnclaimedFundsCollected",
      "type": "event"
    },
    {
      "anonymous": false,
      "inputs": [
        {
          "indexed": false,
          "internalType": "address",
          "name": "account",
          "type": "address"
        }
      ],
      "name": "Unpaused",
      "type": "event"
    },
    {
      "anonymous": false,
      "inputs": [
        {
          "indexed": false,
          "internalType": "string",
          "name": "vaultURI_",
          "type": "string"
        }
      ],
      "name": "VaultURIUpdated",
      "type": "event"
    },
    {
      "anonymous": false,
      "inputs": [
        {
          "indexed": true,
          "internalType": "address",
          "name": "sender",
          "type": "address"
        },
        {
          "indexed": true,
          "internalType": "address",
          "name": "receiver",
          "type": "address"
        },
        {
          "indexed": true,
          "internalType": "address",
          "name": "owner",
          "type": "address"
        },
        {
          "indexed": false,
          "internalType": "uint256",
          "name": "assets",
          "type": "uint256"
        },
        {
          "indexed": false,
          "internalType": "uint256",
          "name": "shares",
          "type": "uint256"
        }
      ],
      "name": "Withdraw",
      "type": "event"
    },
    {
      "inputs": [],
      "name": "DEFAULT_ADMIN_ROLE",
      "outputs": [
        {
          "internalType": "bytes32",
          "name": "",
          "type": "bytes32"
        }
      ],
      "stateMutability": "view",
      "type": "function"
    },
    {
      "inputs": [],
      "name": "DEV",
      "outputs": [
        {
          "internalType": "bytes32",
          "name": "",
          "type": "bytes32"
        }
      ],
      "stateMutability": "view",
      "type": "function"
    },
    {
      "inputs": [],
      "name": "KONKRETE",
      "outputs": [
        {
          "internalType": "bytes32",
          "name": "",
          "type": "bytes32"
        }
      ],
      "stateMutability": "view",
      "type": "function"
    },
    {
      "inputs": [],
      "name": "TIMELOCK",
      "outputs": [
        {
          "internalType": "bytes32",
          "name": "",
          "type": "bytes32"
        }
      ],
      "stateMutability": "view",
      "type": "function"
    },
    {
      "inputs": [
        {
          "internalType": "address",
          "name": "owner",
          "type": "address"
        },
        {
          "internalType": "address",
          "name": "spender",
          "type": "address"
        }
      ],
      "name": "allowance",
      "outputs": [
        {
          "internalType": "uint256",
          "name": "",
          "type": "uint256"
        }
      ],
      "stateMutability": "view",
      "type": "function"
    },
    {
      "inputs": [
        {
          "internalType": "uint256",
          "name": "priceRaiseOrLower",
          "type": "uint256"
        }
      ],
      "name": "amountImpact",
      "outputs": [
        {
          "internalType": "uint256",
          "name": "",
          "type": "uint256"
        }
      ],
      "stateMutability": "view",
      "type": "function"
    },
    {
      "inputs": [
        {
          "internalType": "address",
          "name": "spender",
          "type": "address"
        },
        {
          "internalType": "uint256",
          "name": "amount",
          "type": "uint256"
        }
      ],
      "name": "approve",
      "outputs": [
        {
          "internalType": "bool",
          "name": "",
          "type": "bool"
        }
      ],
      "stateMutability": "nonpayable",
      "type": "function"
    },
    {
      "inputs": [],
      "name": "asset",
      "outputs": [
        {
          "internalType": "address",
          "name": "",
          "type": "address"
        }
      ],
      "stateMutability": "view",
      "type": "function"
    },
    {
      "inputs": [
        {
          "internalType": "address",
          "name": "account",
          "type": "address"
        }
      ],
      "name": "balanceOf",
      "outputs": [
        {
          "internalType": "uint256",
          "name": "",
          "type": "uint256"
        }
      ],
      "stateMutability": "view",
      "type": "function"
    },
    {
      "inputs": [],
      "name": "collectCapital",
      "outputs": [
        {
          "internalType": "uint256",
          "name": "collected",
          "type": "uint256"
        }
      ],
      "stateMutability": "nonpayable",
      "type": "function"
    },
    {
      "inputs": [],
      "name": "collectUnclaimedFunds",
      "outputs": [
        {
          "internalType": "uint256",
          "name": "pendingFunds",
          "type": "uint256"
        }
      ],
      "stateMutability": "nonpayable",
      "type": "function"
    },
    {
      "inputs": [],
      "name": "collectedCapital",
      "outputs": [
        {
          "internalType": "uint256",
          "name": "",
          "type": "uint256"
        }
      ],
      "stateMutability": "view",
      "type": "function"
    },
    {
      "inputs": [
        {
          "internalType": "uint256",
          "name": "shares",
          "type": "uint256"
        }
      ],
      "name": "convertToAssets",
      "outputs": [
        {
          "internalType": "uint256",
          "name": "assets",
          "type": "uint256"
        }
      ],
      "stateMutability": "view",
      "type": "function"
    },
    {
      "inputs": [
        {
          "internalType": "uint256",
          "name": "assets",
          "type": "uint256"
        }
      ],
      "name": "convertToShares",
      "outputs": [
        {
          "internalType": "uint256",
          "name": "shares",
          "type": "uint256"
        }
      ],
      "stateMutability": "view",
      "type": "function"
    },
    {
      "inputs": [],
      "name": "dataBase",
      "outputs": [
        {
          "internalType": "contract IDatabase",
          "name": "",
          "type": "address"
        }
      ],
      "stateMutability": "view",
      "type": "function"
    },
    {
      "inputs": [],
      "name": "decimals",
      "outputs": [
        {
          "internalType": "uint8",
          "name": "",
          "type": "uint8"
        }
      ],
      "stateMutability": "view",
      "type": "function"
    },
    {
      "inputs": [
        {
          "internalType": "address",
          "name": "spender",
          "type": "address"
        },
        {
          "internalType": "uint256",
          "name": "subtractedValue",
          "type": "uint256"
        }
      ],
      "name": "decreaseAllowance",
      "outputs": [
        {
          "internalType": "bool",
          "name": "",
          "type": "bool"
        }
      ],
      "stateMutability": "nonpayable",
      "type": "function"
    },
    {
      "inputs": [
        {
          "internalType": "uint256",
          "name": "assets",
          "type": "uint256"
        },
        {
          "internalType": "address",
          "name": "receiver",
          "type": "address"
        }
      ],
      "name": "deposit",
      "outputs": [
        {
          "internalType": "uint256",
          "name": "",
          "type": "uint256"
        }
      ],
      "stateMutability": "nonpayable",
      "type": "function"
    },
    {
      "inputs": [],
      "name": "depositsStart",
      "outputs": [
        {
          "internalType": "uint256",
          "name": "",
          "type": "uint256"
        }
      ],
      "stateMutability": "view",
      "type": "function"
    },
    {
      "inputs": [],
      "name": "depositsStop",
      "outputs": [
        {
          "internalType": "uint256",
          "name": "",
          "type": "uint256"
        }
      ],
      "stateMutability": "view",
      "type": "function"
    },
    {
      "inputs": [
        {
          "internalType": "bytes32",
          "name": "role",
          "type": "bytes32"
        }
      ],
      "name": "getRoleAdmin",
      "outputs": [
        {
          "internalType": "bytes32",
          "name": "",
          "type": "bytes32"
        }
      ],
      "stateMutability": "view",
      "type": "function"
    },
    {
      "inputs": [
        {
          "internalType": "bytes32",
          "name": "role",
          "type": "bytes32"
        },
        {
          "internalType": "uint256",
          "name": "index",
          "type": "uint256"
        }
      ],
      "name": "getRoleMember",
      "outputs": [
        {
          "internalType": "address",
          "name": "",
          "type": "address"
        }
      ],
      "stateMutability": "view",
      "type": "function"
    },
    {
      "inputs": [
        {
          "internalType": "bytes32",
          "name": "role",
          "type": "bytes32"
        }
      ],
      "name": "getRoleMemberCount",
      "outputs": [
        {
          "internalType": "uint256",
          "name": "",
          "type": "uint256"
        }
      ],
      "stateMutability": "view",
      "type": "function"
    },
    {
      "inputs": [],
      "name": "getStep",
      "outputs": [
        {
          "internalType": "enum SaleStep",
          "name": "step",
          "type": "uint8"
        }
      ],
      "stateMutability": "view",
      "type": "function"
    },
    {
      "inputs": [
        {
          "internalType": "bytes32",
          "name": "role",
          "type": "bytes32"
        },
        {
          "internalType": "address",
          "name": "account",
          "type": "address"
        }
      ],
      "name": "grantRole",
      "outputs": [],
      "stateMutability": "nonpayable",
      "type": "function"
    },
    {
      "inputs": [],
      "name": "hardCap",
      "outputs": [
        {
          "internalType": "uint256",
          "name": "",
          "type": "uint256"
        }
      ],
      "stateMutability": "view",
      "type": "function"
    },
    {
      "inputs": [
        {
          "internalType": "bytes32",
          "name": "role",
          "type": "bytes32"
        },
        {
          "internalType": "address",
          "name": "account",
          "type": "address"
        }
      ],
      "name": "hasRole",
      "outputs": [
        {
          "internalType": "bool",
          "name": "",
          "type": "bool"
        }
      ],
      "stateMutability": "view",
      "type": "function"
    },
    {
      "inputs": [
        {
          "internalType": "address",
          "name": "spender",
          "type": "address"
        },
        {
          "internalType": "uint256",
          "name": "addedValue",
          "type": "uint256"
        }
      ],
      "name": "increaseAllowance",
      "outputs": [
        {
          "internalType": "bool",
          "name": "",
          "type": "bool"
        }
      ],
      "stateMutability": "nonpayable",
      "type": "function"
    },
    {
      "inputs": [
        {
          "internalType": "address",
          "name": "asset_",
          "type": "address"
        },
        {
          "internalType": "string",
          "name": "name_",
          "type": "string"
        },
        {
          "internalType": "string",
          "name": "symbol_",
          "type": "string"
        },
        {
          "internalType": "string",
          "name": "vaultURI_",
          "type": "string"
        },
        {
          "internalType": "address",
          "name": "multisig",
          "type": "address"
        },
        {
          "internalType": "contract IDatabase",
          "name": "dataBase_",
          "type": "address"
        },
        {
          "internalType": "uint256",
          "name": "softCap_",
          "type": "uint256"
        },
        {
          "internalType": "uint256",
          "name": "depositsStart_",
          "type": "uint256"
        },
        {
          "internalType": "uint256",
          "name": "depositsStop_",
          "type": "uint256"
        }
      ],
      "name": "initialize",
      "outputs": [],
      "stateMutability": "nonpayable",
      "type": "function"
    },
    {
      "inputs": [
        {
          "internalType": "address",
          "name": "user",
          "type": "address"
        }
      ],
      "name": "maxDeposit",
      "outputs": [
        {
          "internalType": "uint256",
          "name": "",
          "type": "uint256"
        }
      ],
      "stateMutability": "view",
      "type": "function"
    },
    {
      "inputs": [],
      "name": "maxDepositPerUser",
      "outputs": [
        {
          "internalType": "uint256",
          "name": "",
          "type": "uint256"
        }
      ],
      "stateMutability": "view",
      "type": "function"
    },
    {
      "inputs": [
        {
          "internalType": "address",
          "name": "user",
          "type": "address"
        }
      ],
      "name": "maxMint",
      "outputs": [
        {
          "internalType": "uint256",
          "name": "",
          "type": "uint256"
        }
      ],
      "stateMutability": "view",
      "type": "function"
    },
    {
      "inputs": [
        {
          "internalType": "address",
          "name": "owner",
          "type": "address"
        }
      ],
      "name": "maxRedeem",
      "outputs": [
        {
          "internalType": "uint256",
          "name": "",
          "type": "uint256"
        }
      ],
      "stateMutability": "view",
      "type": "function"
    },
    {
      "inputs": [
        {
          "internalType": "address",
          "name": "owner",
          "type": "address"
        }
      ],
      "name": "maxWithdraw",
      "outputs": [
        {
          "internalType": "uint256",
          "name": "",
          "type": "uint256"
        }
      ],
      "stateMutability": "view",
      "type": "function"
    },
    {
      "inputs": [
        {
          "internalType": "address",
          "name": "user",
          "type": "address"
        }
      ],
      "name": "minInvest",
      "outputs": [
        {
          "internalType": "uint256",
          "name": "",
          "type": "uint256"
        }
      ],
      "stateMutability": "view",
      "type": "function"
    },
    {
      "inputs": [],
      "name": "minInvestPerUser",
      "outputs": [
        {
          "internalType": "uint256",
          "name": "",
          "type": "uint256"
        }
      ],
      "stateMutability": "view",
      "type": "function"
    },
    {
      "inputs": [
        {
          "internalType": "uint256",
          "name": "shares",
          "type": "uint256"
        },
        {
          "internalType": "address",
          "name": "receiver",
          "type": "address"
        }
      ],
      "name": "mint",
      "outputs": [
        {
          "internalType": "uint256",
          "name": "",
          "type": "uint256"
        }
      ],
      "stateMutability": "nonpayable",
      "type": "function"
    },
    {
      "inputs": [],
      "name": "name",
      "outputs": [
        {
          "internalType": "string",
          "name": "",
          "type": "string"
        }
      ],
      "stateMutability": "view",
      "type": "function"
    },
    {
      "inputs": [],
      "name": "originalPrice",
      "outputs": [
        {
          "internalType": "uint256",
          "name": "",
          "type": "uint256"
        }
      ],
      "stateMutability": "view",
      "type": "function"
    },
    {
      "inputs": [],
      "name": "pause",
      "outputs": [],
      "stateMutability": "nonpayable",
      "type": "function"
    },
    {
      "inputs": [],
      "name": "paused",
      "outputs": [
        {
          "internalType": "bool",
          "name": "",
          "type": "bool"
        }
      ],
      "stateMutability": "view",
      "type": "function"
    },
    {
      "inputs": [
        {
          "internalType": "uint256",
          "name": "assets",
          "type": "uint256"
        }
      ],
      "name": "previewDeposit",
      "outputs": [
        {
          "internalType": "uint256",
          "name": "",
          "type": "uint256"
        }
      ],
      "stateMutability": "view",
      "type": "function"
    },
    {
      "inputs": [
        {
          "internalType": "uint256",
          "name": "shares",
          "type": "uint256"
        }
      ],
      "name": "previewMint",
      "outputs": [
        {
          "internalType": "uint256",
          "name": "",
          "type": "uint256"
        }
      ],
      "stateMutability": "view",
      "type": "function"
    },
    {
      "inputs": [
        {
          "internalType": "uint256",
          "name": "shares",
          "type": "uint256"
        }
      ],
      "name": "previewRedeem",
      "outputs": [
        {
          "internalType": "uint256",
          "name": "",
          "type": "uint256"
        }
      ],
      "stateMutability": "view",
      "type": "function"
    },
    {
      "inputs": [
        {
          "internalType": "uint256",
          "name": "assets",
          "type": "uint256"
        }
      ],
      "name": "previewWithdraw",
      "outputs": [
        {
          "internalType": "uint256",
          "name": "",
          "type": "uint256"
        }
      ],
      "stateMutability": "view",
      "type": "function"
    },
    {
      "inputs": [
        {
          "internalType": "uint256",
          "name": "amountOfInterest",
          "type": "uint256"
        }
      ],
      "name": "priceImpact",
      "outputs": [
        {
          "internalType": "uint256",
          "name": "",
          "type": "uint256"
        }
      ],
      "stateMutability": "view",
      "type": "function"
    },
    {
      "inputs": [
        {
          "internalType": "uint256",
          "name": "shares",
          "type": "uint256"
        },
        {
          "internalType": "address",
          "name": "receiver",
          "type": "address"
        },
        {
          "internalType": "address",
          "name": "owner",
          "type": "address"
        }
      ],
      "name": "redeem",
      "outputs": [
        {
          "internalType": "uint256",
          "name": "assets",
          "type": "uint256"
        }
      ],
      "stateMutability": "nonpayable",
      "type": "function"
    },
    {
      "inputs": [
        {
          "internalType": "uint256",
          "name": "capitalAndInterest",
          "type": "uint256"
        }
      ],
      "name": "refundCapital",
      "outputs": [],
      "stateMutability": "nonpayable",
      "type": "function"
    },
    {
      "inputs": [],
      "name": "refunded",
      "outputs": [
        {
          "internalType": "bool",
          "name": "",
          "type": "bool"
        }
      ],
      "stateMutability": "view",
      "type": "function"
    },
    {
      "inputs": [
        {
          "internalType": "bytes32",
          "name": "role",
          "type": "bytes32"
        },
        {
          "internalType": "address",
          "name": "account",
          "type": "address"
        }
      ],
      "name": "renounceRole",
      "outputs": [],
      "stateMutability": "nonpayable",
      "type": "function"
    },
    {
      "inputs": [
        {
          "internalType": "bytes32",
          "name": "role",
          "type": "bytes32"
        },
        {
          "internalType": "address",
          "name": "account",
          "type": "address"
        }
      ],
      "name": "revokeRole",
      "outputs": [],
      "stateMutability": "nonpayable",
      "type": "function"
    },
    {
      "inputs": [
        {
          "internalType": "uint256",
          "name": "soft",
          "type": "uint256"
        },
        {
          "internalType": "uint256",
          "name": "hard",
          "type": "uint256"
        }
      ],
      "name": "setCaps",
      "outputs": [],
      "stateMutability": "nonpayable",
      "type": "function"
    },
    {
      "inputs": [
        {
          "internalType": "contract IDatabase",
          "name": "database_",
          "type": "address"
        }
      ],
      "name": "setDatabase",
      "outputs": [],
      "stateMutability": "nonpayable",
      "type": "function"
    },
    {
      "inputs": [
        {
          "internalType": "uint256",
          "name": "minInvest_",
          "type": "uint256"
        },
        {
          "internalType": "uint256",
          "name": "maxDeposit_",
          "type": "uint256"
        }
      ],
      "name": "setDepositLimitsPerUser",
      "outputs": [],
      "stateMutability": "nonpayable",
      "type": "function"
    },
    {
      "inputs": [
        {
          "internalType": "uint256",
          "name": "start",
          "type": "uint256"
        },
        {
          "internalType": "uint256",
          "name": "stop",
          "type": "uint256"
        }
      ],
      "name": "setTimes",
      "outputs": [],
      "stateMutability": "nonpayable",
      "type": "function"
    },
    {
      "inputs": [
        {
          "internalType": "address",
          "name": "treasury_",
          "type": "address"
        }
      ],
      "name": "setTreasury",
      "outputs": [],
      "stateMutability": "nonpayable",
      "type": "function"
    },
    {
      "inputs": [
        {
          "internalType": "string",
          "name": "vaultURI_",
          "type": "string"
        }
      ],
      "name": "setVaultURI",
      "outputs": [],
      "stateMutability": "nonpayable",
      "type": "function"
    },
    {
      "inputs": [],
      "name": "softCap",
      "outputs": [
        {
          "internalType": "uint256",
          "name": "",
          "type": "uint256"
        }
      ],
      "stateMutability": "view",
      "type": "function"
    },
    {
      "inputs": [
        {
          "internalType": "bytes4",
          "name": "interfaceId",
          "type": "bytes4"
        }
      ],
      "name": "supportsInterface",
      "outputs": [
        {
          "internalType": "bool",
          "name": "",
          "type": "bool"
        }
      ],
      "stateMutability": "view",
      "type": "function"
    },
    {
      "inputs": [],
      "name": "symbol",
      "outputs": [
        {
          "internalType": "string",
          "name": "",
          "type": "string"
        }
      ],
      "stateMutability": "view",
      "type": "function"
    },
    {
      "inputs": [],
      "name": "tokenPrice",
      "outputs": [
        {
          "internalType": "uint256",
          "name": "",
          "type": "uint256"
        }
      ],
      "stateMutability": "view",
      "type": "function"
    },
    {
      "inputs": [],
      "name": "totalAssets",
      "outputs": [
        {
          "internalType": "uint256",
          "name": "",
          "type": "uint256"
        }
      ],
      "stateMutability": "view",
      "type": "function"
    },
    {
      "inputs": [],
      "name": "totalSupply",
      "outputs": [
        {
          "internalType": "uint256",
          "name": "",
          "type": "uint256"
        }
      ],
      "stateMutability": "view",
      "type": "function"
    },
    {
      "inputs": [
        {
          "internalType": "address",
          "name": "to",
          "type": "address"
        },
        {
          "internalType": "uint256",
          "name": "amount",
          "type": "uint256"
        }
      ],
      "name": "transfer",
      "outputs": [
        {
          "internalType": "bool",
          "name": "",
          "type": "bool"
        }
      ],
      "stateMutability": "nonpayable",
      "type": "function"
    },
    {
      "inputs": [
        {
          "internalType": "address",
          "name": "from",
          "type": "address"
        },
        {
          "internalType": "address",
          "name": "to",
          "type": "address"
        },
        {
          "internalType": "uint256",
          "name": "amount",
          "type": "uint256"
        }
      ],
      "name": "transferFrom",
      "outputs": [
        {
          "internalType": "bool",
          "name": "",
          "type": "bool"
        }
      ],
      "stateMutability": "nonpayable",
      "type": "function"
    },
    {
      "inputs": [],
      "name": "treasury",
      "outputs": [
        {
          "internalType": "address",
          "name": "",
          "type": "address"
        }
      ],
      "stateMutability": "view",
      "type": "function"
    },
    {
      "inputs": [],
      "name": "unpause",
      "outputs": [],
      "stateMutability": "nonpayable",
      "type": "function"
    },
    {
      "inputs": [
        {
          "internalType": "int256",
          "name": "interest",
          "type": "int256"
        }
      ],
      "name": "updateInterest",
      "outputs": [],
      "stateMutability": "nonpayable",
      "type": "function"
    },
    {
      "inputs": [],
      "name": "vaultURI",
      "outputs": [
        {
          "internalType": "string",
          "name": "",
          "type": "string"
        }
      ],
      "stateMutability": "view",
      "type": "function"
    },
    {
      "inputs": [
        {
          "internalType": "uint256",
          "name": "assets",
          "type": "uint256"
        },
        {
          "internalType": "address",
          "name": "receiver",
          "type": "address"
        },
        {
          "internalType": "address",
          "name": "owner",
          "type": "address"
        }
      ],
      "name": "withdraw",
      "outputs": [
        {
          "internalType": "uint256",
          "name": "shares",
          "type": "uint256"
        }
      ],
      "stateMutability": "nonpayable",
      "type": "function"
    }
  ],
  "bytecode": {
    "object": "0x60806040523480156200001157600080fd5b50600054610100900460ff1615808015620000335750600054600160ff909116105b8062000063575062000050306200013d60201b62001d0c1760201c565b15801562000063575060005460ff166001145b620000cb5760405162461bcd60e51b815260206004820152602e60248201527f496e697469616c697a61626c653a20636f6e747261637420697320616c72656160448201526d191e481a5b9a5d1a585b1a5e995960921b606482015260840160405180910390fd5b6000805460ff191660011790558015620000ef576000805461ff0019166101001790555b801562000136576000805461ff0019169055604051600181527f7f26b83ff96e1f2b6a682f133852f6798a09c465da95921460cefb38474024989060200160405180910390a15b506200014c565b6001600160a01b03163b151590565b613e20806200015c6000396000f3fe608060405234801561001057600080fd5b50600436106104125760003560e01c80637ff9b59611610220578063b460af9411610130578063d905777e116100b8578063e35d33f611610087578063e35d33f614610756578063ef8b30f7146107e5578063f0f4426014610885578063f542037414610898578063fb86a404146108ab57600080fd5b8063d905777e14610839578063dd62ed3e1461084c578063dfd5473c1461085f578063e0f41f3a1461087257600080fd5b8063c6e6f592116100ff578063c6e6f592146107e5578063ca15c873146107f8578063ce96cb771461080b578063d406008d1461081e578063d547741f1461082657600080fd5b8063b460af94146107aa578063ba087652146107bd578063c1eb5ddd146107d0578063c63d75b6146105e457600080fd5b806391d14854116101b3578063a217fddf11610182578063a217fddf14610756578063a457c2d71461075e578063a5d245e114610771578063a9059cbb14610784578063b3d7f6b91461079757600080fd5b806391d148541461072657806394bf804d1461065a57806395d89b41146107395780639e5288a01461074157600080fd5b80638456cb59116101ef5780638456cb59146106f75780638e95bab2146106ff5780639010d07c14610709578063906a26e01461071c57600080fd5b80637ff9b596146106c657806381d5a8c1146106d057806382e5310c146106da57806384061853146106e457600080fd5b806336568abe116103265780635a67f6cb116102ae57806361d027b31161027d57806361d027b3146106465780636e553f651461065a57806370a082311461066d57806376a24f25146106965780637aadef8b1461069f57600080fd5b80635a67f6cb1461060b5780635c975abb1461061e5780635cb5e41d1461062a5780635dc5eaf31461063e57600080fd5b80633f4ba83a116102f55780633f4ba83a146105dc578063402d267d146105e45780634aea1bf8146105f75780634cdad5061461046a5780634f2bef3e1461060157600080fd5b806336568abe1461057e578063373cad571461059157806338d52e0f146105a457806339509351146105c957600080fd5b80631a28bc6e116103a957806323b872dd1161037857806323b872dd1461050e578063248a9ca31461052157806329d29799146105445780632f2ff15d1461054c578063313ce5671461055f57600080fd5b80631a28bc6e146104c0578063211e846f146104d5578063212bf316146104e857806322434836146104fb57600080fd5b8063095ea7b3116103e5578063095ea7b31461047d5780630a28a4771461049057806312f53950146104a357806318160ddd146104b857600080fd5b806301e1d1141461041757806301ffc9a71461043257806306fdde031461045557806307a2d13a1461046a575b600080fd5b61041f6108b5565b6040519081526020015b60405180910390f35b61044561044036600461359c565b610927565b6040519015158152602001610429565b61045d610952565b60405161042991906135f2565b61041f610478366004613625565b6109e4565b61044561048b366004613663565b6109f1565b61041f61049e366004613625565b610a09565b6101935461044590600160a01b900460ff1681565b60355461041f565b6104d36104ce36600461368f565b610a16565b005b61041f6104e3366004613625565b610a98565b6104d36104f636600461368f565b610ab2565b6104d361050936600461368f565b610b3e565b61044561051c3660046136b1565b610c13565b61041f61052f366004613625565b600090815260c9602052604090206001015490565b61041f610c39565b6104d361055a3660046136f2565b610cc0565b606554600160a01b900460ff1660405160ff9091168152602001610429565b6104d361058c3660046136f2565b610cea565b6104d361059f366004613625565b610d68565b6065546001600160a01b03165b6040516001600160a01b039091168152602001610429565b6104456105d7366004613663565b610f67565b6104d3610f89565b61041f6105f2366004613722565b610f9f565b61041f6101975481565b61041f6101955481565b6104d3610619366004613625565b610fd7565b61015f5460ff16610445565b610192546105b1906001600160a01b031681565b61045d61116a565b610193546105b1906001600160a01b031681565b61041f6106683660046136f2565b6111f9565b61041f61067b366004613722565b6001600160a01b031660009081526033602052604090205490565b6101915461041f565b61041f7faefebe170cbaff0af052a32795af0e1b8afff9850f946ad2869be14f3553437181565b61041f61019a5481565b61041f6101945481565b61041f6101965481565b61041f6106f2366004613625565b611223565b6104d361123d565b61041f61019b5481565b6105b161071736600461368f565b61125d565b61041f6101985481565b6104456107343660046136f2565b611275565b61045d6112a0565b6107496112af565b6040516104299190613777565b61041f600081565b61044561076c366004613663565b611305565b6104d361077f366004613828565b61138b565b610445610792366004613663565b6116bd565b61041f6107a5366004613625565b6116cb565b61041f6107b8366004613900565b6116d8565b61041f6107cb366004613900565b61182f565b61041f600080516020613dcb83398151915281565b61041f6107f3366004613625565b61196e565b61041f610806366004613625565b61197b565b61041f610819366004613722565b611992565b61041f6119dd565b6104d36108343660046136f2565b611a46565b61041f610847366004613722565b611a6b565b61041f61085a366004613942565b611aab565b6104d361086d366004613970565b611ad6565b61041f610880366004613722565b611b53565b6104d3610893366004613722565b611b93565b6104d36108a6366004613722565b611c51565b61041f6101995481565b6065546040516370a0823160e01b81523060048201526000916001600160a01b0316906370a0823190602401602060405180830381865afa1580156108fe573d6000803e3d6000fd5b505050506040513d601f19601f8201168201806040525081019061092291906139e2565b905090565b60006001600160e01b03198216635a05180f60e01b148061094c575061094c82611d1b565b92915050565b606060368054610961906139fb565b80601f016020809104026020016040519081016040528092919081815260200182805461098d906139fb565b80156109da5780601f106109af576101008083540402835291602001916109da565b820191906000526020600020905b8154815290600101906020018083116109bd57829003601f168201915b5050505050905090565b600061094c826000611d50565b6000336109ff818585611d74565b5060019392505050565b600061094c826001611e98565b600080516020613dcb833981519152610a2e81611ebc565b6101985480831115610a625760405163010a45ab60e21b815260048101829052602481018490526044015b60405180910390fd5b828410610a8c5760405163010a45ab60e21b81526004810182905260248101859052604401610a59565b50506101965561019755565b600061094c610aa660355490565b61019154849190611ec6565b600080516020613dcb833981519152610aca81611ebc565b821580610ad657508183115b15610af457604051630c5af70760e11b815260040160405180910390fd5b61019883905561019982905560408051848152602081018490527ffa35f2d22b9a5eb6bed3254e60910f91291653a71679c8cbb1f00d24551a45c4910160405180910390a1505050565b600080516020613dcb833981519152610b5681611ebc565b6000610b606112af565b90506002816004811115610b7657610b7661373f565b1115610b9757806040516336100b6760e11b8152600401610a599190613777565b831580610ba357508284115b80610bad57504284105b15610bcb576040516335c4a3b960e11b815260040160405180910390fd5b60408051858152602081018590527f8f8d0d2155084c34c7e189b664aa128aebfd57e564d2d01c82a148d3da3a3bbc910160405180910390a150506101949190915561019555565b600033610c21858285611f75565b610c2c858585611fe9565b60019150505b9392505050565b610193546000906001600160a01b0316338114610c7757335b604051634ab6cb6760e11b81526001600160a01b039091166004820152602401610a59565b610c816002612194565b91507fcd44c06e81c4f40db53746db76839e7106609855a483a8e72a05877dc3ea225c82604051610cb491815260200190565b60405180910390a15090565b600082815260c96020526040902060010154610cdb81611ebc565b610ce583836122ac565b505050565b6001600160a01b0381163314610d5a5760405162461bcd60e51b815260206004820152602f60248201527f416363657373436f6e74726f6c3a2063616e206f6e6c792072656e6f756e636560448201526e103937b632b9903337b91039b2b63360891b6064820152608401610a59565b610d6482826122ce565b5050565b610193546001600160a01b0316336001600160a01b031614610d8a5733610c52565b6000610d946112af565b90506002816004811115610daa57610daa61373f565b14158015610dca57506004816004811115610dc757610dc761373f565b14155b15610dea57806040516336100b6760e11b8152600401610a599190613777565b61019b548015610e1d57610e1d333085610e0c6065546001600160a01b031690565b6001600160a01b03169291906122f0565b60408051848152602081018390527f502833ea9eb26966767980111b75e4b8e013aeea7b9493478424afc7869399c4910160405180910390a16000610e628285613a4b565b61019a549091506000821215610ec1577f727586bb3240e37cfc23d9c04f5d2c8f8c85602f6be89e0a8698e1a5a4c891d08386610e9e85613a8a565b6040805193845260208401929092529082015260600160405180910390a1610efe565b6000821315610efe576040518281527f8a335823c2fa2c1e28bd8d65eb9cbe0194f76293b1626a460597adc993d606cd9060200160405180910390a15b6000610f0986611223565b61019a819055610193805460ff60a01b1916600160a01b17905560408051848152602081018390529192507f945c1c4e99aa89f648fbfe3df471b916f719e16d960fcec0737d4d56bd696838910160405180910390a1505050505050565b6000336109ff818585610f7a8383611aab565b610f849190613aa6565b611d74565b6000610f9481611ebc565b610f9c61235b565b50565b60006001610fab6112af565b6004811115610fbc57610fbc61373f565b03610fcf57610fca826123ae565b61094c565b600092915050565b600080516020613dcb833981519152610fef81611ebc565b6000610ff96112af565b9050600281600481111561100f5761100f61373f565b1461102f57806040516336100b6760e11b8152600401610a599190613777565b61019a546000808512156110c657600061104b6106f287613a8a565b90508281111561107157604051637cef6ce360e11b815260048101879052602401610a59565b61107b8184613abe565b91507f5ac4f964bd8aac40cf8a592c906866d09d34e81d1ef0b1c659252c3151e471c333604080516001600160a01b039092168252602082018990520160405180910390a150611124565b60006110d186611223565b90506110dd8184613aa6565b91507f5ac4f964bd8aac40cf8a592c906866d09d34e81d1ef0b1c659252c3151e471c333604080516001600160a01b039092168252602082018990520160405180910390a1505b61019a81905560408051838152602081018390527f945c1c4e99aa89f648fbfe3df471b916f719e16d960fcec0737d4d56bd696838910160405180910390a15050505050565b61019c8054611178906139fb565b80601f01602080910402602001604051908101604052809291908181526020018280546111a4906139fb565b80156111f15780601f106111c6576101008083540402835291602001916111f1565b820191906000526020600020905b8154815290600101906020018083116111d457829003601f168201915b505050505081565b6000611203612439565b61120b612494565b6112168333846124dd565b508161094c600161012d55565b600061094c6101915461123560355490565b849190611ec6565b600080516020613dcb83398151915261125581611ebc565b610f9c6126a8565b600082815260fb60205260408120610c3290836126e6565b600091825260c9602090815260408084206001600160a01b0393909316845291905290205460ff1690565b606060378054610961906139fb565b6000610194544210156112c25750600090565b610195544210156112d35750600190565b6101985461019b5410156112e75750600390565b61019354600160a01b900460ff166112ff5750600290565b50600490565b600033816113138286611aab565b9050838110156113735760405162461bcd60e51b815260206004820152602560248201527f45524332303a2064656372656173656420616c6c6f77616e63652062656c6f77604482015264207a65726f60d81b6064820152608401610a59565b6113808286868403611d74565b506001949350505050565b600054610100900460ff16158080156113ab5750600054600160ff909116105b806113c55750303b1580156113c5575060005460ff166001145b6114285760405162461bcd60e51b815260206004820152602e60248201527f496e697469616c697a61626c653a20636f6e747261637420697320616c72656160448201526d191e481a5b9a5d1a585b1a5e995960921b6064820152608401610a59565b6000805460ff19166001179055801561144b576000805461ff0019166101001790555b6114536126f2565b61145c8a612721565b6114668989612751565b61146e612782565b846001600160a01b031663fe60d26b6040518163ffffffff1660e01b8152600401602060405180830381865afa1580156114ac573d6000803e3d6000fd5b505050506040513d601f19601f820116820180604052508101906114d09190613ad5565b6114ed576040516381867da560e01b815260040160405180910390fd5b60008a6001600160a01b031663313ce5676040518163ffffffff1660e01b8152600401602060405180830381865afa15801561152d573d6000803e3d6000fd5b505050506040513d601f19601f820116820180604052508101906115519190613af7565b60ff16905080601214158015611568575080600614155b15611597576040516315f3703160e31b8152601260048201526006602482015260448101829052606401610a59565b60006115a482600a613bfe565b90506115b16000896122ac565b6115c9600080516020613dcb833981519152896122ac565b6115e1600080516020613dcb833981519152336122ac565b88516115f59061019c9060208c019061348f565b506101988690556000196101995561019485905561019584905561019380546001600160a01b03808b166001600160a01b0319928316179092556101928054928a169290911691909117905561164c600387613c20565b6101965561165c816101f4613c42565b6101975561019a819055610191555080156116b1576000805461ff0019169055604051600181527f7f26b83ff96e1f2b6a682f133852f6798a09c465da95921460cefb38474024989060200160405180910390a15b50505050505050505050565b6000336109ff818585611fe9565b600061094c826001611d50565b60006116e2612439565b6116ea612494565b60006116f46112af565b9050600281600481111561170a5761170a61373f565b0361172a57806040516336100b6760e11b8152600401610a599190613777565b61173385610a09565b9150611754836001600160a01b031660009081526033602052604090205490565b8211156117a35760405162461bcd60e51b815260206004820152601f60248201527f455243343632363a207769746864726177206d6f7265207468616e206d6178006044820152606401610a59565b6117b033858588866127b1565b60048160048111156117c4576117c461373f565b14611823578461019b60008282546117dc9190613abe565b90915550506001600160a01b0380851690841603611823576001600160a01b038316600090815261019d60205260408120805487929061181d908490613abe565b90915550505b50610c32600161012d55565b6000611839612439565b611841612494565b600061184b6112af565b905060028160048111156118615761186161373f565b0361188157806040516336100b6760e11b8152600401610a599190613777565b6001600160a01b0383166000908152603360205260409020548511156118e95760405162461bcd60e51b815260206004820152601d60248201527f455243343632363a2072656465656d206d6f7265207468616e206d61780000006044820152606401610a59565b6118f2856109e4565b915061190133858585896127b1565b60048160048111156119155761191561373f565b14611823578161019b600082825461192d9190613abe565b90915550506001600160a01b0380851690841603611823576001600160a01b038316600090815261019d60205260408120805484929061181d908490613abe565b600061094c826000611e98565b600081815260fb6020526040812061094c9061285d565b6000600261199e6112af565b60048111156119af576119af61373f565b14610fcf57610fca6119d6836001600160a01b031660009081526033602052604090205490565b6000611d50565b60007faefebe170cbaff0af052a32795af0e1b8afff9850f946ad2869be14f35534371611a0981611ebc565b611a136004612194565b91507fb4192707c71da259814532b3eb648e78c9d78d6a3b9234baed7a183808f8c54c82604051610cb491815260200190565b600082815260c96020526040902060010154611a6181611ebc565b610ce583836122ce565b60006002611a776112af565b6004811115611a8857611a8861373f565b14610fcf576001600160a01b03821660009081526033602052604090205461094c565b6001600160a01b03918216600090815260346020908152604080832093909416825291909152205490565b6000611ae181611ebc565b6000829003611b075782826040516303c5d03760e01b8152600401610a59929190613c61565b7f82b4c0c51f891b823eff0c623396a3d488ad9c5fa87eaf6536a5e30257cfe6248383604051611b38929190613c61565b60405180910390a1611b4d61019c8484613513565b50505050565b6001600160a01b038116600090815261019d60205260408120546101975480821015611b8857611b838282613abe565b611b8b565b60005b949350505050565b6000611b9e81611ebc565b6001600160a01b0382161580611bbc57506001600160a01b0382163b155b15611be557604051634ab6cb6760e11b81526001600160a01b0383166004820152602401610a59565b61019354604080516001600160a01b03928316815291841660208301527f4ab5be82436d353e61ca18726e984e561f5c1cc7c6d38b29d2553c790434705a910160405180910390a15061019380546001600160a01b0319166001600160a01b0392909216919091179055565b600080516020613dcb833981519152611c6981611ebc565b816001600160a01b031663fe60d26b6040518163ffffffff1660e01b8152600401602060405180830381865afa158015611ca7573d6000803e3d6000fd5b505050506040513d601f19601f82011682018060405250810190611ccb9190613ad5565b611ce8576040516381867da560e01b815260040160405180910390fd5b5061019280546001600160a01b0319166001600160a01b0392909216919091179055565b6001600160a01b03163b151590565b60006001600160e01b03198216637965db0b60e01b148061094c57506301ffc9a760e01b6001600160e01b031983161461094c565b6000808311611d60576000610c32565b61019a5461019154610c3291859185612867565b6001600160a01b038316611dd65760405162461bcd60e51b8152602060048201526024808201527f45524332303a20617070726f76652066726f6d20746865207a65726f206164646044820152637265737360e01b6064820152608401610a59565b6001600160a01b038216611e375760405162461bcd60e51b815260206004820152602260248201527f45524332303a20617070726f766520746f20746865207a65726f206164647265604482015261737360f01b6064820152608401610a59565b6001600160a01b0383811660008181526034602090815260408083209487168084529482529182902085905590518481527f8c5be1e5ebec7d5bd14f71427d1e84f3dd0314c0f7b2291e5b200ac8c7c3b925910160405180910390a3505050565b6000808311611ea8576000610c32565b6101915461019a54610c3291859185612867565b610f9c81336128c4565b6000808060001985870985870292508281108382030391505080600003611f0057838281611ef657611ef6613c0a565b0492505050610c32565b808411611f0c57600080fd5b60008486880960026001871981018816978890046003810283188082028403028082028403028082028403028082028403028082028403029081029092039091026000889003889004909101858311909403939093029303949094049190911702949350505050565b6000611f818484611aab565b90506000198114611b4d5781811015611fdc5760405162461bcd60e51b815260206004820152601d60248201527f45524332303a20696e73756666696369656e7420616c6c6f77616e63650000006044820152606401610a59565b611b4d8484848403611d74565b6001600160a01b03831661204d5760405162461bcd60e51b815260206004820152602560248201527f45524332303a207472616e736665722066726f6d20746865207a65726f206164604482015264647265737360d81b6064820152608401610a59565b6001600160a01b0382166120af5760405162461bcd60e51b815260206004820152602360248201527f45524332303a207472616e7366657220746f20746865207a65726f206164647260448201526265737360e81b6064820152608401610a59565b6001600160a01b038316600090815260336020526040902054818110156121275760405162461bcd60e51b815260206004820152602660248201527f45524332303a207472616e7366657220616d6f756e7420657863656564732062604482015265616c616e636560d01b6064820152608401610a59565b6001600160a01b0380851660008181526033602052604080822086860390559286168082529083902080548601905591517fddf252ad1be2c89b69c2b068fc378daa952ba7f163c4a11628f55a4df523b3ef906121879086815260200190565b60405180910390a3611b4d565b60008061219f6112af565b90508260048111156121b3576121b361373f565b8160048111156121c5576121c561373f565b146121e85760048160405163567dfef960e01b8152600401610a59929190613c90565b60006121fc6065546001600160a01b031690565b6040516370a0823160e01b81523060048201529091506001600160a01b038216906370a0823190602401602060405180830381865afa158015612243573d6000803e3d6000fd5b505050506040513d601f19601f8201168201806040525081019061226791906139e2565b92508260000361228a57604051634a2ccc4360e01b815260040160405180910390fd5b610193546122a5906001600160a01b0383811691168561291d565b5050919050565b6122b6828261294d565b600082815260fb60205260409020610ce590826129d3565b6122d882826129e8565b600082815260fb60205260409020610ce59082612a4f565b6040516001600160a01b0380851660248301528316604482015260648101829052611b4d9085906323b872dd60e01b906084015b60408051601f198184030181529190526020810180516001600160e01b03166001600160e01b031990931692909217909152612a64565b612363612b36565b61015f805460ff191690557f5db9ee0a495bf2e6ff9c91a7834c1ba4fdd244a5e8aa4e537bd38aeae4b073aa335b6040516001600160a01b03909116815260200160405180910390a1565b61019954600090816123bf60355490565b6001600160a01b038516600090815261019d602052604090205490915081831115806123ee5750806101965411155b156123fe57506000949350505050565b6000816101965461240f9190613abe565b9050600061241d8486613abe565b905080821161242c578161242e565b805b979650505050505050565b600261012d540361248c5760405162461bcd60e51b815260206004820152601f60248201527f5265656e7472616e637947756172643a207265656e7472616e742063616c6c006044820152606401610a59565b600261012d55565b61015f5460ff16156124db5760405162461bcd60e51b815260206004820152601060248201526f14185d5cd8589b194e881c185d5cd95960821b6044820152606401610a59565b565b61019254604051630808f3eb60e01b81526001600160a01b03848116600483015290911690630808f3eb90602401602060405180830381865afa158015612528573d6000803e3d6000fd5b505050506040513d601f19601f8201168201806040525081019061254c9190613ad5565b6125745760405163c8f9bd5960e01b81526001600160a01b0383166004820152602401610a59565b600061257e6112af565b905060018160048111156125945761259461373f565b146125b75760018160405163567dfef960e01b8152600401610a59929190613c90565b6125c0836123ae565b84111561260f5760405162461bcd60e51b815260206004820152601e60248201527f455243343632363a206465706f736974206d6f7265207468616e206d617800006044820152606401610a59565b600061261a84611b53565b905080851015612647576040516313ed593f60e11b81526004810182905260248101869052604401610a59565b61265384848788612b80565b8461019b60008282546126669190613aa6565b90915550506001600160a01b038416600090815261019d602052604081208054879290612694908490613aa6565b90915550505050505050565b600161012d55565b6126b0612494565b61015f805460ff191660011790557f62e78cea01bee320cd4e420270b5ea74000d11b0c9f74754ebdbfc544b05a2586123913390565b6000610c328383612bfe565b600054610100900460ff166127195760405162461bcd60e51b8152600401610a5990613cab565b6124db612c28565b600054610100900460ff166127485760405162461bcd60e51b8152600401610a5990613cab565b610f9c81612c5c565b600054610100900460ff166127785760405162461bcd60e51b8152600401610a5990613cab565b610d648282612ce1565b600054610100900460ff166127a95760405162461bcd60e51b8152600401610a5990613cab565b6124db612d2f565b826001600160a01b0316856001600160a01b0316146127d5576127d5838683611f75565b6127df8382612d56565b6065546127f6906001600160a01b0316858461291d565b826001600160a01b0316846001600160a01b0316866001600160a01b03167ffbde797d201c681b91056529119e0b02407c7bb96a4a2c75c01fc9667232c8db858560405161284e929190918252602082015260400190565b60405180910390a45050505050565b600061094c825490565b600080612875868686611ec6565b9050600183600281111561288b5761288b61373f565b1480156128a85750600084806128a3576128a3613c0a565b868809115b156128bb576128b8600182613aa6565b90505b95945050505050565b6128ce8282611275565b610d64576128db81612e8a565b6128e6836020612e9c565b6040516020016128f7929190613cf6565b60408051601f198184030181529082905262461bcd60e51b8252610a59916004016135f2565b6040516001600160a01b038316602482015260448101829052610ce590849063a9059cbb60e01b90606401612324565b6129578282611275565b610d6457600082815260c9602090815260408083206001600160a01b03851684529091529020805460ff1916600117905561298f3390565b6001600160a01b0316816001600160a01b0316837f2f8788117e7eff1d82e926ec794901d17c78024a50270940304540a733656f0d60405160405180910390a45050565b6000610c32836001600160a01b038416613038565b6129f28282611275565b15610d6457600082815260c9602090815260408083206001600160a01b0385168085529252808320805460ff1916905551339285917ff6391f5c32d9c69d2a47ea670b442974b53935d1edc7fd64eb21e047a839171b9190a45050565b6000610c32836001600160a01b038416613087565b6000612ab9826040518060400160405280602081526020017f5361666545524332303a206c6f772d6c6576656c2063616c6c206661696c6564815250856001600160a01b031661317a9092919063ffffffff16565b805190915015610ce55780806020019051810190612ad79190613ad5565b610ce55760405162461bcd60e51b815260206004820152602a60248201527f5361666545524332303a204552433230206f7065726174696f6e20646964206e6044820152691bdd081cdd58d8d9595960b21b6064820152608401610a59565b61015f5460ff166124db5760405162461bcd60e51b815260206004820152601460248201527314185d5cd8589b194e881b9bdd081c185d5cd95960621b6044820152606401610a59565b606554612b98906001600160a01b03168530856122f0565b612ba28382613189565b826001600160a01b0316846001600160a01b03167fdcbc1c05240f31ff3ad067ef1ee35ce4997762752e3a095284754544f4c709d78484604051612bf0929190918252602082015260400190565b60405180910390a350505050565b6000826000018281548110612c1557612c15613d6b565b9060005260206000200154905092915050565b600054610100900460ff16612c4f5760405162461bcd60e51b8152600401610a5990613cab565b61015f805460ff19169055565b600054610100900460ff16612c835760405162461bcd60e51b8152600401610a5990613cab565b600080612c8f8361324a565b9150915081612c9f576012612ca1565b805b606580546001600160a01b039095166001600160a01b031960ff93909316600160a01b02929092166001600160a81b031990951694909417179092555050565b600054610100900460ff16612d085760405162461bcd60e51b8152600401610a5990613cab565b8151612d1b90603690602085019061348f565b508051610ce590603790602084019061348f565b600054610100900460ff166126a05760405162461bcd60e51b8152600401610a5990613cab565b6001600160a01b038216612db65760405162461bcd60e51b815260206004820152602160248201527f45524332303a206275726e2066726f6d20746865207a65726f206164647265736044820152607360f81b6064820152608401610a59565b6001600160a01b03821660009081526033602052604090205481811015612e2a5760405162461bcd60e51b815260206004820152602260248201527f45524332303a206275726e20616d6f756e7420657863656564732062616c616e604482015261636560f01b6064820152608401610a59565b6001600160a01b03831660008181526033602090815260408083208686039055603580548790039055518581529192917fddf252ad1be2c89b69c2b068fc378daa952ba7f163c4a11628f55a4df523b3ef910160405180910390a3505050565b606061094c6001600160a01b03831660145b60606000612eab836002613c42565b612eb6906002613aa6565b67ffffffffffffffff811115612ece57612ece613785565b6040519080825280601f01601f191660200182016040528015612ef8576020820181803683370190505b509050600360fc1b81600081518110612f1357612f13613d6b565b60200101906001600160f81b031916908160001a905350600f60fb1b81600181518110612f4257612f42613d6b565b60200101906001600160f81b031916908160001a9053506000612f66846002613c42565b612f71906001613aa6565b90505b6001811115612fe9576f181899199a1a9b1b9c1cb0b131b232b360811b85600f1660108110612fa557612fa5613d6b565b1a60f81b828281518110612fbb57612fbb613d6b565b60200101906001600160f81b031916908160001a90535060049490941c93612fe281613d81565b9050612f74565b508315610c325760405162461bcd60e51b815260206004820181905260248201527f537472696e67733a20686578206c656e67746820696e73756666696369656e746044820152606401610a59565b600081815260018301602052604081205461307f5750815460018181018455600084815260208082209093018490558454848252828601909352604090209190915561094c565b50600061094c565b600081815260018301602052604081205480156131705760006130ab600183613abe565b85549091506000906130bf90600190613abe565b90508181146131245760008660000182815481106130df576130df613d6b565b906000526020600020015490508087600001848154811061310257613102613d6b565b6000918252602080832090910192909255918252600188019052604090208390555b855486908061313557613135613d98565b60019003818190600052602060002001600090559055856001016000868152602001908152602001600020600090556001935050505061094c565b600091505061094c565b6060611b8b8484600085613326565b6001600160a01b0382166131df5760405162461bcd60e51b815260206004820152601f60248201527f45524332303a206d696e7420746f20746865207a65726f2061646472657373006044820152606401610a59565b80603560008282546131f19190613aa6565b90915550506001600160a01b0382166000818152603360209081526040808320805486019055518481527fddf252ad1be2c89b69c2b068fc378daa952ba7f163c4a11628f55a4df523b3ef910160405180910390a35050565b60408051600481526024810182526020810180516001600160e01b031663313ce56760e01b17905290516000918291829182916001600160a01b0387169161329191613dae565b600060405180830381855afa9150503d80600081146132cc576040519150601f19603f3d011682016040523d82523d6000602084013e6132d1565b606091505b50915091508180156132e557506020815110155b156133195760008180602001905181019061330091906139e2565b905060ff8111613317576001969095509350505050565b505b5060009485945092505050565b6060824710156133875760405162461bcd60e51b815260206004820152602660248201527f416464726573733a20696e73756666696369656e742062616c616e636520666f6044820152651c8818d85b1b60d21b6064820152608401610a59565b600080866001600160a01b031685876040516133a39190613dae565b60006040518083038185875af1925050503d80600081146133e0576040519150601f19603f3d011682016040523d82523d6000602084013e6133e5565b606091505b509150915061242e8783838760608315613460578251600003613459576001600160a01b0385163b6134595760405162461bcd60e51b815260206004820152601d60248201527f416464726573733a2063616c6c20746f206e6f6e2d636f6e74726163740000006044820152606401610a59565b5081611b8b565b611b8b83838151156134755781518083602001fd5b8060405162461bcd60e51b8152600401610a5991906135f2565b82805461349b906139fb565b90600052602060002090601f0160209004810192826134bd5760008555613503565b82601f106134d657805160ff1916838001178555613503565b82800160010185558215613503579182015b828111156135035782518255916020019190600101906134e8565b5061350f929150613587565b5090565b82805461351f906139fb565b90600052602060002090601f0160209004810192826135415760008555613503565b82601f1061355a5782800160ff19823516178555613503565b82800160010185558215613503579182015b8281111561350357823582559160200191906001019061356c565b5b8082111561350f5760008155600101613588565b6000602082840312156135ae57600080fd5b81356001600160e01b031981168114610c3257600080fd5b60005b838110156135e15781810151838201526020016135c9565b83811115611b4d5750506000910152565b60208152600082518060208401526136118160408501602087016135c6565b601f01601f19169190910160400192915050565b60006020828403121561363757600080fd5b5035919050565b6001600160a01b0381168114610f9c57600080fd5b803561365e8161363e565b919050565b6000806040838503121561367657600080fd5b82356136818161363e565b946020939093013593505050565b600080604083850312156136a257600080fd5b50508035926020909101359150565b6000806000606084860312156136c657600080fd5b83356136d18161363e565b925060208401356136e18161363e565b929592945050506040919091013590565b6000806040838503121561370557600080fd5b8235915060208301356137178161363e565b809150509250929050565b60006020828403121561373457600080fd5b8135610c328161363e565b634e487b7160e01b600052602160045260246000fd5b6005811061377357634e487b7160e01b600052602160045260246000fd5b9052565b6020810161094c8284613755565b634e487b7160e01b600052604160045260246000fd5b600082601f8301126137ac57600080fd5b813567ffffffffffffffff808211156137c7576137c7613785565b604051601f8301601f19908116603f011681019082821181831017156137ef576137ef613785565b8160405283815286602085880101111561380857600080fd5b836020870160208301376000602085830101528094505050505092915050565b60008060008060008060008060006101208a8c03121561384757600080fd5b6138508a613653565b985060208a013567ffffffffffffffff8082111561386d57600080fd5b6138798d838e0161379b565b995060408c013591508082111561388f57600080fd5b61389b8d838e0161379b565b985060608c01359150808211156138b157600080fd5b506138be8c828d0161379b565b9650506138cd60808b01613653565b94506138db60a08b01613653565b935060c08a0135925060e08a013591506101008a013590509295985092959850929598565b60008060006060848603121561391557600080fd5b8335925060208401356139278161363e565b915060408401356139378161363e565b809150509250925092565b6000806040838503121561395557600080fd5b82356139608161363e565b915060208301356137178161363e565b6000806020838503121561398357600080fd5b823567ffffffffffffffff8082111561399b57600080fd5b818501915085601f8301126139af57600080fd5b8135818111156139be57600080fd5b8660208285010111156139d057600080fd5b60209290920196919550909350505050565b6000602082840312156139f457600080fd5b5051919050565b600181811c90821680613a0f57607f821691505b602082108103613a2f57634e487b7160e01b600052602260045260246000fd5b50919050565b634e487b7160e01b600052601160045260246000fd5b60008083128015600160ff1b850184121615613a6957613a69613a35565b6001600160ff1b0384018313811615613a8457613a84613a35565b50500390565b6000600160ff1b8201613a9f57613a9f613a35565b5060000390565b60008219821115613ab957613ab9613a35565b500190565b600082821015613ad057613ad0613a35565b500390565b600060208284031215613ae757600080fd5b81518015158114610c3257600080fd5b600060208284031215613b0957600080fd5b815160ff81168114610c3257600080fd5b600181815b80851115613b55578160001904821115613b3b57613b3b613a35565b80851615613b4857918102915b93841c9390800290613b1f565b509250929050565b600082613b6c5750600161094c565b81613b795750600061094c565b8160018114613b8f5760028114613b9957613bb5565b600191505061094c565b60ff841115613baa57613baa613a35565b50506001821b61094c565b5060208310610133831016604e8410600b8410161715613bd8575081810a61094c565b613be28383613b1a565b8060001904821115613bf657613bf6613a35565b029392505050565b6000610c328383613b5d565b634e487b7160e01b600052601260045260246000fd5b600082613c3d57634e487b7160e01b600052601260045260246000fd5b500490565b6000816000190483118215151615613c5c57613c5c613a35565b500290565b60208152816020820152818360408301376000818301604090810191909152601f909201601f19160101919050565b60408101613c9e8285613755565b610c326020830184613755565b6020808252602b908201527f496e697469616c697a61626c653a20636f6e7472616374206973206e6f74206960408201526a6e697469616c697a696e6760a81b606082015260800190565b7f416363657373436f6e74726f6c3a206163636f756e7420000000000000000000815260008351613d2e8160178501602088016135c6565b7001034b99036b4b9b9b4b733903937b6329607d1b6017918401918201528351613d5f8160288401602088016135c6565b01602801949350505050565b634e487b7160e01b600052603260045260246000fd5b600081613d9057613d90613a35565b506000190190565b634e487b7160e01b600052603160045260246000fd5b60008251613dc08184602087016135c6565b919091019291505056feb1e380c01db319c0153ea3bb4fbd0ab6639cc088e3bf8cd5319b128f33a2f9e8a2646970667358221220f35b803a1395ae2fee84265fefc997d79c6a0f28dddee53cf3aad0ef24d2b4b164736f6c634300080e0033",
    "linkReferences": {}
  },
  "methodIdentifiers": {
    "DEFAULT_ADMIN_ROLE()": "a217fddf",
    "DEV()": "c1eb5ddd",
    "KONKRETE()": "e35d33f6",
    "TIMELOCK()": "7aadef8b",
    "allowance(address,address)": "dd62ed3e",
    "amountImpact(uint256)": "211e846f",
    "approve(address,uint256)": "095ea7b3",
    "asset()": "38d52e0f",
    "balanceOf(address)": "70a08231",
    "collectCapital()": "29d29799",
    "collectUnclaimedFunds()": "d406008d",
    "collectedCapital()": "8e95bab2",
    "convertToAssets(uint256)": "07a2d13a",
    "convertToShares(uint256)": "c6e6f592",
    "dataBase()": "5cb5e41d",
    "decimals()": "313ce567",
    "decreaseAllowance(address,uint256)": "a457c2d7",
    "deposit(uint256,address)": "6e553f65",
    "depositsStart()": "81d5a8c1",
    "depositsStop()": "4f2bef3e",
    "getRoleAdmin(bytes32)": "248a9ca3",
    "getRoleMember(bytes32,uint256)": "9010d07c",
    "getRoleMemberCount(bytes32)": "ca15c873",
    "getStep()": "9e5288a0",
    "grantRole(bytes32,address)": "2f2ff15d",
    "hardCap()": "fb86a404",
    "hasRole(bytes32,address)": "91d14854",
    "increaseAllowance(address,uint256)": "39509351",
    "initialize(address,string,string,string,address,address,uint256,uint256,uint256)": "a5d245e1",
    "maxDeposit(address)": "402d267d",
    "maxDepositPerUser()": "82e5310c",
    "maxMint(address)": "c63d75b6",
    "maxRedeem(address)": "d905777e",
    "maxWithdraw(address)": "ce96cb77",
    "minInvest(address)": "e0f41f3a",
    "minInvestPerUser()": "4aea1bf8",
    "mint(uint256,address)": "94bf804d",
    "name()": "06fdde03",
    "originalPrice()": "76a24f25",
    "pause()": "8456cb59",
    "paused()": "5c975abb",
    "previewDeposit(uint256)": "ef8b30f7",
    "previewMint(uint256)": "b3d7f6b9",
    "previewRedeem(uint256)": "4cdad506",
    "previewWithdraw(uint256)": "0a28a477",
    "priceImpact(uint256)": "84061853",
    "redeem(uint256,address,address)": "ba087652",
    "refundCapital(uint256)": "373cad57",
    "refunded()": "12f53950",
    "renounceRole(bytes32,address)": "36568abe",
    "revokeRole(bytes32,address)": "d547741f",
    "setCaps(uint256,uint256)": "212bf316",
    "setDatabase(address)": "f5420374",
    "setDepositLimitsPerUser(uint256,uint256)": "1a28bc6e",
    "setTimes(uint256,uint256)": "22434836",
    "setTreasury(address)": "f0f44260",
    "setVaultURI(string)": "dfd5473c",
    "softCap()": "906a26e0",
    "supportsInterface(bytes4)": "01ffc9a7",
    "symbol()": "95d89b41",
    "tokenPrice()": "7ff9b596",
    "totalAssets()": "01e1d114",
    "totalSupply()": "18160ddd",
    "transfer(address,uint256)": "a9059cbb",
    "transferFrom(address,address,uint256)": "23b872dd",
    "treasury()": "61d027b3",
    "unpause()": "3f4ba83a",
    "updateInterest(int256)": "5a67f6cb",
    "vaultURI()": "5dc5eaf3",
    "withdraw(uint256,address,address)": "b460af94"
  },
  "id": 5
}