{
  "abi": [
    {
      "inputs": [],
      "stateMutability": "nonpayable",
      "type": "constructor"
    },
    {
      "inputs": [
        {
          "internalType": "uint256",
          "name": "minimum",
          "type": "uint256"
        },
        {
          "internalType": "uint256",
          "name": "amount",
          "type": "uint256"
        }
      ],
      "name": "BelowMinimumInvest",
      "type": "error"
    },
    {
      "inputs": [
        {
          "internalType": "int256",
          "name": "interest",
          "type": "int256"
        }
      ],
      "name": "InmpossibleInterest",
      "type": "error"
    },
    {
      "inputs": [],
      "name": "InvestZeroAmount",
      "type": "error"
    },
    {
      "inputs": [
        {
          "internalType": "address",
          "name": "msgSender",
          "type": "address"
        }
      ],
      "name": "MsgSenderUnauthorized",
      "type": "error"
    },
    {
      "inputs": [
        {
          "internalType": "int256",
          "name": "capitalAndInterest",
          "type": "int256"
        }
      ],
      "name": "NegativeCapital",
      "type": "error"
    },
    {
      "inputs": [
        {
          "internalType": "enum SaleStep",
          "name": "expected",
          "type": "uint8"
        },
        {
          "internalType": "enum SaleStep",
          "name": "currentStep",
          "type": "uint8"
        }
      ],
      "name": "NotExpectedStep",
      "type": "error"
    },
    {
      "inputs": [],
      "name": "ReceiverIsNullAddress",
      "type": "error"
    },
    {
      "inputs": [
        {
          "internalType": "address",
          "name": "receiver",
          "type": "address"
        }
      ],
      "name": "ReceiverUnauthorized",
      "type": "error"
    },
    {
      "inputs": [],
      "name": "TryToCollectZeroFund",
      "type": "error"
    },
    {
      "inputs": [],
      "name": "WrongCaps",
      "type": "error"
    },
    {
      "inputs": [],
      "name": "WrongDatabase",
      "type": "error"
    },
    {
      "inputs": [
        {
          "internalType": "uint256",
          "name": "expected1",
          "type": "uint256"
        },
        {
          "internalType": "uint256",
          "name": "expected2",
          "type": "uint256"
        },
        {
          "internalType": "uint256",
          "name": "current",
          "type": "uint256"
        }
      ],
      "name": "WrongDecimalNumber",
      "type": "error"
    },
    {
      "inputs": [
        {
          "internalType": "uint256",
          "name": "max",
          "type": "uint256"
        },
        {
          "internalType": "uint256",
          "name": "amountWanted",
          "type": "uint256"
        }
      ],
      "name": "WrongMaxDepositPerUser",
      "type": "error"
    },
    {
      "inputs": [
        {
          "internalType": "uint256",
          "name": "maxDeposit",
          "type": "uint256"
        },
        {
          "internalType": "uint256",
          "name": "minInvest",
          "type": "uint256"
        }
      ],
      "name": "WrongMinDepositPerUser",
      "type": "error"
    },
    {
      "inputs": [
        {
          "internalType": "bool",
          "name": "isZero",
          "type": "bool"
        }
      ],
      "name": "WrongRefundValue",
      "type": "error"
    },
    {
      "inputs": [],
      "name": "WrongSaleTimeStamps",
      "type": "error"
    },
    {
      "inputs": [
        {
          "internalType": "enum SaleStep",
          "name": "currentStep",
          "type": "uint8"
        }
      ],
      "name": "WrongStep",
      "type": "error"
    },
    {
      "inputs": [
        {
          "internalType": "address",
          "name": "treasury",
          "type": "address"
        }
      ],
      "name": "WrongTreasury",
      "type": "error"
    },
    {
      "inputs": [
        {
          "internalType": "string",
          "name": "vaultURI_",
          "type": "string"
        }
      ],
      "name": "WrongVaultURI",
      "type": "error"
    },
    {
      "anonymous": false,
      "inputs": [
        {
          "indexed": true,
          "internalType": "address",
          "name": "owner",
          "type": "address"
        },
        {
          "indexed": true,
          "internalType": "address",
          "name": "spender",
          "type": "address"
        },
        {
          "indexed": false,
          "internalType": "uint256",
          "name": "value",
          "type": "uint256"
        }
      ],
      "name": "Approval",
      "type": "event"
    },
    {
      "anonymous": false,
      "inputs": [
        {
          "indexed": false,
          "internalType": "uint256",
          "name": "amount",
          "type": "uint256"
        }
      ],
      "name": "CapitalCollected",
      "type": "event"
    },
    {
      "anonymous": false,
      "inputs": [
        {
          "indexed": false,
          "internalType": "uint256",
          "name": "originalCapital",
          "type": "uint256"
        },
        {
          "indexed": false,
          "internalType": "uint256",
          "name": "remainingCapital",
          "type": "uint256"
        },
        {
          "indexed": false,
          "internalType": "uint256",
          "name": "loss",
          "type": "uint256"
        }
      ],
      "name": "CapitalLoss",
      "type": "event"
    },
    {
      "anonymous": false,
      "inputs": [
        {
          "indexed": false,
          "internalType": "uint256",
          "name": "amount",
          "type": "uint256"
        },
        {
          "indexed": false,
          "internalType": "uint256",
          "name": "collected",
          "type": "uint256"
        }
      ],
      "name": "CapitalRefunded",
      "type": "event"
    },
    {
      "anonymous": false,
      "inputs": [
        {
          "indexed": false,
          "internalType": "uint256",
          "name": "softCap",
          "type": "uint256"
        },
        {
          "indexed": false,
          "internalType": "uint256",
          "name": "hardCap",
          "type": "uint256"
        }
      ],
      "name": "CapsUpdated",
      "type": "event"
    },
    {
      "anonymous": false,
      "inputs": [
        {
          "indexed": true,
          "internalType": "address",
          "name": "sender",
          "type": "address"
        },
        {
          "indexed": true,
          "internalType": "address",
          "name": "owner",
          "type": "address"
        },
        {
          "indexed": false,
          "internalType": "uint256",
          "name": "assets",
          "type": "uint256"
        },
        {
          "indexed": false,
          "internalType": "uint256",
          "name": "shares",
          "type": "uint256"
        }
      ],
      "name": "Deposit",
      "type": "event"
    },
    {
      "anonymous": false,
      "inputs": [
        {
          "indexed": false,
          "internalType": "uint8",
          "name": "version",
          "type": "uint8"
        }
      ],
      "name": "Initialized",
      "type": "event"
    },
    {
      "anonymous": false,
      "inputs": [
        {
          "indexed": false,
          "internalType": "uint256",
          "name": "refunded",
          "type": "uint256"
        }
      ],
      "name": "InterestRefunded",
      "type": "event"
    },
    {
      "anonymous": false,
      "inputs": [
        {
          "indexed": false,
          "internalType": "address",
          "name": "from",
          "type": "address"
        },
        {
          "indexed": false,
          "internalType": "int256",
          "name": "amount",
          "type": "int256"
        }
      ],
      "name": "InterestUpdated",
      "type": "event"
    },
    {
      "anonymous": false,
      "inputs": [
        {
          "indexed": false,
          "internalType": "address",
          "name": "account",
          "type": "address"
        }
      ],
      "name": "Paused",
      "type": "event"
    },
    {
      "anonymous": false,
      "inputs": [
        {
          "indexed": false,
          "internalType": "uint256",
          "name": "oldPrice",
          "type": "uint256"
        },
        {
          "indexed": false,
          "internalType": "uint256",
          "name": "newPrice",
          "type": "uint256"
        }
      ],
      "name": "PriceUpdated",
      "type": "event"
    },
    {
      "anonymous": false,
      "inputs": [
        {
          "indexed": true,
          "internalType": "bytes32",
          "name": "role",
          "type": "bytes32"
        },
        {
          "indexed": true,
          "internalType": "bytes32",
          "name": "previousAdminRole",
          "type": "bytes32"
        },
        {
          "indexed": true,
          "internalType": "bytes32",
          "name": "newAdminRole",
          "type": "bytes32"
        }
      ],
      "name": "RoleAdminChanged",
      "type": "event"
    },
    {
      "anonymous": false,
      "inputs": [
        {
          "indexed": true,
          "internalType": "bytes32",
          "name": "role",
          "type": "bytes32"
        },
        {
          "indexed": true,
          "internalType": "address",
          "name": "account",
          "type": "address"
        },
        {
          "indexed": true,
          "internalType": "address",
          "name": "sender",
          "type": "address"
        }
      ],
      "name": "RoleGranted",
      "type": "event"
    },
    {
      "anonymous": false,
      "inputs": [
        {
          "indexed": true,
          "internalType": "bytes32",
          "name": "role",
          "type": "bytes32"
        },
        {
          "indexed": true,
          "internalType": "address",
          "name": "account",
          "type": "address"
        },
        {
          "indexed": true,
          "internalType": "address",
          "name": "sender",
          "type": "address"
        }
      ],
      "name": "RoleRevoked",
      "type": "event"
    },
    {
      "anonymous": false,
      "inputs": [
        {
          "indexed": false,
          "internalType": "uint256",
          "name": "depositsStart",
          "type": "uint256"
        },
        {
          "indexed": false,
          "internalType": "uint256",
          "name": "depositsStop",
          "type": "uint256"
        }
      ],
      "name": "TimesUpdated",
      "type": "event"
    },
    {
      "anonymous": false,
      "inputs": [
        {
          "indexed": false,
          "internalType": "address",
          "name": "from",
          "type": "address"
        },
        {
          "indexed": false,
          "internalType": "uint256",
          "name": "amount",
          "type": "uint256"
        }
      ],
      "name": "TotalRefunded",
      "type": "event"
    },
    {
      "anonymous": false,
      "inputs": [
        {
          "indexed": true,
          "internalType": "address",
          "name": "from",
          "type": "address"
        },
        {
          "indexed": true,
          "internalType": "address",
          "name": "to",
          "type": "address"
        },
        {
          "indexed": false,
          "internalType": "uint256",
          "name": "value",
          "type": "uint256"
        }
      ],
      "name": "Transfer",
      "type": "event"
    },
    {
      "anonymous": false,
      "inputs": [
        {
          "indexed": false,
          "internalType": "address",
          "name": "oldTreasury",
          "type": "address"
        },
        {
          "indexed": false,
          "internalType": "address",
          "name": "newTreasury",
          "type": "address"
        }
      ],
      "name": "TreasuryUpdated",
      "type": "event"
    },
    {
      "anonymous": false,
      "inputs": [
        {
          "indexed": false,
          "internalType": "uint256",
          "name": "amount",
          "type": "uint256"
        }
      ],
      "name": "UnclaimedFundsCollected",
      "type": "event"
    },
    {
      "anonymous": false,
      "inputs": [
        {
          "indexed": false,
          "internalType": "address",
          "name": "account",
          "type": "address"
        }
      ],
      "name": "Unpaused",
      "type": "event"
    },
    {
      "anonymous": false,
      "inputs": [
        {
          "indexed": false,
          "internalType": "string",
          "name": "vaultURI_",
          "type": "string"
        }
      ],
      "name": "VaultURIUpdated",
      "type": "event"
    },
    {
      "anonymous": false,
      "inputs": [
        {
          "indexed": true,
          "internalType": "address",
          "name": "sender",
          "type": "address"
        },
        {
          "indexed": true,
          "internalType": "address",
          "name": "receiver",
          "type": "address"
        },
        {
          "indexed": true,
          "internalType": "address",
          "name": "owner",
          "type": "address"
        },
        {
          "indexed": false,
          "internalType": "uint256",
          "name": "assets",
          "type": "uint256"
        },
        {
          "indexed": false,
          "internalType": "uint256",
          "name": "shares",
          "type": "uint256"
        }
      ],
      "name": "Withdraw",
      "type": "event"
    },
    {
      "inputs": [],
      "name": "DEFAULT_ADMIN_ROLE",
      "outputs": [
        {
          "internalType": "bytes32",
          "name": "",
          "type": "bytes32"
        }
      ],
      "stateMutability": "view",
      "type": "function"
    },
    {
      "inputs": [],
      "name": "DEV",
      "outputs": [
        {
          "internalType": "bytes32",
          "name": "",
          "type": "bytes32"
        }
      ],
      "stateMutability": "view",
      "type": "function"
    },
    {
      "inputs": [],
      "name": "KONKRETE",
      "outputs": [
        {
          "internalType": "bytes32",
          "name": "",
          "type": "bytes32"
        }
      ],
      "stateMutability": "view",
      "type": "function"
    },
    {
      "inputs": [],
      "name": "TIMELOCK",
      "outputs": [
        {
          "internalType": "bytes32",
          "name": "",
          "type": "bytes32"
        }
      ],
      "stateMutability": "view",
      "type": "function"
    },
    {
      "inputs": [
        {
          "internalType": "address",
          "name": "owner",
          "type": "address"
        },
        {
          "internalType": "address",
          "name": "spender",
          "type": "address"
        }
      ],
      "name": "allowance",
      "outputs": [
        {
          "internalType": "uint256",
          "name": "",
          "type": "uint256"
        }
      ],
      "stateMutability": "view",
      "type": "function"
    },
    {
      "inputs": [
        {
          "internalType": "address",
          "name": "spender",
          "type": "address"
        },
        {
          "internalType": "uint256",
          "name": "amount",
          "type": "uint256"
        }
      ],
      "name": "approve",
      "outputs": [
        {
          "internalType": "bool",
          "name": "",
          "type": "bool"
        }
      ],
      "stateMutability": "nonpayable",
      "type": "function"
    },
    {
      "inputs": [],
      "name": "asset",
      "outputs": [
        {
          "internalType": "address",
          "name": "",
          "type": "address"
        }
      ],
      "stateMutability": "view",
      "type": "function"
    },
    {
      "inputs": [
        {
          "internalType": "address",
          "name": "account",
          "type": "address"
        }
      ],
      "name": "balanceOf",
      "outputs": [
        {
          "internalType": "uint256",
          "name": "",
          "type": "uint256"
        }
      ],
      "stateMutability": "view",
      "type": "function"
    },
    {
      "inputs": [],
      "name": "collectCapital",
      "outputs": [
        {
          "internalType": "uint256",
          "name": "collected",
          "type": "uint256"
        }
      ],
      "stateMutability": "nonpayable",
      "type": "function"
    },
    {
      "inputs": [],
      "name": "collectUnclaimedFunds",
      "outputs": [
        {
          "internalType": "uint256",
          "name": "pendingFunds",
          "type": "uint256"
        }
      ],
      "stateMutability": "nonpayable",
      "type": "function"
    },
    {
      "inputs": [],
      "name": "collectedCapital",
      "outputs": [
        {
          "internalType": "uint256",
          "name": "",
          "type": "uint256"
        }
      ],
      "stateMutability": "view",
      "type": "function"
    },
    {
      "inputs": [
        {
          "internalType": "uint256",
          "name": "shares",
          "type": "uint256"
        }
      ],
      "name": "convertToAssets",
      "outputs": [
        {
          "internalType": "uint256",
          "name": "assets",
          "type": "uint256"
        }
      ],
      "stateMutability": "view",
      "type": "function"
    },
    {
      "inputs": [
        {
          "internalType": "uint256",
          "name": "assets",
          "type": "uint256"
        }
      ],
      "name": "convertToShares",
      "outputs": [
        {
          "internalType": "uint256",
          "name": "shares",
          "type": "uint256"
        }
      ],
      "stateMutability": "view",
      "type": "function"
    },
    {
      "inputs": [],
      "name": "dataBase",
      "outputs": [
        {
          "internalType": "contract IDatabase",
          "name": "",
          "type": "address"
        }
      ],
      "stateMutability": "view",
      "type": "function"
    },
    {
      "inputs": [],
      "name": "decimals",
      "outputs": [
        {
          "internalType": "uint8",
          "name": "",
          "type": "uint8"
        }
      ],
      "stateMutability": "view",
      "type": "function"
    },
    {
      "inputs": [
        {
          "internalType": "address",
          "name": "spender",
          "type": "address"
        },
        {
          "internalType": "uint256",
          "name": "subtractedValue",
          "type": "uint256"
        }
      ],
      "name": "decreaseAllowance",
      "outputs": [
        {
          "internalType": "bool",
          "name": "",
          "type": "bool"
        }
      ],
      "stateMutability": "nonpayable",
      "type": "function"
    },
    {
      "inputs": [
        {
          "internalType": "uint256",
          "name": "assets",
          "type": "uint256"
        },
        {
          "internalType": "address",
          "name": "receiver",
          "type": "address"
        }
      ],
      "name": "deposit",
      "outputs": [
        {
          "internalType": "uint256",
          "name": "",
          "type": "uint256"
        }
      ],
      "stateMutability": "nonpayable",
      "type": "function"
    },
    {
      "inputs": [],
      "name": "depositsStart",
      "outputs": [
        {
          "internalType": "uint256",
          "name": "",
          "type": "uint256"
        }
      ],
      "stateMutability": "view",
      "type": "function"
    },
    {
      "inputs": [],
      "name": "depositsStop",
      "outputs": [
        {
          "internalType": "uint256",
          "name": "",
          "type": "uint256"
        }
      ],
      "stateMutability": "view",
      "type": "function"
    },
    {
      "inputs": [
        {
          "internalType": "bool",
          "name": "doubleChecked",
          "type": "bool"
        }
      ],
      "name": "emptyCapitalBack",
      "outputs": [],
      "stateMutability": "nonpayable",
      "type": "function"
    },
    {
      "inputs": [
        {
          "internalType": "bytes32",
          "name": "role",
          "type": "bytes32"
        }
      ],
      "name": "getRoleAdmin",
      "outputs": [
        {
          "internalType": "bytes32",
          "name": "",
          "type": "bytes32"
        }
      ],
      "stateMutability": "view",
      "type": "function"
    },
    {
      "inputs": [
        {
          "internalType": "bytes32",
          "name": "role",
          "type": "bytes32"
        },
        {
          "internalType": "uint256",
          "name": "index",
          "type": "uint256"
        }
      ],
      "name": "getRoleMember",
      "outputs": [
        {
          "internalType": "address",
          "name": "",
          "type": "address"
        }
      ],
      "stateMutability": "view",
      "type": "function"
    },
    {
      "inputs": [
        {
          "internalType": "bytes32",
          "name": "role",
          "type": "bytes32"
        }
      ],
      "name": "getRoleMemberCount",
      "outputs": [
        {
          "internalType": "uint256",
          "name": "",
          "type": "uint256"
        }
      ],
      "stateMutability": "view",
      "type": "function"
    },
    {
      "inputs": [],
      "name": "getStep",
      "outputs": [
        {
          "internalType": "enum SaleStep",
          "name": "step",
          "type": "uint8"
        }
      ],
      "stateMutability": "view",
      "type": "function"
    },
    {
      "inputs": [
        {
          "internalType": "bytes32",
          "name": "role",
          "type": "bytes32"
        },
        {
          "internalType": "address",
          "name": "account",
          "type": "address"
        }
      ],
      "name": "grantRole",
      "outputs": [],
      "stateMutability": "nonpayable",
      "type": "function"
    },
    {
      "inputs": [],
      "name": "hardCap",
      "outputs": [
        {
          "internalType": "uint256",
          "name": "",
          "type": "uint256"
        }
      ],
      "stateMutability": "view",
      "type": "function"
    },
    {
      "inputs": [
        {
          "internalType": "bytes32",
          "name": "role",
          "type": "bytes32"
        },
        {
          "internalType": "address",
          "name": "account",
          "type": "address"
        }
      ],
      "name": "hasRole",
      "outputs": [
        {
          "internalType": "bool",
          "name": "",
          "type": "bool"
        }
      ],
      "stateMutability": "view",
      "type": "function"
    },
    {
      "inputs": [
        {
          "internalType": "address",
          "name": "spender",
          "type": "address"
        },
        {
          "internalType": "uint256",
          "name": "addedValue",
          "type": "uint256"
        }
      ],
      "name": "increaseAllowance",
      "outputs": [
        {
          "internalType": "bool",
          "name": "",
          "type": "bool"
        }
      ],
      "stateMutability": "nonpayable",
      "type": "function"
    },
    {
      "inputs": [
        {
          "internalType": "address",
          "name": "asset_",
          "type": "address"
        },
        {
          "internalType": "string",
          "name": "name_",
          "type": "string"
        },
        {
          "internalType": "string",
          "name": "symbol_",
          "type": "string"
        },
        {
          "internalType": "string",
          "name": "vaultURI_",
          "type": "string"
        },
        {
          "internalType": "address",
          "name": "multisig",
          "type": "address"
        },
        {
          "internalType": "address",
          "name": "treasury_",
          "type": "address"
        },
        {
          "internalType": "contract IDatabase",
          "name": "dataBase_",
          "type": "address"
        },
        {
          "internalType": "uint256",
          "name": "softCap_",
          "type": "uint256"
        },
        {
          "internalType": "uint256",
          "name": "hardcap_",
          "type": "uint256"
        },
        {
          "internalType": "uint256",
          "name": "depositsStart_",
          "type": "uint256"
        },
        {
          "internalType": "uint256",
          "name": "depositsStop_",
          "type": "uint256"
        }
      ],
      "name": "initialize",
      "outputs": [],
      "stateMutability": "nonpayable",
      "type": "function"
    },
    {
      "inputs": [
        {
          "internalType": "address",
          "name": "user",
          "type": "address"
        }
      ],
      "name": "maxDeposit",
      "outputs": [
        {
          "internalType": "uint256",
          "name": "",
          "type": "uint256"
        }
      ],
      "stateMutability": "view",
      "type": "function"
    },
    {
      "inputs": [],
      "name": "maxDepositPerUser",
      "outputs": [
        {
          "internalType": "uint256",
          "name": "",
          "type": "uint256"
        }
      ],
      "stateMutability": "view",
      "type": "function"
    },
    {
      "inputs": [
        {
          "internalType": "address",
          "name": "user",
          "type": "address"
        }
      ],
      "name": "maxMint",
      "outputs": [
        {
          "internalType": "uint256",
          "name": "",
          "type": "uint256"
        }
      ],
      "stateMutability": "view",
      "type": "function"
    },
    {
      "inputs": [
        {
          "internalType": "address",
          "name": "owner",
          "type": "address"
        }
      ],
      "name": "maxRedeem",
      "outputs": [
        {
          "internalType": "uint256",
          "name": "",
          "type": "uint256"
        }
      ],
      "stateMutability": "view",
      "type": "function"
    },
    {
      "inputs": [
        {
          "internalType": "address",
          "name": "owner",
          "type": "address"
        }
      ],
      "name": "maxWithdraw",
      "outputs": [
        {
          "internalType": "uint256",
          "name": "",
          "type": "uint256"
        }
      ],
      "stateMutability": "view",
      "type": "function"
    },
    {
      "inputs": [
        {
          "internalType": "address",
          "name": "user",
          "type": "address"
        }
      ],
      "name": "minInvest",
      "outputs": [
        {
          "internalType": "uint256",
          "name": "",
          "type": "uint256"
        }
      ],
      "stateMutability": "view",
      "type": "function"
    },
    {
      "inputs": [],
      "name": "minInvestPerUser",
      "outputs": [
        {
          "internalType": "uint256",
          "name": "",
          "type": "uint256"
        }
      ],
      "stateMutability": "view",
      "type": "function"
    },
    {
      "inputs": [
        {
          "internalType": "uint256",
          "name": "shares",
          "type": "uint256"
        },
        {
          "internalType": "address",
          "name": "receiver",
          "type": "address"
        }
      ],
      "name": "mint",
      "outputs": [
        {
          "internalType": "uint256",
          "name": "",
          "type": "uint256"
        }
      ],
      "stateMutability": "nonpayable",
      "type": "function"
    },
    {
      "inputs": [],
      "name": "name",
      "outputs": [
        {
          "internalType": "string",
          "name": "",
          "type": "string"
        }
      ],
      "stateMutability": "view",
      "type": "function"
    },
    {
      "inputs": [],
      "name": "originalPrice",
      "outputs": [
        {
          "internalType": "uint256",
          "name": "",
          "type": "uint256"
        }
      ],
      "stateMutability": "view",
      "type": "function"
    },
    {
      "inputs": [
        {
          "internalType": "address",
          "name": "",
          "type": "address"
        }
      ],
      "name": "paid",
      "outputs": [
        {
          "internalType": "uint256",
          "name": "",
          "type": "uint256"
        }
      ],
      "stateMutability": "view",
      "type": "function"
    },
    {
      "inputs": [],
      "name": "pause",
      "outputs": [],
      "stateMutability": "nonpayable",
      "type": "function"
    },
    {
      "inputs": [],
      "name": "paused",
      "outputs": [
        {
          "internalType": "bool",
          "name": "",
          "type": "bool"
        }
      ],
      "stateMutability": "view",
      "type": "function"
    },
    {
      "inputs": [
        {
          "internalType": "uint256",
          "name": "assets",
          "type": "uint256"
        }
      ],
      "name": "previewDeposit",
      "outputs": [
        {
          "internalType": "uint256",
          "name": "",
          "type": "uint256"
        }
      ],
      "stateMutability": "view",
      "type": "function"
    },
    {
      "inputs": [
        {
          "internalType": "uint256",
          "name": "shares",
          "type": "uint256"
        }
      ],
      "name": "previewMint",
      "outputs": [
        {
          "internalType": "uint256",
          "name": "",
          "type": "uint256"
        }
      ],
      "stateMutability": "view",
      "type": "function"
    },
    {
      "inputs": [
        {
          "internalType": "uint256",
          "name": "shares",
          "type": "uint256"
        }
      ],
      "name": "previewRedeem",
      "outputs": [
        {
          "internalType": "uint256",
          "name": "",
          "type": "uint256"
        }
      ],
      "stateMutability": "view",
      "type": "function"
    },
    {
      "inputs": [
        {
          "internalType": "uint256",
          "name": "assets",
          "type": "uint256"
        }
      ],
      "name": "previewWithdraw",
      "outputs": [
        {
          "internalType": "uint256",
          "name": "",
          "type": "uint256"
        }
      ],
      "stateMutability": "view",
      "type": "function"
    },
    {
      "inputs": [
        {
          "internalType": "uint256",
          "name": "amountOfInterest",
          "type": "uint256"
        }
      ],
      "name": "priceImpact",
      "outputs": [
        {
          "internalType": "uint256",
          "name": "",
          "type": "uint256"
        }
      ],
      "stateMutability": "view",
      "type": "function"
    },
    {
      "inputs": [
        {
          "internalType": "uint256",
          "name": "shares",
          "type": "uint256"
        },
        {
          "internalType": "address",
          "name": "receiver",
          "type": "address"
        },
        {
          "internalType": "address",
          "name": "owner",
          "type": "address"
        }
      ],
      "name": "redeem",
      "outputs": [
        {
          "internalType": "uint256",
          "name": "assets",
          "type": "uint256"
        }
      ],
      "stateMutability": "nonpayable",
      "type": "function"
    },
    {
      "inputs": [
        {
          "internalType": "uint256",
          "name": "capitalAndInterest",
          "type": "uint256"
        }
      ],
      "name": "refundCapital",
      "outputs": [],
      "stateMutability": "nonpayable",
      "type": "function"
    },
    {
      "inputs": [],
      "name": "refunded",
      "outputs": [
        {
          "internalType": "bool",
          "name": "",
          "type": "bool"
        }
      ],
      "stateMutability": "view",
      "type": "function"
    },
    {
      "inputs": [
        {
          "internalType": "bytes32",
          "name": "role",
          "type": "bytes32"
        },
        {
          "internalType": "address",
          "name": "account",
          "type": "address"
        }
      ],
      "name": "renounceRole",
      "outputs": [],
      "stateMutability": "nonpayable",
      "type": "function"
    },
    {
      "inputs": [
        {
          "internalType": "bytes32",
          "name": "role",
          "type": "bytes32"
        },
        {
          "internalType": "address",
          "name": "account",
          "type": "address"
        }
      ],
      "name": "revokeRole",
      "outputs": [],
      "stateMutability": "nonpayable",
      "type": "function"
    },
    {
      "inputs": [
        {
          "internalType": "uint256",
          "name": "soft",
          "type": "uint256"
        },
        {
          "internalType": "uint256",
          "name": "hard",
          "type": "uint256"
        }
      ],
      "name": "setCaps",
      "outputs": [],
      "stateMutability": "nonpayable",
      "type": "function"
    },
    {
      "inputs": [
        {
          "internalType": "contract IDatabase",
          "name": "database_",
          "type": "address"
        }
      ],
      "name": "setDatabase",
      "outputs": [],
      "stateMutability": "nonpayable",
      "type": "function"
    },
    {
      "inputs": [
        {
          "internalType": "uint256",
          "name": "minInvest_",
          "type": "uint256"
        },
        {
          "internalType": "uint256",
          "name": "maxDeposit_",
          "type": "uint256"
        }
      ],
      "name": "setDepositLimitsPerUser",
      "outputs": [],
      "stateMutability": "nonpayable",
      "type": "function"
    },
    {
      "inputs": [
        {
          "internalType": "uint256",
          "name": "start",
          "type": "uint256"
        },
        {
          "internalType": "uint256",
          "name": "stop",
          "type": "uint256"
        }
      ],
      "name": "setTimes",
      "outputs": [],
      "stateMutability": "nonpayable",
      "type": "function"
    },
    {
      "inputs": [
        {
          "internalType": "address",
          "name": "treasury_",
          "type": "address"
        }
      ],
      "name": "setTreasury",
      "outputs": [],
      "stateMutability": "nonpayable",
      "type": "function"
    },
    {
      "inputs": [
        {
          "internalType": "string",
          "name": "vaultURI_",
          "type": "string"
        }
      ],
      "name": "setVaultURI",
      "outputs": [],
      "stateMutability": "nonpayable",
      "type": "function"
    },
    {
      "inputs": [],
      "name": "softCap",
      "outputs": [
        {
          "internalType": "uint256",
          "name": "",
          "type": "uint256"
        }
      ],
      "stateMutability": "view",
      "type": "function"
    },
    {
      "inputs": [
        {
          "internalType": "bytes4",
          "name": "interfaceId",
          "type": "bytes4"
        }
      ],
      "name": "supportsInterface",
      "outputs": [
        {
          "internalType": "bool",
          "name": "",
          "type": "bool"
        }
      ],
      "stateMutability": "view",
      "type": "function"
    },
    {
      "inputs": [],
      "name": "symbol",
      "outputs": [
        {
          "internalType": "string",
          "name": "",
          "type": "string"
        }
      ],
      "stateMutability": "view",
      "type": "function"
    },
    {
      "inputs": [],
      "name": "tokenPrice",
      "outputs": [
        {
          "internalType": "uint256",
          "name": "",
          "type": "uint256"
        }
      ],
      "stateMutability": "view",
      "type": "function"
    },
    {
      "inputs": [],
      "name": "totalAssets",
      "outputs": [
        {
          "internalType": "uint256",
          "name": "",
          "type": "uint256"
        }
      ],
      "stateMutability": "view",
      "type": "function"
    },
    {
      "inputs": [],
      "name": "totalSupply",
      "outputs": [
        {
          "internalType": "uint256",
          "name": "",
          "type": "uint256"
        }
      ],
      "stateMutability": "view",
      "type": "function"
    },
    {
      "inputs": [
        {
          "internalType": "address",
          "name": "to",
          "type": "address"
        },
        {
          "internalType": "uint256",
          "name": "amount",
          "type": "uint256"
        }
      ],
      "name": "transfer",
      "outputs": [
        {
          "internalType": "bool",
          "name": "",
          "type": "bool"
        }
      ],
      "stateMutability": "nonpayable",
      "type": "function"
    },
    {
      "inputs": [
        {
          "internalType": "address",
          "name": "from",
          "type": "address"
        },
        {
          "internalType": "address",
          "name": "to",
          "type": "address"
        },
        {
          "internalType": "uint256",
          "name": "amount",
          "type": "uint256"
        }
      ],
      "name": "transferFrom",
      "outputs": [
        {
          "internalType": "bool",
          "name": "",
          "type": "bool"
        }
      ],
      "stateMutability": "nonpayable",
      "type": "function"
    },
    {
      "inputs": [],
      "name": "treasury",
      "outputs": [
        {
          "internalType": "address",
          "name": "",
          "type": "address"
        }
      ],
      "stateMutability": "view",
      "type": "function"
    },
    {
      "inputs": [],
      "name": "unpause",
      "outputs": [],
      "stateMutability": "nonpayable",
      "type": "function"
    },
    {
      "inputs": [
        {
          "internalType": "int256",
          "name": "interest",
          "type": "int256"
        }
      ],
      "name": "updateInterest",
      "outputs": [],
      "stateMutability": "nonpayable",
      "type": "function"
    },
    {
      "inputs": [],
      "name": "vaultURI",
      "outputs": [
        {
          "internalType": "string",
          "name": "",
          "type": "string"
        }
      ],
      "stateMutability": "view",
      "type": "function"
    },
    {
      "inputs": [
        {
          "internalType": "uint256",
          "name": "assets",
          "type": "uint256"
        },
        {
          "internalType": "address",
          "name": "receiver",
          "type": "address"
        },
        {
          "internalType": "address",
          "name": "owner",
          "type": "address"
        }
      ],
      "name": "withdraw",
      "outputs": [
        {
          "internalType": "uint256",
          "name": "shares",
          "type": "uint256"
        }
      ],
      "stateMutability": "nonpayable",
      "type": "function"
    }
  ],
  "bytecode": {
    "object": "0x60806040523480156200001157600080fd5b50600054610100900460ff1615808015620000335750600054600160ff909116105b8062000063575062000050306200013d60201b62001beb1760201c565b15801562000063575060005460ff166001145b620000cb5760405162461bcd60e51b815260206004820152602e60248201527f496e697469616c697a61626c653a20636f6e747261637420697320616c72656160448201526d191e481a5b9a5d1a585b1a5e995960921b606482015260840160405180910390fd5b6000805460ff191660011790558015620000ef576000805461ff0019166101001790555b801562000136576000805461ff0019169055604051600181527f7f26b83ff96e1f2b6a682f133852f6798a09c465da95921460cefb38474024989060200160405180910390a15b506200014c565b6001600160a01b03163b151590565b613f18806200015c6000396000f3fe608060405234801561001057600080fd5b506004361061041d5760003560e01c80637ff9b5961161022b578063b460af9411610130578063d905777e116100b8578063e35d33f611610087578063e35d33f614610774578063ef8b30f714610811578063f0f44260146108b1578063f5420374146108c4578063fb86a404146108d757600080fd5b8063d905777e14610865578063dd62ed3e14610878578063dfd5473c1461088b578063e0f41f3a1461089e57600080fd5b8063c6e6f592116100ff578063c6e6f59214610811578063ca15c87314610824578063ce96cb7714610837578063d406008d1461084a578063d547741f1461085257600080fd5b8063b460af94146107d6578063ba087652146107e9578063c1eb5ddd146107fc578063c63d75b6146105ef57600080fd5b806391d14854116101b3578063a217fddf11610182578063a217fddf14610774578063a340cf791461077c578063a457c2d71461079d578063a9059cbb146107b0578063b3d7f6b9146107c357600080fd5b806391d148541461074457806394bf804d1461066557806395d89b41146107575780639e5288a01461075f57600080fd5b80638456cb59116101fa5780638456cb59146107025780638cd511061461070a5780638e95bab21461071d5780639010d07c14610727578063906a26e01461073a57600080fd5b80637ff9b596146106d157806381d5a8c1146106db57806382e5310c146106e557806384061853146106ef57600080fd5b80633670e7b1116103315780635a67f6cb116102b957806361d027b31161028857806361d027b3146106515780636e553f651461066557806370a082311461067857806376a24f25146106a15780637aadef8b146106aa57600080fd5b80635a67f6cb146106165780635c975abb146106295780635cb5e41d146106355780635dc5eaf31461064957600080fd5b80633f4ba83a116103005780633f4ba83a146105e7578063402d267d146105ef5780634aea1bf8146106025780634cdad506146104755780634f2bef3e1461060c57600080fd5b80633670e7b114610589578063373cad571461059c57806338d52e0f146105af57806339509351146105d457600080fd5b80631a28bc6e116103b4578063248a9ca311610383578063248a9ca31461051957806329d297991461053c5780632f2ff15d14610544578063313ce5671461055757806336568abe1461057657600080fd5b80631a28bc6e146104cb578063212bf316146104e057806322434836146104f357806323b872dd1461050657600080fd5b8063095ea7b3116103f0578063095ea7b3146104885780630a28a4771461049b57806312f53950146104ae57806318160ddd146104c357600080fd5b806301e1d1141461042257806301ffc9a71461043d57806306fdde031461046057806307a2d13a14610475575b600080fd5b61042a6108e1565b6040519081526020015b60405180910390f35b61045061044b36600461364d565b610953565b6040519015158152602001610434565b61046861097e565b60405161043491906136a3565b61042a6104833660046136d6565b610a10565b610450610496366004613714565b610a1d565b61042a6104a93660046136d6565b610a35565b6101935461045090600160a01b900460ff1681565b60355461042a565b6104de6104d9366004613740565b610a42565b005b6104de6104ee366004613740565b610ac4565b6104de610501366004613740565b610b50565b610450610514366004613762565b610c1f565b61042a6105273660046136d6565b600090815260c9602052604090206001015490565b61042a610c45565b6104de6105523660046137a3565b610ccc565b606554600160a01b900460ff1660405160ff9091168152602001610434565b6104de6105843660046137a3565b610cf6565b6104de6105973660046137e1565b610d74565b6104de6105aa3660046136d6565b610daa565b6065546001600160a01b03165b6040516001600160a01b039091168152602001610434565b6104506105e2366004613714565b610e25565b6104de610e47565b61042a6105fd3660046137fe565b610e5a565b61042a6101975481565b61042a6101955481565b6104de6106243660046136d6565b610e92565b61015f5460ff16610450565b610192546105bc906001600160a01b031681565b610468611025565b610193546105bc906001600160a01b031681565b61042a6106733660046137a3565b6110b4565b61042a6106863660046137fe565b6001600160a01b031660009081526033602052604090205490565b6101915461042a565b61042a7faefebe170cbaff0af052a32795af0e1b8afff9850f946ad2869be14f3553437181565b61042a61019a5481565b61042a6101945481565b61042a6101965481565b61042a6106fd3660046136d6565b6110de565b6104de6110f8565b6104de6107183660046138be565b611118565b61042a61019b5481565b6105bc610735366004613740565b611481565b61042a6101985481565b6104506107523660046137a3565b611499565b6104686114c4565b6107676114d3565b60405161043491906139ef565b61042a600081565b61042a61078a3660046137fe565b61019d6020526000908152604090205481565b6104506107ab366004613714565b611529565b6104506107be366004613714565b6115af565b61042a6107d13660046136d6565b6115bd565b61042a6107e43660046139fd565b6115ca565b61042a6107f73660046139fd565b61172f565b61042a600080516020613ec383398151915281565b61042a61081f3660046136d6565b61185e565b61042a6108323660046136d6565b61186b565b61042a6108453660046137fe565b611882565b61042a6118cd565b6104de6108603660046137a3565b611936565b61042a6108733660046137fe565b61195b565b61042a610886366004613a3f565b61199b565b6104de610899366004613a6d565b6119c6565b61042a6108ac3660046137fe565b611a43565b6104de6108bf3660046137fe565b611a83565b6104de6108d23660046137fe565b611b30565b61042a6101995481565b6065546040516370a0823160e01b81523060048201526000916001600160a01b0316906370a0823190602401602060405180830381865afa15801561092a573d6000803e3d6000fd5b505050506040513d601f19601f8201168201806040525081019061094e9190613adf565b905090565b60006001600160e01b03198216635a05180f60e01b1480610978575061097882611bfa565b92915050565b60606036805461098d90613af8565b80601f01602080910402602001604051908101604052809291908181526020018280546109b990613af8565b8015610a065780601f106109db57610100808354040283529160200191610a06565b820191906000526020600020905b8154815290600101906020018083116109e957829003601f168201915b5050505050905090565b6000610978826000611c2f565b600033610a2b818585611c53565b5060019392505050565b6000610978826001611d77565b600080516020613ec3833981519152610a5a81611d9b565b6101985480831115610a8e5760405163010a45ab60e21b815260048101829052602481018490526044015b60405180910390fd5b828410610ab85760405163010a45ab60e21b81526004810182905260248101859052604401610a85565b50506101965561019755565b600080516020613ec3833981519152610adc81611d9b565b821580610ae857508183115b15610b0657604051630c5af70760e11b815260040160405180910390fd5b61019883905561019982905560408051848152602081018490527ffa35f2d22b9a5eb6bed3254e60910f91291653a71679c8cbb1f00d24551a45c4910160405180910390a1505050565b600080516020613ec3833981519152610b6881611d9b565b6000610b726114d3565b90506002816004811115610b8857610b886139b7565b1115610ba957806040516336100b6760e11b8152600401610a8591906139ef565b82841180610bb657504284105b15610bd4576040516335c4a3b960e11b815260040160405180910390fd5b61019484905561019583905560408051858152602081018590527f8f8d0d2155084c34c7e189b664aa128aebfd57e564d2d01c82a148d3da3a3bbc910160405180910390a150505050565b600033610c2d858285611da5565b610c38858585611e19565b60019150505b9392505050565b610193546000906001600160a01b0316338114610c8357335b604051634ab6cb6760e11b81526001600160a01b039091166004820152602401610a85565b610c8d6002611fc4565b91507fcd44c06e81c4f40db53746db76839e7106609855a483a8e72a05877dc3ea225c82604051610cc091815260200190565b60405180910390a15090565b600082815260c96020526040902060010154610ce781611d9b565b610cf183836120dc565b505050565b6001600160a01b0381163314610d665760405162461bcd60e51b815260206004820152602f60248201527f416363657373436f6e74726f6c3a2063616e206f6e6c792072656e6f756e636560448201526e103937b632b9903337b91039b2b63360891b6064820152608401610a85565b610d7082826120fe565b5050565b6000610d7f81611d9b565b81610da0576040516375403cf360e01b815260006004820152602401610a85565b610d706000612120565b80600003610dce576040516375403cf360e01b815260016004820152602401610a85565b610193546001600160a01b0316336001600160a01b031614610df05733610c5e565b610df981612120565b610e22333083610e116065546001600160a01b031690565b6001600160a01b03169291906122ae565b50565b600033610a2b818585610e38838361199b565b610e429190613b48565b611c53565b6000610e5281611d9b565b610e22612319565b60006001610e666114d3565b6004811115610e7757610e776139b7565b03610e8a57610e858261236c565b610978565b600092915050565b600080516020613ec3833981519152610eaa81611d9b565b6000610eb46114d3565b90506002816004811115610eca57610eca6139b7565b14610eea57806040516336100b6760e11b8152600401610a8591906139ef565b61019a54600080851215610f81576000610f066106fd87613b60565b905082811115610f2c57604051637cef6ce360e11b815260048101879052602401610a85565b610f368184613b7c565b91507f5ac4f964bd8aac40cf8a592c906866d09d34e81d1ef0b1c659252c3151e471c333604080516001600160a01b039092168252602082018990520160405180910390a150610fdf565b6000610f8c866110de565b9050610f988184613b48565b91507f5ac4f964bd8aac40cf8a592c906866d09d34e81d1ef0b1c659252c3151e471c333604080516001600160a01b039092168252602082018990520160405180910390a1505b61019a81905560408051838152602081018390527f945c1c4e99aa89f648fbfe3df471b916f719e16d960fcec0737d4d56bd696838910160405180910390a15050505050565b61019c805461103390613af8565b80601f016020809104026020016040519081016040528092919081815260200182805461105f90613af8565b80156110ac5780601f10611081576101008083540402835291602001916110ac565b820191906000526020600020905b81548152906001019060200180831161108f57829003601f168201915b505050505081565b60006110be6123ef565b6110c661244a565b6110d1833384612493565b9050610978600161012d55565b6000610978610191546110f060355490565b8491906126aa565b600080516020613ec383398151915261111081611d9b565b610e22612759565b600054610100900460ff16158080156111385750600054600160ff909116105b806111525750303b158015611152575060005460ff166001145b6111b55760405162461bcd60e51b815260206004820152602e60248201527f496e697469616c697a61626c653a20636f6e747261637420697320616c72656160448201526d191e481a5b9a5d1a585b1a5e995960921b6064820152608401610a85565b6000805460ff1916600117905580156111d8576000805461ff0019166101001790555b6111e0612797565b6111e98c6127c6565b6111f38b8b6127f6565b6111fb612827565b856001600160a01b031663fe60d26b6040518163ffffffff1660e01b8152600401602060405180830381865afa158015611239573d6000803e3d6000fd5b505050506040513d601f19601f8201168201806040525081019061125d9190613b93565b61127a576040516381867da560e01b815260040160405180910390fd5b60008c6001600160a01b031663313ce5676040518163ffffffff1660e01b8152600401602060405180830381865afa1580156112ba573d6000803e3d6000fd5b505050506040513d601f19601f820116820180604052508101906112de9190613bb0565b60ff169050806012141580156112f5575080600614155b15611324576040516315f3703160e31b8152601260048201526006602482015260448101829052606401610a85565b876001600160a01b03163b60000361135a57604051634ab6cb6760e11b81526001600160a01b0389166004820152602401610a85565b600061136782600a613cb7565b905061137460008b6120dc565b61138c600080516020613ec38339815191528b6120dc565b6113a4600080516020613ec3833981519152336120dc565b8a516113b89061019c9060208e0190613540565b5061019887905561019986905561019485905561019584905561019380546001600160a01b03808c166001600160a01b0319928316179092556101928054928b169290911691909117905561140e600388613cd9565b6101965561141e816101f4613cfb565b6101975561019a81905561019155508015611473576000805461ff0019169055604051600181527f7f26b83ff96e1f2b6a682f133852f6798a09c465da95921460cefb38474024989060200160405180910390a15b505050505050505050505050565b600082815260fb60205260408120610c3e9083612856565b600091825260c9602090815260408084206001600160a01b0393909316845291905290205460ff1690565b60606037805461098d90613af8565b6000610194544210156114e65750600090565b610195544210156114f75750600190565b6101985461019b54101561150b5750600390565b61019354600160a01b900460ff166115235750600290565b50600490565b60003381611537828661199b565b9050838110156115975760405162461bcd60e51b815260206004820152602560248201527f45524332303a2064656372656173656420616c6c6f77616e63652062656c6f77604482015264207a65726f60d81b6064820152608401610a85565b6115a48286868403611c53565b506001949350505050565b600033610a2b818585611e19565b6000610978826001611c2f565b60006115d46123ef565b6115dc61244a565b60006115e66114d3565b905060028160048111156115fc576115fc6139b7565b0361161c57806040516336100b6760e11b8152600401610a8591906139ef565b61162585610a35565b9150611646836001600160a01b031660009081526033602052604090205490565b8211156116955760405162461bcd60e51b815260206004820152601f60248201527f455243343632363a207769746864726177206d6f7265207468616e206d6178006044820152606401610a85565b6116a23385858886612862565b60048160048111156116b6576116b66139b7565b14611723578461019b60008282546116ce9190613b7c565b90915550506001600160a01b038316600090815261019d602052604090205480861015611704576116ff8682613b7c565b611707565b60005b6001600160a01b038516600090815261019d6020526040902055505b50610c3e600161012d55565b60006117396123ef565b61174161244a565b600061174b6114d3565b90506002816004811115611761576117616139b7565b0361178157806040516336100b6760e11b8152600401610a8591906139ef565b6001600160a01b0383166000908152603360205260409020548511156117e95760405162461bcd60e51b815260206004820152601d60248201527f455243343632363a2072656465656d206d6f7265207468616e206d61780000006044820152606401610a85565b6117f285610a10565b91506118013385858589612862565b6004816004811115611815576118156139b7565b14611723578161019b600082825461182d9190613b7c565b90915550506001600160a01b038316600090815261019d602052604090205480831015611704576116ff8382613b7c565b6000610978826000611d77565b600081815260fb602052604081206109789061290e565b6000600261188e6114d3565b600481111561189f5761189f6139b7565b14610e8a57610e856118c6836001600160a01b031660009081526033602052604090205490565b6000611c2f565b60007faefebe170cbaff0af052a32795af0e1b8afff9850f946ad2869be14f355343716118f981611d9b565b6119036004611fc4565b91507fb4192707c71da259814532b3eb648e78c9d78d6a3b9234baed7a183808f8c54c82604051610cc091815260200190565b600082815260c9602052604090206001015461195181611d9b565b610cf183836120fe565b600060026119676114d3565b6004811115611978576119786139b7565b14610e8a576001600160a01b038216600090815260336020526040902054610978565b6001600160a01b03918216600090815260346020908152604080832093909416825291909152205490565b60006119d181611d9b565b60008290036119f75782826040516303c5d03760e01b8152600401610a85929190613d1a565b7f82b4c0c51f891b823eff0c623396a3d488ad9c5fa87eaf6536a5e30257cfe6248383604051611a28929190613d1a565b60405180910390a1611a3d61019c84846135c4565b50505050565b6001600160a01b038116600090815261019d60205260408120546101975480821015611a7857611a738282613b7c565b611a7b565b60005b949350505050565b6000611a8e81611d9b565b816001600160a01b03163b600003611ac457604051634ab6cb6760e11b81526001600160a01b0383166004820152602401610a85565b61019354604080516001600160a01b03928316815291841660208301527f4ab5be82436d353e61ca18726e984e561f5c1cc7c6d38b29d2553c790434705a910160405180910390a15061019380546001600160a01b0319166001600160a01b0392909216919091179055565b600080516020613ec3833981519152611b4881611d9b565b816001600160a01b031663fe60d26b6040518163ffffffff1660e01b8152600401602060405180830381865afa158015611b86573d6000803e3d6000fd5b505050506040513d601f19601f82011682018060405250810190611baa9190613b93565b611bc7576040516381867da560e01b815260040160405180910390fd5b5061019280546001600160a01b0319166001600160a01b0392909216919091179055565b6001600160a01b03163b151590565b60006001600160e01b03198216637965db0b60e01b148061097857506301ffc9a760e01b6001600160e01b0319831614610978565b6000808311611c3f576000610c3e565b61019a5461019154610c3e91859185612918565b6001600160a01b038316611cb55760405162461bcd60e51b8152602060048201526024808201527f45524332303a20617070726f76652066726f6d20746865207a65726f206164646044820152637265737360e01b6064820152608401610a85565b6001600160a01b038216611d165760405162461bcd60e51b815260206004820152602260248201527f45524332303a20617070726f766520746f20746865207a65726f206164647265604482015261737360f01b6064820152608401610a85565b6001600160a01b0383811660008181526034602090815260408083209487168084529482529182902085905590518481527f8c5be1e5ebec7d5bd14f71427d1e84f3dd0314c0f7b2291e5b200ac8c7c3b925910160405180910390a3505050565b6000808311611d87576000610c3e565b6101915461019a54610c3e91859185612918565b610e228133612975565b6000611db1848461199b565b90506000198114611a3d5781811015611e0c5760405162461bcd60e51b815260206004820152601d60248201527f45524332303a20696e73756666696369656e7420616c6c6f77616e63650000006044820152606401610a85565b611a3d8484848403611c53565b6001600160a01b038316611e7d5760405162461bcd60e51b815260206004820152602560248201527f45524332303a207472616e736665722066726f6d20746865207a65726f206164604482015264647265737360d81b6064820152608401610a85565b6001600160a01b038216611edf5760405162461bcd60e51b815260206004820152602360248201527f45524332303a207472616e7366657220746f20746865207a65726f206164647260448201526265737360e81b6064820152608401610a85565b6001600160a01b03831660009081526033602052604090205481811015611f575760405162461bcd60e51b815260206004820152602660248201527f45524332303a207472616e7366657220616d6f756e7420657863656564732062604482015265616c616e636560d01b6064820152608401610a85565b6001600160a01b0380851660008181526033602052604080822086860390559286168082529083902080548601905591517fddf252ad1be2c89b69c2b068fc378daa952ba7f163c4a11628f55a4df523b3ef90611fb79086815260200190565b60405180910390a3611a3d565b600080611fcf6114d3565b9050826004811115611fe357611fe36139b7565b816004811115611ff557611ff56139b7565b146120185760048160405163567dfef960e01b8152600401610a85929190613d49565b600061202c6065546001600160a01b031690565b6040516370a0823160e01b81523060048201529091506001600160a01b038216906370a0823190602401602060405180830381865afa158015612073573d6000803e3d6000fd5b505050506040513d601f19601f820116820180604052508101906120979190613adf565b9250826000036120ba57604051634a2ccc4360e01b815260040160405180910390fd5b610193546120d5906001600160a01b038381169116856129ce565b5050919050565b6120e682826129fe565b600082815260fb60205260409020610cf19082612a84565b6121088282612a99565b600082815260fb60205260409020610cf19082612b00565b600061212a6114d3565b90506002816004811115612140576121406139b7565b1461216057806040516336100b6760e11b8152600401610a8591906139ef565b61019b5460006121708285613d64565b61019a549091506000612182866110de565b61019a819055610193805460ff60a01b1916600160a01b17905560408051888152602081018790529192507f502833ea9eb26966767980111b75e4b8e013aeea7b9493478424afc7869399c4910160405180910390a16000831215612230577f727586bb3240e37cfc23d9c04f5d2c8f8c85602f6be89e0a8698e1a5a4c891d0848761220d86613b60565b6040805193845260208401929092529082015260600160405180910390a161226d565b600083131561226d576040518381527f8a335823c2fa2c1e28bd8d65eb9cbe0194f76293b1626a460597adc993d606cd9060200160405180910390a15b60408051838152602081018390527f945c1c4e99aa89f648fbfe3df471b916f719e16d960fcec0737d4d56bd696838910160405180910390a1505050505050565b6040516001600160a01b0380851660248301528316604482015260648101829052611a3d9085906323b872dd60e01b906084015b60408051601f198184030181529190526020810180516001600160e01b03166001600160e01b031990931692909217909152612b15565b612321612be7565b61015f805460ff191690557f5db9ee0a495bf2e6ff9c91a7834c1ba4fdd244a5e8aa4e537bd38aeae4b073aa335b6040516001600160a01b03909116815260200160405180910390a1565b6101995461019b546001600160a01b038316600090815261019d60205260408120549092919081831115806123a45750806101965411155b156123b457506000949350505050565b600081610196546123c59190613b7c565b905060006123d38486613b7c565b90508082116123e257816123e4565b805b979650505050505050565b600261012d54036124425760405162461bcd60e51b815260206004820152601f60248201527f5265656e7472616e637947756172643a207265656e7472616e742063616c6c006044820152606401610a85565b600261012d55565b61015f5460ff16156124915760405162461bcd60e51b815260206004820152601060248201526f14185d5cd8589b194e881c185d5cd95960821b6044820152606401610a85565b565b61019254604051630808f3eb60e01b81526001600160a01b0384811660048301526000921690630808f3eb90602401602060405180830381865afa1580156124df573d6000803e3d6000fd5b505050506040513d601f19601f820116820180604052508101906125039190613b93565b61252b5760405163c8f9bd5960e01b81526001600160a01b0384166004820152602401610a85565b6001600160a01b03821661255257604051631abcef9360e21b815260040160405180910390fd5b836000036125735760405163836843a560e01b815260040160405180910390fd5b600061257d6114d3565b90506001816004811115612593576125936139b7565b146125b65760018160405163567dfef960e01b8152600401610a85929190613d49565b6125bf8461236c565b85111561260e5760405162461bcd60e51b815260206004820152601e60248201527f455243343632363a206465706f736974206d6f7265207468616e206d617800006044820152606401610a85565b600061261985611a43565b905080861015612646576040516313ed593f60e11b81526004810182905260248101879052604401610a85565b61265285858889612c31565b8561019b60008282546126659190613b48565b90915550506001600160a01b038516600090815261019d602052604081208054889290612693908490613b48565b90915550959695505050505050565b600161012d55565b60008080600019858709858702925082811083820303915050806000036126e4578382816126da576126da613cc3565b0492505050610c3e565b8084116126f057600080fd5b60008486880960026001871981018816978890046003810283188082028403028082028403028082028403028082028403028082028403029081029092039091026000889003889004909101858311909403939093029303949094049190911702949350505050565b61276161244a565b61015f805460ff191660011790557f62e78cea01bee320cd4e420270b5ea74000d11b0c9f74754ebdbfc544b05a25861234f3390565b600054610100900460ff166127be5760405162461bcd60e51b8152600401610a8590613da3565b612491612caf565b600054610100900460ff166127ed5760405162461bcd60e51b8152600401610a8590613da3565b610e2281612ce3565b600054610100900460ff1661281d5760405162461bcd60e51b8152600401610a8590613da3565b610d708282612d68565b600054610100900460ff1661284e5760405162461bcd60e51b8152600401610a8590613da3565b612491612db6565b6000610c3e8383612ddd565b826001600160a01b0316856001600160a01b03161461288657612886838683611da5565b6128908382612e07565b6065546128a7906001600160a01b031685846129ce565b826001600160a01b0316846001600160a01b0316866001600160a01b03167ffbde797d201c681b91056529119e0b02407c7bb96a4a2c75c01fc9667232c8db85856040516128ff929190918252602082015260400190565b60405180910390a45050505050565b6000610978825490565b6000806129268686866126aa565b9050600183600281111561293c5761293c6139b7565b14801561295957506000848061295457612954613cc3565b868809115b1561296c57612969600182613b48565b90505b95945050505050565b61297f8282611499565b610d705761298c81612f3b565b612997836020612f4d565b6040516020016129a8929190613dee565b60408051601f198184030181529082905262461bcd60e51b8252610a85916004016136a3565b6040516001600160a01b038316602482015260448101829052610cf190849063a9059cbb60e01b906064016122e2565b612a088282611499565b610d7057600082815260c9602090815260408083206001600160a01b03851684529091529020805460ff19166001179055612a403390565b6001600160a01b0316816001600160a01b0316837f2f8788117e7eff1d82e926ec794901d17c78024a50270940304540a733656f0d60405160405180910390a45050565b6000610c3e836001600160a01b0384166130e9565b612aa38282611499565b15610d7057600082815260c9602090815260408083206001600160a01b0385168085529252808320805460ff1916905551339285917ff6391f5c32d9c69d2a47ea670b442974b53935d1edc7fd64eb21e047a839171b9190a45050565b6000610c3e836001600160a01b038416613138565b6000612b6a826040518060400160405280602081526020017f5361666545524332303a206c6f772d6c6576656c2063616c6c206661696c6564815250856001600160a01b031661322b9092919063ffffffff16565b805190915015610cf15780806020019051810190612b889190613b93565b610cf15760405162461bcd60e51b815260206004820152602a60248201527f5361666545524332303a204552433230206f7065726174696f6e20646964206e6044820152691bdd081cdd58d8d9595960b21b6064820152608401610a85565b61015f5460ff166124915760405162461bcd60e51b815260206004820152601460248201527314185d5cd8589b194e881b9bdd081c185d5cd95960621b6044820152606401610a85565b606554612c49906001600160a01b03168530856122ae565b612c53838261323a565b826001600160a01b0316846001600160a01b03167fdcbc1c05240f31ff3ad067ef1ee35ce4997762752e3a095284754544f4c709d78484604051612ca1929190918252602082015260400190565b60405180910390a350505050565b600054610100900460ff16612cd65760405162461bcd60e51b8152600401610a8590613da3565b61015f805460ff19169055565b600054610100900460ff16612d0a5760405162461bcd60e51b8152600401610a8590613da3565b600080612d16836132fb565b9150915081612d26576012612d28565b805b606580546001600160a01b039095166001600160a01b031960ff93909316600160a01b02929092166001600160a81b031990951694909417179092555050565b600054610100900460ff16612d8f5760405162461bcd60e51b8152600401610a8590613da3565b8151612da2906036906020850190613540565b508051610cf1906037906020840190613540565b600054610100900460ff166126a25760405162461bcd60e51b8152600401610a8590613da3565b6000826000018281548110612df457612df4613e63565b9060005260206000200154905092915050565b6001600160a01b038216612e675760405162461bcd60e51b815260206004820152602160248201527f45524332303a206275726e2066726f6d20746865207a65726f206164647265736044820152607360f81b6064820152608401610a85565b6001600160a01b03821660009081526033602052604090205481811015612edb5760405162461bcd60e51b815260206004820152602260248201527f45524332303a206275726e20616d6f756e7420657863656564732062616c616e604482015261636560f01b6064820152608401610a85565b6001600160a01b03831660008181526033602090815260408083208686039055603580548790039055518581529192917fddf252ad1be2c89b69c2b068fc378daa952ba7f163c4a11628f55a4df523b3ef910160405180910390a3505050565b60606109786001600160a01b03831660145b60606000612f5c836002613cfb565b612f67906002613b48565b67ffffffffffffffff811115612f7f57612f7f61381b565b6040519080825280601f01601f191660200182016040528015612fa9576020820181803683370190505b509050600360fc1b81600081518110612fc457612fc4613e63565b60200101906001600160f81b031916908160001a905350600f60fb1b81600181518110612ff357612ff3613e63565b60200101906001600160f81b031916908160001a9053506000613017846002613cfb565b613022906001613b48565b90505b600181111561309a576f181899199a1a9b1b9c1cb0b131b232b360811b85600f166010811061305657613056613e63565b1a60f81b82828151811061306c5761306c613e63565b60200101906001600160f81b031916908160001a90535060049490941c9361309381613e79565b9050613025565b508315610c3e5760405162461bcd60e51b815260206004820181905260248201527f537472696e67733a20686578206c656e67746820696e73756666696369656e746044820152606401610a85565b600081815260018301602052604081205461313057508154600181810184556000848152602080822090930184905584548482528286019093526040902091909155610978565b506000610978565b6000818152600183016020526040812054801561322157600061315c600183613b7c565b855490915060009061317090600190613b7c565b90508181146131d557600086600001828154811061319057613190613e63565b90600052602060002001549050808760000184815481106131b3576131b3613e63565b6000918252602080832090910192909255918252600188019052604090208390555b85548690806131e6576131e6613e90565b600190038181906000526020600020016000905590558560010160008681526020019081526020016000206000905560019350505050610978565b6000915050610978565b6060611a7b84846000856133d7565b6001600160a01b0382166132905760405162461bcd60e51b815260206004820152601f60248201527f45524332303a206d696e7420746f20746865207a65726f2061646472657373006044820152606401610a85565b80603560008282546132a29190613b48565b90915550506001600160a01b0382166000818152603360209081526040808320805486019055518481527fddf252ad1be2c89b69c2b068fc378daa952ba7f163c4a11628f55a4df523b3ef910160405180910390a35050565b60408051600481526024810182526020810180516001600160e01b031663313ce56760e01b17905290516000918291829182916001600160a01b0387169161334291613ea6565b600060405180830381855afa9150503d806000811461337d576040519150601f19603f3d011682016040523d82523d6000602084013e613382565b606091505b509150915081801561339657506020815110155b156133ca576000818060200190518101906133b19190613adf565b905060ff81116133c8576001969095509350505050565b505b5060009485945092505050565b6060824710156134385760405162461bcd60e51b815260206004820152602660248201527f416464726573733a20696e73756666696369656e742062616c616e636520666f6044820152651c8818d85b1b60d21b6064820152608401610a85565b600080866001600160a01b031685876040516134549190613ea6565b60006040518083038185875af1925050503d8060008114613491576040519150601f19603f3d011682016040523d82523d6000602084013e613496565b606091505b50915091506123e4878383876060831561351157825160000361350a576001600160a01b0385163b61350a5760405162461bcd60e51b815260206004820152601d60248201527f416464726573733a2063616c6c20746f206e6f6e2d636f6e74726163740000006044820152606401610a85565b5081611a7b565b611a7b83838151156135265781518083602001fd5b8060405162461bcd60e51b8152600401610a8591906136a3565b82805461354c90613af8565b90600052602060002090601f01602090048101928261356e57600085556135b4565b82601f1061358757805160ff19168380011785556135b4565b828001600101855582156135b4579182015b828111156135b4578251825591602001919060010190613599565b506135c0929150613638565b5090565b8280546135d090613af8565b90600052602060002090601f0160209004810192826135f257600085556135b4565b82601f1061360b5782800160ff198235161785556135b4565b828001600101855582156135b4579182015b828111156135b457823582559160200191906001019061361d565b5b808211156135c05760008155600101613639565b60006020828403121561365f57600080fd5b81356001600160e01b031981168114610c3e57600080fd5b60005b8381101561369257818101518382015260200161367a565b83811115611a3d5750506000910152565b60208152600082518060208401526136c2816040850160208701613677565b601f01601f19169190910160400192915050565b6000602082840312156136e857600080fd5b5035919050565b6001600160a01b0381168114610e2257600080fd5b803561370f816136ef565b919050565b6000806040838503121561372757600080fd5b8235613732816136ef565b946020939093013593505050565b6000806040838503121561375357600080fd5b50508035926020909101359150565b60008060006060848603121561377757600080fd5b8335613782816136ef565b92506020840135613792816136ef565b929592945050506040919091013590565b600080604083850312156137b657600080fd5b8235915060208301356137c8816136ef565b809150509250929050565b8015158114610e2257600080fd5b6000602082840312156137f357600080fd5b8135610c3e816137d3565b60006020828403121561381057600080fd5b8135610c3e816136ef565b634e487b7160e01b600052604160045260246000fd5b600082601f83011261384257600080fd5b813567ffffffffffffffff8082111561385d5761385d61381b565b604051601f8301601f19908116603f011681019082821181831017156138855761388561381b565b8160405283815286602085880101111561389e57600080fd5b836020870160208301376000602085830101528094505050505092915050565b60008060008060008060008060008060006101608c8e0312156138e057600080fd5b6138e98c613704565b9a5067ffffffffffffffff8060208e0135111561390557600080fd5b6139158e60208f01358f01613831565b9a508060408e0135111561392857600080fd5b6139388e60408f01358f01613831565b99508060608e0135111561394b57600080fd5b5061395c8d60608e01358e01613831565b975061396a60808d01613704565b965061397860a08d01613704565b955061398660c08d01613704565b945060e08c013593506101008c013592506101208c013591506101408c013590509295989b509295989b9093969950565b634e487b7160e01b600052602160045260246000fd5b600581106139eb57634e487b7160e01b600052602160045260246000fd5b9052565b6020810161097882846139cd565b600080600060608486031215613a1257600080fd5b833592506020840135613a24816136ef565b91506040840135613a34816136ef565b809150509250925092565b60008060408385031215613a5257600080fd5b8235613a5d816136ef565b915060208301356137c8816136ef565b60008060208385031215613a8057600080fd5b823567ffffffffffffffff80821115613a9857600080fd5b818501915085601f830112613aac57600080fd5b813581811115613abb57600080fd5b866020828501011115613acd57600080fd5b60209290920196919550909350505050565b600060208284031215613af157600080fd5b5051919050565b600181811c90821680613b0c57607f821691505b602082108103613b2c57634e487b7160e01b600052602260045260246000fd5b50919050565b634e487b7160e01b600052601160045260246000fd5b60008219821115613b5b57613b5b613b32565b500190565b6000600160ff1b8201613b7557613b75613b32565b5060000390565b600082821015613b8e57613b8e613b32565b500390565b600060208284031215613ba557600080fd5b8151610c3e816137d3565b600060208284031215613bc257600080fd5b815160ff81168114610c3e57600080fd5b600181815b80851115613c0e578160001904821115613bf457613bf4613b32565b80851615613c0157918102915b93841c9390800290613bd8565b509250929050565b600082613c2557506001610978565b81613c3257506000610978565b8160018114613c485760028114613c5257613c6e565b6001915050610978565b60ff841115613c6357613c63613b32565b50506001821b610978565b5060208310610133831016604e8410600b8410161715613c91575081810a610978565b613c9b8383613bd3565b8060001904821115613caf57613caf613b32565b029392505050565b6000610c3e8383613c16565b634e487b7160e01b600052601260045260246000fd5b600082613cf657634e487b7160e01b600052601260045260246000fd5b500490565b6000816000190483118215151615613d1557613d15613b32565b500290565b60208152816020820152818360408301376000818301604090810191909152601f909201601f19160101919050565b60408101613d5782856139cd565b610c3e60208301846139cd565b60008083128015600160ff1b850184121615613d8257613d82613b32565b6001600160ff1b0384018313811615613d9d57613d9d613b32565b50500390565b6020808252602b908201527f496e697469616c697a61626c653a20636f6e7472616374206973206e6f74206960408201526a6e697469616c697a696e6760a81b606082015260800190565b7f416363657373436f6e74726f6c3a206163636f756e7420000000000000000000815260008351613e26816017850160208801613677565b7001034b99036b4b9b9b4b733903937b6329607d1b6017918401918201528351613e57816028840160208801613677565b01602801949350505050565b634e487b7160e01b600052603260045260246000fd5b600081613e8857613e88613b32565b506000190190565b634e487b7160e01b600052603160045260246000fd5b60008251613eb8818460208701613677565b919091019291505056feb1e380c01db319c0153ea3bb4fbd0ab6639cc088e3bf8cd5319b128f33a2f9e8a2646970667358221220011829fd060f343ccf66c81f1a858af0566d05d98b2a3385b302ea83326fb2f264736f6c634300080e0033",
    "linkReferences": {}
  },
  "methodIdentifiers": {
    "DEFAULT_ADMIN_ROLE()": "a217fddf",
    "DEV()": "c1eb5ddd",
    "KONKRETE()": "e35d33f6",
    "TIMELOCK()": "7aadef8b",
    "allowance(address,address)": "dd62ed3e",
    "approve(address,uint256)": "095ea7b3",
    "asset()": "38d52e0f",
    "balanceOf(address)": "70a08231",
    "collectCapital()": "29d29799",
    "collectUnclaimedFunds()": "d406008d",
    "collectedCapital()": "8e95bab2",
    "convertToAssets(uint256)": "07a2d13a",
    "convertToShares(uint256)": "c6e6f592",
    "dataBase()": "5cb5e41d",
    "decimals()": "313ce567",
    "decreaseAllowance(address,uint256)": "a457c2d7",
    "deposit(uint256,address)": "6e553f65",
    "depositsStart()": "81d5a8c1",
    "depositsStop()": "4f2bef3e",
    "emptyCapitalBack(bool)": "3670e7b1",
    "getRoleAdmin(bytes32)": "248a9ca3",
    "getRoleMember(bytes32,uint256)": "9010d07c",
    "getRoleMemberCount(bytes32)": "ca15c873",
    "getStep()": "9e5288a0",
    "grantRole(bytes32,address)": "2f2ff15d",
    "hardCap()": "fb86a404",
    "hasRole(bytes32,address)": "91d14854",
    "increaseAllowance(address,uint256)": "39509351",
    "initialize(address,string,string,string,address,address,address,uint256,uint256,uint256,uint256)": "8cd51106",
    "maxDeposit(address)": "402d267d",
    "maxDepositPerUser()": "82e5310c",
    "maxMint(address)": "c63d75b6",
    "maxRedeem(address)": "d905777e",
    "maxWithdraw(address)": "ce96cb77",
    "minInvest(address)": "e0f41f3a",
    "minInvestPerUser()": "4aea1bf8",
    "mint(uint256,address)": "94bf804d",
    "name()": "06fdde03",
    "originalPrice()": "76a24f25",
    "paid(address)": "a340cf79",
    "pause()": "8456cb59",
    "paused()": "5c975abb",
    "previewDeposit(uint256)": "ef8b30f7",
    "previewMint(uint256)": "b3d7f6b9",
    "previewRedeem(uint256)": "4cdad506",
    "previewWithdraw(uint256)": "0a28a477",
    "priceImpact(uint256)": "84061853",
    "redeem(uint256,address,address)": "ba087652",
    "refundCapital(uint256)": "373cad57",
    "refunded()": "12f53950",
    "renounceRole(bytes32,address)": "36568abe",
    "revokeRole(bytes32,address)": "d547741f",
    "setCaps(uint256,uint256)": "212bf316",
    "setDatabase(address)": "f5420374",
    "setDepositLimitsPerUser(uint256,uint256)": "1a28bc6e",
    "setTimes(uint256,uint256)": "22434836",
    "setTreasury(address)": "f0f44260",
    "setVaultURI(string)": "dfd5473c",
    "softCap()": "906a26e0",
    "supportsInterface(bytes4)": "01ffc9a7",
    "symbol()": "95d89b41",
    "tokenPrice()": "7ff9b596",
    "totalAssets()": "01e1d114",
    "totalSupply()": "18160ddd",
    "transfer(address,uint256)": "a9059cbb",
    "transferFrom(address,address,uint256)": "23b872dd",
    "treasury()": "61d027b3",
    "unpause()": "3f4ba83a",
    "updateInterest(int256)": "5a67f6cb",
    "vaultURI()": "5dc5eaf3",
    "withdraw(uint256,address,address)": "b460af94"
  },
  "id": 2
}