{
  "abi": [
    {
      "inputs": [],
      "stateMutability": "nonpayable",
      "type": "constructor"
    },
    {
      "inputs": [
        {
          "internalType": "uint256",
          "name": "minimum",
          "type": "uint256"
        },
        {
          "internalType": "uint256",
          "name": "amount",
          "type": "uint256"
        }
      ],
      "name": "BelowMinimumInvest",
      "type": "error"
    },
    {
      "inputs": [
        {
          "internalType": "int256",
          "name": "interest",
          "type": "int256"
        }
      ],
      "name": "InmpossibleInterest",
      "type": "error"
    },
    {
      "inputs": [
        {
          "internalType": "address",
          "name": "msgSender",
          "type": "address"
        }
      ],
      "name": "MsgSenderUnauthorized",
      "type": "error"
    },
    {
      "inputs": [
        {
          "internalType": "int256",
          "name": "capitalAndInterest",
          "type": "int256"
        }
      ],
      "name": "NegativeCapital",
      "type": "error"
    },
    {
      "inputs": [
        {
          "internalType": "enum SaleStep",
          "name": "expected",
          "type": "uint8"
        },
        {
          "internalType": "enum SaleStep",
          "name": "currentStep",
          "type": "uint8"
        }
      ],
      "name": "NotExpectedStep",
      "type": "error"
    },
    {
      "inputs": [
        {
          "internalType": "address",
          "name": "receiver",
          "type": "address"
        }
      ],
      "name": "ReceiverUnauthorized",
      "type": "error"
    },
    {
      "inputs": [],
      "name": "TryToCollectZeroFund",
      "type": "error"
    },
    {
      "inputs": [],
      "name": "WrongCaps",
      "type": "error"
    },
    {
      "inputs": [],
      "name": "WrongDatabase",
      "type": "error"
    },
    {
      "inputs": [
        {
          "internalType": "uint256",
          "name": "expected1",
          "type": "uint256"
        },
        {
          "internalType": "uint256",
          "name": "expected2",
          "type": "uint256"
        },
        {
          "internalType": "uint256",
          "name": "current",
          "type": "uint256"
        }
      ],
      "name": "WrongDecimalNumber",
      "type": "error"
    },
    {
      "inputs": [
        {
          "internalType": "uint256",
          "name": "max",
          "type": "uint256"
        },
        {
          "internalType": "uint256",
          "name": "amountWanted",
          "type": "uint256"
        }
      ],
      "name": "WrongMaxDepositPerUser",
      "type": "error"
    },
    {
      "inputs": [
        {
          "internalType": "uint256",
          "name": "maxDeposit",
          "type": "uint256"
        },
        {
          "internalType": "uint256",
          "name": "minInvest",
          "type": "uint256"
        }
      ],
      "name": "WrongMinDepositPerUser",
      "type": "error"
    },
    {
      "inputs": [],
      "name": "WrongSaleTimeStamps",
      "type": "error"
    },
    {
      "inputs": [
        {
          "internalType": "enum SaleStep",
          "name": "currentStep",
          "type": "uint8"
        }
      ],
      "name": "WrongStep",
      "type": "error"
    },
    {
      "inputs": [
        {
          "internalType": "address",
          "name": "treasury",
          "type": "address"
        }
      ],
      "name": "WrongTreasury",
      "type": "error"
    },
    {
      "inputs": [
        {
          "internalType": "string",
          "name": "vaultURI_",
          "type": "string"
        }
      ],
      "name": "WrongVaultURI",
      "type": "error"
    },
    {
      "anonymous": false,
      "inputs": [
        {
          "indexed": true,
          "internalType": "address",
          "name": "owner",
          "type": "address"
        },
        {
          "indexed": true,
          "internalType": "address",
          "name": "spender",
          "type": "address"
        },
        {
          "indexed": false,
          "internalType": "uint256",
          "name": "value",
          "type": "uint256"
        }
      ],
      "name": "Approval",
      "type": "event"
    },
    {
      "anonymous": false,
      "inputs": [
        {
          "indexed": false,
          "internalType": "uint256",
          "name": "amount",
          "type": "uint256"
        }
      ],
      "name": "CapitalCollected",
      "type": "event"
    },
    {
      "anonymous": false,
      "inputs": [
        {
          "indexed": false,
          "internalType": "uint256",
          "name": "originalCapital",
          "type": "uint256"
        },
        {
          "indexed": false,
          "internalType": "uint256",
          "name": "remainingCapital",
          "type": "uint256"
        },
        {
          "indexed": false,
          "internalType": "uint256",
          "name": "loss",
          "type": "uint256"
        }
      ],
      "name": "CapitalLoss",
      "type": "event"
    },
    {
      "anonymous": false,
      "inputs": [
        {
          "indexed": false,
          "internalType": "uint256",
          "name": "amount",
          "type": "uint256"
        },
        {
          "indexed": false,
          "internalType": "uint256",
          "name": "collected",
          "type": "uint256"
        }
      ],
      "name": "CapitalRefunded",
      "type": "event"
    },
    {
      "anonymous": false,
      "inputs": [
        {
          "indexed": false,
          "internalType": "uint256",
          "name": "softCap",
          "type": "uint256"
        },
        {
          "indexed": false,
          "internalType": "uint256",
          "name": "hardCap",
          "type": "uint256"
        }
      ],
      "name": "CapsUpdated",
      "type": "event"
    },
    {
      "anonymous": false,
      "inputs": [
        {
          "indexed": true,
          "internalType": "address",
          "name": "sender",
          "type": "address"
        },
        {
          "indexed": true,
          "internalType": "address",
          "name": "owner",
          "type": "address"
        },
        {
          "indexed": false,
          "internalType": "uint256",
          "name": "assets",
          "type": "uint256"
        },
        {
          "indexed": false,
          "internalType": "uint256",
          "name": "shares",
          "type": "uint256"
        }
      ],
      "name": "Deposit",
      "type": "event"
    },
    {
      "anonymous": false,
      "inputs": [
        {
          "indexed": false,
          "internalType": "uint8",
          "name": "version",
          "type": "uint8"
        }
      ],
      "name": "Initialized",
      "type": "event"
    },
    {
      "anonymous": false,
      "inputs": [
        {
          "indexed": false,
          "internalType": "uint256",
          "name": "refunded",
          "type": "uint256"
        }
      ],
      "name": "InterestRefunded",
      "type": "event"
    },
    {
      "anonymous": false,
      "inputs": [
        {
          "indexed": false,
          "internalType": "address",
          "name": "from",
          "type": "address"
        },
        {
          "indexed": false,
          "internalType": "int256",
          "name": "amount",
          "type": "int256"
        }
      ],
      "name": "InterestUpdated",
      "type": "event"
    },
    {
      "anonymous": false,
      "inputs": [
        {
          "indexed": false,
          "internalType": "address",
          "name": "account",
          "type": "address"
        }
      ],
      "name": "Paused",
      "type": "event"
    },
    {
      "anonymous": false,
      "inputs": [
        {
          "indexed": false,
          "internalType": "uint256",
          "name": "oldPrice",
          "type": "uint256"
        },
        {
          "indexed": false,
          "internalType": "uint256",
          "name": "newPrice",
          "type": "uint256"
        }
      ],
      "name": "PriceUpdated",
      "type": "event"
    },
    {
      "anonymous": false,
      "inputs": [
        {
          "indexed": true,
          "internalType": "bytes32",
          "name": "role",
          "type": "bytes32"
        },
        {
          "indexed": true,
          "internalType": "bytes32",
          "name": "previousAdminRole",
          "type": "bytes32"
        },
        {
          "indexed": true,
          "internalType": "bytes32",
          "name": "newAdminRole",
          "type": "bytes32"
        }
      ],
      "name": "RoleAdminChanged",
      "type": "event"
    },
    {
      "anonymous": false,
      "inputs": [
        {
          "indexed": true,
          "internalType": "bytes32",
          "name": "role",
          "type": "bytes32"
        },
        {
          "indexed": true,
          "internalType": "address",
          "name": "account",
          "type": "address"
        },
        {
          "indexed": true,
          "internalType": "address",
          "name": "sender",
          "type": "address"
        }
      ],
      "name": "RoleGranted",
      "type": "event"
    },
    {
      "anonymous": false,
      "inputs": [
        {
          "indexed": true,
          "internalType": "bytes32",
          "name": "role",
          "type": "bytes32"
        },
        {
          "indexed": true,
          "internalType": "address",
          "name": "account",
          "type": "address"
        },
        {
          "indexed": true,
          "internalType": "address",
          "name": "sender",
          "type": "address"
        }
      ],
      "name": "RoleRevoked",
      "type": "event"
    },
    {
      "anonymous": false,
      "inputs": [
        {
          "indexed": false,
          "internalType": "uint256",
          "name": "depositsStart",
          "type": "uint256"
        },
        {
          "indexed": false,
          "internalType": "uint256",
          "name": "depositsStop",
          "type": "uint256"
        }
      ],
      "name": "TimesUpdated",
      "type": "event"
    },
    {
      "anonymous": false,
      "inputs": [
        {
          "indexed": false,
          "internalType": "address",
          "name": "from",
          "type": "address"
        },
        {
          "indexed": false,
          "internalType": "uint256",
          "name": "amount",
          "type": "uint256"
        }
      ],
      "name": "TotalRefunded",
      "type": "event"
    },
    {
      "anonymous": false,
      "inputs": [
        {
          "indexed": true,
          "internalType": "address",
          "name": "from",
          "type": "address"
        },
        {
          "indexed": true,
          "internalType": "address",
          "name": "to",
          "type": "address"
        },
        {
          "indexed": false,
          "internalType": "uint256",
          "name": "value",
          "type": "uint256"
        }
      ],
      "name": "Transfer",
      "type": "event"
    },
    {
      "anonymous": false,
      "inputs": [
        {
          "indexed": false,
          "internalType": "address",
          "name": "oldTreasury",
          "type": "address"
        },
        {
          "indexed": false,
          "internalType": "address",
          "name": "newTreasury",
          "type": "address"
        }
      ],
      "name": "TreasuryUpdated",
      "type": "event"
    },
    {
      "anonymous": false,
      "inputs": [
        {
          "indexed": false,
          "internalType": "uint256",
          "name": "amount",
          "type": "uint256"
        }
      ],
      "name": "UnclaimedFundsCollected",
      "type": "event"
    },
    {
      "anonymous": false,
      "inputs": [
        {
          "indexed": false,
          "internalType": "address",
          "name": "account",
          "type": "address"
        }
      ],
      "name": "Unpaused",
      "type": "event"
    },
    {
      "anonymous": false,
      "inputs": [
        {
          "indexed": false,
          "internalType": "string",
          "name": "vaultURI_",
          "type": "string"
        }
      ],
      "name": "VaultURIUpdated",
      "type": "event"
    },
    {
      "anonymous": false,
      "inputs": [
        {
          "indexed": true,
          "internalType": "address",
          "name": "sender",
          "type": "address"
        },
        {
          "indexed": true,
          "internalType": "address",
          "name": "receiver",
          "type": "address"
        },
        {
          "indexed": true,
          "internalType": "address",
          "name": "owner",
          "type": "address"
        },
        {
          "indexed": false,
          "internalType": "uint256",
          "name": "assets",
          "type": "uint256"
        },
        {
          "indexed": false,
          "internalType": "uint256",
          "name": "shares",
          "type": "uint256"
        }
      ],
      "name": "Withdraw",
      "type": "event"
    },
    {
      "inputs": [],
      "name": "DEFAULT_ADMIN_ROLE",
      "outputs": [
        {
          "internalType": "bytes32",
          "name": "",
          "type": "bytes32"
        }
      ],
      "stateMutability": "view",
      "type": "function"
    },
    {
      "inputs": [],
      "name": "DEV",
      "outputs": [
        {
          "internalType": "bytes32",
          "name": "",
          "type": "bytes32"
        }
      ],
      "stateMutability": "view",
      "type": "function"
    },
    {
      "inputs": [],
      "name": "KONKRETE",
      "outputs": [
        {
          "internalType": "bytes32",
          "name": "",
          "type": "bytes32"
        }
      ],
      "stateMutability": "view",
      "type": "function"
    },
    {
      "inputs": [],
      "name": "TIMELOCK",
      "outputs": [
        {
          "internalType": "bytes32",
          "name": "",
          "type": "bytes32"
        }
      ],
      "stateMutability": "view",
      "type": "function"
    },
    {
      "inputs": [
        {
          "internalType": "address",
          "name": "owner",
          "type": "address"
        },
        {
          "internalType": "address",
          "name": "spender",
          "type": "address"
        }
      ],
      "name": "allowance",
      "outputs": [
        {
          "internalType": "uint256",
          "name": "",
          "type": "uint256"
        }
      ],
      "stateMutability": "view",
      "type": "function"
    },
    {
      "inputs": [
        {
          "internalType": "uint256",
          "name": "priceRaiseOrLower",
          "type": "uint256"
        }
      ],
      "name": "amountImpact",
      "outputs": [
        {
          "internalType": "uint256",
          "name": "",
          "type": "uint256"
        }
      ],
      "stateMutability": "view",
      "type": "function"
    },
    {
      "inputs": [
        {
          "internalType": "address",
          "name": "spender",
          "type": "address"
        },
        {
          "internalType": "uint256",
          "name": "amount",
          "type": "uint256"
        }
      ],
      "name": "approve",
      "outputs": [
        {
          "internalType": "bool",
          "name": "",
          "type": "bool"
        }
      ],
      "stateMutability": "nonpayable",
      "type": "function"
    },
    {
      "inputs": [],
      "name": "asset",
      "outputs": [
        {
          "internalType": "address",
          "name": "",
          "type": "address"
        }
      ],
      "stateMutability": "view",
      "type": "function"
    },
    {
      "inputs": [
        {
          "internalType": "address",
          "name": "account",
          "type": "address"
        }
      ],
      "name": "balanceOf",
      "outputs": [
        {
          "internalType": "uint256",
          "name": "",
          "type": "uint256"
        }
      ],
      "stateMutability": "view",
      "type": "function"
    },
    {
      "inputs": [],
      "name": "collectCapital",
      "outputs": [
        {
          "internalType": "uint256",
          "name": "collected",
          "type": "uint256"
        }
      ],
      "stateMutability": "nonpayable",
      "type": "function"
    },
    {
      "inputs": [],
      "name": "collectUnclaimedFunds",
      "outputs": [
        {
          "internalType": "uint256",
          "name": "pendingFunds",
          "type": "uint256"
        }
      ],
      "stateMutability": "nonpayable",
      "type": "function"
    },
    {
      "inputs": [],
      "name": "collectedCapital",
      "outputs": [
        {
          "internalType": "uint256",
          "name": "",
          "type": "uint256"
        }
      ],
      "stateMutability": "view",
      "type": "function"
    },
    {
      "inputs": [
        {
          "internalType": "uint256",
          "name": "shares",
          "type": "uint256"
        }
      ],
      "name": "convertToAssets",
      "outputs": [
        {
          "internalType": "uint256",
          "name": "assets",
          "type": "uint256"
        }
      ],
      "stateMutability": "view",
      "type": "function"
    },
    {
      "inputs": [
        {
          "internalType": "uint256",
          "name": "assets",
          "type": "uint256"
        }
      ],
      "name": "convertToShares",
      "outputs": [
        {
          "internalType": "uint256",
          "name": "shares",
          "type": "uint256"
        }
      ],
      "stateMutability": "view",
      "type": "function"
    },
    {
      "inputs": [],
      "name": "dataBase",
      "outputs": [
        {
          "internalType": "contract IDatabase",
          "name": "",
          "type": "address"
        }
      ],
      "stateMutability": "view",
      "type": "function"
    },
    {
      "inputs": [],
      "name": "decimals",
      "outputs": [
        {
          "internalType": "uint8",
          "name": "",
          "type": "uint8"
        }
      ],
      "stateMutability": "view",
      "type": "function"
    },
    {
      "inputs": [
        {
          "internalType": "address",
          "name": "spender",
          "type": "address"
        },
        {
          "internalType": "uint256",
          "name": "subtractedValue",
          "type": "uint256"
        }
      ],
      "name": "decreaseAllowance",
      "outputs": [
        {
          "internalType": "bool",
          "name": "",
          "type": "bool"
        }
      ],
      "stateMutability": "nonpayable",
      "type": "function"
    },
    {
      "inputs": [
        {
          "internalType": "uint256",
          "name": "assets",
          "type": "uint256"
        },
        {
          "internalType": "address",
          "name": "receiver",
          "type": "address"
        }
      ],
      "name": "deposit",
      "outputs": [
        {
          "internalType": "uint256",
          "name": "",
          "type": "uint256"
        }
      ],
      "stateMutability": "nonpayable",
      "type": "function"
    },
    {
      "inputs": [],
      "name": "depositsStart",
      "outputs": [
        {
          "internalType": "uint256",
          "name": "",
          "type": "uint256"
        }
      ],
      "stateMutability": "view",
      "type": "function"
    },
    {
      "inputs": [],
      "name": "depositsStop",
      "outputs": [
        {
          "internalType": "uint256",
          "name": "",
          "type": "uint256"
        }
      ],
      "stateMutability": "view",
      "type": "function"
    },
    {
      "inputs": [
        {
          "internalType": "bytes32",
          "name": "role",
          "type": "bytes32"
        }
      ],
      "name": "getRoleAdmin",
      "outputs": [
        {
          "internalType": "bytes32",
          "name": "",
          "type": "bytes32"
        }
      ],
      "stateMutability": "view",
      "type": "function"
    },
    {
      "inputs": [
        {
          "internalType": "bytes32",
          "name": "role",
          "type": "bytes32"
        },
        {
          "internalType": "uint256",
          "name": "index",
          "type": "uint256"
        }
      ],
      "name": "getRoleMember",
      "outputs": [
        {
          "internalType": "address",
          "name": "",
          "type": "address"
        }
      ],
      "stateMutability": "view",
      "type": "function"
    },
    {
      "inputs": [
        {
          "internalType": "bytes32",
          "name": "role",
          "type": "bytes32"
        }
      ],
      "name": "getRoleMemberCount",
      "outputs": [
        {
          "internalType": "uint256",
          "name": "",
          "type": "uint256"
        }
      ],
      "stateMutability": "view",
      "type": "function"
    },
    {
      "inputs": [],
      "name": "getStep",
      "outputs": [
        {
          "internalType": "enum SaleStep",
          "name": "step",
          "type": "uint8"
        }
      ],
      "stateMutability": "view",
      "type": "function"
    },
    {
      "inputs": [
        {
          "internalType": "bytes32",
          "name": "role",
          "type": "bytes32"
        },
        {
          "internalType": "address",
          "name": "account",
          "type": "address"
        }
      ],
      "name": "grantRole",
      "outputs": [],
      "stateMutability": "nonpayable",
      "type": "function"
    },
    {
      "inputs": [],
      "name": "hardCap",
      "outputs": [
        {
          "internalType": "uint256",
          "name": "",
          "type": "uint256"
        }
      ],
      "stateMutability": "view",
      "type": "function"
    },
    {
      "inputs": [
        {
          "internalType": "bytes32",
          "name": "role",
          "type": "bytes32"
        },
        {
          "internalType": "address",
          "name": "account",
          "type": "address"
        }
      ],
      "name": "hasRole",
      "outputs": [
        {
          "internalType": "bool",
          "name": "",
          "type": "bool"
        }
      ],
      "stateMutability": "view",
      "type": "function"
    },
    {
      "inputs": [
        {
          "internalType": "address",
          "name": "spender",
          "type": "address"
        },
        {
          "internalType": "uint256",
          "name": "addedValue",
          "type": "uint256"
        }
      ],
      "name": "increaseAllowance",
      "outputs": [
        {
          "internalType": "bool",
          "name": "",
          "type": "bool"
        }
      ],
      "stateMutability": "nonpayable",
      "type": "function"
    },
    {
      "inputs": [
        {
          "internalType": "address",
          "name": "asset_",
          "type": "address"
        },
        {
          "internalType": "string",
          "name": "name_",
          "type": "string"
        },
        {
          "internalType": "string",
          "name": "symbol_",
          "type": "string"
        },
        {
          "internalType": "string",
          "name": "vaultURI_",
          "type": "string"
        },
        {
          "internalType": "address",
          "name": "multisig",
          "type": "address"
        },
        {
          "internalType": "contract IDatabase",
          "name": "dataBase_",
          "type": "address"
        },
        {
          "internalType": "uint256",
          "name": "softCap_",
          "type": "uint256"
        },
        {
          "internalType": "uint256",
          "name": "hardcap_",
          "type": "uint256"
        },
        {
          "internalType": "uint256",
          "name": "depositsStart_",
          "type": "uint256"
        },
        {
          "internalType": "uint256",
          "name": "depositsStop_",
          "type": "uint256"
        }
      ],
      "name": "initialize",
      "outputs": [],
      "stateMutability": "nonpayable",
      "type": "function"
    },
    {
      "inputs": [
        {
          "internalType": "address",
          "name": "user",
          "type": "address"
        }
      ],
      "name": "maxDeposit",
      "outputs": [
        {
          "internalType": "uint256",
          "name": "",
          "type": "uint256"
        }
      ],
      "stateMutability": "view",
      "type": "function"
    },
    {
      "inputs": [],
      "name": "maxDepositPerUser",
      "outputs": [
        {
          "internalType": "uint256",
          "name": "",
          "type": "uint256"
        }
      ],
      "stateMutability": "view",
      "type": "function"
    },
    {
      "inputs": [
        {
          "internalType": "address",
          "name": "user",
          "type": "address"
        }
      ],
      "name": "maxMint",
      "outputs": [
        {
          "internalType": "uint256",
          "name": "",
          "type": "uint256"
        }
      ],
      "stateMutability": "view",
      "type": "function"
    },
    {
      "inputs": [
        {
          "internalType": "address",
          "name": "owner",
          "type": "address"
        }
      ],
      "name": "maxRedeem",
      "outputs": [
        {
          "internalType": "uint256",
          "name": "",
          "type": "uint256"
        }
      ],
      "stateMutability": "view",
      "type": "function"
    },
    {
      "inputs": [
        {
          "internalType": "address",
          "name": "owner",
          "type": "address"
        }
      ],
      "name": "maxWithdraw",
      "outputs": [
        {
          "internalType": "uint256",
          "name": "",
          "type": "uint256"
        }
      ],
      "stateMutability": "view",
      "type": "function"
    },
    {
      "inputs": [
        {
          "internalType": "address",
          "name": "user",
          "type": "address"
        }
      ],
      "name": "minInvest",
      "outputs": [
        {
          "internalType": "uint256",
          "name": "",
          "type": "uint256"
        }
      ],
      "stateMutability": "view",
      "type": "function"
    },
    {
      "inputs": [],
      "name": "minInvestPerUser",
      "outputs": [
        {
          "internalType": "uint256",
          "name": "",
          "type": "uint256"
        }
      ],
      "stateMutability": "view",
      "type": "function"
    },
    {
      "inputs": [
        {
          "internalType": "uint256",
          "name": "shares",
          "type": "uint256"
        },
        {
          "internalType": "address",
          "name": "receiver",
          "type": "address"
        }
      ],
      "name": "mint",
      "outputs": [
        {
          "internalType": "uint256",
          "name": "",
          "type": "uint256"
        }
      ],
      "stateMutability": "nonpayable",
      "type": "function"
    },
    {
      "inputs": [],
      "name": "name",
      "outputs": [
        {
          "internalType": "string",
          "name": "",
          "type": "string"
        }
      ],
      "stateMutability": "view",
      "type": "function"
    },
    {
      "inputs": [],
      "name": "originalPrice",
      "outputs": [
        {
          "internalType": "uint256",
          "name": "",
          "type": "uint256"
        }
      ],
      "stateMutability": "view",
      "type": "function"
    },
    {
      "inputs": [],
      "name": "pause",
      "outputs": [],
      "stateMutability": "nonpayable",
      "type": "function"
    },
    {
      "inputs": [],
      "name": "paused",
      "outputs": [
        {
          "internalType": "bool",
          "name": "",
          "type": "bool"
        }
      ],
      "stateMutability": "view",
      "type": "function"
    },
    {
      "inputs": [
        {
          "internalType": "uint256",
          "name": "assets",
          "type": "uint256"
        }
      ],
      "name": "previewDeposit",
      "outputs": [
        {
          "internalType": "uint256",
          "name": "",
          "type": "uint256"
        }
      ],
      "stateMutability": "view",
      "type": "function"
    },
    {
      "inputs": [
        {
          "internalType": "uint256",
          "name": "shares",
          "type": "uint256"
        }
      ],
      "name": "previewMint",
      "outputs": [
        {
          "internalType": "uint256",
          "name": "",
          "type": "uint256"
        }
      ],
      "stateMutability": "view",
      "type": "function"
    },
    {
      "inputs": [
        {
          "internalType": "uint256",
          "name": "shares",
          "type": "uint256"
        }
      ],
      "name": "previewRedeem",
      "outputs": [
        {
          "internalType": "uint256",
          "name": "",
          "type": "uint256"
        }
      ],
      "stateMutability": "view",
      "type": "function"
    },
    {
      "inputs": [
        {
          "internalType": "uint256",
          "name": "assets",
          "type": "uint256"
        }
      ],
      "name": "previewWithdraw",
      "outputs": [
        {
          "internalType": "uint256",
          "name": "",
          "type": "uint256"
        }
      ],
      "stateMutability": "view",
      "type": "function"
    },
    {
      "inputs": [
        {
          "internalType": "uint256",
          "name": "amountOfInterest",
          "type": "uint256"
        }
      ],
      "name": "priceImpact",
      "outputs": [
        {
          "internalType": "uint256",
          "name": "",
          "type": "uint256"
        }
      ],
      "stateMutability": "view",
      "type": "function"
    },
    {
      "inputs": [
        {
          "internalType": "uint256",
          "name": "shares",
          "type": "uint256"
        },
        {
          "internalType": "address",
          "name": "receiver",
          "type": "address"
        },
        {
          "internalType": "address",
          "name": "owner",
          "type": "address"
        }
      ],
      "name": "redeem",
      "outputs": [
        {
          "internalType": "uint256",
          "name": "assets",
          "type": "uint256"
        }
      ],
      "stateMutability": "nonpayable",
      "type": "function"
    },
    {
      "inputs": [
        {
          "internalType": "uint256",
          "name": "capitalAndInterest",
          "type": "uint256"
        }
      ],
      "name": "refundCapital",
      "outputs": [],
      "stateMutability": "nonpayable",
      "type": "function"
    },
    {
      "inputs": [],
      "name": "refunded",
      "outputs": [
        {
          "internalType": "bool",
          "name": "",
          "type": "bool"
        }
      ],
      "stateMutability": "view",
      "type": "function"
    },
    {
      "inputs": [
        {
          "internalType": "bytes32",
          "name": "role",
          "type": "bytes32"
        },
        {
          "internalType": "address",
          "name": "account",
          "type": "address"
        }
      ],
      "name": "renounceRole",
      "outputs": [],
      "stateMutability": "nonpayable",
      "type": "function"
    },
    {
      "inputs": [
        {
          "internalType": "bytes32",
          "name": "role",
          "type": "bytes32"
        },
        {
          "internalType": "address",
          "name": "account",
          "type": "address"
        }
      ],
      "name": "revokeRole",
      "outputs": [],
      "stateMutability": "nonpayable",
      "type": "function"
    },
    {
      "inputs": [
        {
          "internalType": "uint256",
          "name": "soft",
          "type": "uint256"
        },
        {
          "internalType": "uint256",
          "name": "hard",
          "type": "uint256"
        }
      ],
      "name": "setCaps",
      "outputs": [],
      "stateMutability": "nonpayable",
      "type": "function"
    },
    {
      "inputs": [
        {
          "internalType": "contract IDatabase",
          "name": "database_",
          "type": "address"
        }
      ],
      "name": "setDatabase",
      "outputs": [],
      "stateMutability": "nonpayable",
      "type": "function"
    },
    {
      "inputs": [
        {
          "internalType": "uint256",
          "name": "minInvest_",
          "type": "uint256"
        },
        {
          "internalType": "uint256",
          "name": "maxDeposit_",
          "type": "uint256"
        }
      ],
      "name": "setDepositLimitsPerUser",
      "outputs": [],
      "stateMutability": "nonpayable",
      "type": "function"
    },
    {
      "inputs": [
        {
          "internalType": "uint256",
          "name": "start",
          "type": "uint256"
        },
        {
          "internalType": "uint256",
          "name": "stop",
          "type": "uint256"
        }
      ],
      "name": "setTimes",
      "outputs": [],
      "stateMutability": "nonpayable",
      "type": "function"
    },
    {
      "inputs": [
        {
          "internalType": "address",
          "name": "treasury_",
          "type": "address"
        }
      ],
      "name": "setTreasury",
      "outputs": [],
      "stateMutability": "nonpayable",
      "type": "function"
    },
    {
      "inputs": [
        {
          "internalType": "string",
          "name": "vaultURI_",
          "type": "string"
        }
      ],
      "name": "setVaultURI",
      "outputs": [],
      "stateMutability": "nonpayable",
      "type": "function"
    },
    {
      "inputs": [],
      "name": "softCap",
      "outputs": [
        {
          "internalType": "uint256",
          "name": "",
          "type": "uint256"
        }
      ],
      "stateMutability": "view",
      "type": "function"
    },
    {
      "inputs": [
        {
          "internalType": "bytes4",
          "name": "interfaceId",
          "type": "bytes4"
        }
      ],
      "name": "supportsInterface",
      "outputs": [
        {
          "internalType": "bool",
          "name": "",
          "type": "bool"
        }
      ],
      "stateMutability": "view",
      "type": "function"
    },
    {
      "inputs": [],
      "name": "symbol",
      "outputs": [
        {
          "internalType": "string",
          "name": "",
          "type": "string"
        }
      ],
      "stateMutability": "view",
      "type": "function"
    },
    {
      "inputs": [],
      "name": "tokenPrice",
      "outputs": [
        {
          "internalType": "uint256",
          "name": "",
          "type": "uint256"
        }
      ],
      "stateMutability": "view",
      "type": "function"
    },
    {
      "inputs": [],
      "name": "totalAssets",
      "outputs": [
        {
          "internalType": "uint256",
          "name": "",
          "type": "uint256"
        }
      ],
      "stateMutability": "view",
      "type": "function"
    },
    {
      "inputs": [],
      "name": "totalSupply",
      "outputs": [
        {
          "internalType": "uint256",
          "name": "",
          "type": "uint256"
        }
      ],
      "stateMutability": "view",
      "type": "function"
    },
    {
      "inputs": [
        {
          "internalType": "address",
          "name": "to",
          "type": "address"
        },
        {
          "internalType": "uint256",
          "name": "amount",
          "type": "uint256"
        }
      ],
      "name": "transfer",
      "outputs": [
        {
          "internalType": "bool",
          "name": "",
          "type": "bool"
        }
      ],
      "stateMutability": "nonpayable",
      "type": "function"
    },
    {
      "inputs": [
        {
          "internalType": "address",
          "name": "from",
          "type": "address"
        },
        {
          "internalType": "address",
          "name": "to",
          "type": "address"
        },
        {
          "internalType": "uint256",
          "name": "amount",
          "type": "uint256"
        }
      ],
      "name": "transferFrom",
      "outputs": [
        {
          "internalType": "bool",
          "name": "",
          "type": "bool"
        }
      ],
      "stateMutability": "nonpayable",
      "type": "function"
    },
    {
      "inputs": [],
      "name": "treasury",
      "outputs": [
        {
          "internalType": "address",
          "name": "",
          "type": "address"
        }
      ],
      "stateMutability": "view",
      "type": "function"
    },
    {
      "inputs": [],
      "name": "unpause",
      "outputs": [],
      "stateMutability": "nonpayable",
      "type": "function"
    },
    {
      "inputs": [
        {
          "internalType": "int256",
          "name": "interest",
          "type": "int256"
        }
      ],
      "name": "updateInterest",
      "outputs": [],
      "stateMutability": "nonpayable",
      "type": "function"
    },
    {
      "inputs": [],
      "name": "vaultURI",
      "outputs": [
        {
          "internalType": "string",
          "name": "",
          "type": "string"
        }
      ],
      "stateMutability": "view",
      "type": "function"
    },
    {
      "inputs": [
        {
          "internalType": "uint256",
          "name": "assets",
          "type": "uint256"
        },
        {
          "internalType": "address",
          "name": "receiver",
          "type": "address"
        },
        {
          "internalType": "address",
          "name": "owner",
          "type": "address"
        }
      ],
      "name": "withdraw",
      "outputs": [
        {
          "internalType": "uint256",
          "name": "shares",
          "type": "uint256"
        }
      ],
      "stateMutability": "nonpayable",
      "type": "function"
    }
  ],
  "bytecode": {
    "object": "0x60806040523480156200001157600080fd5b50600054610100900460ff1615808015620000335750600054600160ff909116105b8062000063575062000050306200013d60201b62001c6c1760201c565b15801562000063575060005460ff166001145b620000cb5760405162461bcd60e51b815260206004820152602e60248201527f496e697469616c697a61626c653a20636f6e747261637420697320616c72656160448201526d191e481a5b9a5d1a585b1a5e995960921b606482015260840160405180910390fd5b6000805460ff191660011790558015620000ef576000805461ff0019166101001790555b801562000136576000805461ff0019169055604051600181527f7f26b83ff96e1f2b6a682f133852f6798a09c465da95921460cefb38474024989060200160405180910390a15b506200014c565b6001600160a01b03163b151590565b613d83806200015c6000396000f3fe608060405234801561001057600080fd5b50600436106104125760003560e01c80637aadef8b11610220578063b460af9411610130578063d905777e116100b8578063e35d33f611610087578063e35d33f614610769578063ef8b30f7146107e5578063f0f4426014610885578063f542037414610898578063fb86a404146108ab57600080fd5b8063d905777e14610839578063dd62ed3e1461084c578063dfd5473c1461085f578063e0f41f3a1461087257600080fd5b8063c6e6f592116100ff578063c6e6f592146107e5578063ca15c873146107f8578063ce96cb771461080b578063d406008d1461081e578063d547741f1461082657600080fd5b8063b460af94146107aa578063ba087652146107bd578063c1eb5ddd146107d0578063c63d75b6146105f757600080fd5b8063906a26e0116101b35780639e5288a0116101825780639e5288a014610754578063a217fddf14610769578063a457c2d714610771578063a9059cbb14610784578063b3d7f6b91461079757600080fd5b8063906a26e01461072f57806391d148541461073957806394bf804d1461066d57806395d89b411461074c57600080fd5b806384061853116101ef57806384061853146106f75780638456cb591461070a5780638e95bab2146107125780639010d07c1461071c57600080fd5b80637aadef8b146106b25780637ff9b596146106d957806381d5a8c1146106e357806382e5310c146106ed57600080fd5b8063313ce567116103265780634f2bef3e116102ae5780635dc5eaf31161027d5780635dc5eaf31461065157806361d027b3146106595780636e553f651461066d57806370a082311461068057806376a24f25146106a957600080fd5b80634f2bef3e146106145780635a67f6cb1461061e5780635c975abb146106315780635cb5e41d1461063d57600080fd5b806339509351116102f557806339509351146105dc5780633f4ba83a146105ef578063402d267d146105f75780634aea1bf81461060a5780634cdad5061461046a57600080fd5b8063313ce5671461057257806336568abe14610591578063373cad57146105a457806338d52e0f146105b757600080fd5b80631a28bc6e116103a95780632243483611610378578063224348361461050e57806323b872dd14610521578063248a9ca31461053457806329d29799146105575780632f2ff15d1461055f57600080fd5b80631a28bc6e146104c05780631dfdcb78146104d5578063211e846f146104e8578063212bf316146104fb57600080fd5b8063095ea7b3116103e5578063095ea7b31461047d5780630a28a4771461049057806312f53950146104a357806318160ddd146104b857600080fd5b806301e1d1141461041757806301ffc9a71461043257806306fdde031461045557806307a2d13a1461046a575b600080fd5b61041f6108b5565b6040519081526020015b60405180910390f35b6104456104403660046134f4565b610927565b6040519015158152602001610429565b61045d610952565b604051610429919061354a565b61041f61047836600461357d565b6109e4565b61044561048b3660046135bb565b6109f1565b61041f61049e36600461357d565b610a09565b6101935461044590600160a01b900460ff1681565b60355461041f565b6104d36104ce3660046135e7565b610a16565b005b6104d36104e33660046136ac565b610a98565b61041f6104f636600461357d565b610dca565b6104d36105093660046135e7565b610de4565b6104d361051c3660046135e7565b610e70565b61044561052f36600461378f565b610f3f565b61041f61054236600461357d565b600090815260c9602052604090206001015490565b61041f610f65565b6104d361056d3660046137d0565b610fec565b606554600160a01b900460ff1660405160ff9091168152602001610429565b6104d361059f3660046137d0565b611016565b6104d36105b236600461357d565b611094565b6065546001600160a01b03165b6040516001600160a01b039091168152602001610429565b6104456105ea3660046135bb565b611293565b6104d36112b5565b61041f610605366004613800565b6112cb565b61041f6101975481565b61041f6101955481565b6104d361062c36600461357d565b611303565b61015f5460ff16610445565b610192546105c4906001600160a01b031681565b61045d611496565b610193546105c4906001600160a01b031681565b61041f61067b3660046137d0565b611525565b61041f61068e366004613800565b6001600160a01b031660009081526033602052604090205490565b6101915461041f565b61041f7faefebe170cbaff0af052a32795af0e1b8afff9850f946ad2869be14f3553437181565b61041f61019a5481565b61041f6101945481565b61041f6101965481565b61041f61070536600461357d565b61154f565b6104d3611569565b61041f61019b5481565b6105c461072a3660046135e7565b611589565b61041f6101985481565b6104456107473660046137d0565b6115a1565b61045d6115cc565b61075c6115db565b6040516104299190613855565b61041f600081565b61044561077f3660046135bb565b611631565b6104456107923660046135bb565b6116b7565b61041f6107a536600461357d565b6116c5565b61041f6107b8366004613863565b6116d2565b61041f6107cb366004613863565b6117e4565b61041f600080516020613d2e83398151915281565b61041f6107f336600461357d565b6118df565b61041f61080636600461357d565b6118ec565b61041f610819366004613800565b611903565b61041f61194e565b6104d36108343660046137d0565b6119b7565b61041f610847366004613800565b6119dc565b61041f61085a3660046138a5565b611a1c565b6104d361086d3660046138d3565b611a47565b61041f610880366004613800565b611ac4565b6104d3610893366004613800565b611b04565b6104d36108a6366004613800565b611bb1565b61041f6101995481565b6065546040516370a0823160e01b81523060048201526000916001600160a01b0316906370a0823190602401602060405180830381865afa1580156108fe573d6000803e3d6000fd5b505050506040513d601f19601f820116820180604052508101906109229190613945565b905090565b60006001600160e01b03198216635a05180f60e01b148061094c575061094c82611c7b565b92915050565b6060603680546109619061395e565b80601f016020809104026020016040519081016040528092919081815260200182805461098d9061395e565b80156109da5780601f106109af576101008083540402835291602001916109da565b820191906000526020600020905b8154815290600101906020018083116109bd57829003601f168201915b5050505050905090565b600061094c826000611cb0565b6000336109ff818585611cd4565b5060019392505050565b600061094c826001611df8565b600080516020613d2e833981519152610a2e81611e1c565b6101985480831115610a625760405163010a45ab60e21b815260048101829052602481018490526044015b60405180910390fd5b828410610a8c5760405163010a45ab60e21b81526004810182905260248101859052604401610a59565b50506101965561019755565b600054610100900460ff1615808015610ab85750600054600160ff909116105b80610ad25750303b158015610ad2575060005460ff166001145b610b355760405162461bcd60e51b815260206004820152602e60248201527f496e697469616c697a61626c653a20636f6e747261637420697320616c72656160448201526d191e481a5b9a5d1a585b1a5e995960921b6064820152608401610a59565b6000805460ff191660011790558015610b58576000805461ff0019166101001790555b610b60611e26565b610b698b611e57565b610b738a8a611e87565b610b7b611eb8565b856001600160a01b031663fe60d26b6040518163ffffffff1660e01b8152600401602060405180830381865afa158015610bb9573d6000803e3d6000fd5b505050506040513d601f19601f82011682018060405250810190610bdd9190613998565b610bfa576040516381867da560e01b815260040160405180910390fd5b60008b6001600160a01b031663313ce5676040518163ffffffff1660e01b8152600401602060405180830381865afa158015610c3a573d6000803e3d6000fd5b505050506040513d601f19601f82011682018060405250810190610c5e91906139ba565b60ff16905080601214158015610c75575080600614155b15610ca4576040516315f3703160e31b8152601260048201526006602482015260448101829052606401610a59565b6000610cb182600a613ad7565b9050610cbe60008a611ee7565b610cd6600080516020613d2e8339815191528a611ee7565b610cee600080516020613d2e83398151915233611ee7565b8951610d029061019c9060208d01906133e7565b5061019887905561019986905561019485905561019584905561019380546001600160a01b03808c166001600160a01b0319928316179092556101928054928b1692909116919091179055610d58600388613af9565b61019655610d68816101f4613b1b565b6101975561019a81905561019155508015610dbd576000805461ff0019169055604051600181527f7f26b83ff96e1f2b6a682f133852f6798a09c465da95921460cefb38474024989060200160405180910390a15b5050505050505050505050565b600061094c610dd860355490565b61019154849190611f09565b600080516020613d2e833981519152610dfc81611e1c565b821580610e0857508183115b15610e2657604051630c5af70760e11b815260040160405180910390fd5b61019883905561019982905560408051848152602081018490527ffa35f2d22b9a5eb6bed3254e60910f91291653a71679c8cbb1f00d24551a45c4910160405180910390a1505050565b600080516020613d2e833981519152610e8881611e1c565b6000610e926115db565b90506002816004811115610ea857610ea861381d565b1115610ec957806040516336100b6760e11b8152600401610a599190613855565b82841180610ed657504284105b15610ef4576040516335c4a3b960e11b815260040160405180910390fd5b61019484905561019583905560408051858152602081018590527f8f8d0d2155084c34c7e189b664aa128aebfd57e564d2d01c82a148d3da3a3bbc910160405180910390a150505050565b600033610f4d858285611fb8565b610f5885858561202c565b60019150505b9392505050565b610193546000906001600160a01b0316338114610fa357335b604051634ab6cb6760e11b81526001600160a01b039091166004820152602401610a59565b610fad60026121d7565b91507fcd44c06e81c4f40db53746db76839e7106609855a483a8e72a05877dc3ea225c82604051610fe091815260200190565b60405180910390a15090565b600082815260c9602052604090206001015461100781611e1c565b6110118383611ee7565b505050565b6001600160a01b03811633146110865760405162461bcd60e51b815260206004820152602f60248201527f416363657373436f6e74726f6c3a2063616e206f6e6c792072656e6f756e636560448201526e103937b632b9903337b91039b2b63360891b6064820152608401610a59565b61109082826122ef565b5050565b610193546001600160a01b0316336001600160a01b0316146110b65733610f7e565b60006110c06115db565b905060028160048111156110d6576110d661381d565b141580156110f6575060048160048111156110f3576110f361381d565b14155b1561111657806040516336100b6760e11b8152600401610a599190613855565b61019b548015611149576111493330856111386065546001600160a01b031690565b6001600160a01b0316929190612311565b60408051848152602081018390527f502833ea9eb26966767980111b75e4b8e013aeea7b9493478424afc7869399c4910160405180910390a1600061118e8285613b3a565b61019a5490915060008212156111ed577f727586bb3240e37cfc23d9c04f5d2c8f8c85602f6be89e0a8698e1a5a4c891d083866111ca85613b79565b6040805193845260208401929092529082015260600160405180910390a161122a565b600082131561122a576040518281527f8a335823c2fa2c1e28bd8d65eb9cbe0194f76293b1626a460597adc993d606cd9060200160405180910390a15b60006112358661154f565b61019a819055610193805460ff60a01b1916600160a01b17905560408051848152602081018390529192507f945c1c4e99aa89f648fbfe3df471b916f719e16d960fcec0737d4d56bd696838910160405180910390a1505050505050565b6000336109ff8185856112a68383611a1c565b6112b09190613b95565b611cd4565b60006112c081611e1c565b6112c861237c565b50565b600060016112d76115db565b60048111156112e8576112e861381d565b036112fb576112f6826123cf565b61094c565b600092915050565b600080516020613d2e83398151915261131b81611e1c565b60006113256115db565b9050600281600481111561133b5761133b61381d565b1461135b57806040516336100b6760e11b8152600401610a599190613855565b61019a546000808512156113f257600061137761070587613b79565b90508281111561139d57604051637cef6ce360e11b815260048101879052602401610a59565b6113a78184613bad565b91507f5ac4f964bd8aac40cf8a592c906866d09d34e81d1ef0b1c659252c3151e471c333604080516001600160a01b039092168252602082018990520160405180910390a150611450565b60006113fd8661154f565b90506114098184613b95565b91507f5ac4f964bd8aac40cf8a592c906866d09d34e81d1ef0b1c659252c3151e471c333604080516001600160a01b039092168252602082018990520160405180910390a1505b61019a81905560408051838152602081018390527f945c1c4e99aa89f648fbfe3df471b916f719e16d960fcec0737d4d56bd696838910160405180910390a15050505050565b61019c80546114a49061395e565b80601f01602080910402602001604051908101604052809291908181526020018280546114d09061395e565b801561151d5780601f106114f25761010080835404028352916020019161151d565b820191906000526020600020905b81548152906001019060200180831161150057829003601f168201915b505050505081565b600061152f612452565b6115376124ad565b6115428333846124f4565b508161094c600161012d55565b600061094c6101915461156160355490565b849190611f09565b600080516020613d2e83398151915261158181611e1c565b6112c86126bf565b600082815260fb60205260408120610f5e90836126fd565b600091825260c9602090815260408084206001600160a01b0393909316845291905290205460ff1690565b6060603780546109619061395e565b6000610194544210156115ee5750600090565b610195544210156115ff5750600190565b6101985461019b5410156116135750600390565b61019354600160a01b900460ff1661162b5750600290565b50600490565b6000338161163f8286611a1c565b90508381101561169f5760405162461bcd60e51b815260206004820152602560248201527f45524332303a2064656372656173656420616c6c6f77616e63652062656c6f77604482015264207a65726f60d81b6064820152608401610a59565b6116ac8286868403611cd4565b506001949350505050565b6000336109ff81858561202c565b600061094c826001611cb0565b60006116dc612452565b6116e46124ad565b60006116ee6115db565b905060028160048111156117045761170461381d565b0361172457806040516336100b6760e11b8152600401610a599190613855565b61172d85610a09565b915061174e836001600160a01b031660009081526033602052604090205490565b82111561179d5760405162461bcd60e51b815260206004820152601f60248201527f455243343632363a207769746864726177206d6f7265207468616e206d6178006044820152606401610a59565b6117aa3385858886612709565b6001600160a01b038316600090815261019d6020526040812080548792906117d3908490613bad565b9091555050600161012d5550610f5e565b60006117ee612452565b6117f66124ad565b60006118006115db565b905060028160048111156118165761181661381d565b0361183657806040516336100b6760e11b8152600401610a599190613855565b6001600160a01b03831660009081526033602052604090205485111561189e5760405162461bcd60e51b815260206004820152601d60248201527f455243343632363a2072656465656d206d6f7265207468616e206d61780000006044820152606401610a59565b6118a7856109e4565b91506118b63385858589612709565b6001600160a01b038316600090815261019d6020526040812080548492906117d3908490613bad565b600061094c826000611df8565b600081815260fb6020526040812061094c906127b5565b6000600261190f6115db565b60048111156119205761192061381d565b146112fb576112f6611947836001600160a01b031660009081526033602052604090205490565b6000611cb0565b60007faefebe170cbaff0af052a32795af0e1b8afff9850f946ad2869be14f3553437161197a81611e1c565b61198460046121d7565b91507fb4192707c71da259814532b3eb648e78c9d78d6a3b9234baed7a183808f8c54c82604051610fe091815260200190565b600082815260c960205260409020600101546119d281611e1c565b61101183836122ef565b600060026119e86115db565b60048111156119f9576119f961381d565b146112fb576001600160a01b03821660009081526033602052604090205461094c565b6001600160a01b03918216600090815260346020908152604080832093909416825291909152205490565b6000611a5281611e1c565b6000829003611a785782826040516303c5d03760e01b8152600401610a59929190613bc4565b7f82b4c0c51f891b823eff0c623396a3d488ad9c5fa87eaf6536a5e30257cfe6248383604051611aa9929190613bc4565b60405180910390a1611abe61019c848461346b565b50505050565b6001600160a01b038116600090815261019d60205260408120546101975480821015611af957611af48282613bad565b611afc565b60005b949350505050565b6000611b0f81611e1c565b816001600160a01b03163b600003611b4557604051634ab6cb6760e11b81526001600160a01b0383166004820152602401610a59565b61019354604080516001600160a01b03928316815291841660208301527f4ab5be82436d353e61ca18726e984e561f5c1cc7c6d38b29d2553c790434705a910160405180910390a15061019380546001600160a01b0319166001600160a01b0392909216919091179055565b600080516020613d2e833981519152611bc981611e1c565b816001600160a01b031663fe60d26b6040518163ffffffff1660e01b8152600401602060405180830381865afa158015611c07573d6000803e3d6000fd5b505050506040513d601f19601f82011682018060405250810190611c2b9190613998565b611c48576040516381867da560e01b815260040160405180910390fd5b5061019280546001600160a01b0319166001600160a01b0392909216919091179055565b6001600160a01b03163b151590565b60006001600160e01b03198216637965db0b60e01b148061094c57506301ffc9a760e01b6001600160e01b031983161461094c565b6000808311611cc0576000610f5e565b61019a5461019154610f5e918591856127bf565b6001600160a01b038316611d365760405162461bcd60e51b8152602060048201526024808201527f45524332303a20617070726f76652066726f6d20746865207a65726f206164646044820152637265737360e01b6064820152608401610a59565b6001600160a01b038216611d975760405162461bcd60e51b815260206004820152602260248201527f45524332303a20617070726f766520746f20746865207a65726f206164647265604482015261737360f01b6064820152608401610a59565b6001600160a01b0383811660008181526034602090815260408083209487168084529482529182902085905590518481527f8c5be1e5ebec7d5bd14f71427d1e84f3dd0314c0f7b2291e5b200ac8c7c3b925910160405180910390a3505050565b6000808311611e08576000610f5e565b6101915461019a54610f5e918591856127bf565b6112c8813361281c565b600054610100900460ff16611e4d5760405162461bcd60e51b8152600401610a5990613bf3565b611e55612875565b565b600054610100900460ff16611e7e5760405162461bcd60e51b8152600401610a5990613bf3565b6112c8816128a9565b600054610100900460ff16611eae5760405162461bcd60e51b8152600401610a5990613bf3565b611090828261292e565b600054610100900460ff16611edf5760405162461bcd60e51b8152600401610a5990613bf3565b611e5561297c565b611ef182826129a3565b600082815260fb602052604090206110119082612a29565b6000808060001985870985870292508281108382030391505080600003611f4357838281611f3957611f39613ae3565b0492505050610f5e565b808411611f4f57600080fd5b60008486880960026001871981018816978890046003810283188082028403028082028403028082028403028082028403028082028403029081029092039091026000889003889004909101858311909403939093029303949094049190911702949350505050565b6000611fc48484611a1c565b90506000198114611abe578181101561201f5760405162461bcd60e51b815260206004820152601d60248201527f45524332303a20696e73756666696369656e7420616c6c6f77616e63650000006044820152606401610a59565b611abe8484848403611cd4565b6001600160a01b0383166120905760405162461bcd60e51b815260206004820152602560248201527f45524332303a207472616e736665722066726f6d20746865207a65726f206164604482015264647265737360d81b6064820152608401610a59565b6001600160a01b0382166120f25760405162461bcd60e51b815260206004820152602360248201527f45524332303a207472616e7366657220746f20746865207a65726f206164647260448201526265737360e81b6064820152608401610a59565b6001600160a01b0383166000908152603360205260409020548181101561216a5760405162461bcd60e51b815260206004820152602660248201527f45524332303a207472616e7366657220616d6f756e7420657863656564732062604482015265616c616e636560d01b6064820152608401610a59565b6001600160a01b0380851660008181526033602052604080822086860390559286168082529083902080548601905591517fddf252ad1be2c89b69c2b068fc378daa952ba7f163c4a11628f55a4df523b3ef906121ca9086815260200190565b60405180910390a3611abe565b6000806121e26115db565b90508260048111156121f6576121f661381d565b8160048111156122085761220861381d565b1461222b5760048160405163567dfef960e01b8152600401610a59929190613c3e565b600061223f6065546001600160a01b031690565b6040516370a0823160e01b81523060048201529091506001600160a01b038216906370a0823190602401602060405180830381865afa158015612286573d6000803e3d6000fd5b505050506040513d601f19601f820116820180604052508101906122aa9190613945565b9250826000036122cd57604051634a2ccc4360e01b815260040160405180910390fd5b610193546122e8906001600160a01b03838116911685612a3e565b5050919050565b6122f98282612a6e565b600082815260fb602052604090206110119082612ad5565b6040516001600160a01b0380851660248301528316604482015260648101829052611abe9085906323b872dd60e01b906084015b60408051601f198184030181529190526020810180516001600160e01b03166001600160e01b031990931692909217909152612aea565b612384612bbc565b61015f805460ff191690557f5db9ee0a495bf2e6ff9c91a7834c1ba4fdd244a5e8aa4e537bd38aeae4b073aa335b6040516001600160a01b03909116815260200160405180910390a1565b6101995461019b546001600160a01b038316600090815261019d60205260408120549092919081831115806124075750806101965411155b1561241757506000949350505050565b600081610196546124289190613bad565b905060006124368486613bad565b90508082116124455781612447565b805b979650505050505050565b600261012d54036124a55760405162461bcd60e51b815260206004820152601f60248201527f5265656e7472616e637947756172643a207265656e7472616e742063616c6c006044820152606401610a59565b600261012d55565b61015f5460ff1615611e555760405162461bcd60e51b815260206004820152601060248201526f14185d5cd8589b194e881c185d5cd95960821b6044820152606401610a59565b61019254604051630808f3eb60e01b81526001600160a01b03848116600483015290911690630808f3eb90602401602060405180830381865afa15801561253f573d6000803e3d6000fd5b505050506040513d601f19601f820116820180604052508101906125639190613998565b61258b5760405163c8f9bd5960e01b81526001600160a01b0383166004820152602401610a59565b60006125956115db565b905060018160048111156125ab576125ab61381d565b146125ce5760018160405163567dfef960e01b8152600401610a59929190613c3e565b6125d7836123cf565b8411156126265760405162461bcd60e51b815260206004820152601e60248201527f455243343632363a206465706f736974206d6f7265207468616e206d617800006044820152606401610a59565b600061263184611ac4565b90508085101561265e576040516313ed593f60e11b81526004810182905260248101869052604401610a59565b61266a84848788612c06565b8461019b600082825461267d9190613b95565b90915550506001600160a01b038416600090815261019d6020526040812080548792906126ab908490613b95565b90915550505050505050565b600161012d55565b6126c76124ad565b61015f805460ff191660011790557f62e78cea01bee320cd4e420270b5ea74000d11b0c9f74754ebdbfc544b05a2586123b23390565b6000610f5e8383612c84565b826001600160a01b0316856001600160a01b03161461272d5761272d838683611fb8565b6127378382612cae565b60655461274e906001600160a01b03168584612a3e565b826001600160a01b0316846001600160a01b0316866001600160a01b03167ffbde797d201c681b91056529119e0b02407c7bb96a4a2c75c01fc9667232c8db85856040516127a6929190918252602082015260400190565b60405180910390a45050505050565b600061094c825490565b6000806127cd868686611f09565b905060018360028111156127e3576127e361381d565b1480156128005750600084806127fb576127fb613ae3565b868809115b1561281357612810600182613b95565b90505b95945050505050565b61282682826115a1565b6110905761283381612de2565b61283e836020612df4565b60405160200161284f929190613c59565b60408051601f198184030181529082905262461bcd60e51b8252610a599160040161354a565b600054610100900460ff1661289c5760405162461bcd60e51b8152600401610a5990613bf3565b61015f805460ff19169055565b600054610100900460ff166128d05760405162461bcd60e51b8152600401610a5990613bf3565b6000806128dc83612f90565b91509150816128ec5760126128ee565b805b606580546001600160a01b039095166001600160a01b031960ff93909316600160a01b02929092166001600160a81b031990951694909417179092555050565b600054610100900460ff166129555760405162461bcd60e51b8152600401610a5990613bf3565b81516129689060369060208501906133e7565b5080516110119060379060208401906133e7565b600054610100900460ff166126b75760405162461bcd60e51b8152600401610a5990613bf3565b6129ad82826115a1565b61109057600082815260c9602090815260408083206001600160a01b03851684529091529020805460ff191660011790556129e53390565b6001600160a01b0316816001600160a01b0316837f2f8788117e7eff1d82e926ec794901d17c78024a50270940304540a733656f0d60405160405180910390a45050565b6000610f5e836001600160a01b03841661306c565b6040516001600160a01b03831660248201526044810182905261101190849063a9059cbb60e01b90606401612345565b612a7882826115a1565b1561109057600082815260c9602090815260408083206001600160a01b0385168085529252808320805460ff1916905551339285917ff6391f5c32d9c69d2a47ea670b442974b53935d1edc7fd64eb21e047a839171b9190a45050565b6000610f5e836001600160a01b0384166130bb565b6000612b3f826040518060400160405280602081526020017f5361666545524332303a206c6f772d6c6576656c2063616c6c206661696c6564815250856001600160a01b03166131ae9092919063ffffffff16565b8051909150156110115780806020019051810190612b5d9190613998565b6110115760405162461bcd60e51b815260206004820152602a60248201527f5361666545524332303a204552433230206f7065726174696f6e20646964206e6044820152691bdd081cdd58d8d9595960b21b6064820152608401610a59565b61015f5460ff16611e555760405162461bcd60e51b815260206004820152601460248201527314185d5cd8589b194e881b9bdd081c185d5cd95960621b6044820152606401610a59565b606554612c1e906001600160a01b0316853085612311565b612c2883826131bd565b826001600160a01b0316846001600160a01b03167fdcbc1c05240f31ff3ad067ef1ee35ce4997762752e3a095284754544f4c709d78484604051612c76929190918252602082015260400190565b60405180910390a350505050565b6000826000018281548110612c9b57612c9b613cce565b9060005260206000200154905092915050565b6001600160a01b038216612d0e5760405162461bcd60e51b815260206004820152602160248201527f45524332303a206275726e2066726f6d20746865207a65726f206164647265736044820152607360f81b6064820152608401610a59565b6001600160a01b03821660009081526033602052604090205481811015612d825760405162461bcd60e51b815260206004820152602260248201527f45524332303a206275726e20616d6f756e7420657863656564732062616c616e604482015261636560f01b6064820152608401610a59565b6001600160a01b03831660008181526033602090815260408083208686039055603580548790039055518581529192917fddf252ad1be2c89b69c2b068fc378daa952ba7f163c4a11628f55a4df523b3ef910160405180910390a3505050565b606061094c6001600160a01b03831660145b60606000612e03836002613b1b565b612e0e906002613b95565b67ffffffffffffffff811115612e2657612e26613609565b6040519080825280601f01601f191660200182016040528015612e50576020820181803683370190505b509050600360fc1b81600081518110612e6b57612e6b613cce565b60200101906001600160f81b031916908160001a905350600f60fb1b81600181518110612e9a57612e9a613cce565b60200101906001600160f81b031916908160001a9053506000612ebe846002613b1b565b612ec9906001613b95565b90505b6001811115612f41576f181899199a1a9b1b9c1cb0b131b232b360811b85600f1660108110612efd57612efd613cce565b1a60f81b828281518110612f1357612f13613cce565b60200101906001600160f81b031916908160001a90535060049490941c93612f3a81613ce4565b9050612ecc565b508315610f5e5760405162461bcd60e51b815260206004820181905260248201527f537472696e67733a20686578206c656e67746820696e73756666696369656e746044820152606401610a59565b60408051600481526024810182526020810180516001600160e01b031663313ce56760e01b17905290516000918291829182916001600160a01b03871691612fd791613cfb565b600060405180830381855afa9150503d8060008114613012576040519150601f19603f3d011682016040523d82523d6000602084013e613017565b606091505b509150915081801561302b57506020815110155b1561305f576000818060200190518101906130469190613945565b905060ff811161305d576001969095509350505050565b505b5060009485945092505050565b60008181526001830160205260408120546130b35750815460018181018455600084815260208082209093018490558454848252828601909352604090209190915561094c565b50600061094c565b600081815260018301602052604081205480156131a45760006130df600183613bad565b85549091506000906130f390600190613bad565b905081811461315857600086600001828154811061311357613113613cce565b906000526020600020015490508087600001848154811061313657613136613cce565b6000918252602080832090910192909255918252600188019052604090208390555b855486908061316957613169613d17565b60019003818190600052602060002001600090559055856001016000868152602001908152602001600020600090556001935050505061094c565b600091505061094c565b6060611afc848460008561327e565b6001600160a01b0382166132135760405162461bcd60e51b815260206004820152601f60248201527f45524332303a206d696e7420746f20746865207a65726f2061646472657373006044820152606401610a59565b80603560008282546132259190613b95565b90915550506001600160a01b0382166000818152603360209081526040808320805486019055518481527fddf252ad1be2c89b69c2b068fc378daa952ba7f163c4a11628f55a4df523b3ef910160405180910390a35050565b6060824710156132df5760405162461bcd60e51b815260206004820152602660248201527f416464726573733a20696e73756666696369656e742062616c616e636520666f6044820152651c8818d85b1b60d21b6064820152608401610a59565b600080866001600160a01b031685876040516132fb9190613cfb565b60006040518083038185875af1925050503d8060008114613338576040519150601f19603f3d011682016040523d82523d6000602084013e61333d565b606091505b509150915061244787838387606083156133b85782516000036133b1576001600160a01b0385163b6133b15760405162461bcd60e51b815260206004820152601d60248201527f416464726573733a2063616c6c20746f206e6f6e2d636f6e74726163740000006044820152606401610a59565b5081611afc565b611afc83838151156133cd5781518083602001fd5b8060405162461bcd60e51b8152600401610a59919061354a565b8280546133f39061395e565b90600052602060002090601f016020900481019282613415576000855561345b565b82601f1061342e57805160ff191683800117855561345b565b8280016001018555821561345b579182015b8281111561345b578251825591602001919060010190613440565b506134679291506134df565b5090565b8280546134779061395e565b90600052602060002090601f016020900481019282613499576000855561345b565b82601f106134b25782800160ff1982351617855561345b565b8280016001018555821561345b579182015b8281111561345b5782358255916020019190600101906134c4565b5b8082111561346757600081556001016134e0565b60006020828403121561350657600080fd5b81356001600160e01b031981168114610f5e57600080fd5b60005b83811015613539578181015183820152602001613521565b83811115611abe5750506000910152565b602081526000825180602084015261356981604085016020870161351e565b601f01601f19169190910160400192915050565b60006020828403121561358f57600080fd5b5035919050565b6001600160a01b03811681146112c857600080fd5b80356135b681613596565b919050565b600080604083850312156135ce57600080fd5b82356135d981613596565b946020939093013593505050565b600080604083850312156135fa57600080fd5b50508035926020909101359150565b634e487b7160e01b600052604160045260246000fd5b600082601f83011261363057600080fd5b813567ffffffffffffffff8082111561364b5761364b613609565b604051601f8301601f19908116603f0116810190828211818310171561367357613673613609565b8160405283815286602085880101111561368c57600080fd5b836020870160208301376000602085830101528094505050505092915050565b6000806000806000806000806000806101408b8d0312156136cc57600080fd5b6136d58b6135ab565b995060208b013567ffffffffffffffff808211156136f257600080fd5b6136fe8e838f0161361f565b9a5060408d013591508082111561371457600080fd5b6137208e838f0161361f565b995060608d013591508082111561373657600080fd5b506137438d828e0161361f565b97505061375260808c016135ab565b955061376060a08c016135ab565b945060c08b0135935060e08b013592506101008b013591506101208b013590509295989b9194979a5092959850565b6000806000606084860312156137a457600080fd5b83356137af81613596565b925060208401356137bf81613596565b929592945050506040919091013590565b600080604083850312156137e357600080fd5b8235915060208301356137f581613596565b809150509250929050565b60006020828403121561381257600080fd5b8135610f5e81613596565b634e487b7160e01b600052602160045260246000fd5b6005811061385157634e487b7160e01b600052602160045260246000fd5b9052565b6020810161094c8284613833565b60008060006060848603121561387857600080fd5b83359250602084013561388a81613596565b9150604084013561389a81613596565b809150509250925092565b600080604083850312156138b857600080fd5b82356138c381613596565b915060208301356137f581613596565b600080602083850312156138e657600080fd5b823567ffffffffffffffff808211156138fe57600080fd5b818501915085601f83011261391257600080fd5b81358181111561392157600080fd5b86602082850101111561393357600080fd5b60209290920196919550909350505050565b60006020828403121561395757600080fd5b5051919050565b600181811c9082168061397257607f821691505b60208210810361399257634e487b7160e01b600052602260045260246000fd5b50919050565b6000602082840312156139aa57600080fd5b81518015158114610f5e57600080fd5b6000602082840312156139cc57600080fd5b815160ff81168114610f5e57600080fd5b634e487b7160e01b600052601160045260246000fd5b600181815b80851115613a2e578160001904821115613a1457613a146139dd565b80851615613a2157918102915b93841c93908002906139f8565b509250929050565b600082613a455750600161094c565b81613a525750600061094c565b8160018114613a685760028114613a7257613a8e565b600191505061094c565b60ff841115613a8357613a836139dd565b50506001821b61094c565b5060208310610133831016604e8410600b8410161715613ab1575081810a61094c565b613abb83836139f3565b8060001904821115613acf57613acf6139dd565b029392505050565b6000610f5e8383613a36565b634e487b7160e01b600052601260045260246000fd5b600082613b1657634e487b7160e01b600052601260045260246000fd5b500490565b6000816000190483118215151615613b3557613b356139dd565b500290565b60008083128015600160ff1b850184121615613b5857613b586139dd565b6001600160ff1b0384018313811615613b7357613b736139dd565b50500390565b6000600160ff1b8201613b8e57613b8e6139dd565b5060000390565b60008219821115613ba857613ba86139dd565b500190565b600082821015613bbf57613bbf6139dd565b500390565b60208152816020820152818360408301376000818301604090810191909152601f909201601f19160101919050565b6020808252602b908201527f496e697469616c697a61626c653a20636f6e7472616374206973206e6f74206960408201526a6e697469616c697a696e6760a81b606082015260800190565b60408101613c4c8285613833565b610f5e6020830184613833565b7f416363657373436f6e74726f6c3a206163636f756e7420000000000000000000815260008351613c9181601785016020880161351e565b7001034b99036b4b9b9b4b733903937b6329607d1b6017918401918201528351613cc281602884016020880161351e565b01602801949350505050565b634e487b7160e01b600052603260045260246000fd5b600081613cf357613cf36139dd565b506000190190565b60008251613d0d81846020870161351e565b9190910192915050565b634e487b7160e01b600052603160045260246000fdfeb1e380c01db319c0153ea3bb4fbd0ab6639cc088e3bf8cd5319b128f33a2f9e8a264697066735822122066c1e2ff873f846b7fc5a02aaf15a88e41808421c617034d87b9127ff6c3856c64736f6c634300080e0033",
    "linkReferences": {}
  },
  "methodIdentifiers": {
    "DEFAULT_ADMIN_ROLE()": "a217fddf",
    "DEV()": "c1eb5ddd",
    "KONKRETE()": "e35d33f6",
    "TIMELOCK()": "7aadef8b",
    "allowance(address,address)": "dd62ed3e",
    "amountImpact(uint256)": "211e846f",
    "approve(address,uint256)": "095ea7b3",
    "asset()": "38d52e0f",
    "balanceOf(address)": "70a08231",
    "collectCapital()": "29d29799",
    "collectUnclaimedFunds()": "d406008d",
    "collectedCapital()": "8e95bab2",
    "convertToAssets(uint256)": "07a2d13a",
    "convertToShares(uint256)": "c6e6f592",
    "dataBase()": "5cb5e41d",
    "decimals()": "313ce567",
    "decreaseAllowance(address,uint256)": "a457c2d7",
    "deposit(uint256,address)": "6e553f65",
    "depositsStart()": "81d5a8c1",
    "depositsStop()": "4f2bef3e",
    "getRoleAdmin(bytes32)": "248a9ca3",
    "getRoleMember(bytes32,uint256)": "9010d07c",
    "getRoleMemberCount(bytes32)": "ca15c873",
    "getStep()": "9e5288a0",
    "grantRole(bytes32,address)": "2f2ff15d",
    "hardCap()": "fb86a404",
    "hasRole(bytes32,address)": "91d14854",
    "increaseAllowance(address,uint256)": "39509351",
    "initialize(address,string,string,string,address,address,uint256,uint256,uint256,uint256)": "1dfdcb78",
    "maxDeposit(address)": "402d267d",
    "maxDepositPerUser()": "82e5310c",
    "maxMint(address)": "c63d75b6",
    "maxRedeem(address)": "d905777e",
    "maxWithdraw(address)": "ce96cb77",
    "minInvest(address)": "e0f41f3a",
    "minInvestPerUser()": "4aea1bf8",
    "mint(uint256,address)": "94bf804d",
    "name()": "06fdde03",
    "originalPrice()": "76a24f25",
    "pause()": "8456cb59",
    "paused()": "5c975abb",
    "previewDeposit(uint256)": "ef8b30f7",
    "previewMint(uint256)": "b3d7f6b9",
    "previewRedeem(uint256)": "4cdad506",
    "previewWithdraw(uint256)": "0a28a477",
    "priceImpact(uint256)": "84061853",
    "redeem(uint256,address,address)": "ba087652",
    "refundCapital(uint256)": "373cad57",
    "refunded()": "12f53950",
    "renounceRole(bytes32,address)": "36568abe",
    "revokeRole(bytes32,address)": "d547741f",
    "setCaps(uint256,uint256)": "212bf316",
    "setDatabase(address)": "f5420374",
    "setDepositLimitsPerUser(uint256,uint256)": "1a28bc6e",
    "setTimes(uint256,uint256)": "22434836",
    "setTreasury(address)": "f0f44260",
    "setVaultURI(string)": "dfd5473c",
    "softCap()": "906a26e0",
    "supportsInterface(bytes4)": "01ffc9a7",
    "symbol()": "95d89b41",
    "tokenPrice()": "7ff9b596",
    "totalAssets()": "01e1d114",
    "totalSupply()": "18160ddd",
    "transfer(address,uint256)": "a9059cbb",
    "transferFrom(address,address,uint256)": "23b872dd",
    "treasury()": "61d027b3",
    "unpause()": "3f4ba83a",
    "updateInterest(int256)": "5a67f6cb",
    "vaultURI()": "5dc5eaf3",
    "withdraw(uint256,address,address)": "b460af94"
  },
  "id": 3
}