{
  "abi": [
    {
      "inputs": [],
      "stateMutability": "nonpayable",
      "type": "constructor"
    },
    {
      "inputs": [
        {
          "internalType": "uint256",
          "name": "minimum",
          "type": "uint256"
        },
        {
          "internalType": "uint256",
          "name": "amount",
          "type": "uint256"
        }
      ],
      "name": "BelowMinimumInvest",
      "type": "error"
    },
    {
      "inputs": [
        {
          "internalType": "int256",
          "name": "interest",
          "type": "int256"
        }
      ],
      "name": "InmpossibleInterest",
      "type": "error"
    },
    {
      "inputs": [
        {
          "internalType": "address",
          "name": "msgSender",
          "type": "address"
        }
      ],
      "name": "MsgSenderUnauthorized",
      "type": "error"
    },
    {
      "inputs": [
        {
          "internalType": "int256",
          "name": "capitalAndInterest",
          "type": "int256"
        }
      ],
      "name": "NegativeCapital",
      "type": "error"
    },
    {
      "inputs": [
        {
          "internalType": "enum SaleStep",
          "name": "expected",
          "type": "uint8"
        },
        {
          "internalType": "enum SaleStep",
          "name": "currentStep",
          "type": "uint8"
        }
      ],
      "name": "NotExpectedStep",
      "type": "error"
    },
    {
      "inputs": [
        {
          "internalType": "address",
          "name": "receiver",
          "type": "address"
        }
      ],
      "name": "ReceiverUnauthorized",
      "type": "error"
    },
    {
      "inputs": [],
      "name": "TryToCollectZeroFund",
      "type": "error"
    },
    {
      "inputs": [],
      "name": "WrongCaps",
      "type": "error"
    },
    {
      "inputs": [],
      "name": "WrongDatabase",
      "type": "error"
    },
    {
      "inputs": [
        {
          "internalType": "uint256",
          "name": "expected1",
          "type": "uint256"
        },
        {
          "internalType": "uint256",
          "name": "expected2",
          "type": "uint256"
        },
        {
          "internalType": "uint256",
          "name": "current",
          "type": "uint256"
        }
      ],
      "name": "WrongDecimalNumber",
      "type": "error"
    },
    {
      "inputs": [
        {
          "internalType": "uint256",
          "name": "max",
          "type": "uint256"
        },
        {
          "internalType": "uint256",
          "name": "amountWanted",
          "type": "uint256"
        }
      ],
      "name": "WrongMaxDepositPerUser",
      "type": "error"
    },
    {
      "inputs": [
        {
          "internalType": "uint256",
          "name": "maxDeposit",
          "type": "uint256"
        },
        {
          "internalType": "uint256",
          "name": "minInvest",
          "type": "uint256"
        }
      ],
      "name": "WrongMinDepositPerUser",
      "type": "error"
    },
    {
      "inputs": [],
      "name": "WrongSaleTimeStamps",
      "type": "error"
    },
    {
      "inputs": [
        {
          "internalType": "enum SaleStep",
          "name": "currentStep",
          "type": "uint8"
        }
      ],
      "name": "WrongStep",
      "type": "error"
    },
    {
      "inputs": [
        {
          "internalType": "address",
          "name": "treasury",
          "type": "address"
        }
      ],
      "name": "WrongTreasury",
      "type": "error"
    },
    {
      "inputs": [
        {
          "internalType": "string",
          "name": "vaultURI_",
          "type": "string"
        }
      ],
      "name": "WrongVaultURI",
      "type": "error"
    },
    {
      "anonymous": false,
      "inputs": [
        {
          "indexed": true,
          "internalType": "address",
          "name": "owner",
          "type": "address"
        },
        {
          "indexed": true,
          "internalType": "address",
          "name": "spender",
          "type": "address"
        },
        {
          "indexed": false,
          "internalType": "uint256",
          "name": "value",
          "type": "uint256"
        }
      ],
      "name": "Approval",
      "type": "event"
    },
    {
      "anonymous": false,
      "inputs": [
        {
          "indexed": false,
          "internalType": "uint256",
          "name": "amount",
          "type": "uint256"
        }
      ],
      "name": "CapitalCollected",
      "type": "event"
    },
    {
      "anonymous": false,
      "inputs": [
        {
          "indexed": false,
          "internalType": "uint256",
          "name": "originalCapital",
          "type": "uint256"
        },
        {
          "indexed": false,
          "internalType": "uint256",
          "name": "remainingCapital",
          "type": "uint256"
        },
        {
          "indexed": false,
          "internalType": "uint256",
          "name": "loss",
          "type": "uint256"
        }
      ],
      "name": "CapitalLoss",
      "type": "event"
    },
    {
      "anonymous": false,
      "inputs": [
        {
          "indexed": false,
          "internalType": "uint256",
          "name": "amount",
          "type": "uint256"
        },
        {
          "indexed": false,
          "internalType": "uint256",
          "name": "collected",
          "type": "uint256"
        }
      ],
      "name": "CapitalRefunded",
      "type": "event"
    },
    {
      "anonymous": false,
      "inputs": [
        {
          "indexed": false,
          "internalType": "uint256",
          "name": "softCap",
          "type": "uint256"
        },
        {
          "indexed": false,
          "internalType": "uint256",
          "name": "hardCap",
          "type": "uint256"
        }
      ],
      "name": "CapsUpdated",
      "type": "event"
    },
    {
      "anonymous": false,
      "inputs": [
        {
          "indexed": true,
          "internalType": "address",
          "name": "sender",
          "type": "address"
        },
        {
          "indexed": true,
          "internalType": "address",
          "name": "owner",
          "type": "address"
        },
        {
          "indexed": false,
          "internalType": "uint256",
          "name": "assets",
          "type": "uint256"
        },
        {
          "indexed": false,
          "internalType": "uint256",
          "name": "shares",
          "type": "uint256"
        }
      ],
      "name": "Deposit",
      "type": "event"
    },
    {
      "anonymous": false,
      "inputs": [
        {
          "indexed": false,
          "internalType": "uint8",
          "name": "version",
          "type": "uint8"
        }
      ],
      "name": "Initialized",
      "type": "event"
    },
    {
      "anonymous": false,
      "inputs": [
        {
          "indexed": false,
          "internalType": "uint256",
          "name": "refunded",
          "type": "uint256"
        }
      ],
      "name": "InterestRefunded",
      "type": "event"
    },
    {
      "anonymous": false,
      "inputs": [
        {
          "indexed": false,
          "internalType": "address",
          "name": "from",
          "type": "address"
        },
        {
          "indexed": false,
          "internalType": "int256",
          "name": "amount",
          "type": "int256"
        }
      ],
      "name": "InterestUpdated",
      "type": "event"
    },
    {
      "anonymous": false,
      "inputs": [
        {
          "indexed": false,
          "internalType": "address",
          "name": "account",
          "type": "address"
        }
      ],
      "name": "Paused",
      "type": "event"
    },
    {
      "anonymous": false,
      "inputs": [
        {
          "indexed": false,
          "internalType": "uint256",
          "name": "oldPrice",
          "type": "uint256"
        },
        {
          "indexed": false,
          "internalType": "uint256",
          "name": "newPrice",
          "type": "uint256"
        }
      ],
      "name": "PriceUpdated",
      "type": "event"
    },
    {
      "anonymous": false,
      "inputs": [
        {
          "indexed": true,
          "internalType": "bytes32",
          "name": "role",
          "type": "bytes32"
        },
        {
          "indexed": true,
          "internalType": "bytes32",
          "name": "previousAdminRole",
          "type": "bytes32"
        },
        {
          "indexed": true,
          "internalType": "bytes32",
          "name": "newAdminRole",
          "type": "bytes32"
        }
      ],
      "name": "RoleAdminChanged",
      "type": "event"
    },
    {
      "anonymous": false,
      "inputs": [
        {
          "indexed": true,
          "internalType": "bytes32",
          "name": "role",
          "type": "bytes32"
        },
        {
          "indexed": true,
          "internalType": "address",
          "name": "account",
          "type": "address"
        },
        {
          "indexed": true,
          "internalType": "address",
          "name": "sender",
          "type": "address"
        }
      ],
      "name": "RoleGranted",
      "type": "event"
    },
    {
      "anonymous": false,
      "inputs": [
        {
          "indexed": true,
          "internalType": "bytes32",
          "name": "role",
          "type": "bytes32"
        },
        {
          "indexed": true,
          "internalType": "address",
          "name": "account",
          "type": "address"
        },
        {
          "indexed": true,
          "internalType": "address",
          "name": "sender",
          "type": "address"
        }
      ],
      "name": "RoleRevoked",
      "type": "event"
    },
    {
      "anonymous": false,
      "inputs": [
        {
          "indexed": false,
          "internalType": "uint256",
          "name": "depositsStart",
          "type": "uint256"
        },
        {
          "indexed": false,
          "internalType": "uint256",
          "name": "depositsStop",
          "type": "uint256"
        }
      ],
      "name": "TimesUpdated",
      "type": "event"
    },
    {
      "anonymous": false,
      "inputs": [
        {
          "indexed": false,
          "internalType": "address",
          "name": "from",
          "type": "address"
        },
        {
          "indexed": false,
          "internalType": "uint256",
          "name": "amount",
          "type": "uint256"
        }
      ],
      "name": "TotalRefunded",
      "type": "event"
    },
    {
      "anonymous": false,
      "inputs": [
        {
          "indexed": true,
          "internalType": "address",
          "name": "from",
          "type": "address"
        },
        {
          "indexed": true,
          "internalType": "address",
          "name": "to",
          "type": "address"
        },
        {
          "indexed": false,
          "internalType": "uint256",
          "name": "value",
          "type": "uint256"
        }
      ],
      "name": "Transfer",
      "type": "event"
    },
    {
      "anonymous": false,
      "inputs": [
        {
          "indexed": false,
          "internalType": "address",
          "name": "oldTreasury",
          "type": "address"
        },
        {
          "indexed": false,
          "internalType": "address",
          "name": "newTreasury",
          "type": "address"
        }
      ],
      "name": "TreasuryUpdated",
      "type": "event"
    },
    {
      "anonymous": false,
      "inputs": [
        {
          "indexed": false,
          "internalType": "uint256",
          "name": "amount",
          "type": "uint256"
        }
      ],
      "name": "UnclaimedFundsCollected",
      "type": "event"
    },
    {
      "anonymous": false,
      "inputs": [
        {
          "indexed": false,
          "internalType": "address",
          "name": "account",
          "type": "address"
        }
      ],
      "name": "Unpaused",
      "type": "event"
    },
    {
      "anonymous": false,
      "inputs": [
        {
          "indexed": false,
          "internalType": "string",
          "name": "vaultURI_",
          "type": "string"
        }
      ],
      "name": "VaultURIUpdated",
      "type": "event"
    },
    {
      "anonymous": false,
      "inputs": [
        {
          "indexed": true,
          "internalType": "address",
          "name": "sender",
          "type": "address"
        },
        {
          "indexed": true,
          "internalType": "address",
          "name": "receiver",
          "type": "address"
        },
        {
          "indexed": true,
          "internalType": "address",
          "name": "owner",
          "type": "address"
        },
        {
          "indexed": false,
          "internalType": "uint256",
          "name": "assets",
          "type": "uint256"
        },
        {
          "indexed": false,
          "internalType": "uint256",
          "name": "shares",
          "type": "uint256"
        }
      ],
      "name": "Withdraw",
      "type": "event"
    },
    {
      "inputs": [],
      "name": "DEFAULT_ADMIN_ROLE",
      "outputs": [
        {
          "internalType": "bytes32",
          "name": "",
          "type": "bytes32"
        }
      ],
      "stateMutability": "view",
      "type": "function"
    },
    {
      "inputs": [],
      "name": "DEV",
      "outputs": [
        {
          "internalType": "bytes32",
          "name": "",
          "type": "bytes32"
        }
      ],
      "stateMutability": "view",
      "type": "function"
    },
    {
      "inputs": [],
      "name": "KONKRETE",
      "outputs": [
        {
          "internalType": "bytes32",
          "name": "",
          "type": "bytes32"
        }
      ],
      "stateMutability": "view",
      "type": "function"
    },
    {
      "inputs": [],
      "name": "TIMELOCK",
      "outputs": [
        {
          "internalType": "bytes32",
          "name": "",
          "type": "bytes32"
        }
      ],
      "stateMutability": "view",
      "type": "function"
    },
    {
      "inputs": [
        {
          "internalType": "address",
          "name": "owner",
          "type": "address"
        },
        {
          "internalType": "address",
          "name": "spender",
          "type": "address"
        }
      ],
      "name": "allowance",
      "outputs": [
        {
          "internalType": "uint256",
          "name": "",
          "type": "uint256"
        }
      ],
      "stateMutability": "view",
      "type": "function"
    },
    {
      "inputs": [
        {
          "internalType": "uint256",
          "name": "priceRaiseOrLower",
          "type": "uint256"
        }
      ],
      "name": "amountImpact",
      "outputs": [
        {
          "internalType": "uint256",
          "name": "",
          "type": "uint256"
        }
      ],
      "stateMutability": "view",
      "type": "function"
    },
    {
      "inputs": [
        {
          "internalType": "address",
          "name": "spender",
          "type": "address"
        },
        {
          "internalType": "uint256",
          "name": "amount",
          "type": "uint256"
        }
      ],
      "name": "approve",
      "outputs": [
        {
          "internalType": "bool",
          "name": "",
          "type": "bool"
        }
      ],
      "stateMutability": "nonpayable",
      "type": "function"
    },
    {
      "inputs": [],
      "name": "asset",
      "outputs": [
        {
          "internalType": "address",
          "name": "",
          "type": "address"
        }
      ],
      "stateMutability": "view",
      "type": "function"
    },
    {
      "inputs": [
        {
          "internalType": "address",
          "name": "account",
          "type": "address"
        }
      ],
      "name": "balanceOf",
      "outputs": [
        {
          "internalType": "uint256",
          "name": "",
          "type": "uint256"
        }
      ],
      "stateMutability": "view",
      "type": "function"
    },
    {
      "inputs": [],
      "name": "collectCapital",
      "outputs": [
        {
          "internalType": "uint256",
          "name": "collected",
          "type": "uint256"
        }
      ],
      "stateMutability": "nonpayable",
      "type": "function"
    },
    {
      "inputs": [],
      "name": "collectUnclaimedFunds",
      "outputs": [
        {
          "internalType": "uint256",
          "name": "pendingFunds",
          "type": "uint256"
        }
      ],
      "stateMutability": "nonpayable",
      "type": "function"
    },
    {
      "inputs": [],
      "name": "collectedCapital",
      "outputs": [
        {
          "internalType": "uint256",
          "name": "",
          "type": "uint256"
        }
      ],
      "stateMutability": "view",
      "type": "function"
    },
    {
      "inputs": [
        {
          "internalType": "uint256",
          "name": "shares",
          "type": "uint256"
        }
      ],
      "name": "convertToAssets",
      "outputs": [
        {
          "internalType": "uint256",
          "name": "assets",
          "type": "uint256"
        }
      ],
      "stateMutability": "view",
      "type": "function"
    },
    {
      "inputs": [
        {
          "internalType": "uint256",
          "name": "assets",
          "type": "uint256"
        }
      ],
      "name": "convertToShares",
      "outputs": [
        {
          "internalType": "uint256",
          "name": "shares",
          "type": "uint256"
        }
      ],
      "stateMutability": "view",
      "type": "function"
    },
    {
      "inputs": [],
      "name": "dataBase",
      "outputs": [
        {
          "internalType": "contract IDatabase",
          "name": "",
          "type": "address"
        }
      ],
      "stateMutability": "view",
      "type": "function"
    },
    {
      "inputs": [],
      "name": "decimals",
      "outputs": [
        {
          "internalType": "uint8",
          "name": "",
          "type": "uint8"
        }
      ],
      "stateMutability": "view",
      "type": "function"
    },
    {
      "inputs": [
        {
          "internalType": "address",
          "name": "spender",
          "type": "address"
        },
        {
          "internalType": "uint256",
          "name": "subtractedValue",
          "type": "uint256"
        }
      ],
      "name": "decreaseAllowance",
      "outputs": [
        {
          "internalType": "bool",
          "name": "",
          "type": "bool"
        }
      ],
      "stateMutability": "nonpayable",
      "type": "function"
    },
    {
      "inputs": [
        {
          "internalType": "uint256",
          "name": "assets",
          "type": "uint256"
        },
        {
          "internalType": "address",
          "name": "receiver",
          "type": "address"
        }
      ],
      "name": "deposit",
      "outputs": [
        {
          "internalType": "uint256",
          "name": "",
          "type": "uint256"
        }
      ],
      "stateMutability": "nonpayable",
      "type": "function"
    },
    {
      "inputs": [],
      "name": "depositsStart",
      "outputs": [
        {
          "internalType": "uint256",
          "name": "",
          "type": "uint256"
        }
      ],
      "stateMutability": "view",
      "type": "function"
    },
    {
      "inputs": [],
      "name": "depositsStop",
      "outputs": [
        {
          "internalType": "uint256",
          "name": "",
          "type": "uint256"
        }
      ],
      "stateMutability": "view",
      "type": "function"
    },
    {
      "inputs": [
        {
          "internalType": "bytes32",
          "name": "role",
          "type": "bytes32"
        }
      ],
      "name": "getRoleAdmin",
      "outputs": [
        {
          "internalType": "bytes32",
          "name": "",
          "type": "bytes32"
        }
      ],
      "stateMutability": "view",
      "type": "function"
    },
    {
      "inputs": [
        {
          "internalType": "bytes32",
          "name": "role",
          "type": "bytes32"
        },
        {
          "internalType": "uint256",
          "name": "index",
          "type": "uint256"
        }
      ],
      "name": "getRoleMember",
      "outputs": [
        {
          "internalType": "address",
          "name": "",
          "type": "address"
        }
      ],
      "stateMutability": "view",
      "type": "function"
    },
    {
      "inputs": [
        {
          "internalType": "bytes32",
          "name": "role",
          "type": "bytes32"
        }
      ],
      "name": "getRoleMemberCount",
      "outputs": [
        {
          "internalType": "uint256",
          "name": "",
          "type": "uint256"
        }
      ],
      "stateMutability": "view",
      "type": "function"
    },
    {
      "inputs": [],
      "name": "getStep",
      "outputs": [
        {
          "internalType": "enum SaleStep",
          "name": "step",
          "type": "uint8"
        }
      ],
      "stateMutability": "view",
      "type": "function"
    },
    {
      "inputs": [
        {
          "internalType": "bytes32",
          "name": "role",
          "type": "bytes32"
        },
        {
          "internalType": "address",
          "name": "account",
          "type": "address"
        }
      ],
      "name": "grantRole",
      "outputs": [],
      "stateMutability": "nonpayable",
      "type": "function"
    },
    {
      "inputs": [],
      "name": "hardCap",
      "outputs": [
        {
          "internalType": "uint256",
          "name": "",
          "type": "uint256"
        }
      ],
      "stateMutability": "view",
      "type": "function"
    },
    {
      "inputs": [
        {
          "internalType": "bytes32",
          "name": "role",
          "type": "bytes32"
        },
        {
          "internalType": "address",
          "name": "account",
          "type": "address"
        }
      ],
      "name": "hasRole",
      "outputs": [
        {
          "internalType": "bool",
          "name": "",
          "type": "bool"
        }
      ],
      "stateMutability": "view",
      "type": "function"
    },
    {
      "inputs": [
        {
          "internalType": "address",
          "name": "spender",
          "type": "address"
        },
        {
          "internalType": "uint256",
          "name": "addedValue",
          "type": "uint256"
        }
      ],
      "name": "increaseAllowance",
      "outputs": [
        {
          "internalType": "bool",
          "name": "",
          "type": "bool"
        }
      ],
      "stateMutability": "nonpayable",
      "type": "function"
    },
    {
      "inputs": [
        {
          "internalType": "address",
          "name": "asset_",
          "type": "address"
        },
        {
          "internalType": "string",
          "name": "name_",
          "type": "string"
        },
        {
          "internalType": "string",
          "name": "symbol_",
          "type": "string"
        },
        {
          "internalType": "string",
          "name": "vaultURI_",
          "type": "string"
        },
        {
          "internalType": "address",
          "name": "multisig",
          "type": "address"
        },
        {
          "internalType": "address",
          "name": "treasury_",
          "type": "address"
        },
        {
          "internalType": "contract IDatabase",
          "name": "dataBase_",
          "type": "address"
        },
        {
          "internalType": "uint256",
          "name": "softCap_",
          "type": "uint256"
        },
        {
          "internalType": "uint256",
          "name": "hardcap_",
          "type": "uint256"
        },
        {
          "internalType": "uint256",
          "name": "depositsStart_",
          "type": "uint256"
        },
        {
          "internalType": "uint256",
          "name": "depositsStop_",
          "type": "uint256"
        }
      ],
      "name": "initialize",
      "outputs": [],
      "stateMutability": "nonpayable",
      "type": "function"
    },
    {
      "inputs": [
        {
          "internalType": "address",
          "name": "user",
          "type": "address"
        }
      ],
      "name": "maxDeposit",
      "outputs": [
        {
          "internalType": "uint256",
          "name": "",
          "type": "uint256"
        }
      ],
      "stateMutability": "view",
      "type": "function"
    },
    {
      "inputs": [],
      "name": "maxDepositPerUser",
      "outputs": [
        {
          "internalType": "uint256",
          "name": "",
          "type": "uint256"
        }
      ],
      "stateMutability": "view",
      "type": "function"
    },
    {
      "inputs": [
        {
          "internalType": "address",
          "name": "user",
          "type": "address"
        }
      ],
      "name": "maxMint",
      "outputs": [
        {
          "internalType": "uint256",
          "name": "",
          "type": "uint256"
        }
      ],
      "stateMutability": "view",
      "type": "function"
    },
    {
      "inputs": [
        {
          "internalType": "address",
          "name": "owner",
          "type": "address"
        }
      ],
      "name": "maxRedeem",
      "outputs": [
        {
          "internalType": "uint256",
          "name": "",
          "type": "uint256"
        }
      ],
      "stateMutability": "view",
      "type": "function"
    },
    {
      "inputs": [
        {
          "internalType": "address",
          "name": "owner",
          "type": "address"
        }
      ],
      "name": "maxWithdraw",
      "outputs": [
        {
          "internalType": "uint256",
          "name": "",
          "type": "uint256"
        }
      ],
      "stateMutability": "view",
      "type": "function"
    },
    {
      "inputs": [
        {
          "internalType": "address",
          "name": "user",
          "type": "address"
        }
      ],
      "name": "minInvest",
      "outputs": [
        {
          "internalType": "uint256",
          "name": "",
          "type": "uint256"
        }
      ],
      "stateMutability": "view",
      "type": "function"
    },
    {
      "inputs": [],
      "name": "minInvestPerUser",
      "outputs": [
        {
          "internalType": "uint256",
          "name": "",
          "type": "uint256"
        }
      ],
      "stateMutability": "view",
      "type": "function"
    },
    {
      "inputs": [
        {
          "internalType": "uint256",
          "name": "shares",
          "type": "uint256"
        },
        {
          "internalType": "address",
          "name": "receiver",
          "type": "address"
        }
      ],
      "name": "mint",
      "outputs": [
        {
          "internalType": "uint256",
          "name": "",
          "type": "uint256"
        }
      ],
      "stateMutability": "nonpayable",
      "type": "function"
    },
    {
      "inputs": [],
      "name": "name",
      "outputs": [
        {
          "internalType": "string",
          "name": "",
          "type": "string"
        }
      ],
      "stateMutability": "view",
      "type": "function"
    },
    {
      "inputs": [],
      "name": "originalPrice",
      "outputs": [
        {
          "internalType": "uint256",
          "name": "",
          "type": "uint256"
        }
      ],
      "stateMutability": "view",
      "type": "function"
    },
    {
      "inputs": [],
      "name": "pause",
      "outputs": [],
      "stateMutability": "nonpayable",
      "type": "function"
    },
    {
      "inputs": [],
      "name": "paused",
      "outputs": [
        {
          "internalType": "bool",
          "name": "",
          "type": "bool"
        }
      ],
      "stateMutability": "view",
      "type": "function"
    },
    {
      "inputs": [
        {
          "internalType": "uint256",
          "name": "assets",
          "type": "uint256"
        }
      ],
      "name": "previewDeposit",
      "outputs": [
        {
          "internalType": "uint256",
          "name": "",
          "type": "uint256"
        }
      ],
      "stateMutability": "view",
      "type": "function"
    },
    {
      "inputs": [
        {
          "internalType": "uint256",
          "name": "shares",
          "type": "uint256"
        }
      ],
      "name": "previewMint",
      "outputs": [
        {
          "internalType": "uint256",
          "name": "",
          "type": "uint256"
        }
      ],
      "stateMutability": "view",
      "type": "function"
    },
    {
      "inputs": [
        {
          "internalType": "uint256",
          "name": "shares",
          "type": "uint256"
        }
      ],
      "name": "previewRedeem",
      "outputs": [
        {
          "internalType": "uint256",
          "name": "",
          "type": "uint256"
        }
      ],
      "stateMutability": "view",
      "type": "function"
    },
    {
      "inputs": [
        {
          "internalType": "uint256",
          "name": "assets",
          "type": "uint256"
        }
      ],
      "name": "previewWithdraw",
      "outputs": [
        {
          "internalType": "uint256",
          "name": "",
          "type": "uint256"
        }
      ],
      "stateMutability": "view",
      "type": "function"
    },
    {
      "inputs": [
        {
          "internalType": "uint256",
          "name": "amountOfInterest",
          "type": "uint256"
        }
      ],
      "name": "priceImpact",
      "outputs": [
        {
          "internalType": "uint256",
          "name": "",
          "type": "uint256"
        }
      ],
      "stateMutability": "view",
      "type": "function"
    },
    {
      "inputs": [
        {
          "internalType": "uint256",
          "name": "shares",
          "type": "uint256"
        },
        {
          "internalType": "address",
          "name": "receiver",
          "type": "address"
        },
        {
          "internalType": "address",
          "name": "owner",
          "type": "address"
        }
      ],
      "name": "redeem",
      "outputs": [
        {
          "internalType": "uint256",
          "name": "assets",
          "type": "uint256"
        }
      ],
      "stateMutability": "nonpayable",
      "type": "function"
    },
    {
      "inputs": [
        {
          "internalType": "uint256",
          "name": "capitalAndInterest",
          "type": "uint256"
        }
      ],
      "name": "refundCapital",
      "outputs": [],
      "stateMutability": "nonpayable",
      "type": "function"
    },
    {
      "inputs": [],
      "name": "refunded",
      "outputs": [
        {
          "internalType": "bool",
          "name": "",
          "type": "bool"
        }
      ],
      "stateMutability": "view",
      "type": "function"
    },
    {
      "inputs": [
        {
          "internalType": "bytes32",
          "name": "role",
          "type": "bytes32"
        },
        {
          "internalType": "address",
          "name": "account",
          "type": "address"
        }
      ],
      "name": "renounceRole",
      "outputs": [],
      "stateMutability": "nonpayable",
      "type": "function"
    },
    {
      "inputs": [
        {
          "internalType": "bytes32",
          "name": "role",
          "type": "bytes32"
        },
        {
          "internalType": "address",
          "name": "account",
          "type": "address"
        }
      ],
      "name": "revokeRole",
      "outputs": [],
      "stateMutability": "nonpayable",
      "type": "function"
    },
    {
      "inputs": [
        {
          "internalType": "uint256",
          "name": "soft",
          "type": "uint256"
        },
        {
          "internalType": "uint256",
          "name": "hard",
          "type": "uint256"
        }
      ],
      "name": "setCaps",
      "outputs": [],
      "stateMutability": "nonpayable",
      "type": "function"
    },
    {
      "inputs": [
        {
          "internalType": "contract IDatabase",
          "name": "database_",
          "type": "address"
        }
      ],
      "name": "setDatabase",
      "outputs": [],
      "stateMutability": "nonpayable",
      "type": "function"
    },
    {
      "inputs": [
        {
          "internalType": "uint256",
          "name": "minInvest_",
          "type": "uint256"
        },
        {
          "internalType": "uint256",
          "name": "maxDeposit_",
          "type": "uint256"
        }
      ],
      "name": "setDepositLimitsPerUser",
      "outputs": [],
      "stateMutability": "nonpayable",
      "type": "function"
    },
    {
      "inputs": [
        {
          "internalType": "uint256",
          "name": "start",
          "type": "uint256"
        },
        {
          "internalType": "uint256",
          "name": "stop",
          "type": "uint256"
        }
      ],
      "name": "setTimes",
      "outputs": [],
      "stateMutability": "nonpayable",
      "type": "function"
    },
    {
      "inputs": [
        {
          "internalType": "address",
          "name": "treasury_",
          "type": "address"
        }
      ],
      "name": "setTreasury",
      "outputs": [],
      "stateMutability": "nonpayable",
      "type": "function"
    },
    {
      "inputs": [
        {
          "internalType": "string",
          "name": "vaultURI_",
          "type": "string"
        }
      ],
      "name": "setVaultURI",
      "outputs": [],
      "stateMutability": "nonpayable",
      "type": "function"
    },
    {
      "inputs": [],
      "name": "softCap",
      "outputs": [
        {
          "internalType": "uint256",
          "name": "",
          "type": "uint256"
        }
      ],
      "stateMutability": "view",
      "type": "function"
    },
    {
      "inputs": [
        {
          "internalType": "bytes4",
          "name": "interfaceId",
          "type": "bytes4"
        }
      ],
      "name": "supportsInterface",
      "outputs": [
        {
          "internalType": "bool",
          "name": "",
          "type": "bool"
        }
      ],
      "stateMutability": "view",
      "type": "function"
    },
    {
      "inputs": [],
      "name": "symbol",
      "outputs": [
        {
          "internalType": "string",
          "name": "",
          "type": "string"
        }
      ],
      "stateMutability": "view",
      "type": "function"
    },
    {
      "inputs": [],
      "name": "tokenPrice",
      "outputs": [
        {
          "internalType": "uint256",
          "name": "",
          "type": "uint256"
        }
      ],
      "stateMutability": "view",
      "type": "function"
    },
    {
      "inputs": [],
      "name": "totalAssets",
      "outputs": [
        {
          "internalType": "uint256",
          "name": "",
          "type": "uint256"
        }
      ],
      "stateMutability": "view",
      "type": "function"
    },
    {
      "inputs": [],
      "name": "totalSupply",
      "outputs": [
        {
          "internalType": "uint256",
          "name": "",
          "type": "uint256"
        }
      ],
      "stateMutability": "view",
      "type": "function"
    },
    {
      "inputs": [
        {
          "internalType": "address",
          "name": "to",
          "type": "address"
        },
        {
          "internalType": "uint256",
          "name": "amount",
          "type": "uint256"
        }
      ],
      "name": "transfer",
      "outputs": [
        {
          "internalType": "bool",
          "name": "",
          "type": "bool"
        }
      ],
      "stateMutability": "nonpayable",
      "type": "function"
    },
    {
      "inputs": [
        {
          "internalType": "address",
          "name": "from",
          "type": "address"
        },
        {
          "internalType": "address",
          "name": "to",
          "type": "address"
        },
        {
          "internalType": "uint256",
          "name": "amount",
          "type": "uint256"
        }
      ],
      "name": "transferFrom",
      "outputs": [
        {
          "internalType": "bool",
          "name": "",
          "type": "bool"
        }
      ],
      "stateMutability": "nonpayable",
      "type": "function"
    },
    {
      "inputs": [],
      "name": "treasury",
      "outputs": [
        {
          "internalType": "address",
          "name": "",
          "type": "address"
        }
      ],
      "stateMutability": "view",
      "type": "function"
    },
    {
      "inputs": [],
      "name": "unpause",
      "outputs": [],
      "stateMutability": "nonpayable",
      "type": "function"
    },
    {
      "inputs": [
        {
          "internalType": "int256",
          "name": "interest",
          "type": "int256"
        }
      ],
      "name": "updateInterest",
      "outputs": [],
      "stateMutability": "nonpayable",
      "type": "function"
    },
    {
      "inputs": [],
      "name": "vaultURI",
      "outputs": [
        {
          "internalType": "string",
          "name": "",
          "type": "string"
        }
      ],
      "stateMutability": "view",
      "type": "function"
    },
    {
      "inputs": [
        {
          "internalType": "uint256",
          "name": "assets",
          "type": "uint256"
        },
        {
          "internalType": "address",
          "name": "receiver",
          "type": "address"
        },
        {
          "internalType": "address",
          "name": "owner",
          "type": "address"
        }
      ],
      "name": "withdraw",
      "outputs": [
        {
          "internalType": "uint256",
          "name": "shares",
          "type": "uint256"
        }
      ],
      "stateMutability": "nonpayable",
      "type": "function"
    }
  ],
  "bytecode": {
    "object": "0x60806040523480156200001157600080fd5b50600054610100900460ff1615808015620000335750600054600160ff909116105b8062000063575062000050306200013d60201b62001c161760201c565b15801562000063575060005460ff166001145b620000cb5760405162461bcd60e51b815260206004820152602e60248201527f496e697469616c697a61626c653a20636f6e747261637420697320616c72656160448201526d191e481a5b9a5d1a585b1a5e995960921b606482015260840160405180910390fd5b6000805460ff191660011790558015620000ef576000805461ff0019166101001790555b801562000136576000805461ff0019169055604051600181527f7f26b83ff96e1f2b6a682f133852f6798a09c465da95921460cefb38474024989060200160405180910390a15b506200014c565b6001600160a01b03163b151590565b613d98806200015c6000396000f3fe608060405234801561001057600080fd5b50600436106104125760003560e01c80637ff9b59611610220578063b460af9411610130578063d905777e116100b8578063e35d33f611610087578063e35d33f614610769578063ef8b30f7146107e5578063f0f4426014610885578063f542037414610898578063fb86a404146108ab57600080fd5b8063d905777e14610839578063dd62ed3e1461084c578063dfd5473c1461085f578063e0f41f3a1461087257600080fd5b8063c6e6f592116100ff578063c6e6f592146107e5578063ca15c873146107f8578063ce96cb771461080b578063d406008d1461081e578063d547741f1461082657600080fd5b8063b460af94146107aa578063ba087652146107bd578063c1eb5ddd146107d0578063c63d75b6146105e457600080fd5b8063906a26e0116101b35780639e5288a0116101825780639e5288a014610754578063a217fddf14610769578063a457c2d714610771578063a9059cbb14610784578063b3d7f6b91461079757600080fd5b8063906a26e01461072f57806391d148541461073957806394bf804d1461065a57806395d89b411461074c57600080fd5b80638456cb59116101ef5780638456cb59146106f75780638cd51106146106ff5780638e95bab2146107125780639010d07c1461071c57600080fd5b80637ff9b596146106c657806381d5a8c1146106d057806382e5310c146106da57806384061853146106e457600080fd5b806336568abe116103265780635a67f6cb116102ae57806361d027b31161027d57806361d027b3146106465780636e553f651461065a57806370a082311461066d57806376a24f25146106965780637aadef8b1461069f57600080fd5b80635a67f6cb1461060b5780635c975abb1461061e5780635cb5e41d1461062a5780635dc5eaf31461063e57600080fd5b80633f4ba83a116102f55780633f4ba83a146105dc578063402d267d146105e45780634aea1bf8146105f75780634cdad5061461046a5780634f2bef3e1461060157600080fd5b806336568abe1461057e578063373cad571461059157806338d52e0f146105a457806339509351146105c957600080fd5b80631a28bc6e116103a957806323b872dd1161037857806323b872dd1461050e578063248a9ca31461052157806329d29799146105445780632f2ff15d1461054c578063313ce5671461055f57600080fd5b80631a28bc6e146104c0578063211e846f146104d5578063212bf316146104e857806322434836146104fb57600080fd5b8063095ea7b3116103e5578063095ea7b31461047d5780630a28a4771461049057806312f53950146104a357806318160ddd146104b857600080fd5b806301e1d1141461041757806301ffc9a71461043257806306fdde031461045557806307a2d13a1461046a575b600080fd5b61041f6108b5565b6040519081526020015b60405180910390f35b6104456104403660046134f3565b610927565b6040519015158152602001610429565b61045d610952565b6040516104299190613549565b61041f61047836600461357c565b6109e4565b61044561048b3660046135ba565b6109f1565b61041f61049e36600461357c565b610a09565b6101935461044590600160a01b900460ff1681565b60355461041f565b6104d36104ce3660046135e6565b610a16565b005b61041f6104e336600461357c565b610a98565b6104d36104f63660046135e6565b610ab2565b6104d36105093660046135e6565b610b3e565b61044561051c366004613608565b610c0d565b61041f61052f36600461357c565b600090815260c9602052604090206001015490565b61041f610c33565b6104d361055a366004613649565b610cba565b606554600160a01b900460ff1660405160ff9091168152602001610429565b6104d361058c366004613649565b610ce4565b6104d361059f36600461357c565b610d62565b6065546001600160a01b03165b6040516001600160a01b039091168152602001610429565b6104456105d73660046135ba565b610f61565b6104d3610f83565b61041f6105f2366004613679565b610f99565b61041f6101975481565b61041f6101955481565b6104d361061936600461357c565b610fd1565b61015f5460ff16610445565b610192546105b1906001600160a01b031681565b61045d611164565b610193546105b1906001600160a01b031681565b61041f610668366004613649565b6111f3565b61041f61067b366004613679565b6001600160a01b031660009081526033602052604090205490565b6101915461041f565b61041f7faefebe170cbaff0af052a32795af0e1b8afff9850f946ad2869be14f3553437181565b61041f61019a5481565b61041f6101945481565b61041f6101965481565b61041f6106f236600461357c565b61121d565b6104d3611237565b6104d361070d366004613739565b611257565b61041f61019b5481565b6105b161072a3660046135e6565b61158a565b61041f6101985481565b610445610747366004613649565b6115a2565b61045d6115cd565b61075c6115dc565b604051610429919061386a565b61041f600081565b61044561077f3660046135ba565b611632565b6104456107923660046135ba565b6116b8565b61041f6107a536600461357c565b6116c6565b61041f6107b8366004613878565b6116d3565b61041f6107cb366004613878565b6117b7565b61041f600080516020613d4383398151915281565b61041f6107f336600461357c565b611889565b61041f61080636600461357c565b611896565b61041f610819366004613679565b6118ad565b61041f6118f8565b6104d3610834366004613649565b611961565b61041f610847366004613679565b611986565b61041f61085a3660046138ba565b6119c6565b6104d361086d3660046138e8565b6119f1565b61041f610880366004613679565b611a6e565b6104d3610893366004613679565b611aae565b6104d36108a6366004613679565b611b5b565b61041f6101995481565b6065546040516370a0823160e01b81523060048201526000916001600160a01b0316906370a0823190602401602060405180830381865afa1580156108fe573d6000803e3d6000fd5b505050506040513d601f19601f82011682018060405250810190610922919061395a565b905090565b60006001600160e01b03198216635a05180f60e01b148061094c575061094c82611c25565b92915050565b60606036805461096190613973565b80601f016020809104026020016040519081016040528092919081815260200182805461098d90613973565b80156109da5780601f106109af576101008083540402835291602001916109da565b820191906000526020600020905b8154815290600101906020018083116109bd57829003601f168201915b5050505050905090565b600061094c826000611c5a565b6000336109ff818585611c7e565b5060019392505050565b600061094c826001611da2565b600080516020613d43833981519152610a2e81611dc6565b6101985480831115610a625760405163010a45ab60e21b815260048101829052602481018490526044015b60405180910390fd5b828410610a8c5760405163010a45ab60e21b81526004810182905260248101859052604401610a59565b50506101965561019755565b600061094c610aa660355490565b61019154849190611dd0565b600080516020613d43833981519152610aca81611dc6565b821580610ad657508183115b15610af457604051630c5af70760e11b815260040160405180910390fd5b61019883905561019982905560408051848152602081018490527ffa35f2d22b9a5eb6bed3254e60910f91291653a71679c8cbb1f00d24551a45c4910160405180910390a1505050565b600080516020613d43833981519152610b5681611dc6565b6000610b606115dc565b90506002816004811115610b7657610b76613832565b1115610b9757806040516336100b6760e11b8152600401610a59919061386a565b82841180610ba457504284105b15610bc2576040516335c4a3b960e11b815260040160405180910390fd5b61019484905561019583905560408051858152602081018590527f8f8d0d2155084c34c7e189b664aa128aebfd57e564d2d01c82a148d3da3a3bbc910160405180910390a150505050565b600033610c1b858285611e7f565b610c26858585611ef3565b60019150505b9392505050565b610193546000906001600160a01b0316338114610c7157335b604051634ab6cb6760e11b81526001600160a01b039091166004820152602401610a59565b610c7b600261209e565b91507fcd44c06e81c4f40db53746db76839e7106609855a483a8e72a05877dc3ea225c82604051610cae91815260200190565b60405180910390a15090565b600082815260c96020526040902060010154610cd581611dc6565b610cdf83836121b6565b505050565b6001600160a01b0381163314610d545760405162461bcd60e51b815260206004820152602f60248201527f416363657373436f6e74726f6c3a2063616e206f6e6c792072656e6f756e636560448201526e103937b632b9903337b91039b2b63360891b6064820152608401610a59565b610d5e82826121d8565b5050565b610193546001600160a01b0316336001600160a01b031614610d845733610c4c565b6000610d8e6115dc565b90506002816004811115610da457610da4613832565b14158015610dc457506004816004811115610dc157610dc1613832565b14155b15610de457806040516336100b6760e11b8152600401610a59919061386a565b61019b548015610e1757610e17333085610e066065546001600160a01b031690565b6001600160a01b03169291906121fa565b60408051848152602081018390527f502833ea9eb26966767980111b75e4b8e013aeea7b9493478424afc7869399c4910160405180910390a16000610e5c82856139c3565b61019a549091506000821215610ebb577f727586bb3240e37cfc23d9c04f5d2c8f8c85602f6be89e0a8698e1a5a4c891d08386610e9885613a02565b6040805193845260208401929092529082015260600160405180910390a1610ef8565b6000821315610ef8576040518281527f8a335823c2fa2c1e28bd8d65eb9cbe0194f76293b1626a460597adc993d606cd9060200160405180910390a15b6000610f038661121d565b61019a819055610193805460ff60a01b1916600160a01b17905560408051848152602081018390529192507f945c1c4e99aa89f648fbfe3df471b916f719e16d960fcec0737d4d56bd696838910160405180910390a1505050505050565b6000336109ff818585610f7483836119c6565b610f7e9190613a1e565b611c7e565b6000610f8e81611dc6565b610f96612265565b50565b60006001610fa56115dc565b6004811115610fb657610fb6613832565b03610fc957610fc4826122b8565b61094c565b600092915050565b600080516020613d43833981519152610fe981611dc6565b6000610ff36115dc565b9050600281600481111561100957611009613832565b1461102957806040516336100b6760e11b8152600401610a59919061386a565b61019a546000808512156110c05760006110456106f287613a02565b90508281111561106b57604051637cef6ce360e11b815260048101879052602401610a59565b6110758184613a36565b91507f5ac4f964bd8aac40cf8a592c906866d09d34e81d1ef0b1c659252c3151e471c333604080516001600160a01b039092168252602082018990520160405180910390a15061111e565b60006110cb8661121d565b90506110d78184613a1e565b91507f5ac4f964bd8aac40cf8a592c906866d09d34e81d1ef0b1c659252c3151e471c333604080516001600160a01b039092168252602082018990520160405180910390a1505b61019a81905560408051838152602081018390527f945c1c4e99aa89f648fbfe3df471b916f719e16d960fcec0737d4d56bd696838910160405180910390a15050505050565b61019c805461117290613973565b80601f016020809104026020016040519081016040528092919081815260200182805461119e90613973565b80156111eb5780601f106111c0576101008083540402835291602001916111eb565b820191906000526020600020905b8154815290600101906020018083116111ce57829003601f168201915b505050505081565b60006111fd612342565b61120561239d565b6112108333846123e6565b508161094c600161012d55565b600061094c6101915461122f60355490565b849190611dd0565b600080516020613d4383398151915261124f81611dc6565b610f966125b1565b600054610100900460ff16158080156112775750600054600160ff909116105b806112915750303b158015611291575060005460ff166001145b6112f45760405162461bcd60e51b815260206004820152602e60248201527f496e697469616c697a61626c653a20636f6e747261637420697320616c72656160448201526d191e481a5b9a5d1a585b1a5e995960921b6064820152608401610a59565b6000805460ff191660011790558015611317576000805461ff0019166101001790555b61131f6125ef565b6113288c61261e565b6113328b8b61264e565b61133a61267f565b856001600160a01b031663fe60d26b6040518163ffffffff1660e01b8152600401602060405180830381865afa158015611378573d6000803e3d6000fd5b505050506040513d601f19601f8201168201806040525081019061139c9190613a4d565b6113b9576040516381867da560e01b815260040160405180910390fd5b60008c6001600160a01b031663313ce5676040518163ffffffff1660e01b8152600401602060405180830381865afa1580156113f9573d6000803e3d6000fd5b505050506040513d601f19601f8201168201806040525081019061141d9190613a6f565b60ff16905080601214158015611434575080600614155b15611463576040516315f3703160e31b8152601260048201526006602482015260448101829052606401610a59565b600061147082600a613b76565b905061147d60008b6121b6565b611495600080516020613d438339815191528b6121b6565b6114ad600080516020613d43833981519152336121b6565b8a516114c19061019c9060208e01906133e6565b5061019887905561019986905561019485905561019584905561019380546001600160a01b03808c166001600160a01b0319928316179092556101928054928b1692909116919091179055611517600388613b98565b61019655611527816101f4613bba565b6101975561019a8190556101915550801561157c576000805461ff0019169055604051600181527f7f26b83ff96e1f2b6a682f133852f6798a09c465da95921460cefb38474024989060200160405180910390a15b505050505050505050505050565b600082815260fb60205260408120610c2c90836126ae565b600091825260c9602090815260408084206001600160a01b0393909316845291905290205460ff1690565b60606037805461096190613973565b6000610194544210156115ef5750600090565b610195544210156116005750600190565b6101985461019b5410156116145750600390565b61019354600160a01b900460ff1661162c5750600290565b50600490565b6000338161164082866119c6565b9050838110156116a05760405162461bcd60e51b815260206004820152602560248201527f45524332303a2064656372656173656420616c6c6f77616e63652062656c6f77604482015264207a65726f60d81b6064820152608401610a59565b6116ad8286868403611c7e565b506001949350505050565b6000336109ff818585611ef3565b600061094c826001611c5a565b60006116dd612342565b6116e561239d565b60006116ef6115dc565b9050600281600481111561170557611705613832565b0361172557806040516336100b6760e11b8152600401610a59919061386a565b61172e85610a09565b915061174f836001600160a01b031660009081526033602052604090205490565b82111561179e5760405162461bcd60e51b815260206004820152601f60248201527f455243343632363a207769746864726177206d6f7265207468616e206d6178006044820152606401610a59565b6117ab33858588866126ba565b50610c2c600161012d55565b60006117c1612342565b6117c961239d565b60006117d36115dc565b905060028160048111156117e9576117e9613832565b0361180957806040516336100b6760e11b8152600401610a59919061386a565b6001600160a01b0383166000908152603360205260409020548511156118715760405162461bcd60e51b815260206004820152601d60248201527f455243343632363a2072656465656d206d6f7265207468616e206d61780000006044820152606401610a59565b61187a856109e4565b91506117ab33858585896126ba565b600061094c826000611da2565b600081815260fb6020526040812061094c90612708565b600060026118b96115dc565b60048111156118ca576118ca613832565b14610fc957610fc46118f1836001600160a01b031660009081526033602052604090205490565b6000611c5a565b60007faefebe170cbaff0af052a32795af0e1b8afff9850f946ad2869be14f3553437161192481611dc6565b61192e600461209e565b91507fb4192707c71da259814532b3eb648e78c9d78d6a3b9234baed7a183808f8c54c82604051610cae91815260200190565b600082815260c9602052604090206001015461197c81611dc6565b610cdf83836121d8565b600060026119926115dc565b60048111156119a3576119a3613832565b14610fc9576001600160a01b03821660009081526033602052604090205461094c565b6001600160a01b03918216600090815260346020908152604080832093909416825291909152205490565b60006119fc81611dc6565b6000829003611a225782826040516303c5d03760e01b8152600401610a59929190613bd9565b7f82b4c0c51f891b823eff0c623396a3d488ad9c5fa87eaf6536a5e30257cfe6248383604051611a53929190613bd9565b60405180910390a1611a6861019c848461346a565b50505050565b6001600160a01b038116600090815261019d60205260408120546101975480821015611aa357611a9e8282613a36565b611aa6565b60005b949350505050565b6000611ab981611dc6565b816001600160a01b03163b600003611aef57604051634ab6cb6760e11b81526001600160a01b0383166004820152602401610a59565b61019354604080516001600160a01b03928316815291841660208301527f4ab5be82436d353e61ca18726e984e561f5c1cc7c6d38b29d2553c790434705a910160405180910390a15061019380546001600160a01b0319166001600160a01b0392909216919091179055565b600080516020613d43833981519152611b7381611dc6565b816001600160a01b031663fe60d26b6040518163ffffffff1660e01b8152600401602060405180830381865afa158015611bb1573d6000803e3d6000fd5b505050506040513d601f19601f82011682018060405250810190611bd59190613a4d565b611bf2576040516381867da560e01b815260040160405180910390fd5b5061019280546001600160a01b0319166001600160a01b0392909216919091179055565b6001600160a01b03163b151590565b60006001600160e01b03198216637965db0b60e01b148061094c57506301ffc9a760e01b6001600160e01b031983161461094c565b6000808311611c6a576000610c2c565b61019a5461019154610c2c91859185612712565b6001600160a01b038316611ce05760405162461bcd60e51b8152602060048201526024808201527f45524332303a20617070726f76652066726f6d20746865207a65726f206164646044820152637265737360e01b6064820152608401610a59565b6001600160a01b038216611d415760405162461bcd60e51b815260206004820152602260248201527f45524332303a20617070726f766520746f20746865207a65726f206164647265604482015261737360f01b6064820152608401610a59565b6001600160a01b0383811660008181526034602090815260408083209487168084529482529182902085905590518481527f8c5be1e5ebec7d5bd14f71427d1e84f3dd0314c0f7b2291e5b200ac8c7c3b925910160405180910390a3505050565b6000808311611db2576000610c2c565b6101915461019a54610c2c91859185612712565b610f96813361276f565b6000808060001985870985870292508281108382030391505080600003611e0a57838281611e0057611e00613b82565b0492505050610c2c565b808411611e1657600080fd5b60008486880960026001871981018816978890046003810283188082028403028082028403028082028403028082028403028082028403029081029092039091026000889003889004909101858311909403939093029303949094049190911702949350505050565b6000611e8b84846119c6565b90506000198114611a685781811015611ee65760405162461bcd60e51b815260206004820152601d60248201527f45524332303a20696e73756666696369656e7420616c6c6f77616e63650000006044820152606401610a59565b611a688484848403611c7e565b6001600160a01b038316611f575760405162461bcd60e51b815260206004820152602560248201527f45524332303a207472616e736665722066726f6d20746865207a65726f206164604482015264647265737360d81b6064820152608401610a59565b6001600160a01b038216611fb95760405162461bcd60e51b815260206004820152602360248201527f45524332303a207472616e7366657220746f20746865207a65726f206164647260448201526265737360e81b6064820152608401610a59565b6001600160a01b038316600090815260336020526040902054818110156120315760405162461bcd60e51b815260206004820152602660248201527f45524332303a207472616e7366657220616d6f756e7420657863656564732062604482015265616c616e636560d01b6064820152608401610a59565b6001600160a01b0380851660008181526033602052604080822086860390559286168082529083902080548601905591517fddf252ad1be2c89b69c2b068fc378daa952ba7f163c4a11628f55a4df523b3ef906120919086815260200190565b60405180910390a3611a68565b6000806120a96115dc565b90508260048111156120bd576120bd613832565b8160048111156120cf576120cf613832565b146120f25760048160405163567dfef960e01b8152600401610a59929190613c08565b60006121066065546001600160a01b031690565b6040516370a0823160e01b81523060048201529091506001600160a01b038216906370a0823190602401602060405180830381865afa15801561214d573d6000803e3d6000fd5b505050506040513d601f19601f82011682018060405250810190612171919061395a565b92508260000361219457604051634a2ccc4360e01b815260040160405180910390fd5b610193546121af906001600160a01b038381169116856127c8565b5050919050565b6121c082826127f8565b600082815260fb60205260409020610cdf908261287e565b6121e28282612893565b600082815260fb60205260409020610cdf90826128fa565b6040516001600160a01b0380851660248301528316604482015260648101829052611a689085906323b872dd60e01b906084015b60408051601f198184030181529190526020810180516001600160e01b03166001600160e01b03199093169290921790915261290f565b61226d6129e1565b61015f805460ff191690557f5db9ee0a495bf2e6ff9c91a7834c1ba4fdd244a5e8aa4e537bd38aeae4b073aa335b6040516001600160a01b03909116815260200160405180910390a1565b61019954600090816122c86108b5565b6001600160a01b038516600090815261019d602052604090205490915081831115806122f75750806101965411155b1561230757506000949350505050565b600081610196546123189190613a36565b905060006123268486613a36565b90508082116123355781612337565b805b979650505050505050565b600261012d54036123955760405162461bcd60e51b815260206004820152601f60248201527f5265656e7472616e637947756172643a207265656e7472616e742063616c6c006044820152606401610a59565b600261012d55565b61015f5460ff16156123e45760405162461bcd60e51b815260206004820152601060248201526f14185d5cd8589b194e881c185d5cd95960821b6044820152606401610a59565b565b61019254604051630808f3eb60e01b81526001600160a01b03848116600483015290911690630808f3eb90602401602060405180830381865afa158015612431573d6000803e3d6000fd5b505050506040513d601f19601f820116820180604052508101906124559190613a4d565b61247d5760405163c8f9bd5960e01b81526001600160a01b0383166004820152602401610a59565b60006124876115dc565b9050600181600481111561249d5761249d613832565b146124c05760018160405163567dfef960e01b8152600401610a59929190613c08565b6124c9836122b8565b8411156125185760405162461bcd60e51b815260206004820152601e60248201527f455243343632363a206465706f736974206d6f7265207468616e206d617800006044820152606401610a59565b600061252384611a6e565b905080851015612550576040516313ed593f60e11b81526004810182905260248101869052604401610a59565b61255c84848788612a2b565b8461019b600082825461256f9190613a1e565b90915550506001600160a01b038416600090815261019d60205260408120805487929061259d908490613a1e565b90915550505050505050565b600161012d55565b6125b961239d565b61015f805460ff191660011790557f62e78cea01bee320cd4e420270b5ea74000d11b0c9f74754ebdbfc544b05a25861229b3390565b600054610100900460ff166126165760405162461bcd60e51b8152600401610a5990613c23565b6123e4612aa9565b600054610100900460ff166126455760405162461bcd60e51b8152600401610a5990613c23565b610f9681612add565b600054610100900460ff166126755760405162461bcd60e51b8152600401610a5990613c23565b610d5e8282612b62565b600054610100900460ff166126a65760405162461bcd60e51b8152600401610a5990613c23565b6123e4612bb0565b6000610c2c8383612bd7565b6126c78585858585612c01565b8161019b60008282546126da9190613a36565b90915550506001600160a01b038316600090815261019d60205260408120805484929061259d908490613a36565b600061094c825490565b600080612720868686611dd0565b9050600183600281111561273657612736613832565b14801561275357506000848061274e5761274e613b82565b868809115b1561276657612763600182613a1e565b90505b95945050505050565b61277982826115a2565b610d5e5761278681612cad565b612791836020612cbf565b6040516020016127a2929190613c6e565b60408051601f198184030181529082905262461bcd60e51b8252610a5991600401613549565b6040516001600160a01b038316602482015260448101829052610cdf90849063a9059cbb60e01b9060640161222e565b61280282826115a2565b610d5e57600082815260c9602090815260408083206001600160a01b03851684529091529020805460ff1916600117905561283a3390565b6001600160a01b0316816001600160a01b0316837f2f8788117e7eff1d82e926ec794901d17c78024a50270940304540a733656f0d60405160405180910390a45050565b6000610c2c836001600160a01b038416612e5b565b61289d82826115a2565b15610d5e57600082815260c9602090815260408083206001600160a01b0385168085529252808320805460ff1916905551339285917ff6391f5c32d9c69d2a47ea670b442974b53935d1edc7fd64eb21e047a839171b9190a45050565b6000610c2c836001600160a01b038416612eaa565b6000612964826040518060400160405280602081526020017f5361666545524332303a206c6f772d6c6576656c2063616c6c206661696c6564815250856001600160a01b0316612f9d9092919063ffffffff16565b805190915015610cdf57808060200190518101906129829190613a4d565b610cdf5760405162461bcd60e51b815260206004820152602a60248201527f5361666545524332303a204552433230206f7065726174696f6e20646964206e6044820152691bdd081cdd58d8d9595960b21b6064820152608401610a59565b61015f5460ff166123e45760405162461bcd60e51b815260206004820152601460248201527314185d5cd8589b194e881b9bdd081c185d5cd95960621b6044820152606401610a59565b606554612a43906001600160a01b03168530856121fa565b612a4d8382612fac565b826001600160a01b0316846001600160a01b03167fdcbc1c05240f31ff3ad067ef1ee35ce4997762752e3a095284754544f4c709d78484604051612a9b929190918252602082015260400190565b60405180910390a350505050565b600054610100900460ff16612ad05760405162461bcd60e51b8152600401610a5990613c23565b61015f805460ff19169055565b600054610100900460ff16612b045760405162461bcd60e51b8152600401610a5990613c23565b600080612b108361306d565b9150915081612b20576012612b22565b805b606580546001600160a01b039095166001600160a01b031960ff93909316600160a01b02929092166001600160a81b031990951694909417179092555050565b600054610100900460ff16612b895760405162461bcd60e51b8152600401610a5990613c23565b8151612b9c9060369060208501906133e6565b508051610cdf9060379060208401906133e6565b600054610100900460ff166125a95760405162461bcd60e51b8152600401610a5990613c23565b6000826000018281548110612bee57612bee613ce3565b9060005260206000200154905092915050565b826001600160a01b0316856001600160a01b031614612c2557612c25838683611e7f565b612c2f8382613149565b606554612c46906001600160a01b031685846127c8565b826001600160a01b0316846001600160a01b0316866001600160a01b03167ffbde797d201c681b91056529119e0b02407c7bb96a4a2c75c01fc9667232c8db8585604051612c9e929190918252602082015260400190565b60405180910390a45050505050565b606061094c6001600160a01b03831660145b60606000612cce836002613bba565b612cd9906002613a1e565b67ffffffffffffffff811115612cf157612cf1613696565b6040519080825280601f01601f191660200182016040528015612d1b576020820181803683370190505b509050600360fc1b81600081518110612d3657612d36613ce3565b60200101906001600160f81b031916908160001a905350600f60fb1b81600181518110612d6557612d65613ce3565b60200101906001600160f81b031916908160001a9053506000612d89846002613bba565b612d94906001613a1e565b90505b6001811115612e0c576f181899199a1a9b1b9c1cb0b131b232b360811b85600f1660108110612dc857612dc8613ce3565b1a60f81b828281518110612dde57612dde613ce3565b60200101906001600160f81b031916908160001a90535060049490941c93612e0581613cf9565b9050612d97565b508315610c2c5760405162461bcd60e51b815260206004820181905260248201527f537472696e67733a20686578206c656e67746820696e73756666696369656e746044820152606401610a59565b6000818152600183016020526040812054612ea25750815460018181018455600084815260208082209093018490558454848252828601909352604090209190915561094c565b50600061094c565b60008181526001830160205260408120548015612f93576000612ece600183613a36565b8554909150600090612ee290600190613a36565b9050818114612f47576000866000018281548110612f0257612f02613ce3565b9060005260206000200154905080876000018481548110612f2557612f25613ce3565b6000918252602080832090910192909255918252600188019052604090208390555b8554869080612f5857612f58613d10565b60019003818190600052602060002001600090559055856001016000868152602001908152602001600020600090556001935050505061094c565b600091505061094c565b6060611aa6848460008561327d565b6001600160a01b0382166130025760405162461bcd60e51b815260206004820152601f60248201527f45524332303a206d696e7420746f20746865207a65726f2061646472657373006044820152606401610a59565b80603560008282546130149190613a1e565b90915550506001600160a01b0382166000818152603360209081526040808320805486019055518481527fddf252ad1be2c89b69c2b068fc378daa952ba7f163c4a11628f55a4df523b3ef910160405180910390a35050565b60408051600481526024810182526020810180516001600160e01b031663313ce56760e01b17905290516000918291829182916001600160a01b038716916130b491613d26565b600060405180830381855afa9150503d80600081146130ef576040519150601f19603f3d011682016040523d82523d6000602084013e6130f4565b606091505b509150915081801561310857506020815110155b1561313c57600081806020019051810190613123919061395a565b905060ff811161313a576001969095509350505050565b505b5060009485945092505050565b6001600160a01b0382166131a95760405162461bcd60e51b815260206004820152602160248201527f45524332303a206275726e2066726f6d20746865207a65726f206164647265736044820152607360f81b6064820152608401610a59565b6001600160a01b0382166000908152603360205260409020548181101561321d5760405162461bcd60e51b815260206004820152602260248201527f45524332303a206275726e20616d6f756e7420657863656564732062616c616e604482015261636560f01b6064820152608401610a59565b6001600160a01b03831660008181526033602090815260408083208686039055603580548790039055518581529192917fddf252ad1be2c89b69c2b068fc378daa952ba7f163c4a11628f55a4df523b3ef910160405180910390a3505050565b6060824710156132de5760405162461bcd60e51b815260206004820152602660248201527f416464726573733a20696e73756666696369656e742062616c616e636520666f6044820152651c8818d85b1b60d21b6064820152608401610a59565b600080866001600160a01b031685876040516132fa9190613d26565b60006040518083038185875af1925050503d8060008114613337576040519150601f19603f3d011682016040523d82523d6000602084013e61333c565b606091505b509150915061233787838387606083156133b75782516000036133b0576001600160a01b0385163b6133b05760405162461bcd60e51b815260206004820152601d60248201527f416464726573733a2063616c6c20746f206e6f6e2d636f6e74726163740000006044820152606401610a59565b5081611aa6565b611aa683838151156133cc5781518083602001fd5b8060405162461bcd60e51b8152600401610a599190613549565b8280546133f290613973565b90600052602060002090601f016020900481019282613414576000855561345a565b82601f1061342d57805160ff191683800117855561345a565b8280016001018555821561345a579182015b8281111561345a57825182559160200191906001019061343f565b506134669291506134de565b5090565b82805461347690613973565b90600052602060002090601f016020900481019282613498576000855561345a565b82601f106134b15782800160ff1982351617855561345a565b8280016001018555821561345a579182015b8281111561345a5782358255916020019190600101906134c3565b5b8082111561346657600081556001016134df565b60006020828403121561350557600080fd5b81356001600160e01b031981168114610c2c57600080fd5b60005b83811015613538578181015183820152602001613520565b83811115611a685750506000910152565b602081526000825180602084015261356881604085016020870161351d565b601f01601f19169190910160400192915050565b60006020828403121561358e57600080fd5b5035919050565b6001600160a01b0381168114610f9657600080fd5b80356135b581613595565b919050565b600080604083850312156135cd57600080fd5b82356135d881613595565b946020939093013593505050565b600080604083850312156135f957600080fd5b50508035926020909101359150565b60008060006060848603121561361d57600080fd5b833561362881613595565b9250602084013561363881613595565b929592945050506040919091013590565b6000806040838503121561365c57600080fd5b82359150602083013561366e81613595565b809150509250929050565b60006020828403121561368b57600080fd5b8135610c2c81613595565b634e487b7160e01b600052604160045260246000fd5b600082601f8301126136bd57600080fd5b813567ffffffffffffffff808211156136d8576136d8613696565b604051601f8301601f19908116603f0116810190828211818310171561370057613700613696565b8160405283815286602085880101111561371957600080fd5b836020870160208301376000602085830101528094505050505092915050565b60008060008060008060008060008060006101608c8e03121561375b57600080fd5b6137648c6135aa565b9a5067ffffffffffffffff8060208e0135111561378057600080fd5b6137908e60208f01358f016136ac565b9a508060408e013511156137a357600080fd5b6137b38e60408f01358f016136ac565b99508060608e013511156137c657600080fd5b506137d78d60608e01358e016136ac565b97506137e560808d016135aa565b96506137f360a08d016135aa565b955061380160c08d016135aa565b945060e08c013593506101008c013592506101208c013591506101408c013590509295989b509295989b9093969950565b634e487b7160e01b600052602160045260246000fd5b6005811061386657634e487b7160e01b600052602160045260246000fd5b9052565b6020810161094c8284613848565b60008060006060848603121561388d57600080fd5b83359250602084013561389f81613595565b915060408401356138af81613595565b809150509250925092565b600080604083850312156138cd57600080fd5b82356138d881613595565b9150602083013561366e81613595565b600080602083850312156138fb57600080fd5b823567ffffffffffffffff8082111561391357600080fd5b818501915085601f83011261392757600080fd5b81358181111561393657600080fd5b86602082850101111561394857600080fd5b60209290920196919550909350505050565b60006020828403121561396c57600080fd5b5051919050565b600181811c9082168061398757607f821691505b6020821081036139a757634e487b7160e01b600052602260045260246000fd5b50919050565b634e487b7160e01b600052601160045260246000fd5b60008083128015600160ff1b8501841216156139e1576139e16139ad565b6001600160ff1b03840183138116156139fc576139fc6139ad565b50500390565b6000600160ff1b8201613a1757613a176139ad565b5060000390565b60008219821115613a3157613a316139ad565b500190565b600082821015613a4857613a486139ad565b500390565b600060208284031215613a5f57600080fd5b81518015158114610c2c57600080fd5b600060208284031215613a8157600080fd5b815160ff81168114610c2c57600080fd5b600181815b80851115613acd578160001904821115613ab357613ab36139ad565b80851615613ac057918102915b93841c9390800290613a97565b509250929050565b600082613ae45750600161094c565b81613af15750600061094c565b8160018114613b075760028114613b1157613b2d565b600191505061094c565b60ff841115613b2257613b226139ad565b50506001821b61094c565b5060208310610133831016604e8410600b8410161715613b50575081810a61094c565b613b5a8383613a92565b8060001904821115613b6e57613b6e6139ad565b029392505050565b6000610c2c8383613ad5565b634e487b7160e01b600052601260045260246000fd5b600082613bb557634e487b7160e01b600052601260045260246000fd5b500490565b6000816000190483118215151615613bd457613bd46139ad565b500290565b60208152816020820152818360408301376000818301604090810191909152601f909201601f19160101919050565b60408101613c168285613848565b610c2c6020830184613848565b6020808252602b908201527f496e697469616c697a61626c653a20636f6e7472616374206973206e6f74206960408201526a6e697469616c697a696e6760a81b606082015260800190565b7f416363657373436f6e74726f6c3a206163636f756e7420000000000000000000815260008351613ca681601785016020880161351d565b7001034b99036b4b9b9b4b733903937b6329607d1b6017918401918201528351613cd781602884016020880161351d565b01602801949350505050565b634e487b7160e01b600052603260045260246000fd5b600081613d0857613d086139ad565b506000190190565b634e487b7160e01b600052603160045260246000fd5b60008251613d3881846020870161351d565b919091019291505056feb1e380c01db319c0153ea3bb4fbd0ab6639cc088e3bf8cd5319b128f33a2f9e8a2646970667358221220efcb03e1ba74e5c6b2e06ea9ae7cff1a6d3925e093d89f3f9a4a0f9fab5e1c5c64736f6c634300080e0033",
    "linkReferences": {}
  },
  "methodIdentifiers": {
    "DEFAULT_ADMIN_ROLE()": "a217fddf",
    "DEV()": "c1eb5ddd",
    "KONKRETE()": "e35d33f6",
    "TIMELOCK()": "7aadef8b",
    "allowance(address,address)": "dd62ed3e",
    "amountImpact(uint256)": "211e846f",
    "approve(address,uint256)": "095ea7b3",
    "asset()": "38d52e0f",
    "balanceOf(address)": "70a08231",
    "collectCapital()": "29d29799",
    "collectUnclaimedFunds()": "d406008d",
    "collectedCapital()": "8e95bab2",
    "convertToAssets(uint256)": "07a2d13a",
    "convertToShares(uint256)": "c6e6f592",
    "dataBase()": "5cb5e41d",
    "decimals()": "313ce567",
    "decreaseAllowance(address,uint256)": "a457c2d7",
    "deposit(uint256,address)": "6e553f65",
    "depositsStart()": "81d5a8c1",
    "depositsStop()": "4f2bef3e",
    "getRoleAdmin(bytes32)": "248a9ca3",
    "getRoleMember(bytes32,uint256)": "9010d07c",
    "getRoleMemberCount(bytes32)": "ca15c873",
    "getStep()": "9e5288a0",
    "grantRole(bytes32,address)": "2f2ff15d",
    "hardCap()": "fb86a404",
    "hasRole(bytes32,address)": "91d14854",
    "increaseAllowance(address,uint256)": "39509351",
    "initialize(address,string,string,string,address,address,address,uint256,uint256,uint256,uint256)": "8cd51106",
    "maxDeposit(address)": "402d267d",
    "maxDepositPerUser()": "82e5310c",
    "maxMint(address)": "c63d75b6",
    "maxRedeem(address)": "d905777e",
    "maxWithdraw(address)": "ce96cb77",
    "minInvest(address)": "e0f41f3a",
    "minInvestPerUser()": "4aea1bf8",
    "mint(uint256,address)": "94bf804d",
    "name()": "06fdde03",
    "originalPrice()": "76a24f25",
    "pause()": "8456cb59",
    "paused()": "5c975abb",
    "previewDeposit(uint256)": "ef8b30f7",
    "previewMint(uint256)": "b3d7f6b9",
    "previewRedeem(uint256)": "4cdad506",
    "previewWithdraw(uint256)": "0a28a477",
    "priceImpact(uint256)": "84061853",
    "redeem(uint256,address,address)": "ba087652",
    "refundCapital(uint256)": "373cad57",
    "refunded()": "12f53950",
    "renounceRole(bytes32,address)": "36568abe",
    "revokeRole(bytes32,address)": "d547741f",
    "setCaps(uint256,uint256)": "212bf316",
    "setDatabase(address)": "f5420374",
    "setDepositLimitsPerUser(uint256,uint256)": "1a28bc6e",
    "setTimes(uint256,uint256)": "22434836",
    "setTreasury(address)": "f0f44260",
    "setVaultURI(string)": "dfd5473c",
    "softCap()": "906a26e0",
    "supportsInterface(bytes4)": "01ffc9a7",
    "symbol()": "95d89b41",
    "tokenPrice()": "7ff9b596",
    "totalAssets()": "01e1d114",
    "totalSupply()": "18160ddd",
    "transfer(address,uint256)": "a9059cbb",
    "transferFrom(address,address,uint256)": "23b872dd",
    "treasury()": "61d027b3",
    "unpause()": "3f4ba83a",
    "updateInterest(int256)": "5a67f6cb",
    "vaultURI()": "5dc5eaf3",
    "withdraw(uint256,address,address)": "b460af94"
  },
  "id": 5
}