{
  "abi": [
    {
      "inputs": [],
      "stateMutability": "nonpayable",
      "type": "constructor"
    },
    {
      "inputs": [
        {
          "internalType": "uint256",
          "name": "minimum",
          "type": "uint256"
        },
        {
          "internalType": "uint256",
          "name": "amount",
          "type": "uint256"
        }
      ],
      "name": "BelowMinimumInvest",
      "type": "error"
    },
    {
      "inputs": [
        {
          "internalType": "int256",
          "name": "interest",
          "type": "int256"
        }
      ],
      "name": "InmpossibleInterest",
      "type": "error"
    },
    {
      "inputs": [],
      "name": "InvestZeroAmount",
      "type": "error"
    },
    {
      "inputs": [
        {
          "internalType": "address",
          "name": "msgSender",
          "type": "address"
        }
      ],
      "name": "MsgSenderUnauthorized",
      "type": "error"
    },
    {
      "inputs": [
        {
          "internalType": "int256",
          "name": "capitalAndInterest",
          "type": "int256"
        }
      ],
      "name": "NegativeCapital",
      "type": "error"
    },
    {
      "inputs": [
        {
          "internalType": "enum SaleStep",
          "name": "expected",
          "type": "uint8"
        },
        {
          "internalType": "enum SaleStep",
          "name": "currentStep",
          "type": "uint8"
        }
      ],
      "name": "NotExpectedStep",
      "type": "error"
    },
    {
      "inputs": [],
      "name": "ReceiverIsNullAddress",
      "type": "error"
    },
    {
      "inputs": [
        {
          "internalType": "address",
          "name": "receiver",
          "type": "address"
        }
      ],
      "name": "ReceiverUnauthorized",
      "type": "error"
    },
    {
      "inputs": [],
      "name": "TryToCollectZeroFund",
      "type": "error"
    },
    {
      "inputs": [],
      "name": "WrongCaps",
      "type": "error"
    },
    {
      "inputs": [],
      "name": "WrongDatabase",
      "type": "error"
    },
    {
      "inputs": [
        {
          "internalType": "uint256",
          "name": "expected1",
          "type": "uint256"
        },
        {
          "internalType": "uint256",
          "name": "expected2",
          "type": "uint256"
        },
        {
          "internalType": "uint256",
          "name": "current",
          "type": "uint256"
        }
      ],
      "name": "WrongDecimalNumber",
      "type": "error"
    },
    {
      "inputs": [
        {
          "internalType": "uint256",
          "name": "max",
          "type": "uint256"
        },
        {
          "internalType": "uint256",
          "name": "amountWanted",
          "type": "uint256"
        }
      ],
      "name": "WrongMaxDepositPerUser",
      "type": "error"
    },
    {
      "inputs": [
        {
          "internalType": "uint256",
          "name": "maxDeposit",
          "type": "uint256"
        },
        {
          "internalType": "uint256",
          "name": "minInvest",
          "type": "uint256"
        }
      ],
      "name": "WrongMinDepositPerUser",
      "type": "error"
    },
    {
      "inputs": [
        {
          "internalType": "bool",
          "name": "isZero",
          "type": "bool"
        }
      ],
      "name": "WrongRefundValue",
      "type": "error"
    },
    {
      "inputs": [],
      "name": "WrongSaleTimeStamps",
      "type": "error"
    },
    {
      "inputs": [
        {
          "internalType": "enum SaleStep",
          "name": "currentStep",
          "type": "uint8"
        }
      ],
      "name": "WrongStep",
      "type": "error"
    },
    {
      "inputs": [
        {
          "internalType": "address",
          "name": "treasury",
          "type": "address"
        }
      ],
      "name": "WrongTreasury",
      "type": "error"
    },
    {
      "inputs": [
        {
          "internalType": "string",
          "name": "vaultURI_",
          "type": "string"
        }
      ],
      "name": "WrongVaultURI",
      "type": "error"
    },
    {
      "anonymous": false,
      "inputs": [
        {
          "indexed": true,
          "internalType": "address",
          "name": "owner",
          "type": "address"
        },
        {
          "indexed": true,
          "internalType": "address",
          "name": "spender",
          "type": "address"
        },
        {
          "indexed": false,
          "internalType": "uint256",
          "name": "value",
          "type": "uint256"
        }
      ],
      "name": "Approval",
      "type": "event"
    },
    {
      "anonymous": false,
      "inputs": [
        {
          "indexed": false,
          "internalType": "uint256",
          "name": "amount",
          "type": "uint256"
        }
      ],
      "name": "CapitalCollected",
      "type": "event"
    },
    {
      "anonymous": false,
      "inputs": [
        {
          "indexed": false,
          "internalType": "uint256",
          "name": "originalCapital",
          "type": "uint256"
        },
        {
          "indexed": false,
          "internalType": "uint256",
          "name": "remainingCapital",
          "type": "uint256"
        },
        {
          "indexed": false,
          "internalType": "uint256",
          "name": "loss",
          "type": "uint256"
        }
      ],
      "name": "CapitalLoss",
      "type": "event"
    },
    {
      "anonymous": false,
      "inputs": [
        {
          "indexed": false,
          "internalType": "uint256",
          "name": "amount",
          "type": "uint256"
        },
        {
          "indexed": false,
          "internalType": "uint256",
          "name": "collected",
          "type": "uint256"
        }
      ],
      "name": "CapitalRefunded",
      "type": "event"
    },
    {
      "anonymous": false,
      "inputs": [
        {
          "indexed": false,
          "internalType": "uint256",
          "name": "softCap",
          "type": "uint256"
        },
        {
          "indexed": false,
          "internalType": "uint256",
          "name": "hardCap",
          "type": "uint256"
        }
      ],
      "name": "CapsUpdated",
      "type": "event"
    },
    {
      "anonymous": false,
      "inputs": [
        {
          "indexed": true,
          "internalType": "address",
          "name": "sender",
          "type": "address"
        },
        {
          "indexed": true,
          "internalType": "address",
          "name": "owner",
          "type": "address"
        },
        {
          "indexed": false,
          "internalType": "uint256",
          "name": "assets",
          "type": "uint256"
        },
        {
          "indexed": false,
          "internalType": "uint256",
          "name": "shares",
          "type": "uint256"
        }
      ],
      "name": "Deposit",
      "type": "event"
    },
    {
      "anonymous": false,
      "inputs": [
        {
          "indexed": false,
          "internalType": "uint8",
          "name": "version",
          "type": "uint8"
        }
      ],
      "name": "Initialized",
      "type": "event"
    },
    {
      "anonymous": false,
      "inputs": [
        {
          "indexed": false,
          "internalType": "uint256",
          "name": "refunded",
          "type": "uint256"
        }
      ],
      "name": "InterestRefunded",
      "type": "event"
    },
    {
      "anonymous": false,
      "inputs": [
        {
          "indexed": false,
          "internalType": "address",
          "name": "from",
          "type": "address"
        },
        {
          "indexed": false,
          "internalType": "int256",
          "name": "amount",
          "type": "int256"
        }
      ],
      "name": "InterestUpdated",
      "type": "event"
    },
    {
      "anonymous": false,
      "inputs": [
        {
          "indexed": false,
          "internalType": "address",
          "name": "account",
          "type": "address"
        }
      ],
      "name": "Paused",
      "type": "event"
    },
    {
      "anonymous": false,
      "inputs": [
        {
          "indexed": false,
          "internalType": "uint256",
          "name": "oldPrice",
          "type": "uint256"
        },
        {
          "indexed": false,
          "internalType": "uint256",
          "name": "newPrice",
          "type": "uint256"
        }
      ],
      "name": "PriceUpdated",
      "type": "event"
    },
    {
      "anonymous": false,
      "inputs": [
        {
          "indexed": true,
          "internalType": "bytes32",
          "name": "role",
          "type": "bytes32"
        },
        {
          "indexed": true,
          "internalType": "bytes32",
          "name": "previousAdminRole",
          "type": "bytes32"
        },
        {
          "indexed": true,
          "internalType": "bytes32",
          "name": "newAdminRole",
          "type": "bytes32"
        }
      ],
      "name": "RoleAdminChanged",
      "type": "event"
    },
    {
      "anonymous": false,
      "inputs": [
        {
          "indexed": true,
          "internalType": "bytes32",
          "name": "role",
          "type": "bytes32"
        },
        {
          "indexed": true,
          "internalType": "address",
          "name": "account",
          "type": "address"
        },
        {
          "indexed": true,
          "internalType": "address",
          "name": "sender",
          "type": "address"
        }
      ],
      "name": "RoleGranted",
      "type": "event"
    },
    {
      "anonymous": false,
      "inputs": [
        {
          "indexed": true,
          "internalType": "bytes32",
          "name": "role",
          "type": "bytes32"
        },
        {
          "indexed": true,
          "internalType": "address",
          "name": "account",
          "type": "address"
        },
        {
          "indexed": true,
          "internalType": "address",
          "name": "sender",
          "type": "address"
        }
      ],
      "name": "RoleRevoked",
      "type": "event"
    },
    {
      "anonymous": false,
      "inputs": [
        {
          "indexed": false,
          "internalType": "uint256",
          "name": "depositsStart",
          "type": "uint256"
        },
        {
          "indexed": false,
          "internalType": "uint256",
          "name": "depositsStop",
          "type": "uint256"
        }
      ],
      "name": "TimesUpdated",
      "type": "event"
    },
    {
      "anonymous": false,
      "inputs": [
        {
          "indexed": false,
          "internalType": "address",
          "name": "from",
          "type": "address"
        },
        {
          "indexed": false,
          "internalType": "uint256",
          "name": "amount",
          "type": "uint256"
        }
      ],
      "name": "TotalRefunded",
      "type": "event"
    },
    {
      "anonymous": false,
      "inputs": [
        {
          "indexed": true,
          "internalType": "address",
          "name": "from",
          "type": "address"
        },
        {
          "indexed": true,
          "internalType": "address",
          "name": "to",
          "type": "address"
        },
        {
          "indexed": false,
          "internalType": "uint256",
          "name": "value",
          "type": "uint256"
        }
      ],
      "name": "Transfer",
      "type": "event"
    },
    {
      "anonymous": false,
      "inputs": [
        {
          "indexed": false,
          "internalType": "address",
          "name": "oldTreasury",
          "type": "address"
        },
        {
          "indexed": false,
          "internalType": "address",
          "name": "newTreasury",
          "type": "address"
        }
      ],
      "name": "TreasuryUpdated",
      "type": "event"
    },
    {
      "anonymous": false,
      "inputs": [
        {
          "indexed": false,
          "internalType": "uint256",
          "name": "amount",
          "type": "uint256"
        }
      ],
      "name": "UnclaimedFundsCollected",
      "type": "event"
    },
    {
      "anonymous": false,
      "inputs": [
        {
          "indexed": false,
          "internalType": "address",
          "name": "account",
          "type": "address"
        }
      ],
      "name": "Unpaused",
      "type": "event"
    },
    {
      "anonymous": false,
      "inputs": [
        {
          "indexed": false,
          "internalType": "string",
          "name": "vaultURI_",
          "type": "string"
        }
      ],
      "name": "VaultURIUpdated",
      "type": "event"
    },
    {
      "anonymous": false,
      "inputs": [
        {
          "indexed": true,
          "internalType": "address",
          "name": "sender",
          "type": "address"
        },
        {
          "indexed": true,
          "internalType": "address",
          "name": "receiver",
          "type": "address"
        },
        {
          "indexed": true,
          "internalType": "address",
          "name": "owner",
          "type": "address"
        },
        {
          "indexed": false,
          "internalType": "uint256",
          "name": "assets",
          "type": "uint256"
        },
        {
          "indexed": false,
          "internalType": "uint256",
          "name": "shares",
          "type": "uint256"
        }
      ],
      "name": "Withdraw",
      "type": "event"
    },
    {
      "inputs": [],
      "name": "DEFAULT_ADMIN_ROLE",
      "outputs": [
        {
          "internalType": "bytes32",
          "name": "",
          "type": "bytes32"
        }
      ],
      "stateMutability": "view",
      "type": "function"
    },
    {
      "inputs": [],
      "name": "DEV",
      "outputs": [
        {
          "internalType": "bytes32",
          "name": "",
          "type": "bytes32"
        }
      ],
      "stateMutability": "view",
      "type": "function"
    },
    {
      "inputs": [],
      "name": "KONKRETE",
      "outputs": [
        {
          "internalType": "bytes32",
          "name": "",
          "type": "bytes32"
        }
      ],
      "stateMutability": "view",
      "type": "function"
    },
    {
      "inputs": [],
      "name": "TIMELOCK",
      "outputs": [
        {
          "internalType": "bytes32",
          "name": "",
          "type": "bytes32"
        }
      ],
      "stateMutability": "view",
      "type": "function"
    },
    {
      "inputs": [
        {
          "internalType": "address",
          "name": "owner",
          "type": "address"
        },
        {
          "internalType": "address",
          "name": "spender",
          "type": "address"
        }
      ],
      "name": "allowance",
      "outputs": [
        {
          "internalType": "uint256",
          "name": "",
          "type": "uint256"
        }
      ],
      "stateMutability": "view",
      "type": "function"
    },
    {
      "inputs": [
        {
          "internalType": "address",
          "name": "spender",
          "type": "address"
        },
        {
          "internalType": "uint256",
          "name": "amount",
          "type": "uint256"
        }
      ],
      "name": "approve",
      "outputs": [
        {
          "internalType": "bool",
          "name": "",
          "type": "bool"
        }
      ],
      "stateMutability": "nonpayable",
      "type": "function"
    },
    {
      "inputs": [],
      "name": "asset",
      "outputs": [
        {
          "internalType": "address",
          "name": "",
          "type": "address"
        }
      ],
      "stateMutability": "view",
      "type": "function"
    },
    {
      "inputs": [
        {
          "internalType": "address",
          "name": "account",
          "type": "address"
        }
      ],
      "name": "balanceOf",
      "outputs": [
        {
          "internalType": "uint256",
          "name": "",
          "type": "uint256"
        }
      ],
      "stateMutability": "view",
      "type": "function"
    },
    {
      "inputs": [],
      "name": "collectCapital",
      "outputs": [
        {
          "internalType": "uint256",
          "name": "collected",
          "type": "uint256"
        }
      ],
      "stateMutability": "nonpayable",
      "type": "function"
    },
    {
      "inputs": [],
      "name": "collectUnclaimedFunds",
      "outputs": [
        {
          "internalType": "uint256",
          "name": "pendingFunds",
          "type": "uint256"
        }
      ],
      "stateMutability": "nonpayable",
      "type": "function"
    },
    {
      "inputs": [],
      "name": "collectedCapital",
      "outputs": [
        {
          "internalType": "uint256",
          "name": "",
          "type": "uint256"
        }
      ],
      "stateMutability": "view",
      "type": "function"
    },
    {
      "inputs": [
        {
          "internalType": "uint256",
          "name": "shares",
          "type": "uint256"
        }
      ],
      "name": "convertToAssets",
      "outputs": [
        {
          "internalType": "uint256",
          "name": "assets",
          "type": "uint256"
        }
      ],
      "stateMutability": "view",
      "type": "function"
    },
    {
      "inputs": [
        {
          "internalType": "uint256",
          "name": "assets",
          "type": "uint256"
        }
      ],
      "name": "convertToShares",
      "outputs": [
        {
          "internalType": "uint256",
          "name": "shares",
          "type": "uint256"
        }
      ],
      "stateMutability": "view",
      "type": "function"
    },
    {
      "inputs": [],
      "name": "dataBase",
      "outputs": [
        {
          "internalType": "contract IDatabase",
          "name": "",
          "type": "address"
        }
      ],
      "stateMutability": "view",
      "type": "function"
    },
    {
      "inputs": [],
      "name": "decimals",
      "outputs": [
        {
          "internalType": "uint8",
          "name": "",
          "type": "uint8"
        }
      ],
      "stateMutability": "view",
      "type": "function"
    },
    {
      "inputs": [
        {
          "internalType": "address",
          "name": "spender",
          "type": "address"
        },
        {
          "internalType": "uint256",
          "name": "subtractedValue",
          "type": "uint256"
        }
      ],
      "name": "decreaseAllowance",
      "outputs": [
        {
          "internalType": "bool",
          "name": "",
          "type": "bool"
        }
      ],
      "stateMutability": "nonpayable",
      "type": "function"
    },
    {
      "inputs": [
        {
          "internalType": "uint256",
          "name": "assets",
          "type": "uint256"
        },
        {
          "internalType": "address",
          "name": "receiver",
          "type": "address"
        }
      ],
      "name": "deposit",
      "outputs": [
        {
          "internalType": "uint256",
          "name": "",
          "type": "uint256"
        }
      ],
      "stateMutability": "nonpayable",
      "type": "function"
    },
    {
      "inputs": [
        {
          "internalType": "bool",
          "name": "doubleChecked",
          "type": "bool"
        }
      ],
      "name": "emptyCapitalBack",
      "outputs": [],
      "stateMutability": "nonpayable",
      "type": "function"
    },
    {
      "inputs": [
        {
          "internalType": "bytes32",
          "name": "role",
          "type": "bytes32"
        }
      ],
      "name": "getRoleAdmin",
      "outputs": [
        {
          "internalType": "bytes32",
          "name": "",
          "type": "bytes32"
        }
      ],
      "stateMutability": "view",
      "type": "function"
    },
    {
      "inputs": [
        {
          "internalType": "bytes32",
          "name": "role",
          "type": "bytes32"
        },
        {
          "internalType": "uint256",
          "name": "index",
          "type": "uint256"
        }
      ],
      "name": "getRoleMember",
      "outputs": [
        {
          "internalType": "address",
          "name": "",
          "type": "address"
        }
      ],
      "stateMutability": "view",
      "type": "function"
    },
    {
      "inputs": [
        {
          "internalType": "bytes32",
          "name": "role",
          "type": "bytes32"
        }
      ],
      "name": "getRoleMemberCount",
      "outputs": [
        {
          "internalType": "uint256",
          "name": "",
          "type": "uint256"
        }
      ],
      "stateMutability": "view",
      "type": "function"
    },
    {
      "inputs": [],
      "name": "getStep",
      "outputs": [
        {
          "internalType": "enum SaleStep",
          "name": "step",
          "type": "uint8"
        }
      ],
      "stateMutability": "view",
      "type": "function"
    },
    {
      "inputs": [
        {
          "internalType": "bytes32",
          "name": "role",
          "type": "bytes32"
        },
        {
          "internalType": "address",
          "name": "account",
          "type": "address"
        }
      ],
      "name": "grantRole",
      "outputs": [],
      "stateMutability": "nonpayable",
      "type": "function"
    },
    {
      "inputs": [
        {
          "internalType": "bytes32",
          "name": "role",
          "type": "bytes32"
        },
        {
          "internalType": "address",
          "name": "account",
          "type": "address"
        }
      ],
      "name": "hasRole",
      "outputs": [
        {
          "internalType": "bool",
          "name": "",
          "type": "bool"
        }
      ],
      "stateMutability": "view",
      "type": "function"
    },
    {
      "inputs": [
        {
          "internalType": "address",
          "name": "spender",
          "type": "address"
        },
        {
          "internalType": "uint256",
          "name": "addedValue",
          "type": "uint256"
        }
      ],
      "name": "increaseAllowance",
      "outputs": [
        {
          "internalType": "bool",
          "name": "",
          "type": "bool"
        }
      ],
      "stateMutability": "nonpayable",
      "type": "function"
    },
    {
      "inputs": [
        {
          "internalType": "address",
          "name": "asset_",
          "type": "address"
        },
        {
          "internalType": "string",
          "name": "name_",
          "type": "string"
        },
        {
          "internalType": "string",
          "name": "symbol_",
          "type": "string"
        },
        {
          "internalType": "string",
          "name": "vaultURI_",
          "type": "string"
        },
        {
          "internalType": "address",
          "name": "multisig",
          "type": "address"
        },
        {
          "internalType": "address",
          "name": "treasury_",
          "type": "address"
        },
        {
          "internalType": "contract IDatabase",
          "name": "dataBase_",
          "type": "address"
        },
        {
          "internalType": "uint128",
          "name": "softCap_",
          "type": "uint128"
        },
        {
          "internalType": "uint128",
          "name": "hardcap_",
          "type": "uint128"
        },
        {
          "internalType": "uint32",
          "name": "depositsStart_",
          "type": "uint32"
        },
        {
          "internalType": "uint32",
          "name": "depositsStop_",
          "type": "uint32"
        }
      ],
      "name": "initialize",
      "outputs": [],
      "stateMutability": "nonpayable",
      "type": "function"
    },
    {
      "inputs": [
        {
          "internalType": "address",
          "name": "user",
          "type": "address"
        }
      ],
      "name": "maxDeposit",
      "outputs": [
        {
          "internalType": "uint256",
          "name": "",
          "type": "uint256"
        }
      ],
      "stateMutability": "view",
      "type": "function"
    },
    {
      "inputs": [
        {
          "internalType": "address",
          "name": "user",
          "type": "address"
        }
      ],
      "name": "maxMint",
      "outputs": [
        {
          "internalType": "uint256",
          "name": "",
          "type": "uint256"
        }
      ],
      "stateMutability": "view",
      "type": "function"
    },
    {
      "inputs": [
        {
          "internalType": "address",
          "name": "owner",
          "type": "address"
        }
      ],
      "name": "maxRedeem",
      "outputs": [
        {
          "internalType": "uint256",
          "name": "",
          "type": "uint256"
        }
      ],
      "stateMutability": "view",
      "type": "function"
    },
    {
      "inputs": [
        {
          "internalType": "address",
          "name": "owner",
          "type": "address"
        }
      ],
      "name": "maxWithdraw",
      "outputs": [
        {
          "internalType": "uint256",
          "name": "",
          "type": "uint256"
        }
      ],
      "stateMutability": "view",
      "type": "function"
    },
    {
      "inputs": [
        {
          "internalType": "address",
          "name": "user",
          "type": "address"
        }
      ],
      "name": "minInvest",
      "outputs": [
        {
          "internalType": "uint256",
          "name": "",
          "type": "uint256"
        }
      ],
      "stateMutability": "view",
      "type": "function"
    },
    {
      "inputs": [
        {
          "internalType": "uint256",
          "name": "shares",
          "type": "uint256"
        },
        {
          "internalType": "address",
          "name": "receiver",
          "type": "address"
        }
      ],
      "name": "mint",
      "outputs": [
        {
          "internalType": "uint256",
          "name": "",
          "type": "uint256"
        }
      ],
      "stateMutability": "nonpayable",
      "type": "function"
    },
    {
      "inputs": [],
      "name": "name",
      "outputs": [
        {
          "internalType": "string",
          "name": "",
          "type": "string"
        }
      ],
      "stateMutability": "view",
      "type": "function"
    },
    {
      "inputs": [],
      "name": "originalPrice",
      "outputs": [
        {
          "internalType": "uint256",
          "name": "",
          "type": "uint256"
        }
      ],
      "stateMutability": "view",
      "type": "function"
    },
    {
      "inputs": [
        {
          "internalType": "address",
          "name": "",
          "type": "address"
        }
      ],
      "name": "paid",
      "outputs": [
        {
          "internalType": "uint256",
          "name": "",
          "type": "uint256"
        }
      ],
      "stateMutability": "view",
      "type": "function"
    },
    {
      "inputs": [],
      "name": "pause",
      "outputs": [],
      "stateMutability": "nonpayable",
      "type": "function"
    },
    {
      "inputs": [],
      "name": "paused",
      "outputs": [
        {
          "internalType": "bool",
          "name": "",
          "type": "bool"
        }
      ],
      "stateMutability": "view",
      "type": "function"
    },
    {
      "inputs": [
        {
          "internalType": "uint256",
          "name": "assets",
          "type": "uint256"
        }
      ],
      "name": "previewDeposit",
      "outputs": [
        {
          "internalType": "uint256",
          "name": "",
          "type": "uint256"
        }
      ],
      "stateMutability": "view",
      "type": "function"
    },
    {
      "inputs": [
        {
          "internalType": "uint256",
          "name": "shares",
          "type": "uint256"
        }
      ],
      "name": "previewMint",
      "outputs": [
        {
          "internalType": "uint256",
          "name": "",
          "type": "uint256"
        }
      ],
      "stateMutability": "view",
      "type": "function"
    },
    {
      "inputs": [
        {
          "internalType": "uint256",
          "name": "shares",
          "type": "uint256"
        }
      ],
      "name": "previewRedeem",
      "outputs": [
        {
          "internalType": "uint256",
          "name": "",
          "type": "uint256"
        }
      ],
      "stateMutability": "view",
      "type": "function"
    },
    {
      "inputs": [
        {
          "internalType": "uint256",
          "name": "assets",
          "type": "uint256"
        }
      ],
      "name": "previewWithdraw",
      "outputs": [
        {
          "internalType": "uint256",
          "name": "",
          "type": "uint256"
        }
      ],
      "stateMutability": "view",
      "type": "function"
    },
    {
      "inputs": [
        {
          "internalType": "uint256",
          "name": "amountOfInterest",
          "type": "uint256"
        }
      ],
      "name": "priceImpact",
      "outputs": [
        {
          "internalType": "uint256",
          "name": "",
          "type": "uint256"
        }
      ],
      "stateMutability": "view",
      "type": "function"
    },
    {
      "inputs": [
        {
          "internalType": "uint256",
          "name": "shares",
          "type": "uint256"
        },
        {
          "internalType": "address",
          "name": "receiver",
          "type": "address"
        },
        {
          "internalType": "address",
          "name": "owner",
          "type": "address"
        }
      ],
      "name": "redeem",
      "outputs": [
        {
          "internalType": "uint256",
          "name": "assets",
          "type": "uint256"
        }
      ],
      "stateMutability": "nonpayable",
      "type": "function"
    },
    {
      "inputs": [
        {
          "internalType": "uint256",
          "name": "capitalAndInterest",
          "type": "uint256"
        }
      ],
      "name": "refundCapital",
      "outputs": [],
      "stateMutability": "nonpayable",
      "type": "function"
    },
    {
      "inputs": [
        {
          "internalType": "uint256",
          "name": "interest",
          "type": "uint256"
        }
      ],
      "name": "refundInterest",
      "outputs": [],
      "stateMutability": "nonpayable",
      "type": "function"
    },
    {
      "inputs": [
        {
          "internalType": "bytes32",
          "name": "role",
          "type": "bytes32"
        },
        {
          "internalType": "address",
          "name": "account",
          "type": "address"
        }
      ],
      "name": "renounceRole",
      "outputs": [],
      "stateMutability": "nonpayable",
      "type": "function"
    },
    {
      "inputs": [
        {
          "internalType": "bytes32",
          "name": "role",
          "type": "bytes32"
        },
        {
          "internalType": "address",
          "name": "account",
          "type": "address"
        }
      ],
      "name": "revokeRole",
      "outputs": [],
      "stateMutability": "nonpayable",
      "type": "function"
    },
    {
      "inputs": [
        {
          "internalType": "uint128",
          "name": "soft",
          "type": "uint128"
        },
        {
          "internalType": "uint128",
          "name": "hard",
          "type": "uint128"
        }
      ],
      "name": "setCaps",
      "outputs": [],
      "stateMutability": "nonpayable",
      "type": "function"
    },
    {
      "inputs": [
        {
          "internalType": "contract IDatabase",
          "name": "database_",
          "type": "address"
        }
      ],
      "name": "setDatabase",
      "outputs": [],
      "stateMutability": "nonpayable",
      "type": "function"
    },
    {
      "inputs": [
        {
          "internalType": "uint128",
          "name": "minInvest_",
          "type": "uint128"
        },
        {
          "internalType": "uint128",
          "name": "maxDeposit_",
          "type": "uint128"
        }
      ],
      "name": "setDepositLimitsPerUser",
      "outputs": [],
      "stateMutability": "nonpayable",
      "type": "function"
    },
    {
      "inputs": [
        {
          "internalType": "uint32",
          "name": "start",
          "type": "uint32"
        },
        {
          "internalType": "uint32",
          "name": "stop",
          "type": "uint32"
        }
      ],
      "name": "setTimes",
      "outputs": [],
      "stateMutability": "nonpayable",
      "type": "function"
    },
    {
      "inputs": [
        {
          "internalType": "address",
          "name": "treasury_",
          "type": "address"
        }
      ],
      "name": "setTreasury",
      "outputs": [],
      "stateMutability": "nonpayable",
      "type": "function"
    },
    {
      "inputs": [
        {
          "internalType": "string",
          "name": "vaultURI_",
          "type": "string"
        }
      ],
      "name": "setVaultURI",
      "outputs": [],
      "stateMutability": "nonpayable",
      "type": "function"
    },
    {
      "inputs": [],
      "name": "stepVar",
      "outputs": [
        {
          "internalType": "bool",
          "name": "refunded",
          "type": "bool"
        },
        {
          "internalType": "uint32",
          "name": "depositsStart",
          "type": "uint32"
        },
        {
          "internalType": "uint32",
          "name": "depositsStop",
          "type": "uint32"
        },
        {
          "internalType": "uint128",
          "name": "softCap",
          "type": "uint128"
        },
        {
          "internalType": "uint128",
          "name": "hardCap",
          "type": "uint128"
        },
        {
          "internalType": "uint128",
          "name": "maxDepositPerUser",
          "type": "uint128"
        },
        {
          "internalType": "uint128",
          "name": "minInvestPerUser",
          "type": "uint128"
        }
      ],
      "stateMutability": "view",
      "type": "function"
    },
    {
      "inputs": [
        {
          "internalType": "bytes4",
          "name": "interfaceId",
          "type": "bytes4"
        }
      ],
      "name": "supportsInterface",
      "outputs": [
        {
          "internalType": "bool",
          "name": "",
          "type": "bool"
        }
      ],
      "stateMutability": "view",
      "type": "function"
    },
    {
      "inputs": [],
      "name": "symbol",
      "outputs": [
        {
          "internalType": "string",
          "name": "",
          "type": "string"
        }
      ],
      "stateMutability": "view",
      "type": "function"
    },
    {
      "inputs": [],
      "name": "tokenPrice",
      "outputs": [
        {
          "internalType": "uint256",
          "name": "",
          "type": "uint256"
        }
      ],
      "stateMutability": "view",
      "type": "function"
    },
    {
      "inputs": [],
      "name": "totalAssets",
      "outputs": [
        {
          "internalType": "uint256",
          "name": "",
          "type": "uint256"
        }
      ],
      "stateMutability": "view",
      "type": "function"
    },
    {
      "inputs": [],
      "name": "totalSupply",
      "outputs": [
        {
          "internalType": "uint256",
          "name": "",
          "type": "uint256"
        }
      ],
      "stateMutability": "view",
      "type": "function"
    },
    {
      "inputs": [
        {
          "internalType": "address",
          "name": "to",
          "type": "address"
        },
        {
          "internalType": "uint256",
          "name": "amount",
          "type": "uint256"
        }
      ],
      "name": "transfer",
      "outputs": [
        {
          "internalType": "bool",
          "name": "",
          "type": "bool"
        }
      ],
      "stateMutability": "nonpayable",
      "type": "function"
    },
    {
      "inputs": [
        {
          "internalType": "address",
          "name": "from",
          "type": "address"
        },
        {
          "internalType": "address",
          "name": "to",
          "type": "address"
        },
        {
          "internalType": "uint256",
          "name": "amount",
          "type": "uint256"
        }
      ],
      "name": "transferFrom",
      "outputs": [
        {
          "internalType": "bool",
          "name": "",
          "type": "bool"
        }
      ],
      "stateMutability": "nonpayable",
      "type": "function"
    },
    {
      "inputs": [],
      "name": "treasury",
      "outputs": [
        {
          "internalType": "address",
          "name": "",
          "type": "address"
        }
      ],
      "stateMutability": "view",
      "type": "function"
    },
    {
      "inputs": [],
      "name": "unpause",
      "outputs": [],
      "stateMutability": "nonpayable",
      "type": "function"
    },
    {
      "inputs": [],
      "name": "vaultURI",
      "outputs": [
        {
          "internalType": "string",
          "name": "",
          "type": "string"
        }
      ],
      "stateMutability": "view",
      "type": "function"
    },
    {
      "inputs": [
        {
          "internalType": "uint256",
          "name": "assets",
          "type": "uint256"
        },
        {
          "internalType": "address",
          "name": "receiver",
          "type": "address"
        },
        {
          "internalType": "address",
          "name": "owner",
          "type": "address"
        }
      ],
      "name": "withdraw",
      "outputs": [
        {
          "internalType": "uint256",
          "name": "shares",
          "type": "uint256"
        }
      ],
      "stateMutability": "nonpayable",
      "type": "function"
    }
  ],
  "bytecode": {
    "object": "0x60806040523480156200001157600080fd5b50600054610100900460ff1615808015620000335750600054600160ff909116105b8062000063575062000050306200013d60201b62001d781760201c565b15801562000063575060005460ff166001145b620000cb5760405162461bcd60e51b815260206004820152602e60248201527f496e697469616c697a61626c653a20636f6e747261637420697320616c72656160448201526d191e481a5b9a5d1a585b1a5e995960921b606482015260840160405180910390fd5b6000805460ff191660011790558015620000ef576000805461ff0019166101001790555b801562000136576000805461ff0019169055604051600181527f7f26b83ff96e1f2b6a682f133852f6798a09c465da95921460cefb38474024989060200160405180910390a15b506200014c565b6001600160a01b03163b151590565b61426d806200015c6000396000f3fe608060405234801561001057600080fd5b50600436106103db5760003560e01c8063840618531161020a578063bd26057e11610125578063d5f2b0cc116100b8578063e0f41f3a11610087578063e0f41f3a146108a2578063e35d33f6146106af578063ef8b30f714610802578063f0f44260146108b5578063f5420374146108c857600080fd5b8063d5f2b0cc14610856578063d905777e14610869578063dd62ed3e1461087c578063dfd5473c1461088f57600080fd5b8063ca15c873116100f4578063ca15c87314610815578063ce96cb7714610828578063d406008d1461083b578063d547741f1461084357600080fd5b8063bd26057e1461074a578063c1eb5ddd146107ed578063c63d75b614610572578063c6e6f5921461080257600080fd5b8063a217fddf1161019d578063b3d7f6b91161016c578063b3d7f6b9146106fe578063b460af9414610711578063ba08765214610724578063bb659cde1461073757600080fd5b8063a217fddf146106af578063a340cf79146106b7578063a457c2d7146106d8578063a9059cbb146106eb57600080fd5b806391d14854116101d957806391d148541461067f57806394bf804d146105e757806395d89b41146106925780639e5288a01461069a57600080fd5b806384061853146106475780638456cb591461065a5780638e95bab2146106625780639010d07c1461066c57600080fd5b806338d52e0f116102fa5780635cb5e41d1161028d57806370a082311161025c57806370a08231146105fa57806376a24f251461060d5780637aadef8b146106165780637ff9b5961461063d57600080fd5b80635cb5e41d146105b75780635dc5eaf3146105cb57806361d027b3146105d35780636e553f65146105e757600080fd5b8063490248e3116102c9578063490248e3146105855780634cdad506146104335780634d974d83146105985780635c975abb146105ab57600080fd5b806338d52e0f1461053257806339509351146105575780633f4ba83a1461056a578063402d267d1461057257600080fd5b806323b872dd11610372578063313ce56711610341578063313ce567146104da57806336568abe146104f95780633670e7b11461050c578063373cad571461051f57600080fd5b806323b872dd14610489578063248a9ca31461049c57806329d29799146104bf5780632f2ff15d146104c757600080fd5b8063095ea7b3116103ae578063095ea7b3146104465780630a28a4771461045957806318160ddd1461046c5780631bb133b01461047457600080fd5b806301e1d114146103e057806301ffc9a7146103fb57806306fdde031461041e57806307a2d13a14610433575b600080fd5b6103e86108db565b6040519081526020015b60405180910390f35b61040e61040936600461383f565b61094d565b60405190151581526020016103f2565b610426610978565b6040516103f29190613895565b6103e86104413660046138c8565b610a0a565b61040e610454366004613906565b610a17565b6103e86104673660046138c8565b610a2f565b6035546103e8565b610487610482366004613952565b610a3c565b005b61040e61049736600461398b565b610b24565b6103e86104aa3660046138c8565b600090815260c9602052604090206001015490565b6103e8610b4a565b6104876104d53660046139cc565b610bd1565b606554600160a01b900460ff1660405160ff90911681526020016103f2565b6104876105073660046139cc565b610bfb565b61048761051a3660046139ff565b610c79565b61048761052d3660046138c8565b610caf565b6065546001600160a01b03165b6040516001600160a01b0390911681526020016103f2565b61040e610565366004613906565b610d2a565b610487610d4c565b6103e8610580366004613a1c565b610d5f565b610487610593366004613952565b610d97565b6104876105a6366004613af9565b610e76565b61015f5460ff1661040e565b6101925461053f906001600160a01b031681565b6104266112dd565b6101965461053f906001600160a01b031681565b6103e86105f53660046139cc565b61136c565b6103e8610608366004613a1c565b611396565b610191546103e8565b6103e87faefebe170cbaff0af052a32795af0e1b8afff9850f946ad2869be14f3553437181565b6103e86101975481565b6103e86106553660046138c8565b6113b1565b6104876113cb565b6103e86101985481565b61053f61067a366004613c0e565b6113eb565b61040e61068d3660046139cc565b611403565b61042661142e565b6106a261143d565b6040516103f29190613c68565b6103e8600081565b6103e86106c5366004613a1c565b61019a6020526000908152604090205481565b61040e6106e6366004613906565b61151b565b61040e6106f9366004613906565b6115a1565b6103e861070c3660046138c8565b6115af565b6103e861071f366004613c76565b6115bc565b6103e8610732366004613c76565b611704565b6104876107453660046138c8565b61181b565b61019354610194546101955461079f9260ff81169263ffffffff6101008304811693650100000000008404909116926001600160801b03600160481b90910481169280821692600160801b9091048216911687565b60408051971515885263ffffffff968716602089015295909416948601949094526001600160801b0391821660608601528116608085015291821660a08401521660c082015260e0016103f2565b6103e860008051602061421883398151915281565b6103e86108103660046138c8565b6118f7565b6103e86108233660046138c8565b611904565b6103e8610836366004613a1c565b61191b565b6103e8611959565b6104876108513660046139cc565b6119c2565b610487610864366004613cb8565b6119e7565b6103e8610877366004613a1c565b611af4565b6103e861088a366004613ce6565b611b1f565b61048761089d366004613d14565b611b4a565b6103e86108b0366004613a1c565b611bc7565b6104876108c3366004613a1c565b611c10565b6104876108d6366004613a1c565b611cbd565b6065546040516370a0823160e01b81523060048201526000916001600160a01b0316906370a0823190602401602060405180830381865afa158015610924573d6000803e3d6000fd5b505050506040513d601f19601f820116820180604052508101906109489190613d86565b905090565b60006001600160e01b03198216635a05180f60e01b1480610972575061097282611d87565b92915050565b60606036805461098790613d9f565b80601f01602080910402602001604051908101604052809291908181526020018280546109b390613d9f565b8015610a005780601f106109d557610100808354040283529160200191610a00565b820191906000526020600020905b8154815290600101906020018083116109e357829003601f168201915b5050505050905090565b6000610972826000611dbc565b600033610a25818585611de0565b5060019392505050565b6000610972826001611f04565b600080516020614218833981519152610a5481611f28565b610193546001600160801b03600160481b9091048116908316811015610aa45760405163010a45ab60e21b8152600481018290526001600160801b03841660248201526044015b60405180910390fd5b826001600160801b0316846001600160801b031610610ae85760405163010a45ab60e21b8152600481018290526001600160801b0385166024820152604401610a9b565b505061019480546001600160801b03928316600160801b029083161790556101958054929091166001600160801b031992909216919091179055565b600033610b32858285611f32565b610b3d858585611fa6565b60019150505b9392505050565b610196546000906001600160a01b0316338114610b8857335b604051634ab6cb6760e11b81526001600160a01b039091166004820152602401610a9b565b610b926002612151565b91507fcd44c06e81c4f40db53746db76839e7106609855a483a8e72a05877dc3ea225c82604051610bc591815260200190565b60405180910390a15090565b600082815260c96020526040902060010154610bec81611f28565b610bf68383612269565b505050565b6001600160a01b0381163314610c6b5760405162461bcd60e51b815260206004820152602f60248201527f416363657373436f6e74726f6c3a2063616e206f6e6c792072656e6f756e636560448201526e103937b632b9903337b91039b2b63360891b6064820152608401610a9b565b610c75828261228b565b5050565b6000610c8481611f28565b81610ca5576040516375403cf360e01b815260006004820152602401610a9b565b610c7560006122ad565b80600003610cd3576040516375403cf360e01b815260016004820152602401610a9b565b610196546001600160a01b0316336001600160a01b031614610cf55733610b63565b610cfe816122ad565b610d27333083610d166065546001600160a01b031690565b6001600160a01b0316929190612435565b50565b600033610a25818585610d3d8383611b1f565b610d479190613def565b611de0565b6000610d5781611f28565b610d276124a0565b60006001610d6b61143d565b6004811115610d7c57610d7c613c30565b03610d8f57610d8a826124f3565b610972565b600092915050565b600080516020614218833981519152610daf81611f28565b6001600160801b0383161580610dd65750816001600160801b0316836001600160801b0316115b15610df457604051630c5af70760e11b815260040160405180910390fd5b6101938054600160481b600160c81b031916600160481b6001600160801b038681169182029290921790925561019480546001600160801b03191691851691821790556040805192835260208301919091527ffa35f2d22b9a5eb6bed3254e60910f91291653a71679c8cbb1f00d24551a45c4910160405180910390a1505050565b600054610100900460ff1615808015610e965750600054600160ff909116105b80610eb05750303b158015610eb0575060005460ff166001145b610f135760405162461bcd60e51b815260206004820152602e60248201527f496e697469616c697a61626c653a20636f6e747261637420697320616c72656160448201526d191e481a5b9a5d1a585b1a5e995960921b6064820152608401610a9b565b6000805460ff191660011790558015610f36576000805461ff0019166101001790555b610f3e612585565b610f478c6125b6565b610f518b8b6125e6565b610f59612617565b856001600160a01b031663fe60d26b6040518163ffffffff1660e01b8152600401602060405180830381865afa158015610f97573d6000803e3d6000fd5b505050506040513d601f19601f82011682018060405250810190610fbb9190613e07565b610fd8576040516381867da560e01b815260040160405180910390fd5b60008c6001600160a01b031663313ce5676040518163ffffffff1660e01b8152600401602060405180830381865afa158015611018573d6000803e3d6000fd5b505050506040513d601f19601f8201168201806040525081019061103c9190613e24565b60ff16905080601214158015611053575080600614155b15611082576040516315f3703160e31b8152601260048201526006602482015260448101829052606401610a9b565b876001600160a01b03163b6000036110b857604051634ab6cb6760e11b81526001600160a01b0389166004820152602401610a9b565b60006110c582600a613f2b565b90506110d260008b612269565b6110ea6000805160206142188339815191528b612269565b61110260008051602061421883398151915233612269565b8a51611116906101999060208e0190613732565b506040518060e001604052806000151581526020018663ffffffff1681526020018563ffffffff168152602001886001600160801b03168152602001876001600160801b0316815260200160038961116e9190613f4d565b6001600160801b03168152602001611188836101f4613f81565b6001600160801b039081169091528151610193805460208501516040860151606087015164ffffffffff1990931694151564ffffffff0019169490941761010063ffffffff928316021765010000000000600160c81b031916650100000000009190941602600160481b600160c81b03191692909217600160481b92841692909202919091179055608082015160a0830151908216600160801b91831691909102176101945560c09091015161019580546001600160801b0319169190921617905561019680546001600160a01b03199081166001600160a01b038c8116919091179092556101928054909116918a16919091179055610197819055610191555080156112cf576000805461ff0019169055604051600181527f7f26b83ff96e1f2b6a682f133852f6798a09c465da95921460cefb38474024989060200160405180910390a15b505050505050505050505050565b61019980546112eb90613d9f565b80601f016020809104026020016040519081016040528092919081815260200182805461131790613d9f565b80156113645780601f1061133957610100808354040283529160200191611364565b820191906000526020600020905b81548152906001019060200180831161134757829003601f168201915b505050505081565b6000611376612646565b61137e6126a1565b6113898333846126e8565b9050610972600161012d55565b6001600160a01b031660009081526033602052604090205490565b6000610972610191546113c360355490565b8491906128ff565b6000805160206142188339815191526113e381611f28565b610d276129ae565b600082815260fb60205260408120610b4390836129ec565b600091825260c9602090815260408084206001600160a01b0393909316845291905290205460ff1690565b60606037805461098790613d9f565b6000806000806000306001600160a01b031663bd26057e6040518163ffffffff1660e01b815260040160e060405180830381865afa158015611483573d6000803e3d6000fd5b505050506040513d601f19601f820116820180604052508101906114a79190613fa0565b50505093509350935093508263ffffffff164210156114cb57600094505050505090565b8163ffffffff164210156114e457600194505050505090565b806001600160801b031661019854101561150357600394505050505090565b8361150f576002611512565b60045b94505050505090565b600033816115298286611b1f565b9050838110156115895760405162461bcd60e51b815260206004820152602560248201527f45524332303a2064656372656173656420616c6c6f77616e63652062656c6f77604482015264207a65726f60d81b6064820152608401610a9b565b6115968286868403611de0565b506001949350505050565b600033610a25818585611fa6565b6000610972826001611dbc565b60006115c6612646565b6115ce6126a1565b60006115d861143d565b90506115e385610a2f565b9150600060018260048111156115fb576115fb613c30565b1461160e5761160984611396565b611617565b611617846129f8565b9050808311156116695760405162461bcd60e51b815260206004820152601f60248201527f455243343632363a207769746864726177206d6f7265207468616e206d6178006044820152606401610a9b565b6116763386868987612a29565b600182600481111561168a5761168a613c30565b116116f7578561019860008282546116a2919061403c565b90915550506001600160a01b038416600090815261019a6020526040902054808710156116d8576116d3878261403c565b6116db565b60005b6001600160a01b038616600090815261019a6020526040902055505b5050610b43600161012d55565b600061170e612646565b6117166126a1565b600061172061143d565b90506000600182600481111561173857611738613c30565b1461174b5761174684611396565b611754565b611754846129f8565b9050808611156117a65760405162461bcd60e51b815260206004820152601d60248201527f455243343632363a2072656465656d206d6f7265207468616e206d61780000006044820152606401610a9b565b6117af86610a0a565b92506117be338686868a612a29565b60018260048111156117d2576117d2613c30565b116116f7578261019860008282546117ea919061403c565b90915550506001600160a01b038416600090815261019a6020526040902054808410156116d8576116d3848261403c565b610196546001600160a01b0316336001600160a01b03161461183d5733610b63565b600061184761143d565b9050600281600481111561185d5761185d613c30565b1461187d57806040516336100b6760e11b8152600401610a9b9190613c68565b61019754611899333085610d166065546001600160a01b031690565b60006118a4846113b1565b6118ae9083613def565b61019781905560408051848152602081018390529192507f945c1c4e99aa89f648fbfe3df471b916f719e16d960fcec0737d4d56bd69683891015b60405180910390a150505050565b6000610972826000611f04565b600081815260fb6020526040812061097290612ad5565b6000600261192761143d565b600481111561193857611938613c30565b0361194657610d8a82612adf565b61097261195283611396565b6000611dbc565b60007faefebe170cbaff0af052a32795af0e1b8afff9850f946ad2869be14f3553437161198581611f28565b61198f6004612151565b91507fb4192707c71da259814532b3eb648e78c9d78d6a3b9234baed7a183808f8c54c82604051610bc591815260200190565b600082815260c960205260409020600101546119dd81611f28565b610bf6838361228b565b6000805160206142188339815191526119ff81611f28565b6000611a0961143d565b90506002816004811115611a1f57611a1f613c30565b1115611a4057806040516336100b6760e11b8152600401610a9b9190613c68565b8263ffffffff168463ffffffff161180611a5f5750428463ffffffff16105b15611a7d576040516335c4a3b960e11b815260040160405180910390fd5b610193805468ffffffffffffffff00191661010063ffffffff87811691820268ffffffff000000000019169290921765010000000000928716928302179092556040805192835260208301919091527f8f8d0d2155084c34c7e189b664aa128aebfd57e564d2d01c82a148d3da3a3bbc91016118e9565b60006002611b0061143d565b6004811115611b1157611b11613c30565b14610d8f57610d8a82611396565b6001600160a01b03918216600090815260346020908152604080832093909416825291909152205490565b6000611b5581611f28565b6000829003611b7b5782826040516303c5d03760e01b8152600401610a9b929190614053565b7f82b4c0c51f891b823eff0c623396a3d488ad9c5fa87eaf6536a5e30257cfe6248383604051611bac929190614053565b60405180910390a1611bc161019984846137b6565b50505050565b6001600160a01b038116600090815261019a6020526040812054610195546001600160801b031680821015611c0557611c00828261403c565b611c08565b60005b949350505050565b6000611c1b81611f28565b816001600160a01b03163b600003611c5157604051634ab6cb6760e11b81526001600160a01b0383166004820152602401610a9b565b61019654604080516001600160a01b03928316815291841660208301527f4ab5be82436d353e61ca18726e984e561f5c1cc7c6d38b29d2553c790434705a910160405180910390a15061019680546001600160a01b0319166001600160a01b0392909216919091179055565b600080516020614218833981519152611cd581611f28565b816001600160a01b031663fe60d26b6040518163ffffffff1660e01b8152600401602060405180830381865afa158015611d13573d6000803e3d6000fd5b505050506040513d601f19601f82011682018060405250810190611d379190613e07565b611d54576040516381867da560e01b815260040160405180910390fd5b5061019280546001600160a01b0319166001600160a01b0392909216919091179055565b6001600160a01b03163b151590565b60006001600160e01b03198216637965db0b60e01b148061097257506301ffc9a760e01b6001600160e01b0319831614610972565b6000808311611dcc576000610b43565b6101975461019154610b4391859185612afa565b6001600160a01b038316611e425760405162461bcd60e51b8152602060048201526024808201527f45524332303a20617070726f76652066726f6d20746865207a65726f206164646044820152637265737360e01b6064820152608401610a9b565b6001600160a01b038216611ea35760405162461bcd60e51b815260206004820152602260248201527f45524332303a20617070726f766520746f20746865207a65726f206164647265604482015261737360f01b6064820152608401610a9b565b6001600160a01b0383811660008181526034602090815260408083209487168084529482529182902085905590518481527f8c5be1e5ebec7d5bd14f71427d1e84f3dd0314c0f7b2291e5b200ac8c7c3b925910160405180910390a3505050565b6000808311611f14576000610b43565b6101915461019754610b4391859185612afa565b610d278133612b57565b6000611f3e8484611b1f565b90506000198114611bc15781811015611f995760405162461bcd60e51b815260206004820152601d60248201527f45524332303a20696e73756666696369656e7420616c6c6f77616e63650000006044820152606401610a9b565b611bc18484848403611de0565b6001600160a01b03831661200a5760405162461bcd60e51b815260206004820152602560248201527f45524332303a207472616e736665722066726f6d20746865207a65726f206164604482015264647265737360d81b6064820152608401610a9b565b6001600160a01b03821661206c5760405162461bcd60e51b815260206004820152602360248201527f45524332303a207472616e7366657220746f20746865207a65726f206164647260448201526265737360e81b6064820152608401610a9b565b6001600160a01b038316600090815260336020526040902054818110156120e45760405162461bcd60e51b815260206004820152602660248201527f45524332303a207472616e7366657220616d6f756e7420657863656564732062604482015265616c616e636560d01b6064820152608401610a9b565b6001600160a01b0380851660008181526033602052604080822086860390559286168082529083902080548601905591517fddf252ad1be2c89b69c2b068fc378daa952ba7f163c4a11628f55a4df523b3ef906121449086815260200190565b60405180910390a3611bc1565b60008061215c61143d565b905082600481111561217057612170613c30565b81600481111561218257612182613c30565b146121a55760048160405163567dfef960e01b8152600401610a9b929190614082565b60006121b96065546001600160a01b031690565b6040516370a0823160e01b81523060048201529091506001600160a01b038216906370a0823190602401602060405180830381865afa158015612200573d6000803e3d6000fd5b505050506040513d601f19601f820116820180604052508101906122249190613d86565b92508260000361224757604051634a2ccc4360e01b815260040160405180910390fd5b61019654612262906001600160a01b03838116911685612bb0565b5050919050565b6122738282612be0565b600082815260fb60205260409020610bf69082612c66565b6122958282612c7b565b600082815260fb60205260409020610bf69082612ce2565b60006122b761143d565b905060028160048111156122cd576122cd613c30565b146122ed57806040516336100b6760e11b8152600401610a9b9190613c68565b6101985460006122fd828561409d565b61019754909150600061230f866113b1565b610197819055610193805460ff1916600117905560408051888152602081018790529192507f502833ea9eb26966767980111b75e4b8e013aeea7b9493478424afc7869399c4910160405180910390a160008312156123b7577f727586bb3240e37cfc23d9c04f5d2c8f8c85602f6be89e0a8698e1a5a4c891d08487612394866140dc565b6040805193845260208401929092529082015260600160405180910390a16123f4565b60008313156123f4576040518381527f8a335823c2fa2c1e28bd8d65eb9cbe0194f76293b1626a460597adc993d606cd9060200160405180910390a15b60408051838152602081018390527f945c1c4e99aa89f648fbfe3df471b916f719e16d960fcec0737d4d56bd696838910160405180910390a1505050505050565b6040516001600160a01b0380851660248301528316604482015260648101829052611bc19085906323b872dd60e01b906084015b60408051601f198184030181529190526020810180516001600160e01b03166001600160e01b031990931692909217909152612cf7565b6124a8612dc9565b61015f805460ff191690557f5db9ee0a495bf2e6ff9c91a7834c1ba4fdd244a5e8aa4e537bd38aeae4b073aa335b6040516001600160a01b03909116815260200160405180910390a1565b61019454610198546001600160a01b038316600090815261019a602052604081205490926001600160801b038082169392600160801b9092041690828411158061253d5750808211155b1561254e5750600095945050505050565b600061255a828461403c565b90506000612568858761403c565b90508082116125775781612579565b805b98975050505050505050565b600054610100900460ff166125ac5760405162461bcd60e51b8152600401610a9b906140f8565b6125b4612e13565b565b600054610100900460ff166125dd5760405162461bcd60e51b8152600401610a9b906140f8565b610d2781612e47565b600054610100900460ff1661260d5760405162461bcd60e51b8152600401610a9b906140f8565b610c758282612ecc565b600054610100900460ff1661263e5760405162461bcd60e51b8152600401610a9b906140f8565b6125b4612f1a565b600261012d54036126995760405162461bcd60e51b815260206004820152601f60248201527f5265656e7472616e637947756172643a207265656e7472616e742063616c6c006044820152606401610a9b565b600261012d55565b61015f5460ff16156125b45760405162461bcd60e51b815260206004820152601060248201526f14185d5cd8589b194e881c185d5cd95960821b6044820152606401610a9b565b61019254604051630808f3eb60e01b81526001600160a01b0384811660048301526000921690630808f3eb90602401602060405180830381865afa158015612734573d6000803e3d6000fd5b505050506040513d601f19601f820116820180604052508101906127589190613e07565b6127805760405163c8f9bd5960e01b81526001600160a01b0384166004820152602401610a9b565b6001600160a01b0382166127a757604051631abcef9360e21b815260040160405180910390fd5b836000036127c85760405163836843a560e01b815260040160405180910390fd5b60006127d261143d565b905060018160048111156127e8576127e8613c30565b1461280b5760018160405163567dfef960e01b8152600401610a9b929190614082565b612814846124f3565b8511156128635760405162461bcd60e51b815260206004820152601e60248201527f455243343632363a206465706f736974206d6f7265207468616e206d617800006044820152606401610a9b565b600061286e85611bc7565b90508086101561289b576040516313ed593f60e11b81526004810182905260248101879052604401610a9b565b6128a785858889612f41565b8561019860008282546128ba9190613def565b90915550506001600160a01b038516600090815261019a6020526040812080548892906128e8908490613def565b90915550959695505050505050565b600161012d55565b60008080600019858709858702925082811083820303915050806000036129395783828161292f5761292f613f37565b0492505050610b43565b80841161294557600080fd5b60008486880960026001871981018816978890046003810283188082028403028082028403028082028403028082028403028082028403029081029092039091026000889003889004909101858311909403939093029303949094049190911702949350505050565b6129b66126a1565b61015f805460ff191660011790557f62e78cea01bee320cd4e420270b5ea74000d11b0c9f74754ebdbfc544b05a2586124d63390565b6000610b438383612fbf565b600080612a0483611396565b90506000612a1a612a136108db565b6000611f04565b9050808211610b435781611c08565b826001600160a01b0316856001600160a01b031614612a4d57612a4d838683611f32565b612a578382612fe9565b606554612a6e906001600160a01b03168584612bb0565b826001600160a01b0316846001600160a01b0316866001600160a01b03167ffbde797d201c681b91056529119e0b02407c7bb96a4a2c75c01fc9667232c8db8585604051612ac6929190918252602082015260400190565b60405180910390a45050505050565b6000610972825490565b600080612aee61195284611396565b90506000612a1a6108db565b600080612b088686866128ff565b90506001836002811115612b1e57612b1e613c30565b148015612b3b575060008480612b3657612b36613f37565b868809115b15612b4e57612b4b600182613def565b90505b95945050505050565b612b618282611403565b610c7557612b6e8161311d565b612b7983602061312f565b604051602001612b8a929190614143565b60408051601f198184030181529082905262461bcd60e51b8252610a9b91600401613895565b6040516001600160a01b038316602482015260448101829052610bf690849063a9059cbb60e01b90606401612469565b612bea8282611403565b610c7557600082815260c9602090815260408083206001600160a01b03851684529091529020805460ff19166001179055612c223390565b6001600160a01b0316816001600160a01b0316837f2f8788117e7eff1d82e926ec794901d17c78024a50270940304540a733656f0d60405160405180910390a45050565b6000610b43836001600160a01b0384166132cb565b612c858282611403565b15610c7557600082815260c9602090815260408083206001600160a01b0385168085529252808320805460ff1916905551339285917ff6391f5c32d9c69d2a47ea670b442974b53935d1edc7fd64eb21e047a839171b9190a45050565b6000610b43836001600160a01b03841661331a565b6000612d4c826040518060400160405280602081526020017f5361666545524332303a206c6f772d6c6576656c2063616c6c206661696c6564815250856001600160a01b031661340d9092919063ffffffff16565b805190915015610bf65780806020019051810190612d6a9190613e07565b610bf65760405162461bcd60e51b815260206004820152602a60248201527f5361666545524332303a204552433230206f7065726174696f6e20646964206e6044820152691bdd081cdd58d8d9595960b21b6064820152608401610a9b565b61015f5460ff166125b45760405162461bcd60e51b815260206004820152601460248201527314185d5cd8589b194e881b9bdd081c185d5cd95960621b6044820152606401610a9b565b600054610100900460ff16612e3a5760405162461bcd60e51b8152600401610a9b906140f8565b61015f805460ff19169055565b600054610100900460ff16612e6e5760405162461bcd60e51b8152600401610a9b906140f8565b600080612e7a8361341c565b9150915081612e8a576012612e8c565b805b606580546001600160a01b039095166001600160a01b031960ff93909316600160a01b02929092166001600160a81b031990951694909417179092555050565b600054610100900460ff16612ef35760405162461bcd60e51b8152600401610a9b906140f8565b8151612f06906036906020850190613732565b508051610bf6906037906020840190613732565b600054610100900460ff166128f75760405162461bcd60e51b8152600401610a9b906140f8565b606554612f59906001600160a01b0316853085612435565b612f6383826134f8565b826001600160a01b0316846001600160a01b03167fdcbc1c05240f31ff3ad067ef1ee35ce4997762752e3a095284754544f4c709d78484604051612fb1929190918252602082015260400190565b60405180910390a350505050565b6000826000018281548110612fd657612fd66141b8565b9060005260206000200154905092915050565b6001600160a01b0382166130495760405162461bcd60e51b815260206004820152602160248201527f45524332303a206275726e2066726f6d20746865207a65726f206164647265736044820152607360f81b6064820152608401610a9b565b6001600160a01b038216600090815260336020526040902054818110156130bd5760405162461bcd60e51b815260206004820152602260248201527f45524332303a206275726e20616d6f756e7420657863656564732062616c616e604482015261636560f01b6064820152608401610a9b565b6001600160a01b03831660008181526033602090815260408083208686039055603580548790039055518581529192917fddf252ad1be2c89b69c2b068fc378daa952ba7f163c4a11628f55a4df523b3ef910160405180910390a3505050565b60606109726001600160a01b03831660145b6060600061313e836002613f81565b613149906002613def565b67ffffffffffffffff81111561316157613161613a39565b6040519080825280601f01601f19166020018201604052801561318b576020820181803683370190505b509050600360fc1b816000815181106131a6576131a66141b8565b60200101906001600160f81b031916908160001a905350600f60fb1b816001815181106131d5576131d56141b8565b60200101906001600160f81b031916908160001a90535060006131f9846002613f81565b613204906001613def565b90505b600181111561327c576f181899199a1a9b1b9c1cb0b131b232b360811b85600f1660108110613238576132386141b8565b1a60f81b82828151811061324e5761324e6141b8565b60200101906001600160f81b031916908160001a90535060049490941c93613275816141ce565b9050613207565b508315610b435760405162461bcd60e51b815260206004820181905260248201527f537472696e67733a20686578206c656e67746820696e73756666696369656e746044820152606401610a9b565b600081815260018301602052604081205461331257508154600181810184556000848152602080822090930184905584548482528286019093526040902091909155610972565b506000610972565b6000818152600183016020526040812054801561340357600061333e60018361403c565b85549091506000906133529060019061403c565b90508181146133b7576000866000018281548110613372576133726141b8565b9060005260206000200154905080876000018481548110613395576133956141b8565b6000918252602080832090910192909255918252600188019052604090208390555b85548690806133c8576133c86141e5565b600190038181906000526020600020016000905590558560010160008681526020019081526020016000206000905560019350505050610972565b6000915050610972565b6060611c0884846000856135b9565b60408051600481526024810182526020810180516001600160e01b031663313ce56760e01b17905290516000918291829182916001600160a01b03871691613463916141fb565b600060405180830381855afa9150503d806000811461349e576040519150601f19603f3d011682016040523d82523d6000602084013e6134a3565b606091505b50915091508180156134b757506020815110155b156134eb576000818060200190518101906134d29190613d86565b905060ff81116134e9576001969095509350505050565b505b5060009485945092505050565b6001600160a01b03821661354e5760405162461bcd60e51b815260206004820152601f60248201527f45524332303a206d696e7420746f20746865207a65726f2061646472657373006044820152606401610a9b565b80603560008282546135609190613def565b90915550506001600160a01b0382166000818152603360209081526040808320805486019055518481527fddf252ad1be2c89b69c2b068fc378daa952ba7f163c4a11628f55a4df523b3ef910160405180910390a35050565b60608247101561361a5760405162461bcd60e51b815260206004820152602660248201527f416464726573733a20696e73756666696369656e742062616c616e636520666f6044820152651c8818d85b1b60d21b6064820152608401610a9b565b600080866001600160a01b0316858760405161363691906141fb565b60006040518083038185875af1925050503d8060008114613673576040519150601f19603f3d011682016040523d82523d6000602084013e613678565b606091505b509150915061368987838387613694565b979650505050505050565b606083156137035782516000036136fc576001600160a01b0385163b6136fc5760405162461bcd60e51b815260206004820152601d60248201527f416464726573733a2063616c6c20746f206e6f6e2d636f6e74726163740000006044820152606401610a9b565b5081611c08565b611c0883838151156137185781518083602001fd5b8060405162461bcd60e51b8152600401610a9b9190613895565b82805461373e90613d9f565b90600052602060002090601f01602090048101928261376057600085556137a6565b82601f1061377957805160ff19168380011785556137a6565b828001600101855582156137a6579182015b828111156137a657825182559160200191906001019061378b565b506137b292915061382a565b5090565b8280546137c290613d9f565b90600052602060002090601f0160209004810192826137e457600085556137a6565b82601f106137fd5782800160ff198235161785556137a6565b828001600101855582156137a6579182015b828111156137a657823582559160200191906001019061380f565b5b808211156137b2576000815560010161382b565b60006020828403121561385157600080fd5b81356001600160e01b031981168114610b4357600080fd5b60005b8381101561388457818101518382015260200161386c565b83811115611bc15750506000910152565b60208152600082518060208401526138b4816040850160208701613869565b601f01601f19169190910160400192915050565b6000602082840312156138da57600080fd5b5035919050565b6001600160a01b0381168114610d2757600080fd5b8035613901816138e1565b919050565b6000806040838503121561391957600080fd5b8235613924816138e1565b946020939093013593505050565b6001600160801b0381168114610d2757600080fd5b803561390181613932565b6000806040838503121561396557600080fd5b823561397081613932565b9150602083013561398081613932565b809150509250929050565b6000806000606084860312156139a057600080fd5b83356139ab816138e1565b925060208401356139bb816138e1565b929592945050506040919091013590565b600080604083850312156139df57600080fd5b823591506020830135613980816138e1565b8015158114610d2757600080fd5b600060208284031215613a1157600080fd5b8135610b43816139f1565b600060208284031215613a2e57600080fd5b8135610b43816138e1565b634e487b7160e01b600052604160045260246000fd5b600082601f830112613a6057600080fd5b813567ffffffffffffffff80821115613a7b57613a7b613a39565b604051601f8301601f19908116603f01168101908282118183101715613aa357613aa3613a39565b81604052838152866020858801011115613abc57600080fd5b836020870160208301376000602085830101528094505050505092915050565b63ffffffff81168114610d2757600080fd5b803561390181613adc565b60008060008060008060008060008060006101608c8e031215613b1b57600080fd5b613b248c6138f6565b9a5067ffffffffffffffff8060208e01351115613b4057600080fd5b613b508e60208f01358f01613a4f565b9a508060408e01351115613b6357600080fd5b613b738e60408f01358f01613a4f565b99508060608e01351115613b8657600080fd5b50613b978d60608e01358e01613a4f565b9750613ba560808d016138f6565b9650613bb360a08d016138f6565b9550613bc160c08d016138f6565b9450613bcf60e08d01613947565b9350613bde6101008d01613947565b9250613bed6101208d01613aee565b9150613bfc6101408d01613aee565b90509295989b509295989b9093969950565b60008060408385031215613c2157600080fd5b50508035926020909101359150565b634e487b7160e01b600052602160045260246000fd5b60058110613c6457634e487b7160e01b600052602160045260246000fd5b9052565b602081016109728284613c46565b600080600060608486031215613c8b57600080fd5b833592506020840135613c9d816138e1565b91506040840135613cad816138e1565b809150509250925092565b60008060408385031215613ccb57600080fd5b8235613cd681613adc565b9150602083013561398081613adc565b60008060408385031215613cf957600080fd5b8235613d04816138e1565b91506020830135613980816138e1565b60008060208385031215613d2757600080fd5b823567ffffffffffffffff80821115613d3f57600080fd5b818501915085601f830112613d5357600080fd5b813581811115613d6257600080fd5b866020828501011115613d7457600080fd5b60209290920196919550909350505050565b600060208284031215613d9857600080fd5b5051919050565b600181811c90821680613db357607f821691505b602082108103613dd357634e487b7160e01b600052602260045260246000fd5b50919050565b634e487b7160e01b600052601160045260246000fd5b60008219821115613e0257613e02613dd9565b500190565b600060208284031215613e1957600080fd5b8151610b43816139f1565b600060208284031215613e3657600080fd5b815160ff81168114610b4357600080fd5b600181815b80851115613e82578160001904821115613e6857613e68613dd9565b80851615613e7557918102915b93841c9390800290613e4c565b509250929050565b600082613e9957506001610972565b81613ea657506000610972565b8160018114613ebc5760028114613ec657613ee2565b6001915050610972565b60ff841115613ed757613ed7613dd9565b50506001821b610972565b5060208310610133831016604e8410600b8410161715613f05575081810a610972565b613f0f8383613e47565b8060001904821115613f2357613f23613dd9565b029392505050565b6000610b438383613e8a565b634e487b7160e01b600052601260045260246000fd5b60006001600160801b0380841680613f7557634e487b7160e01b600052601260045260246000fd5b92169190910492915050565b6000816000190483118215151615613f9b57613f9b613dd9565b500290565b600080600080600080600060e0888a031215613fbb57600080fd5b8751613fc6816139f1565b6020890151909750613fd781613adc565b6040890151909650613fe881613adc565b6060890151909550613ff981613932565b608089015190945061400a81613932565b60a089015190935061401b81613932565b60c089015190925061402c81613932565b8091505092959891949750929550565b60008282101561404e5761404e613dd9565b500390565b60208152816020820152818360408301376000818301604090810191909152601f909201601f19160101919050565b604081016140908285613c46565b610b436020830184613c46565b60008083128015600160ff1b8501841216156140bb576140bb613dd9565b6001600160ff1b03840183138116156140d6576140d6613dd9565b50500390565b6000600160ff1b82016140f1576140f1613dd9565b5060000390565b6020808252602b908201527f496e697469616c697a61626c653a20636f6e7472616374206973206e6f74206960408201526a6e697469616c697a696e6760a81b606082015260800190565b7f416363657373436f6e74726f6c3a206163636f756e742000000000000000000081526000835161417b816017850160208801613869565b7001034b99036b4b9b9b4b733903937b6329607d1b60179184019182015283516141ac816028840160208801613869565b01602801949350505050565b634e487b7160e01b600052603260045260246000fd5b6000816141dd576141dd613dd9565b506000190190565b634e487b7160e01b600052603160045260246000fd5b6000825161420d818460208701613869565b919091019291505056feb1e380c01db319c0153ea3bb4fbd0ab6639cc088e3bf8cd5319b128f33a2f9e8a2646970667358221220600ff1ebeea8abea671f2258f11c747b8621a577841b83fc0e9e54c1803efedb64736f6c634300080e0033",
    "linkReferences": {}
  },
  "methodIdentifiers": {
    "DEFAULT_ADMIN_ROLE()": "a217fddf",
    "DEV()": "c1eb5ddd",
    "KONKRETE()": "e35d33f6",
    "TIMELOCK()": "7aadef8b",
    "allowance(address,address)": "dd62ed3e",
    "approve(address,uint256)": "095ea7b3",
    "asset()": "38d52e0f",
    "balanceOf(address)": "70a08231",
    "collectCapital()": "29d29799",
    "collectUnclaimedFunds()": "d406008d",
    "collectedCapital()": "8e95bab2",
    "convertToAssets(uint256)": "07a2d13a",
    "convertToShares(uint256)": "c6e6f592",
    "dataBase()": "5cb5e41d",
    "decimals()": "313ce567",
    "decreaseAllowance(address,uint256)": "a457c2d7",
    "deposit(uint256,address)": "6e553f65",
    "emptyCapitalBack(bool)": "3670e7b1",
    "getRoleAdmin(bytes32)": "248a9ca3",
    "getRoleMember(bytes32,uint256)": "9010d07c",
    "getRoleMemberCount(bytes32)": "ca15c873",
    "getStep()": "9e5288a0",
    "grantRole(bytes32,address)": "2f2ff15d",
    "hasRole(bytes32,address)": "91d14854",
    "increaseAllowance(address,uint256)": "39509351",
    "initialize(address,string,string,string,address,address,address,uint128,uint128,uint32,uint32)": "4d974d83",
    "maxDeposit(address)": "402d267d",
    "maxMint(address)": "c63d75b6",
    "maxRedeem(address)": "d905777e",
    "maxWithdraw(address)": "ce96cb77",
    "minInvest(address)": "e0f41f3a",
    "mint(uint256,address)": "94bf804d",
    "name()": "06fdde03",
    "originalPrice()": "76a24f25",
    "paid(address)": "a340cf79",
    "pause()": "8456cb59",
    "paused()": "5c975abb",
    "previewDeposit(uint256)": "ef8b30f7",
    "previewMint(uint256)": "b3d7f6b9",
    "previewRedeem(uint256)": "4cdad506",
    "previewWithdraw(uint256)": "0a28a477",
    "priceImpact(uint256)": "84061853",
    "redeem(uint256,address,address)": "ba087652",
    "refundCapital(uint256)": "373cad57",
    "refundInterest(uint256)": "bb659cde",
    "renounceRole(bytes32,address)": "36568abe",
    "revokeRole(bytes32,address)": "d547741f",
    "setCaps(uint128,uint128)": "490248e3",
    "setDatabase(address)": "f5420374",
    "setDepositLimitsPerUser(uint128,uint128)": "1bb133b0",
    "setTimes(uint32,uint32)": "d5f2b0cc",
    "setTreasury(address)": "f0f44260",
    "setVaultURI(string)": "dfd5473c",
    "stepVar()": "bd26057e",
    "supportsInterface(bytes4)": "01ffc9a7",
    "symbol()": "95d89b41",
    "tokenPrice()": "7ff9b596",
    "totalAssets()": "01e1d114",
    "totalSupply()": "18160ddd",
    "transfer(address,uint256)": "a9059cbb",
    "transferFrom(address,address,uint256)": "23b872dd",
    "treasury()": "61d027b3",
    "unpause()": "3f4ba83a",
    "vaultURI()": "5dc5eaf3",
    "withdraw(uint256,address,address)": "b460af94"
  },
  "id": 0
}