{
  "abi": [
    {
      "inputs": [],
      "stateMutability": "nonpayable",
      "type": "constructor"
    },
    {
      "inputs": [
        {
          "internalType": "uint256",
          "name": "minimum",
          "type": "uint256"
        },
        {
          "internalType": "uint256",
          "name": "amount",
          "type": "uint256"
        }
      ],
      "name": "BelowMinimumInvest",
      "type": "error"
    },
    {
      "inputs": [],
      "name": "InvestZeroAmount",
      "type": "error"
    },
    {
      "inputs": [
        {
          "internalType": "address",
          "name": "msgSender",
          "type": "address"
        }
      ],
      "name": "MsgSenderUnauthorized",
      "type": "error"
    },
    {
      "inputs": [
        {
          "internalType": "enum SaleStep",
          "name": "expected",
          "type": "uint8"
        },
        {
          "internalType": "enum SaleStep",
          "name": "currentStep",
          "type": "uint8"
        }
      ],
      "name": "NotExpectedStep",
      "type": "error"
    },
    {
      "inputs": [],
      "name": "ReceiverIsNullAddress",
      "type": "error"
    },
    {
      "inputs": [],
      "name": "TryToCollectZeroFund",
      "type": "error"
    },
    {
      "inputs": [],
      "name": "WrongCaps",
      "type": "error"
    },
    {
      "inputs": [],
      "name": "WrongDatabase",
      "type": "error"
    },
    {
      "inputs": [
        {
          "internalType": "uint256",
          "name": "expected1",
          "type": "uint256"
        },
        {
          "internalType": "uint256",
          "name": "expected2",
          "type": "uint256"
        },
        {
          "internalType": "uint256",
          "name": "current",
          "type": "uint256"
        }
      ],
      "name": "WrongDecimalNumber",
      "type": "error"
    },
    {
      "inputs": [
        {
          "internalType": "uint256",
          "name": "max",
          "type": "uint256"
        },
        {
          "internalType": "uint256",
          "name": "amountWanted",
          "type": "uint256"
        }
      ],
      "name": "WrongMaxDepositPerUser",
      "type": "error"
    },
    {
      "inputs": [
        {
          "internalType": "uint256",
          "name": "maxDeposit",
          "type": "uint256"
        },
        {
          "internalType": "uint256",
          "name": "minInvest",
          "type": "uint256"
        }
      ],
      "name": "WrongMinDepositPerUser",
      "type": "error"
    },
    {
      "inputs": [
        {
          "internalType": "bool",
          "name": "isZero",
          "type": "bool"
        }
      ],
      "name": "WrongRefundValue",
      "type": "error"
    },
    {
      "inputs": [],
      "name": "WrongSaleTimeStamps",
      "type": "error"
    },
    {
      "inputs": [
        {
          "internalType": "enum SaleStep",
          "name": "currentStep",
          "type": "uint8"
        }
      ],
      "name": "WrongStep",
      "type": "error"
    },
    {
      "inputs": [
        {
          "internalType": "address",
          "name": "treasury",
          "type": "address"
        }
      ],
      "name": "WrongTreasury",
      "type": "error"
    },
    {
      "inputs": [
        {
          "internalType": "string",
          "name": "vaultURI_",
          "type": "string"
        }
      ],
      "name": "WrongVaultURI",
      "type": "error"
    },
    {
      "anonymous": false,
      "inputs": [
        {
          "indexed": true,
          "internalType": "address",
          "name": "owner",
          "type": "address"
        },
        {
          "indexed": true,
          "internalType": "address",
          "name": "spender",
          "type": "address"
        },
        {
          "indexed": false,
          "internalType": "uint256",
          "name": "value",
          "type": "uint256"
        }
      ],
      "name": "Approval",
      "type": "event"
    },
    {
      "anonymous": false,
      "inputs": [
        {
          "indexed": false,
          "internalType": "uint256",
          "name": "amount",
          "type": "uint256"
        }
      ],
      "name": "CapitalCollected",
      "type": "event"
    },
    {
      "anonymous": false,
      "inputs": [
        {
          "indexed": false,
          "internalType": "uint256",
          "name": "originalCapital",
          "type": "uint256"
        },
        {
          "indexed": false,
          "internalType": "uint256",
          "name": "remainingCapital",
          "type": "uint256"
        },
        {
          "indexed": false,
          "internalType": "uint256",
          "name": "loss",
          "type": "uint256"
        }
      ],
      "name": "CapitalLoss",
      "type": "event"
    },
    {
      "anonymous": false,
      "inputs": [
        {
          "indexed": false,
          "internalType": "uint256",
          "name": "amount",
          "type": "uint256"
        },
        {
          "indexed": false,
          "internalType": "uint256",
          "name": "collected",
          "type": "uint256"
        }
      ],
      "name": "CapitalRefunded",
      "type": "event"
    },
    {
      "anonymous": false,
      "inputs": [
        {
          "indexed": false,
          "internalType": "uint256",
          "name": "softCap",
          "type": "uint256"
        },
        {
          "indexed": false,
          "internalType": "uint256",
          "name": "hardCap",
          "type": "uint256"
        }
      ],
      "name": "CapsUpdated",
      "type": "event"
    },
    {
      "anonymous": false,
      "inputs": [
        {
          "indexed": true,
          "internalType": "address",
          "name": "sender",
          "type": "address"
        },
        {
          "indexed": true,
          "internalType": "address",
          "name": "owner",
          "type": "address"
        },
        {
          "indexed": false,
          "internalType": "uint256",
          "name": "assets",
          "type": "uint256"
        },
        {
          "indexed": false,
          "internalType": "uint256",
          "name": "shares",
          "type": "uint256"
        }
      ],
      "name": "Deposit",
      "type": "event"
    },
    {
      "anonymous": false,
      "inputs": [
        {
          "indexed": false,
          "internalType": "uint256",
          "name": "",
          "type": "uint256"
        },
        {
          "indexed": false,
          "internalType": "uint256",
          "name": "",
          "type": "uint256"
        }
      ],
      "name": "DepositLimitsupdated",
      "type": "event"
    },
    {
      "anonymous": false,
      "inputs": [
        {
          "indexed": false,
          "internalType": "uint8",
          "name": "version",
          "type": "uint8"
        }
      ],
      "name": "Initialized",
      "type": "event"
    },
    {
      "anonymous": false,
      "inputs": [
        {
          "indexed": false,
          "internalType": "uint256",
          "name": "refunded",
          "type": "uint256"
        }
      ],
      "name": "InterestRefunded",
      "type": "event"
    },
    {
      "anonymous": false,
      "inputs": [
        {
          "indexed": false,
          "internalType": "address",
          "name": "account",
          "type": "address"
        }
      ],
      "name": "Paused",
      "type": "event"
    },
    {
      "anonymous": false,
      "inputs": [
        {
          "indexed": false,
          "internalType": "uint256",
          "name": "oldPrice",
          "type": "uint256"
        },
        {
          "indexed": false,
          "internalType": "uint256",
          "name": "newPrice",
          "type": "uint256"
        }
      ],
      "name": "PriceUpdated",
      "type": "event"
    },
    {
      "anonymous": false,
      "inputs": [
        {
          "indexed": true,
          "internalType": "bytes32",
          "name": "role",
          "type": "bytes32"
        },
        {
          "indexed": true,
          "internalType": "bytes32",
          "name": "previousAdminRole",
          "type": "bytes32"
        },
        {
          "indexed": true,
          "internalType": "bytes32",
          "name": "newAdminRole",
          "type": "bytes32"
        }
      ],
      "name": "RoleAdminChanged",
      "type": "event"
    },
    {
      "anonymous": false,
      "inputs": [
        {
          "indexed": true,
          "internalType": "bytes32",
          "name": "role",
          "type": "bytes32"
        },
        {
          "indexed": true,
          "internalType": "address",
          "name": "account",
          "type": "address"
        },
        {
          "indexed": true,
          "internalType": "address",
          "name": "sender",
          "type": "address"
        }
      ],
      "name": "RoleGranted",
      "type": "event"
    },
    {
      "anonymous": false,
      "inputs": [
        {
          "indexed": true,
          "internalType": "bytes32",
          "name": "role",
          "type": "bytes32"
        },
        {
          "indexed": true,
          "internalType": "address",
          "name": "account",
          "type": "address"
        },
        {
          "indexed": true,
          "internalType": "address",
          "name": "sender",
          "type": "address"
        }
      ],
      "name": "RoleRevoked",
      "type": "event"
    },
    {
      "anonymous": false,
      "inputs": [
        {
          "indexed": false,
          "internalType": "uint256",
          "name": "depositsStart",
          "type": "uint256"
        },
        {
          "indexed": false,
          "internalType": "uint256",
          "name": "depositsStop",
          "type": "uint256"
        }
      ],
      "name": "TimesUpdated",
      "type": "event"
    },
    {
      "anonymous": false,
      "inputs": [
        {
          "indexed": true,
          "internalType": "address",
          "name": "from",
          "type": "address"
        },
        {
          "indexed": true,
          "internalType": "address",
          "name": "to",
          "type": "address"
        },
        {
          "indexed": false,
          "internalType": "uint256",
          "name": "value",
          "type": "uint256"
        }
      ],
      "name": "Transfer",
      "type": "event"
    },
    {
      "anonymous": false,
      "inputs": [
        {
          "indexed": false,
          "internalType": "address",
          "name": "oldTreasury",
          "type": "address"
        },
        {
          "indexed": false,
          "internalType": "address",
          "name": "newTreasury",
          "type": "address"
        }
      ],
      "name": "TreasuryUpdated",
      "type": "event"
    },
    {
      "anonymous": false,
      "inputs": [
        {
          "indexed": false,
          "internalType": "uint256",
          "name": "amount",
          "type": "uint256"
        }
      ],
      "name": "UnclaimedFundsCollected",
      "type": "event"
    },
    {
      "anonymous": false,
      "inputs": [
        {
          "indexed": false,
          "internalType": "address",
          "name": "account",
          "type": "address"
        }
      ],
      "name": "Unpaused",
      "type": "event"
    },
    {
      "anonymous": false,
      "inputs": [
        {
          "indexed": false,
          "internalType": "string",
          "name": "vaultURI_",
          "type": "string"
        }
      ],
      "name": "VaultURIUpdated",
      "type": "event"
    },
    {
      "anonymous": false,
      "inputs": [
        {
          "indexed": true,
          "internalType": "address",
          "name": "sender",
          "type": "address"
        },
        {
          "indexed": true,
          "internalType": "address",
          "name": "receiver",
          "type": "address"
        },
        {
          "indexed": true,
          "internalType": "address",
          "name": "owner",
          "type": "address"
        },
        {
          "indexed": false,
          "internalType": "uint256",
          "name": "assets",
          "type": "uint256"
        },
        {
          "indexed": false,
          "internalType": "uint256",
          "name": "shares",
          "type": "uint256"
        }
      ],
      "name": "Withdraw",
      "type": "event"
    },
    {
      "inputs": [],
      "name": "DEFAULT_ADMIN_ROLE",
      "outputs": [
        {
          "internalType": "bytes32",
          "name": "",
          "type": "bytes32"
        }
      ],
      "stateMutability": "view",
      "type": "function"
    },
    {
      "inputs": [],
      "name": "DEV",
      "outputs": [
        {
          "internalType": "bytes32",
          "name": "",
          "type": "bytes32"
        }
      ],
      "stateMutability": "view",
      "type": "function"
    },
    {
      "inputs": [],
      "name": "KONKRETE",
      "outputs": [
        {
          "internalType": "bytes32",
          "name": "",
          "type": "bytes32"
        }
      ],
      "stateMutability": "view",
      "type": "function"
    },
    {
      "inputs": [],
      "name": "TIMELOCK",
      "outputs": [
        {
          "internalType": "bytes32",
          "name": "",
          "type": "bytes32"
        }
      ],
      "stateMutability": "view",
      "type": "function"
    },
    {
      "inputs": [
        {
          "internalType": "address",
          "name": "owner",
          "type": "address"
        },
        {
          "internalType": "address",
          "name": "spender",
          "type": "address"
        }
      ],
      "name": "allowance",
      "outputs": [
        {
          "internalType": "uint256",
          "name": "",
          "type": "uint256"
        }
      ],
      "stateMutability": "view",
      "type": "function"
    },
    {
      "inputs": [
        {
          "internalType": "address",
          "name": "spender",
          "type": "address"
        },
        {
          "internalType": "uint256",
          "name": "amount",
          "type": "uint256"
        }
      ],
      "name": "approve",
      "outputs": [
        {
          "internalType": "bool",
          "name": "",
          "type": "bool"
        }
      ],
      "stateMutability": "nonpayable",
      "type": "function"
    },
    {
      "inputs": [],
      "name": "asset",
      "outputs": [
        {
          "internalType": "address",
          "name": "",
          "type": "address"
        }
      ],
      "stateMutability": "view",
      "type": "function"
    },
    {
      "inputs": [
        {
          "internalType": "address",
          "name": "account",
          "type": "address"
        }
      ],
      "name": "balanceOf",
      "outputs": [
        {
          "internalType": "uint256",
          "name": "",
          "type": "uint256"
        }
      ],
      "stateMutability": "view",
      "type": "function"
    },
    {
      "inputs": [],
      "name": "collectCapital",
      "outputs": [
        {
          "internalType": "uint256",
          "name": "collected",
          "type": "uint256"
        }
      ],
      "stateMutability": "nonpayable",
      "type": "function"
    },
    {
      "inputs": [],
      "name": "collectUnclaimedFunds",
      "outputs": [
        {
          "internalType": "uint256",
          "name": "pendingFunds",
          "type": "uint256"
        }
      ],
      "stateMutability": "nonpayable",
      "type": "function"
    },
    {
      "inputs": [],
      "name": "collectedCapital",
      "outputs": [
        {
          "internalType": "uint256",
          "name": "",
          "type": "uint256"
        }
      ],
      "stateMutability": "view",
      "type": "function"
    },
    {
      "inputs": [
        {
          "internalType": "uint256",
          "name": "shares",
          "type": "uint256"
        }
      ],
      "name": "convertToAssets",
      "outputs": [
        {
          "internalType": "uint256",
          "name": "assets",
          "type": "uint256"
        }
      ],
      "stateMutability": "view",
      "type": "function"
    },
    {
      "inputs": [
        {
          "internalType": "uint256",
          "name": "assets",
          "type": "uint256"
        }
      ],
      "name": "convertToShares",
      "outputs": [
        {
          "internalType": "uint256",
          "name": "shares",
          "type": "uint256"
        }
      ],
      "stateMutability": "view",
      "type": "function"
    },
    {
      "inputs": [],
      "name": "dataBase",
      "outputs": [
        {
          "internalType": "contract IDatabase",
          "name": "",
          "type": "address"
        }
      ],
      "stateMutability": "view",
      "type": "function"
    },
    {
      "inputs": [],
      "name": "decimals",
      "outputs": [
        {
          "internalType": "uint8",
          "name": "",
          "type": "uint8"
        }
      ],
      "stateMutability": "view",
      "type": "function"
    },
    {
      "inputs": [
        {
          "internalType": "address",
          "name": "spender",
          "type": "address"
        },
        {
          "internalType": "uint256",
          "name": "subtractedValue",
          "type": "uint256"
        }
      ],
      "name": "decreaseAllowance",
      "outputs": [
        {
          "internalType": "bool",
          "name": "",
          "type": "bool"
        }
      ],
      "stateMutability": "nonpayable",
      "type": "function"
    },
    {
      "inputs": [
        {
          "internalType": "uint256",
          "name": "assets",
          "type": "uint256"
        },
        {
          "internalType": "address",
          "name": "receiver",
          "type": "address"
        }
      ],
      "name": "deposit",
      "outputs": [
        {
          "internalType": "uint256",
          "name": "",
          "type": "uint256"
        }
      ],
      "stateMutability": "nonpayable",
      "type": "function"
    },
    {
      "inputs": [],
      "name": "depositsStart",
      "outputs": [
        {
          "internalType": "uint256",
          "name": "",
          "type": "uint256"
        }
      ],
      "stateMutability": "view",
      "type": "function"
    },
    {
      "inputs": [],
      "name": "depositsStop",
      "outputs": [
        {
          "internalType": "uint256",
          "name": "",
          "type": "uint256"
        }
      ],
      "stateMutability": "view",
      "type": "function"
    },
    {
      "inputs": [
        {
          "internalType": "bool",
          "name": "doubleChecked",
          "type": "bool"
        }
      ],
      "name": "emptyCapitalBack",
      "outputs": [],
      "stateMutability": "nonpayable",
      "type": "function"
    },
    {
      "inputs": [
        {
          "internalType": "bytes32",
          "name": "role",
          "type": "bytes32"
        }
      ],
      "name": "getRoleAdmin",
      "outputs": [
        {
          "internalType": "bytes32",
          "name": "",
          "type": "bytes32"
        }
      ],
      "stateMutability": "view",
      "type": "function"
    },
    {
      "inputs": [
        {
          "internalType": "bytes32",
          "name": "role",
          "type": "bytes32"
        },
        {
          "internalType": "uint256",
          "name": "index",
          "type": "uint256"
        }
      ],
      "name": "getRoleMember",
      "outputs": [
        {
          "internalType": "address",
          "name": "",
          "type": "address"
        }
      ],
      "stateMutability": "view",
      "type": "function"
    },
    {
      "inputs": [
        {
          "internalType": "bytes32",
          "name": "role",
          "type": "bytes32"
        }
      ],
      "name": "getRoleMemberCount",
      "outputs": [
        {
          "internalType": "uint256",
          "name": "",
          "type": "uint256"
        }
      ],
      "stateMutability": "view",
      "type": "function"
    },
    {
      "inputs": [],
      "name": "getStep",
      "outputs": [
        {
          "internalType": "enum SaleStep",
          "name": "step",
          "type": "uint8"
        }
      ],
      "stateMutability": "view",
      "type": "function"
    },
    {
      "inputs": [
        {
          "internalType": "bytes32",
          "name": "role",
          "type": "bytes32"
        },
        {
          "internalType": "address",
          "name": "account",
          "type": "address"
        }
      ],
      "name": "grantRole",
      "outputs": [],
      "stateMutability": "nonpayable",
      "type": "function"
    },
    {
      "inputs": [],
      "name": "hardCap",
      "outputs": [
        {
          "internalType": "uint256",
          "name": "",
          "type": "uint256"
        }
      ],
      "stateMutability": "view",
      "type": "function"
    },
    {
      "inputs": [
        {
          "internalType": "bytes32",
          "name": "role",
          "type": "bytes32"
        },
        {
          "internalType": "address",
          "name": "account",
          "type": "address"
        }
      ],
      "name": "hasRole",
      "outputs": [
        {
          "internalType": "bool",
          "name": "",
          "type": "bool"
        }
      ],
      "stateMutability": "view",
      "type": "function"
    },
    {
      "inputs": [
        {
          "internalType": "address",
          "name": "spender",
          "type": "address"
        },
        {
          "internalType": "uint256",
          "name": "addedValue",
          "type": "uint256"
        }
      ],
      "name": "increaseAllowance",
      "outputs": [
        {
          "internalType": "bool",
          "name": "",
          "type": "bool"
        }
      ],
      "stateMutability": "nonpayable",
      "type": "function"
    },
    {
      "inputs": [
        {
          "internalType": "address",
          "name": "asset_",
          "type": "address"
        },
        {
          "internalType": "string",
          "name": "name_",
          "type": "string"
        },
        {
          "internalType": "string",
          "name": "symbol_",
          "type": "string"
        },
        {
          "internalType": "string",
          "name": "vaultURI_",
          "type": "string"
        },
        {
          "internalType": "address",
          "name": "multisig",
          "type": "address"
        },
        {
          "internalType": "address",
          "name": "treasury_",
          "type": "address"
        },
        {
          "internalType": "contract IDatabase",
          "name": "dataBase_",
          "type": "address"
        },
        {
          "internalType": "uint256",
          "name": "softCap_",
          "type": "uint256"
        },
        {
          "internalType": "uint256",
          "name": "hardCap_",
          "type": "uint256"
        },
        {
          "internalType": "uint256",
          "name": "depositsStart_",
          "type": "uint256"
        },
        {
          "internalType": "uint256",
          "name": "depositsStop_",
          "type": "uint256"
        }
      ],
      "name": "initialize",
      "outputs": [],
      "stateMutability": "nonpayable",
      "type": "function"
    },
    {
      "inputs": [
        {
          "internalType": "address",
          "name": "user",
          "type": "address"
        }
      ],
      "name": "maxDeposit",
      "outputs": [
        {
          "internalType": "uint256",
          "name": "",
          "type": "uint256"
        }
      ],
      "stateMutability": "view",
      "type": "function"
    },
    {
      "inputs": [],
      "name": "maxDepositPerUser",
      "outputs": [
        {
          "internalType": "uint256",
          "name": "",
          "type": "uint256"
        }
      ],
      "stateMutability": "view",
      "type": "function"
    },
    {
      "inputs": [
        {
          "internalType": "address",
          "name": "user",
          "type": "address"
        }
      ],
      "name": "maxMint",
      "outputs": [
        {
          "internalType": "uint256",
          "name": "",
          "type": "uint256"
        }
      ],
      "stateMutability": "view",
      "type": "function"
    },
    {
      "inputs": [
        {
          "internalType": "address",
          "name": "owner",
          "type": "address"
        }
      ],
      "name": "maxRedeem",
      "outputs": [
        {
          "internalType": "uint256",
          "name": "",
          "type": "uint256"
        }
      ],
      "stateMutability": "view",
      "type": "function"
    },
    {
      "inputs": [
        {
          "internalType": "address",
          "name": "owner",
          "type": "address"
        }
      ],
      "name": "maxWithdraw",
      "outputs": [
        {
          "internalType": "uint256",
          "name": "",
          "type": "uint256"
        }
      ],
      "stateMutability": "view",
      "type": "function"
    },
    {
      "inputs": [
        {
          "internalType": "address",
          "name": "user",
          "type": "address"
        }
      ],
      "name": "minInvest",
      "outputs": [
        {
          "internalType": "uint256",
          "name": "",
          "type": "uint256"
        }
      ],
      "stateMutability": "view",
      "type": "function"
    },
    {
      "inputs": [],
      "name": "minInvestPerUser",
      "outputs": [
        {
          "internalType": "uint256",
          "name": "",
          "type": "uint256"
        }
      ],
      "stateMutability": "view",
      "type": "function"
    },
    {
      "inputs": [
        {
          "internalType": "uint256",
          "name": "shares",
          "type": "uint256"
        },
        {
          "internalType": "address",
          "name": "receiver",
          "type": "address"
        }
      ],
      "name": "mint",
      "outputs": [
        {
          "internalType": "uint256",
          "name": "",
          "type": "uint256"
        }
      ],
      "stateMutability": "nonpayable",
      "type": "function"
    },
    {
      "inputs": [],
      "name": "name",
      "outputs": [
        {
          "internalType": "string",
          "name": "",
          "type": "string"
        }
      ],
      "stateMutability": "view",
      "type": "function"
    },
    {
      "inputs": [],
      "name": "originalPrice",
      "outputs": [
        {
          "internalType": "uint256",
          "name": "",
          "type": "uint256"
        }
      ],
      "stateMutability": "view",
      "type": "function"
    },
    {
      "inputs": [
        {
          "internalType": "address",
          "name": "",
          "type": "address"
        }
      ],
      "name": "paid",
      "outputs": [
        {
          "internalType": "uint256",
          "name": "",
          "type": "uint256"
        }
      ],
      "stateMutability": "view",
      "type": "function"
    },
    {
      "inputs": [],
      "name": "pause",
      "outputs": [],
      "stateMutability": "nonpayable",
      "type": "function"
    },
    {
      "inputs": [],
      "name": "paused",
      "outputs": [
        {
          "internalType": "bool",
          "name": "",
          "type": "bool"
        }
      ],
      "stateMutability": "view",
      "type": "function"
    },
    {
      "inputs": [
        {
          "internalType": "uint256",
          "name": "assets",
          "type": "uint256"
        }
      ],
      "name": "previewDeposit",
      "outputs": [
        {
          "internalType": "uint256",
          "name": "",
          "type": "uint256"
        }
      ],
      "stateMutability": "view",
      "type": "function"
    },
    {
      "inputs": [
        {
          "internalType": "uint256",
          "name": "shares",
          "type": "uint256"
        }
      ],
      "name": "previewMint",
      "outputs": [
        {
          "internalType": "uint256",
          "name": "",
          "type": "uint256"
        }
      ],
      "stateMutability": "view",
      "type": "function"
    },
    {
      "inputs": [
        {
          "internalType": "uint256",
          "name": "shares",
          "type": "uint256"
        }
      ],
      "name": "previewRedeem",
      "outputs": [
        {
          "internalType": "uint256",
          "name": "",
          "type": "uint256"
        }
      ],
      "stateMutability": "view",
      "type": "function"
    },
    {
      "inputs": [
        {
          "internalType": "uint256",
          "name": "assets",
          "type": "uint256"
        }
      ],
      "name": "previewWithdraw",
      "outputs": [
        {
          "internalType": "uint256",
          "name": "",
          "type": "uint256"
        }
      ],
      "stateMutability": "view",
      "type": "function"
    },
    {
      "inputs": [
        {
          "internalType": "uint256",
          "name": "amountOfInterest",
          "type": "uint256"
        }
      ],
      "name": "priceImpact",
      "outputs": [
        {
          "internalType": "uint256",
          "name": "",
          "type": "uint256"
        }
      ],
      "stateMutability": "view",
      "type": "function"
    },
    {
      "inputs": [
        {
          "internalType": "uint256",
          "name": "shares",
          "type": "uint256"
        },
        {
          "internalType": "address",
          "name": "receiver",
          "type": "address"
        },
        {
          "internalType": "address",
          "name": "owner",
          "type": "address"
        }
      ],
      "name": "redeem",
      "outputs": [
        {
          "internalType": "uint256",
          "name": "assets",
          "type": "uint256"
        }
      ],
      "stateMutability": "nonpayable",
      "type": "function"
    },
    {
      "inputs": [
        {
          "internalType": "uint256",
          "name": "capital",
          "type": "uint256"
        },
        {
          "internalType": "uint256",
          "name": "interest",
          "type": "uint256"
        }
      ],
      "name": "refundCapitalAndInterest",
      "outputs": [],
      "stateMutability": "nonpayable",
      "type": "function"
    },
    {
      "inputs": [
        {
          "internalType": "uint256",
          "name": "interest",
          "type": "uint256"
        }
      ],
      "name": "refundInterest",
      "outputs": [],
      "stateMutability": "nonpayable",
      "type": "function"
    },
    {
      "inputs": [],
      "name": "refunded",
      "outputs": [
        {
          "internalType": "bool",
          "name": "",
          "type": "bool"
        }
      ],
      "stateMutability": "view",
      "type": "function"
    },
    {
      "inputs": [
        {
          "internalType": "bytes32",
          "name": "role",
          "type": "bytes32"
        },
        {
          "internalType": "address",
          "name": "account",
          "type": "address"
        }
      ],
      "name": "renounceRole",
      "outputs": [],
      "stateMutability": "nonpayable",
      "type": "function"
    },
    {
      "inputs": [
        {
          "internalType": "bytes32",
          "name": "role",
          "type": "bytes32"
        },
        {
          "internalType": "address",
          "name": "account",
          "type": "address"
        }
      ],
      "name": "revokeRole",
      "outputs": [],
      "stateMutability": "nonpayable",
      "type": "function"
    },
    {
      "inputs": [
        {
          "internalType": "uint256",
          "name": "soft",
          "type": "uint256"
        },
        {
          "internalType": "uint256",
          "name": "hard",
          "type": "uint256"
        }
      ],
      "name": "setCaps",
      "outputs": [],
      "stateMutability": "nonpayable",
      "type": "function"
    },
    {
      "inputs": [
        {
          "internalType": "contract IDatabase",
          "name": "database_",
          "type": "address"
        }
      ],
      "name": "setDatabase",
      "outputs": [],
      "stateMutability": "nonpayable",
      "type": "function"
    },
    {
      "inputs": [
        {
          "internalType": "uint256",
          "name": "minInvest_",
          "type": "uint256"
        },
        {
          "internalType": "uint256",
          "name": "maxDeposit_",
          "type": "uint256"
        }
      ],
      "name": "setDepositLimitsPerUser",
      "outputs": [],
      "stateMutability": "nonpayable",
      "type": "function"
    },
    {
      "inputs": [
        {
          "internalType": "uint256",
          "name": "start",
          "type": "uint256"
        },
        {
          "internalType": "uint256",
          "name": "stop",
          "type": "uint256"
        }
      ],
      "name": "setTimes",
      "outputs": [],
      "stateMutability": "nonpayable",
      "type": "function"
    },
    {
      "inputs": [
        {
          "internalType": "address",
          "name": "treasury_",
          "type": "address"
        }
      ],
      "name": "setTreasury",
      "outputs": [],
      "stateMutability": "nonpayable",
      "type": "function"
    },
    {
      "inputs": [
        {
          "internalType": "string",
          "name": "vaultURI_",
          "type": "string"
        }
      ],
      "name": "setVaultURI",
      "outputs": [],
      "stateMutability": "nonpayable",
      "type": "function"
    },
    {
      "inputs": [],
      "name": "softCap",
      "outputs": [
        {
          "internalType": "uint256",
          "name": "",
          "type": "uint256"
        }
      ],
      "stateMutability": "view",
      "type": "function"
    },
    {
      "inputs": [
        {
          "internalType": "bytes4",
          "name": "interfaceId",
          "type": "bytes4"
        }
      ],
      "name": "supportsInterface",
      "outputs": [
        {
          "internalType": "bool",
          "name": "",
          "type": "bool"
        }
      ],
      "stateMutability": "view",
      "type": "function"
    },
    {
      "inputs": [],
      "name": "symbol",
      "outputs": [
        {
          "internalType": "string",
          "name": "",
          "type": "string"
        }
      ],
      "stateMutability": "view",
      "type": "function"
    },
    {
      "inputs": [],
      "name": "tokenPrice",
      "outputs": [
        {
          "internalType": "uint256",
          "name": "",
          "type": "uint256"
        }
      ],
      "stateMutability": "view",
      "type": "function"
    },
    {
      "inputs": [],
      "name": "totalAssets",
      "outputs": [
        {
          "internalType": "uint256",
          "name": "",
          "type": "uint256"
        }
      ],
      "stateMutability": "view",
      "type": "function"
    },
    {
      "inputs": [],
      "name": "totalSupply",
      "outputs": [
        {
          "internalType": "uint256",
          "name": "",
          "type": "uint256"
        }
      ],
      "stateMutability": "view",
      "type": "function"
    },
    {
      "inputs": [
        {
          "internalType": "address",
          "name": "to",
          "type": "address"
        },
        {
          "internalType": "uint256",
          "name": "amount",
          "type": "uint256"
        }
      ],
      "name": "transfer",
      "outputs": [
        {
          "internalType": "bool",
          "name": "",
          "type": "bool"
        }
      ],
      "stateMutability": "nonpayable",
      "type": "function"
    },
    {
      "inputs": [
        {
          "internalType": "address",
          "name": "from",
          "type": "address"
        },
        {
          "internalType": "address",
          "name": "to",
          "type": "address"
        },
        {
          "internalType": "uint256",
          "name": "amount",
          "type": "uint256"
        }
      ],
      "name": "transferFrom",
      "outputs": [
        {
          "internalType": "bool",
          "name": "",
          "type": "bool"
        }
      ],
      "stateMutability": "nonpayable",
      "type": "function"
    },
    {
      "inputs": [],
      "name": "treasury",
      "outputs": [
        {
          "internalType": "address",
          "name": "",
          "type": "address"
        }
      ],
      "stateMutability": "view",
      "type": "function"
    },
    {
      "inputs": [],
      "name": "unpause",
      "outputs": [],
      "stateMutability": "nonpayable",
      "type": "function"
    },
    {
      "inputs": [],
      "name": "vaultURI",
      "outputs": [
        {
          "internalType": "string",
          "name": "",
          "type": "string"
        }
      ],
      "stateMutability": "view",
      "type": "function"
    },
    {
      "inputs": [
        {
          "internalType": "uint256",
          "name": "assets",
          "type": "uint256"
        },
        {
          "internalType": "address",
          "name": "receiver",
          "type": "address"
        },
        {
          "internalType": "address",
          "name": "owner",
          "type": "address"
        }
      ],
      "name": "withdraw",
      "outputs": [
        {
          "internalType": "uint256",
          "name": "shares",
          "type": "uint256"
        }
      ],
      "stateMutability": "nonpayable",
      "type": "function"
    }
  ],
  "bytecode": {
    "object": "0x60806040523480156200001157600080fd5b50600054610100900460ff1615808015620000335750600054600160ff909116105b8062000063575062000050306200013d60201b62001bfb1760201c565b15801562000063575060005460ff166001145b620000cb5760405162461bcd60e51b815260206004820152602e60248201527f496e697469616c697a61626c653a20636f6e747261637420697320616c72656160448201526d191e481a5b9a5d1a585b1a5e995960921b606482015260840160405180910390fd5b6000805460ff191660011790558015620000ef576000805461ff0019166101001790555b801562000136576000805461ff0019169055604051600181527f7f26b83ff96e1f2b6a682f133852f6798a09c465da95921460cefb38474024989060200160405180910390a15b506200014c565b6001600160a01b03163b151590565b613faf806200015c6000396000f3fe608060405234801561001057600080fd5b506004361061041d5760003560e01c806381d5a8c11161022b578063ba08765211610130578063d905777e116100b8578063e35d33f611610087578063e35d33f61461074b578063ef8b30f7146107fb578063f0f442601461089b578063f5420374146108ae578063fb86a404146108c157600080fd5b8063d905777e1461084f578063dd62ed3e14610862578063dfd5473c14610875578063e0f41f3a1461088857600080fd5b8063c6e6f592116100ff578063c6e6f592146107fb578063ca15c8731461080e578063ce96cb7714610821578063d406008d14610834578063d547741f1461083c57600080fd5b8063ba087652146107c0578063bb659cde146107d3578063c1eb5ddd146107e6578063c63d75b6146105ef57600080fd5b806394bf804d116101b3578063a340cf7911610182578063a340cf7914610753578063a457c2d714610774578063a9059cbb14610787578063b3d7f6b91461079a578063b460af94146107ad57600080fd5b806394bf804d1461065257806395d89b411461072e5780639e5288a014610736578063a217fddf1461074b57600080fd5b80638cd51106116101fa5780638cd51106146106e15780638e95bab2146106f45780639010d07c146106fe578063906a26e01461071157806391d148541461071b57600080fd5b806381d5a8c1146106b257806382e5310c146106bc57806384061853146106c65780638456cb59146106d957600080fd5b806336568abe116103315780635c975abb116102b95780636e553f65116102885780636e553f651461065257806370a082311461066557806376a24f25146106785780637aadef8b146106815780637ff9b596146106a857600080fd5b80635c975abb146106165780635cb5e41d146106225780635dc5eaf31461063657806361d027b31461063e57600080fd5b80633f4ba83a116103005780633f4ba83a146105e7578063402d267d146105ef5780634aea1bf8146106025780634cdad5061461048a5780634f2bef3e1461060c57600080fd5b806336568abe146105895780633670e7b11461059c57806338d52e0f146105af57806339509351146105d457600080fd5b806318160ddd116103b457806323b872dd1161038357806323b872dd14610519578063248a9ca31461052c57806329d297991461054f5780632f2ff15d14610557578063313ce5671461056a57600080fd5b806318160ddd146104d85780631a28bc6e146104e0578063212bf316146104f3578063224348361461050657600080fd5b806307a2d13a116103f057806307a2d13a1461048a578063095ea7b31461049d5780630a28a477146104b057806312f53950146104c357600080fd5b8063014b3aae1461042257806301e1d1141461043757806301ffc9a71461045257806306fdde0314610475575b600080fd5b61043561043036600461373f565b6108cb565b005b61043f6109b5565b6040519081526020015b60405180910390f35b610465610460366004613761565b610a27565b6040519015158152602001610449565b61047d610a52565b60405161044991906137b7565b61043f6104983660046137ea565b610ae4565b6104656104ab366004613828565b610af1565b61043f6104be3660046137ea565b610b09565b6101935461046590600160a01b900460ff1681565b60355461043f565b6104356104ee36600461373f565b610b16565b61043561050136600461373f565b610bd3565b61043561051436600461373f565b610c5f565b610465610527366004613854565b610d25565b61043f61053a3660046137ea565b600090815260c9602052604090206001015490565b61043f610d4b565b610435610565366004613895565b610e15565b606554600160a01b900460ff1660405160ff9091168152602001610449565b610435610597366004613895565b610e3f565b6104356105aa3660046138d3565b610eb9565b6065546001600160a01b03165b6040516001600160a01b039091168152602001610449565b6104656105e2366004613828565b610ef0565b610435610f12565b61043f6105fd3660046138f0565b610f28565b61043f6101975481565b61043f6101955481565b61015f5460ff16610465565b610192546105bc906001600160a01b031681565b61047d610f60565b610193546105bc906001600160a01b031681565b61043f610660366004613895565b610fef565b61043f6106733660046138f0565b611019565b6101915461043f565b61043f7faefebe170cbaff0af052a32795af0e1b8afff9850f946ad2869be14f3553437181565b61043f61019a5481565b61043f6101945481565b61043f6101965481565b61043f6106d43660046137ea565b611034565b61043561104e565b6104356106ef3660046139b0565b61106e565b61043f61019b5481565b6105bc61070c36600461373f565b6113d7565b61043f6101985481565b610465610729366004613895565b6113ef565b61047d61141a565b61073e611429565b6040516104499190613ae1565b61043f600081565b61043f6107613660046138f0565b61019d6020526000908152604090205481565b610465610782366004613828565b61147f565b610465610795366004613828565b611505565b61043f6107a83660046137ea565b611513565b61043f6107bb366004613aef565b611520565b61043f6107ce366004613aef565b611672565b6104356107e13660046137ea565b611789565b61043f600080516020613f5a83398151915281565b61043f6108093660046137ea565b61188e565b61043f61081c3660046137ea565b61189b565b61043f61082f3660046138f0565b6118b2565b61043f6118e9565b61043561084a366004613895565b611952565b61043f61085d3660046138f0565b611977565b61043f610870366004613b31565b6119ab565b610435610883366004613b5f565b6119d6565b61043f6108963660046138f0565b611a53565b6104356108a93660046138f0565b611a93565b6104356108bc3660046138f0565b611b40565b61043f6101995481565b600082116109135760405162461bcd60e51b815260206004820152601060248201526f0206361706974616c20657175616c20360841b60448201526064015b60405180910390fd5b81600003610937576040516375403cf360e01b81526001600482015260240161090a565b610193546001600160a01b0316336001600160a01b03161461097a57335b604051634ab6cb6760e11b81526001600160a01b03909116600482015260240161090a565b6109848282611c0a565b6109b133306109938486613be7565b6065546001600160a01b03165b6001600160a01b0316929190611e04565b5050565b6065546040516370a0823160e01b81523060048201526000916001600160a01b0316906370a0823190602401602060405180830381865afa1580156109fe573d6000803e3d6000fd5b505050506040513d601f19601f82011682018060405250810190610a229190613bff565b905090565b60006001600160e01b03198216635a05180f60e01b1480610a4c5750610a4c82611e6f565b92915050565b606060368054610a6190613c18565b80601f0160208091040260200160405190810160405280929190818152602001828054610a8d90613c18565b8015610ada5780601f10610aaf57610100808354040283529160200191610ada565b820191906000526020600020905b815481529060010190602001808311610abd57829003601f168201915b5050505050905090565b6000610a4c826000611ea4565b600033610aff818585611ec8565b5060019392505050565b6000610a4c826001611fec565b600080516020613f5a833981519152610b2e81612010565b6101985480831115610b5d5760405163010a45ab60e21b8152600481018290526024810184905260440161090a565b828410610b875760405163010a45ab60e21b8152600481018290526024810185905260440161090a565b61019683905561019784905560408051858152602081018590527fc1334bdad07f8ec615b6f3be399c07a4a7de4291e93602336976665f8cf4b67991015b60405180910390a150505050565b600080516020613f5a833981519152610beb81612010565b821580610bf757508183115b15610c1557604051630c5af70760e11b815260040160405180910390fd5b61019883905561019982905560408051848152602081018490527ffa35f2d22b9a5eb6bed3254e60910f91291653a71679c8cbb1f00d24551a45c4910160405180910390a1505050565b600080516020613f5a833981519152610c7781612010565b6000610c81611429565b90506002816004811115610c9757610c97613aa9565b1115610cb857806040516336100b6760e11b815260040161090a9190613ae1565b82841180610cc557504284105b15610ce3576040516335c4a3b960e11b815260040160405180910390fd5b61019484905561019583905560408051858152602081018590527f8f8d0d2155084c34c7e189b664aa128aebfd57e564d2d01c82a148d3da3a3bbc9101610bc5565b600033610d3385828561201a565b610d3e85858561208e565b60019150505b9392505050565b61019e5460009060ff1615610da25760405162461bcd60e51b815260206004820152601960248201527f4361706974616c20616c726561647920636f6c6c656374656400000000000000604482015260640161090a565b610193546001600160a01b0316338114610dbc5733610955565b610dc66002612239565b61019e805460ff191660011790556040519092507fcd44c06e81c4f40db53746db76839e7106609855a483a8e72a05877dc3ea225c90610e099084815260200190565b60405180910390a15090565b600082815260c96020526040902060010154610e3081612010565b610e3a8383612351565b505050565b6001600160a01b0381163314610eaf5760405162461bcd60e51b815260206004820152602f60248201527f416363657373436f6e74726f6c3a2063616e206f6e6c792072656e6f756e636560448201526e103937b632b9903337b91039b2b63360891b606482015260840161090a565b6109b18282612373565b6000610ec481612010565b81610ee5576040516375403cf360e01b81526000600482015260240161090a565b6109b1600080611c0a565b600033610aff818585610f0383836119ab565b610f0d9190613be7565b611ec8565b6000610f1d81612010565b610f25612395565b50565b60006001610f34611429565b6004811115610f4557610f45613aa9565b03610f5857610f53826123e8565b610a4c565b600092915050565b61019c8054610f6e90613c18565b80601f0160208091040260200160405190810160405280929190818152602001828054610f9a90613c18565b8015610fe75780601f10610fbc57610100808354040283529160200191610fe7565b820191906000526020600020905b815481529060010190602001808311610fca57829003601f168201915b505050505081565b6000610ff961246b565b6110016124c6565b61100c83338461250f565b9050610a4c600161012d55565b6001600160a01b031660009081526033602052604090205490565b6000610a4c6101915461104660355490565b849190612726565b600080516020613f5a83398151915261106681612010565b610f256127d5565b600054610100900460ff161580801561108e5750600054600160ff909116105b806110a85750303b1580156110a8575060005460ff166001145b61110b5760405162461bcd60e51b815260206004820152602e60248201527f496e697469616c697a61626c653a20636f6e747261637420697320616c72656160448201526d191e481a5b9a5d1a585b1a5e995960921b606482015260840161090a565b6000805460ff19166001179055801561112e576000805461ff0019166101001790555b611136612813565b61113f8c612842565b6111498b8b612872565b6111516128a3565b856001600160a01b031663fe60d26b6040518163ffffffff1660e01b8152600401602060405180830381865afa15801561118f573d6000803e3d6000fd5b505050506040513d601f19601f820116820180604052508101906111b39190613c52565b6111d0576040516381867da560e01b815260040160405180910390fd5b60008c6001600160a01b031663313ce5676040518163ffffffff1660e01b8152600401602060405180830381865afa158015611210573d6000803e3d6000fd5b505050506040513d601f19601f820116820180604052508101906112349190613c6f565b60ff1690508060121415801561124b575080600614155b1561127a576040516315f3703160e31b815260126004820152600660248201526044810182905260640161090a565b876001600160a01b03163b6000036112b057604051634ab6cb6760e11b81526001600160a01b038916600482015260240161090a565b60006112bd82600a613d76565b90506112ca60008b612351565b6112e2600080516020613f5a8339815191528b612351565b6112fa600080516020613f5a83398151915233612351565b8a5161130e9061019c9060208e0190613632565b5061019887905561019986905561019485905561019584905561019380546001600160a01b03808c166001600160a01b0319928316179092556101928054928b1692909116919091179055611364600388613d98565b61019655611374816101f4613dba565b6101975561019a819055610191555080156113c9576000805461ff0019169055604051600181527f7f26b83ff96e1f2b6a682f133852f6798a09c465da95921460cefb38474024989060200160405180910390a15b505050505050505050505050565b600082815260fb60205260408120610d4490836128d2565b600091825260c9602090815260408084206001600160a01b0393909316845291905290205460ff1690565b606060378054610a6190613c18565b60006101945442101561143c5750600090565b6101955442101561144d5750600190565b6101985461019b5410156114615750600390565b61019354600160a01b900460ff166114795750600290565b50600490565b6000338161148d82866119ab565b9050838110156114ed5760405162461bcd60e51b815260206004820152602560248201527f45524332303a2064656372656173656420616c6c6f77616e63652062656c6f77604482015264207a65726f60d81b606482015260840161090a565b6114fa8286868403611ec8565b506001949350505050565b600033610aff81858561208e565b6000610a4c826001611ea4565b600061152a61246b565b6115326124c6565b600061153c611429565b905061154785610b09565b91506000600282600481111561155f5761155f613aa9565b1461157c5761157761157085611019565b6000611ea4565b611585565b611585846128de565b9050808611156115d75760405162461bcd60e51b815260206004820152601f60248201527f455243343632363a207769746864726177206d6f7265207468616e206d617800604482015260640161090a565b6115e4338686898761291d565b60018260048111156115f8576115f8613aa9565b11611665578561019b60008282546116109190613dd9565b90915550506001600160a01b038416600090815261019d602052604090205480871015611646576116418782613dd9565b611649565b60005b6001600160a01b038616600090815261019d6020526040902055505b5050610d44600161012d55565b600061167c61246b565b6116846124c6565b600061168e611429565b9050600060028260048111156116a6576116a6613aa9565b146116b9576116b484611019565b6116c2565b6116c2846129c9565b9050808611156117145760405162461bcd60e51b815260206004820152601d60248201527f455243343632363a2072656465656d206d6f7265207468616e206d6178000000604482015260640161090a565b61171d86610ae4565b925061172c338686868a61291d565b600182600481111561174057611740613aa9565b11611665578261019b60008282546117589190613dd9565b90915550506001600160a01b038416600090815261019d602052604090205480841015611646576116418482613dd9565b610193546001600160a01b0316336001600160a01b0316146117ab5733610955565b60006117b5611429565b905060028160048111156117cb576117cb613aa9565b146117eb57806040516336100b6760e11b815260040161090a9190613ae1565b6118033330846109a06065546001600160a01b031690565b61019a54600061181284611034565b61181c9083613be7565b61019a8190556040518581529091507f8a335823c2fa2c1e28bd8d65eb9cbe0194f76293b1626a460597adc993d606cd9060200160405180910390a160408051838152602081018390527f945c1c4e99aa89f648fbfe3df471b916f719e16d960fcec0737d4d56bd6968389101610bc5565b6000610a4c826000611fec565b600081815260fb60205260408120610a4c90612a00565b600060026118be611429565b60048111156118cf576118cf613aa9565b036118dd57610f53826128de565b610a4c61157083611019565b60007faefebe170cbaff0af052a32795af0e1b8afff9850f946ad2869be14f3553437161191581612010565b61191f6004612239565b91507fb4192707c71da259814532b3eb648e78c9d78d6a3b9234baed7a183808f8c54c82604051610e0991815260200190565b600082815260c9602052604090206001015461196d81612010565b610e3a8383612373565b60006002611983611429565b600481111561199457611994613aa9565b036119a257610f53826129c9565b610a4c82611019565b6001600160a01b03918216600090815260346020908152604080832093909416825291909152205490565b60006119e181612010565b6000829003611a075782826040516303c5d03760e01b815260040161090a929190613df0565b7f82b4c0c51f891b823eff0c623396a3d488ad9c5fa87eaf6536a5e30257cfe6248383604051611a38929190613df0565b60405180910390a1611a4d61019c84846136b6565b50505050565b6001600160a01b038116600090815261019d60205260408120546101975480821015611a8857611a838282613dd9565b611a8b565b60005b949350505050565b6000611a9e81612010565b816001600160a01b03163b600003611ad457604051634ab6cb6760e11b81526001600160a01b038316600482015260240161090a565b61019354604080516001600160a01b03928316815291841660208301527f4ab5be82436d353e61ca18726e984e561f5c1cc7c6d38b29d2553c790434705a910160405180910390a15061019380546001600160a01b0319166001600160a01b0392909216919091179055565b600080516020613f5a833981519152611b5881612010565b816001600160a01b031663fe60d26b6040518163ffffffff1660e01b8152600401602060405180830381865afa158015611b96573d6000803e3d6000fd5b505050506040513d601f19601f82011682018060405250810190611bba9190613c52565b611bd7576040516381867da560e01b815260040160405180910390fd5b5061019280546001600160a01b0319166001600160a01b0392909216919091179055565b6001600160a01b03163b151590565b6000611c14611429565b90506002816004811115611c2a57611c2a613aa9565b14611c4a57806040516336100b6760e11b815260040161090a9190613ae1565b61019b5480841084821480611c655750808015611c65575083155b611cc95760405162461bcd60e51b815260206004820152602f60248201527f57726f6e6720646973736f63696174696f6e206265747765656e20636170697460448201526e185b08185b99081a5b9d195c995cdd608a1b606482015260840161090a565b61019a546000611cdc6106d48789613be7565b61019a819055610193805460ff60a01b1916600160a01b17905560408051898152602081018790529192507f502833ea9eb26966767980111b75e4b8e013aeea7b9493478424afc7869399c4910160405180910390a18215611d88577f727586bb3240e37cfc23d9c04f5d2c8f8c85602f6be89e0a8698e1a5a4c891d08488611d658183613dd9565b6040805193845260208401929092529082015260600160405180910390a1611dc2565b8515611dc2576040518681527f8a335823c2fa2c1e28bd8d65eb9cbe0194f76293b1626a460597adc993d606cd9060200160405180910390a15b60408051838152602081018390527f945c1c4e99aa89f648fbfe3df471b916f719e16d960fcec0737d4d56bd696838910160405180910390a150505050505050565b6040516001600160a01b0380851660248301528316604482015260648101829052611a4d9085906323b872dd60e01b906084015b60408051601f198184030181529190526020810180516001600160e01b03166001600160e01b031990931692909217909152612a0a565b60006001600160e01b03198216637965db0b60e01b1480610a4c57506301ffc9a760e01b6001600160e01b0319831614610a4c565b6000808311611eb4576000610d44565b61019a5461019154610d4491859185612adc565b6001600160a01b038316611f2a5760405162461bcd60e51b8152602060048201526024808201527f45524332303a20617070726f76652066726f6d20746865207a65726f206164646044820152637265737360e01b606482015260840161090a565b6001600160a01b038216611f8b5760405162461bcd60e51b815260206004820152602260248201527f45524332303a20617070726f766520746f20746865207a65726f206164647265604482015261737360f01b606482015260840161090a565b6001600160a01b0383811660008181526034602090815260408083209487168084529482529182902085905590518481527f8c5be1e5ebec7d5bd14f71427d1e84f3dd0314c0f7b2291e5b200ac8c7c3b925910160405180910390a3505050565b6000808311611ffc576000610d44565b6101915461019a54610d4491859185612adc565b610f258133612b39565b600061202684846119ab565b90506000198114611a4d57818110156120815760405162461bcd60e51b815260206004820152601d60248201527f45524332303a20696e73756666696369656e7420616c6c6f77616e6365000000604482015260640161090a565b611a4d8484848403611ec8565b6001600160a01b0383166120f25760405162461bcd60e51b815260206004820152602560248201527f45524332303a207472616e736665722066726f6d20746865207a65726f206164604482015264647265737360d81b606482015260840161090a565b6001600160a01b0382166121545760405162461bcd60e51b815260206004820152602360248201527f45524332303a207472616e7366657220746f20746865207a65726f206164647260448201526265737360e81b606482015260840161090a565b6001600160a01b038316600090815260336020526040902054818110156121cc5760405162461bcd60e51b815260206004820152602660248201527f45524332303a207472616e7366657220616d6f756e7420657863656564732062604482015265616c616e636560d01b606482015260840161090a565b6001600160a01b0380851660008181526033602052604080822086860390559286168082529083902080548601905591517fddf252ad1be2c89b69c2b068fc378daa952ba7f163c4a11628f55a4df523b3ef9061222c9086815260200190565b60405180910390a3611a4d565b600080612244611429565b905082600481111561225857612258613aa9565b81600481111561226a5761226a613aa9565b1461228d5760048160405163567dfef960e01b815260040161090a929190613e1f565b60006122a16065546001600160a01b031690565b6040516370a0823160e01b81523060048201529091506001600160a01b038216906370a0823190602401602060405180830381865afa1580156122e8573d6000803e3d6000fd5b505050506040513d601f19601f8201168201806040525081019061230c9190613bff565b92508260000361232f57604051634a2ccc4360e01b815260040160405180910390fd5b6101935461234a906001600160a01b03838116911685612b92565b5050919050565b61235b8282612bc2565b600082815260fb60205260409020610e3a9082612c48565b61237d8282612c5d565b600082815260fb60205260409020610e3a9082612cc4565b61239d612cd9565b61015f805460ff191690557f5db9ee0a495bf2e6ff9c91a7834c1ba4fdd244a5e8aa4e537bd38aeae4b073aa335b6040516001600160a01b03909116815260200160405180910390a1565b6101995461019b546001600160a01b038316600090815261019d60205260408120549092919081831115806124205750806101965411155b1561243057506000949350505050565b600081610196546124419190613dd9565b9050600061244f8486613dd9565b905080821161245e5781612460565b805b979650505050505050565b600261012d54036124be5760405162461bcd60e51b815260206004820152601f60248201527f5265656e7472616e637947756172643a207265656e7472616e742063616c6c00604482015260640161090a565b600261012d55565b61015f5460ff161561250d5760405162461bcd60e51b815260206004820152601060248201526f14185d5cd8589b194e881c185d5cd95960821b604482015260640161090a565b565b61019254604051630808f3eb60e01b81526001600160a01b0384811660048301526000921690630808f3eb90602401602060405180830381865afa15801561255b573d6000803e3d6000fd5b505050506040513d601f19601f8201168201806040525081019061257f9190613c52565b6125a75760405163c8f9bd5960e01b81526001600160a01b038416600482015260240161090a565b6001600160a01b0382166125ce57604051631abcef9360e21b815260040160405180910390fd5b836000036125ef5760405163836843a560e01b815260040160405180910390fd5b60006125f9611429565b9050600181600481111561260f5761260f613aa9565b146126325760018160405163567dfef960e01b815260040161090a929190613e1f565b61263b846123e8565b85111561268a5760405162461bcd60e51b815260206004820152601e60248201527f455243343632363a206465706f736974206d6f7265207468616e206d61780000604482015260640161090a565b600061269585611a53565b9050808610156126c2576040516313ed593f60e11b8152600481018290526024810187905260440161090a565b6126ce85858889612d23565b8561019b60008282546126e19190613be7565b90915550506001600160a01b038516600090815261019d60205260408120805488929061270f908490613be7565b90915550959695505050505050565b600161012d55565b60008080600019858709858702925082811083820303915050806000036127605783828161275657612756613d82565b0492505050610d44565b80841161276c57600080fd5b60008486880960026001871981018816978890046003810283188082028403028082028403028082028403028082028403028082028403029081029092039091026000889003889004909101858311909403939093029303949094049190911702949350505050565b6127dd6124c6565b61015f805460ff191660011790557f62e78cea01bee320cd4e420270b5ea74000d11b0c9f74754ebdbfc544b05a2586123cb3390565b600054610100900460ff1661283a5760405162461bcd60e51b815260040161090a90613e3a565b61250d612da1565b600054610100900460ff166128695760405162461bcd60e51b815260040161090a90613e3a565b610f2581612dd5565b600054610100900460ff166128995760405162461bcd60e51b815260040161090a90613e3a565b6109b18282612e5a565b600054610100900460ff166128ca5760405162461bcd60e51b815260040161090a90613e3a565b61250d612ea8565b6000610d448383612ecf565b61019e5460009060ff166128f457506000919050565b600061290261157084611019565b9050600061290e6109b5565b9050808211610d445781611a8b565b826001600160a01b0316856001600160a01b0316146129415761294183868361201a565b61294b8382612ef9565b606554612962906001600160a01b03168584612b92565b826001600160a01b0316846001600160a01b0316866001600160a01b03167ffbde797d201c681b91056529119e0b02407c7bb96a4a2c75c01fc9667232c8db85856040516129ba929190918252602082015260400190565b60405180910390a45050505050565b61019e5460009060ff166129df57506000919050565b60006129ea83611019565b9050600061290e6129f96109b5565b6000611fec565b6000610a4c825490565b6000612a5f826040518060400160405280602081526020017f5361666545524332303a206c6f772d6c6576656c2063616c6c206661696c6564815250856001600160a01b031661302d9092919063ffffffff16565b805190915015610e3a5780806020019051810190612a7d9190613c52565b610e3a5760405162461bcd60e51b815260206004820152602a60248201527f5361666545524332303a204552433230206f7065726174696f6e20646964206e6044820152691bdd081cdd58d8d9595960b21b606482015260840161090a565b600080612aea868686612726565b90506001836002811115612b0057612b00613aa9565b148015612b1d575060008480612b1857612b18613d82565b868809115b15612b3057612b2d600182613be7565b90505b95945050505050565b612b4382826113ef565b6109b157612b508161303c565b612b5b83602061304e565b604051602001612b6c929190613e85565b60408051601f198184030181529082905262461bcd60e51b825261090a916004016137b7565b6040516001600160a01b038316602482015260448101829052610e3a90849063a9059cbb60e01b90606401611e38565b612bcc82826113ef565b6109b157600082815260c9602090815260408083206001600160a01b03851684529091529020805460ff19166001179055612c043390565b6001600160a01b0316816001600160a01b0316837f2f8788117e7eff1d82e926ec794901d17c78024a50270940304540a733656f0d60405160405180910390a45050565b6000610d44836001600160a01b0384166131ea565b612c6782826113ef565b156109b157600082815260c9602090815260408083206001600160a01b0385168085529252808320805460ff1916905551339285917ff6391f5c32d9c69d2a47ea670b442974b53935d1edc7fd64eb21e047a839171b9190a45050565b6000610d44836001600160a01b038416613239565b61015f5460ff1661250d5760405162461bcd60e51b815260206004820152601460248201527314185d5cd8589b194e881b9bdd081c185d5cd95960621b604482015260640161090a565b606554612d3b906001600160a01b0316853085611e04565b612d45838261332c565b826001600160a01b0316846001600160a01b03167fdcbc1c05240f31ff3ad067ef1ee35ce4997762752e3a095284754544f4c709d78484604051612d93929190918252602082015260400190565b60405180910390a350505050565b600054610100900460ff16612dc85760405162461bcd60e51b815260040161090a90613e3a565b61015f805460ff19169055565b600054610100900460ff16612dfc5760405162461bcd60e51b815260040161090a90613e3a565b600080612e08836133ed565b9150915081612e18576012612e1a565b805b606580546001600160a01b039095166001600160a01b031960ff93909316600160a01b02929092166001600160a81b031990951694909417179092555050565b600054610100900460ff16612e815760405162461bcd60e51b815260040161090a90613e3a565b8151612e94906036906020850190613632565b508051610e3a906037906020840190613632565b600054610100900460ff1661271e5760405162461bcd60e51b815260040161090a90613e3a565b6000826000018281548110612ee657612ee6613efa565b9060005260206000200154905092915050565b6001600160a01b038216612f595760405162461bcd60e51b815260206004820152602160248201527f45524332303a206275726e2066726f6d20746865207a65726f206164647265736044820152607360f81b606482015260840161090a565b6001600160a01b03821660009081526033602052604090205481811015612fcd5760405162461bcd60e51b815260206004820152602260248201527f45524332303a206275726e20616d6f756e7420657863656564732062616c616e604482015261636560f01b606482015260840161090a565b6001600160a01b03831660008181526033602090815260408083208686039055603580548790039055518581529192917fddf252ad1be2c89b69c2b068fc378daa952ba7f163c4a11628f55a4df523b3ef910160405180910390a3505050565b6060611a8b84846000856134c9565b6060610a4c6001600160a01b03831660145b6060600061305d836002613dba565b613068906002613be7565b67ffffffffffffffff8111156130805761308061390d565b6040519080825280601f01601f1916602001820160405280156130aa576020820181803683370190505b509050600360fc1b816000815181106130c5576130c5613efa565b60200101906001600160f81b031916908160001a905350600f60fb1b816001815181106130f4576130f4613efa565b60200101906001600160f81b031916908160001a9053506000613118846002613dba565b613123906001613be7565b90505b600181111561319b576f181899199a1a9b1b9c1cb0b131b232b360811b85600f166010811061315757613157613efa565b1a60f81b82828151811061316d5761316d613efa565b60200101906001600160f81b031916908160001a90535060049490941c9361319481613f10565b9050613126565b508315610d445760405162461bcd60e51b815260206004820181905260248201527f537472696e67733a20686578206c656e67746820696e73756666696369656e74604482015260640161090a565b600081815260018301602052604081205461323157508154600181810184556000848152602080822090930184905584548482528286019093526040902091909155610a4c565b506000610a4c565b6000818152600183016020526040812054801561332257600061325d600183613dd9565b855490915060009061327190600190613dd9565b90508181146132d657600086600001828154811061329157613291613efa565b90600052602060002001549050808760000184815481106132b4576132b4613efa565b6000918252602080832090910192909255918252600188019052604090208390555b85548690806132e7576132e7613f27565b600190038181906000526020600020016000905590558560010160008681526020019081526020016000206000905560019350505050610a4c565b6000915050610a4c565b6001600160a01b0382166133825760405162461bcd60e51b815260206004820152601f60248201527f45524332303a206d696e7420746f20746865207a65726f206164647265737300604482015260640161090a565b80603560008282546133949190613be7565b90915550506001600160a01b0382166000818152603360209081526040808320805486019055518481527fddf252ad1be2c89b69c2b068fc378daa952ba7f163c4a11628f55a4df523b3ef910160405180910390a35050565b60408051600481526024810182526020810180516001600160e01b031663313ce56760e01b17905290516000918291829182916001600160a01b0387169161343491613f3d565b600060405180830381855afa9150503d806000811461346f576040519150601f19603f3d011682016040523d82523d6000602084013e613474565b606091505b509150915081801561348857506020815110155b156134bc576000818060200190518101906134a39190613bff565b905060ff81116134ba576001969095509350505050565b505b5060009485945092505050565b60608247101561352a5760405162461bcd60e51b815260206004820152602660248201527f416464726573733a20696e73756666696369656e742062616c616e636520666f6044820152651c8818d85b1b60d21b606482015260840161090a565b600080866001600160a01b031685876040516135469190613f3d565b60006040518083038185875af1925050503d8060008114613583576040519150601f19603f3d011682016040523d82523d6000602084013e613588565b606091505b509150915061246087838387606083156136035782516000036135fc576001600160a01b0385163b6135fc5760405162461bcd60e51b815260206004820152601d60248201527f416464726573733a2063616c6c20746f206e6f6e2d636f6e7472616374000000604482015260640161090a565b5081611a8b565b611a8b83838151156136185781518083602001fd5b8060405162461bcd60e51b815260040161090a91906137b7565b82805461363e90613c18565b90600052602060002090601f01602090048101928261366057600085556136a6565b82601f1061367957805160ff19168380011785556136a6565b828001600101855582156136a6579182015b828111156136a657825182559160200191906001019061368b565b506136b292915061372a565b5090565b8280546136c290613c18565b90600052602060002090601f0160209004810192826136e457600085556136a6565b82601f106136fd5782800160ff198235161785556136a6565b828001600101855582156136a6579182015b828111156136a657823582559160200191906001019061370f565b5b808211156136b2576000815560010161372b565b6000806040838503121561375257600080fd5b50508035926020909101359150565b60006020828403121561377357600080fd5b81356001600160e01b031981168114610d4457600080fd5b60005b838110156137a657818101518382015260200161378e565b83811115611a4d5750506000910152565b60208152600082518060208401526137d681604085016020870161378b565b601f01601f19169190910160400192915050565b6000602082840312156137fc57600080fd5b5035919050565b6001600160a01b0381168114610f2557600080fd5b803561382381613803565b919050565b6000806040838503121561383b57600080fd5b823561384681613803565b946020939093013593505050565b60008060006060848603121561386957600080fd5b833561387481613803565b9250602084013561388481613803565b929592945050506040919091013590565b600080604083850312156138a857600080fd5b8235915060208301356138ba81613803565b809150509250929050565b8015158114610f2557600080fd5b6000602082840312156138e557600080fd5b8135610d44816138c5565b60006020828403121561390257600080fd5b8135610d4481613803565b634e487b7160e01b600052604160045260246000fd5b600082601f83011261393457600080fd5b813567ffffffffffffffff8082111561394f5761394f61390d565b604051601f8301601f19908116603f011681019082821181831017156139775761397761390d565b8160405283815286602085880101111561399057600080fd5b836020870160208301376000602085830101528094505050505092915050565b60008060008060008060008060008060006101608c8e0312156139d257600080fd5b6139db8c613818565b9a5067ffffffffffffffff8060208e013511156139f757600080fd5b613a078e60208f01358f01613923565b9a508060408e01351115613a1a57600080fd5b613a2a8e60408f01358f01613923565b99508060608e01351115613a3d57600080fd5b50613a4e8d60608e01358e01613923565b9750613a5c60808d01613818565b9650613a6a60a08d01613818565b9550613a7860c08d01613818565b945060e08c013593506101008c013592506101208c013591506101408c013590509295989b509295989b9093969950565b634e487b7160e01b600052602160045260246000fd5b60058110613add57634e487b7160e01b600052602160045260246000fd5b9052565b60208101610a4c8284613abf565b600080600060608486031215613b0457600080fd5b833592506020840135613b1681613803565b91506040840135613b2681613803565b809150509250925092565b60008060408385031215613b4457600080fd5b8235613b4f81613803565b915060208301356138ba81613803565b60008060208385031215613b7257600080fd5b823567ffffffffffffffff80821115613b8a57600080fd5b818501915085601f830112613b9e57600080fd5b813581811115613bad57600080fd5b866020828501011115613bbf57600080fd5b60209290920196919550909350505050565b634e487b7160e01b600052601160045260246000fd5b60008219821115613bfa57613bfa613bd1565b500190565b600060208284031215613c1157600080fd5b5051919050565b600181811c90821680613c2c57607f821691505b602082108103613c4c57634e487b7160e01b600052602260045260246000fd5b50919050565b600060208284031215613c6457600080fd5b8151610d44816138c5565b600060208284031215613c8157600080fd5b815160ff81168114610d4457600080fd5b600181815b80851115613ccd578160001904821115613cb357613cb3613bd1565b80851615613cc057918102915b93841c9390800290613c97565b509250929050565b600082613ce457506001610a4c565b81613cf157506000610a4c565b8160018114613d075760028114613d1157613d2d565b6001915050610a4c565b60ff841115613d2257613d22613bd1565b50506001821b610a4c565b5060208310610133831016604e8410600b8410161715613d50575081810a610a4c565b613d5a8383613c92565b8060001904821115613d6e57613d6e613bd1565b029392505050565b6000610d448383613cd5565b634e487b7160e01b600052601260045260246000fd5b600082613db557634e487b7160e01b600052601260045260246000fd5b500490565b6000816000190483118215151615613dd457613dd4613bd1565b500290565b600082821015613deb57613deb613bd1565b500390565b60208152816020820152818360408301376000818301604090810191909152601f909201601f19160101919050565b60408101613e2d8285613abf565b610d446020830184613abf565b6020808252602b908201527f496e697469616c697a61626c653a20636f6e7472616374206973206e6f74206960408201526a6e697469616c697a696e6760a81b606082015260800190565b7f416363657373436f6e74726f6c3a206163636f756e7420000000000000000000815260008351613ebd81601785016020880161378b565b7001034b99036b4b9b9b4b733903937b6329607d1b6017918401918201528351613eee81602884016020880161378b565b01602801949350505050565b634e487b7160e01b600052603260045260246000fd5b600081613f1f57613f1f613bd1565b506000190190565b634e487b7160e01b600052603160045260246000fd5b60008251613f4f81846020870161378b565b919091019291505056feb1e380c01db319c0153ea3bb4fbd0ab6639cc088e3bf8cd5319b128f33a2f9e8a2646970667358221220eca059439b42f05df467365fedc7f1d3dcf669879ac80c8d3ad9bb056ad82e4e64736f6c634300080e0033",
    "linkReferences": {}
  },
  "methodIdentifiers": {
    "DEFAULT_ADMIN_ROLE()": "a217fddf",
    "DEV()": "c1eb5ddd",
    "KONKRETE()": "e35d33f6",
    "TIMELOCK()": "7aadef8b",
    "allowance(address,address)": "dd62ed3e",
    "approve(address,uint256)": "095ea7b3",
    "asset()": "38d52e0f",
    "balanceOf(address)": "70a08231",
    "collectCapital()": "29d29799",
    "collectUnclaimedFunds()": "d406008d",
    "collectedCapital()": "8e95bab2",
    "convertToAssets(uint256)": "07a2d13a",
    "convertToShares(uint256)": "c6e6f592",
    "dataBase()": "5cb5e41d",
    "decimals()": "313ce567",
    "decreaseAllowance(address,uint256)": "a457c2d7",
    "deposit(uint256,address)": "6e553f65",
    "depositsStart()": "81d5a8c1",
    "depositsStop()": "4f2bef3e",
    "emptyCapitalBack(bool)": "3670e7b1",
    "getRoleAdmin(bytes32)": "248a9ca3",
    "getRoleMember(bytes32,uint256)": "9010d07c",
    "getRoleMemberCount(bytes32)": "ca15c873",
    "getStep()": "9e5288a0",
    "grantRole(bytes32,address)": "2f2ff15d",
    "hardCap()": "fb86a404",
    "hasRole(bytes32,address)": "91d14854",
    "increaseAllowance(address,uint256)": "39509351",
    "initialize(address,string,string,string,address,address,address,uint256,uint256,uint256,uint256)": "8cd51106",
    "maxDeposit(address)": "402d267d",
    "maxDepositPerUser()": "82e5310c",
    "maxMint(address)": "c63d75b6",
    "maxRedeem(address)": "d905777e",
    "maxWithdraw(address)": "ce96cb77",
    "minInvest(address)": "e0f41f3a",
    "minInvestPerUser()": "4aea1bf8",
    "mint(uint256,address)": "94bf804d",
    "name()": "06fdde03",
    "originalPrice()": "76a24f25",
    "paid(address)": "a340cf79",
    "pause()": "8456cb59",
    "paused()": "5c975abb",
    "previewDeposit(uint256)": "ef8b30f7",
    "previewMint(uint256)": "b3d7f6b9",
    "previewRedeem(uint256)": "4cdad506",
    "previewWithdraw(uint256)": "0a28a477",
    "priceImpact(uint256)": "84061853",
    "redeem(uint256,address,address)": "ba087652",
    "refundCapitalAndInterest(uint256,uint256)": "014b3aae",
    "refundInterest(uint256)": "bb659cde",
    "refunded()": "12f53950",
    "renounceRole(bytes32,address)": "36568abe",
    "revokeRole(bytes32,address)": "d547741f",
    "setCaps(uint256,uint256)": "212bf316",
    "setDatabase(address)": "f5420374",
    "setDepositLimitsPerUser(uint256,uint256)": "1a28bc6e",
    "setTimes(uint256,uint256)": "22434836",
    "setTreasury(address)": "f0f44260",
    "setVaultURI(string)": "dfd5473c",
    "softCap()": "906a26e0",
    "supportsInterface(bytes4)": "01ffc9a7",
    "symbol()": "95d89b41",
    "tokenPrice()": "7ff9b596",
    "totalAssets()": "01e1d114",
    "totalSupply()": "18160ddd",
    "transfer(address,uint256)": "a9059cbb",
    "transferFrom(address,address,uint256)": "23b872dd",
    "treasury()": "61d027b3",
    "unpause()": "3f4ba83a",
    "vaultURI()": "5dc5eaf3",
    "withdraw(uint256,address,address)": "b460af94"
  },
  "id": 3
}